{
  "contractName": "Actors",
  "abi": [
    {
      "inputs": [],
      "stateMutability": "nonpayable",
      "type": "constructor"
    },
    {
      "inputs": [
        {
          "internalType": "uint256",
          "name": "",
          "type": "uint256"
        }
      ],
      "name": "adminArray",
      "outputs": [
        {
          "internalType": "contract Admin",
          "name": "",
          "type": "address"
        }
      ],
      "stateMutability": "view",
      "type": "function",
      "constant": true
    },
    {
      "inputs": [
        {
          "internalType": "address",
          "name": "",
          "type": "address"
        }
      ],
      "name": "admins",
      "outputs": [
        {
          "internalType": "contract Admin",
          "name": "",
          "type": "address"
        }
      ],
      "stateMutability": "view",
      "type": "function",
      "constant": true
    },
    {
      "inputs": [
        {
          "internalType": "uint256",
          "name": "",
          "type": "uint256"
        }
      ],
      "name": "beneficiaries",
      "outputs": [
        {
          "internalType": "contract People",
          "name": "",
          "type": "address"
        }
      ],
      "stateMutability": "view",
      "type": "function",
      "constant": true
    },
    {
      "inputs": [
        {
          "internalType": "uint256",
          "name": "",
          "type": "uint256"
        }
      ],
      "name": "beneficiaryArray",
      "outputs": [
        {
          "internalType": "contract People",
          "name": "",
          "type": "address"
        }
      ],
      "stateMutability": "view",
      "type": "function",
      "constant": true
    },
    {
      "inputs": [
        {
          "internalType": "uint256",
          "name": "",
          "type": "uint256"
        }
      ],
      "name": "manufacturerArray",
      "outputs": [
        {
          "internalType": "contract Manufacturer",
          "name": "",
          "type": "address"
        }
      ],
      "stateMutability": "view",
      "type": "function",
      "constant": true
    },
    {
      "inputs": [
        {
          "internalType": "address",
          "name": "",
          "type": "address"
        }
      ],
      "name": "manufacturers",
      "outputs": [
        {
          "internalType": "contract Manufacturer",
          "name": "",
          "type": "address"
        }
      ],
      "stateMutability": "view",
      "type": "function",
      "constant": true
    },
    {
      "inputs": [],
      "name": "createManufacturer",
      "outputs": [],
      "stateMutability": "nonpayable",
      "type": "function"
    },
    {
      "inputs": [
        {
          "internalType": "uint256",
          "name": "_aadhar",
          "type": "uint256"
        }
      ],
      "name": "createBenefeciary",
      "outputs": [
        {
          "internalType": "address",
          "name": "",
          "type": "address"
        }
      ],
      "stateMutability": "nonpayable",
      "type": "function"
    },
    {
      "inputs": [],
      "name": "createAdmin",
      "outputs": [],
      "stateMutability": "nonpayable",
      "type": "function"
    },
    {
      "inputs": [
        {
          "internalType": "uint256",
          "name": "_vaccine",
          "type": "uint256"
        },
        {
          "internalType": "uint256",
          "name": "_qty",
          "type": "uint256"
        },
        {
          "internalType": "address",
          "name": "_manufacturer",
          "type": "address"
        }
      ],
      "name": "adminCreateOrder",
      "outputs": [],
      "stateMutability": "nonpayable",
      "type": "function"
    },
    {
      "inputs": [
        {
          "internalType": "uint256",
          "name": "_aadhar",
          "type": "uint256"
        }
      ],
      "name": "adminVaccinationDone",
      "outputs": [],
      "stateMutability": "nonpayable",
      "type": "function"
    },
    {
      "inputs": [
        {
          "internalType": "uint256",
          "name": "_aadhar",
          "type": "uint256"
        },
        {
          "internalType": "uint256",
          "name": "_vaccine",
          "type": "uint256"
        },
        {
          "internalType": "address",
          "name": "_admin",
          "type": "address"
        }
      ],
      "name": "beneficiaryFirstVaccine",
      "outputs": [],
      "stateMutability": "nonpayable",
      "type": "function"
    },
    {
      "inputs": [
        {
          "internalType": "uint256",
          "name": "_aadhar",
          "type": "uint256"
        },
        {
          "internalType": "address",
          "name": "_admin",
          "type": "address"
        }
      ],
      "name": "beneficiarySecondVaccine",
      "outputs": [],
      "stateMutability": "nonpayable",
      "type": "function"
    },
    {
      "inputs": [
        {
          "internalType": "uint256",
          "name": "_vaccine",
          "type": "uint256"
        },
        {
          "internalType": "uint256",
          "name": "_qty",
          "type": "uint256"
        }
      ],
      "name": "manufacturerAddStock",
      "outputs": [],
      "stateMutability": "nonpayable",
      "type": "function"
    },
    {
      "inputs": [
        {
          "internalType": "uint256",
          "name": "vac",
          "type": "uint256"
        },
        {
          "internalType": "uint256",
          "name": "qty",
          "type": "uint256"
        },
        {
          "internalType": "address",
          "name": "_admin",
          "type": "address"
        }
      ],
      "name": "manufacturerCreateDelivery",
      "outputs": [],
      "stateMutability": "nonpayable",
      "type": "function"
    },
    {
      "inputs": [],
      "name": "getAllAdmins",
      "outputs": [
        {
          "components": [
            {
              "internalType": "address",
              "name": "owner",
              "type": "address"
            },
            {
              "internalType": "uint256",
              "name": "center_no",
              "type": "uint256"
            },
            {
              "internalType": "uint256",
              "name": "available_a",
              "type": "uint256"
            },
            {
              "internalType": "uint256",
              "name": "available_b",
              "type": "uint256"
            },
            {
              "internalType": "uint256",
              "name": "available_c",
              "type": "uint256"
            },
            {
              "internalType": "uint256",
              "name": "available_d",
              "type": "uint256"
            }
          ],
          "internalType": "struct Actors.adminInfo[]",
          "name": "",
          "type": "tuple[]"
        }
      ],
      "stateMutability": "view",
      "type": "function",
      "constant": true
    }
  ],
  "bytecode": "0x608060405234801561001057600080fd5b50336000806101000a81548173ffffffffffffffffffffffffffffffffffffffff021916908373ffffffffffffffffffffffffffffffffffffffff160217905550614648806100606000396000f3fe608060405234801561001057600080fd5b50600436106101005760003560e01c8063963178ba11610097578063e92980c511610066578063e92980c5146102a7578063e9523c97146102b1578063ed7494ee146102cf578063efeb5e58146102ff57610100565b8063963178ba14610223578063973f61291461023f578063aa833e6c1461026f578063e8e7c0ad1461028b57610100565b806357d5b1c9116100d357806357d5b1c9146101b15780635adb0ec2146101cd5780636b5eb09c146101e957806382a9bcd21461021957610100565b80630a9890251461010557806313b1a82214610135578063339874d514610165578063429b62e514610181575b600080fd5b61011f600480360381019061011a91906113a5565b61032f565b60405161012c9190611451565b60405180910390f35b61014f600480360381019061014a91906113a5565b61036e565b60405161015c919061148d565b60405180910390f35b61017f600480360381019061017a91906114d4565b6104c9565b005b61019b60048036038101906101969190611527565b610618565b6040516101a89190611575565b60405180910390f35b6101cb60048036038101906101c69190611590565b61064b565b005b6101e760048036038101906101e291906114d4565b610825565b005b61020360048036038101906101fe9190611527565b61096d565b60405161021091906115f1565b60405180910390f35b6102216109a0565b005b61023d600480360381019061023891906113a5565b610b16565b005b610259600480360381019061025491906113a5565b610c8b565b6040516102669190611575565b60405180910390f35b610289600480360381019061028491906114d4565b610cca565b005b6102a560048036038101906102a0919061160c565b610e12565b005b6102af610f56565b005b6102b96110cc565b6040516102c69190611794565b60405180910390f35b6102e960048036038101906102e491906113a5565b611285565b6040516102f691906115f1565b60405180910390f35b610319600480360381019061031491906113a5565b6112c4565b6040516103269190611451565b60405180910390f35b6005818154811061033f57600080fd5b906000526020600020016000915054906101000a900473ffffffffffffffffffffffffffffffffffffffff1681565b600081600073ffffffffffffffffffffffffffffffffffffffff166002600083815260200190815260200160002060009054906101000a900473ffffffffffffffffffffffffffffffffffffffff1673ffffffffffffffffffffffffffffffffffffffff1614610413576040517f08c379a000000000000000000000000000000000000000000000000000000000815260040161040a90611813565b60405180910390fd5b60405161041f906112f7565b604051809103906000f08015801561043b573d6000803e3d6000fd5b506002600085815260200190815260200160002060006101000a81548173ffffffffffffffffffffffffffffffffffffffff021916908373ffffffffffffffffffffffffffffffffffffffff1602179055506002600084815260200190815260200160002060009054906101000a900473ffffffffffffffffffffffffffffffffffffffff16915050919050565b82600073ffffffffffffffffffffffffffffffffffffffff166002600083815260200190815260200160002060009054906101000a900473ffffffffffffffffffffffffffffffffffffffff1673ffffffffffffffffffffffffffffffffffffffff160361056c576040517f08c379a00000000000000000000000000000000000000000000000000000000081526004016105639061187f565b60405180910390fd5b60006002600086815260200190815260200160002060009054906101000a900473ffffffffffffffffffffffffffffffffffffffff1690508073ffffffffffffffffffffffffffffffffffffffff16631be1500a84866040518363ffffffff1660e01b81526004016105df9291906118ae565b600060405180830381600087803b1580156105f957600080fd5b505af115801561060d573d6000803e3d6000fd5b505050505050505050565b60016020528060005260406000206000915054906101000a900473ffffffffffffffffffffffffffffffffffffffff1681565b81600073ffffffffffffffffffffffffffffffffffffffff166002600083815260200190815260200160002060009054906101000a900473ffffffffffffffffffffffffffffffffffffffff1673ffffffffffffffffffffffffffffffffffffffff16036106ee576040517f08c379a00000000000000000000000000000000000000000000000000000000081526004016106e59061187f565b60405180910390fd5b60008054906101000a900473ffffffffffffffffffffffffffffffffffffffff1673ffffffffffffffffffffffffffffffffffffffff163373ffffffffffffffffffffffffffffffffffffffff161461077c576040517f08c379a000000000000000000000000000000000000000000000000000000000815260040161077390611923565b60405180910390fd5b60006002600085815260200190815260200160002060009054906101000a900473ffffffffffffffffffffffffffffffffffffffff1690508073ffffffffffffffffffffffffffffffffffffffff1663a3e06880846040518263ffffffff1660e01b81526004016107ed919061148d565b600060405180830381600087803b15801561080757600080fd5b505af115801561081b573d6000803e3d6000fd5b5050505050505050565b600073ffffffffffffffffffffffffffffffffffffffff16600360003373ffffffffffffffffffffffffffffffffffffffff1673ffffffffffffffffffffffffffffffffffffffff16815260200190815260200160002060009054906101000a900473ffffffffffffffffffffffffffffffffffffffff1673ffffffffffffffffffffffffffffffffffffffff16036108f3576040517f08c379a00000000000000000000000000000000000000000000000000000000081526004016108ea9061198f565b60405180910390fd5b60003390508073ffffffffffffffffffffffffffffffffffffffff166329e7ac458585856040518463ffffffff1660e01b8152600401610935939291906119af565b600060405180830381600087803b15801561094f57600080fd5b505af1158015610963573d6000803e3d6000fd5b5050505050505050565b60036020528060005260406000206000915054906101000a900473ffffffffffffffffffffffffffffffffffffffff1681565b600073ffffffffffffffffffffffffffffffffffffffff16600360003373ffffffffffffffffffffffffffffffffffffffff1673ffffffffffffffffffffffffffffffffffffffff16815260200190815260200160002060009054906101000a900473ffffffffffffffffffffffffffffffffffffffff1673ffffffffffffffffffffffffffffffffffffffff1614610a6e576040517f08c379a0000000000000000000000000000000000000000000000000000000008152600401610a6590611a32565b60405180910390fd5b604051610a7a90611304565b604051809103906000f080158015610a96573d6000803e3d6000fd5b50600360003373ffffffffffffffffffffffffffffffffffffffff1673ffffffffffffffffffffffffffffffffffffffff16815260200190815260200160002060006101000a81548173ffffffffffffffffffffffffffffffffffffffff021916908373ffffffffffffffffffffffffffffffffffffffff160217905550565b600073ffffffffffffffffffffffffffffffffffffffff16600160003373ffffffffffffffffffffffffffffffffffffffff1673ffffffffffffffffffffffffffffffffffffffff16815260200190815260200160002060009054906101000a900473ffffffffffffffffffffffffffffffffffffffff1673ffffffffffffffffffffffffffffffffffffffff1603610be4576040517f08c379a0000000000000000000000000000000000000000000000000000000008152600401610bdb9061198f565b60405180910390fd5b60003390508073ffffffffffffffffffffffffffffffffffffffff1663e3ef418b6002600085815260200190815260200160002060009054906101000a900473ffffffffffffffffffffffffffffffffffffffff166040518263ffffffff1660e01b8152600401610c55919061148d565b600060405180830381600087803b158015610c6f57600080fd5b505af1158015610c83573d6000803e3d6000fd5b505050505050565b60048181548110610c9b57600080fd5b906000526020600020016000915054906101000a900473ffffffffffffffffffffffffffffffffffffffff1681565b600073ffffffffffffffffffffffffffffffffffffffff16600160003373ffffffffffffffffffffffffffffffffffffffff1673ffffffffffffffffffffffffffffffffffffffff16815260200190815260200160002060009054906101000a900473ffffffffffffffffffffffffffffffffffffffff1673ffffffffffffffffffffffffffffffffffffffff1603610d98576040517f08c379a0000000000000000000000000000000000000000000000000000000008152600401610d8f9061198f565b60405180910390fd5b60003390508073ffffffffffffffffffffffffffffffffffffffff166311fc3b4e8585856040518463ffffffff1660e01b8152600401610dda939291906119af565b600060405180830381600087803b158015610df457600080fd5b505af1158015610e08573d6000803e3d6000fd5b5050505050505050565b600073ffffffffffffffffffffffffffffffffffffffff16600360003373ffffffffffffffffffffffffffffffffffffffff1673ffffffffffffffffffffffffffffffffffffffff16815260200190815260200160002060009054906101000a900473ffffffffffffffffffffffffffffffffffffffff1673ffffffffffffffffffffffffffffffffffffffff1603610ee0576040517f08c379a0000000000000000000000000000000000000000000000000000000008152600401610ed79061198f565b60405180910390fd5b60003390508073ffffffffffffffffffffffffffffffffffffffff1662262b6c84846040518363ffffffff1660e01b8152600401610f1f929190611a52565b600060405180830381600087803b158015610f3957600080fd5b505af1158015610f4d573d6000803e3d6000fd5b50505050505050565b600073ffffffffffffffffffffffffffffffffffffffff16600160003373ffffffffffffffffffffffffffffffffffffffff1673ffffffffffffffffffffffffffffffffffffffff16815260200190815260200160002060009054906101000a900473ffffffffffffffffffffffffffffffffffffffff1673ffffffffffffffffffffffffffffffffffffffff1614611024576040517f08c379a000000000000000000000000000000000000000000000000000000000815260040161101b90611a32565b60405180910390fd5b60405161103090611311565b604051809103906000f08015801561104c573d6000803e3d6000fd5b50600160003373ffffffffffffffffffffffffffffffffffffffff1673ffffffffffffffffffffffffffffffffffffffff16815260200190815260200160002060006101000a81548173ffffffffffffffffffffffffffffffffffffffff021916908373ffffffffffffffffffffffffffffffffffffffff160217905550565b6060600060048054905067ffffffffffffffff8111156110ef576110ee611a7b565b5b60405190808252806020026020018201604052801561112857816020015b61111561131e565b81526020019060019003908161110d5790505b50905060005b60048054905081101561127d576000806000806000806004878154811061115857611157611aaa565b5b9060005260206000200160009054906101000a900473ffffffffffffffffffffffffffffffffffffffff1673ffffffffffffffffffffffffffffffffffffffff16635a9b0b896040518163ffffffff1660e01b815260040160c060405180830381865afa1580156111cd573d6000803e3d6000fd5b505050506040513d601f19601f820116820180604052508101906111f19190611b03565b95509550955095509550955060006040518060c001604052808873ffffffffffffffffffffffffffffffffffffffff1681526020018781526020018681526020018581526020018481526020018381525090508089898151811061125857611257611aaa565b5b602002602001018190525050505050505050808061127590611bbf565b91505061112e565b508091505090565b6006818154811061129557600080fd5b906000526020600020016000915054906101000a900473ffffffffffffffffffffffffffffffffffffffff1681565b60026020528060005260406000206000915054906101000a900473ffffffffffffffffffffffffffffffffffffffff1681565b6107a080611c0883390190565b6111d1806123a883390190565b61109a8061357983390190565b6040518060c00160405280600073ffffffffffffffffffffffffffffffffffffffff16815260200160008152602001600081526020016000815260200160008152602001600081525090565b600080fd5b6000819050919050565b6113828161136f565b811461138d57600080fd5b50565b60008135905061139f81611379565b92915050565b6000602082840312156113bb576113ba61136a565b5b60006113c984828501611390565b91505092915050565b600073ffffffffffffffffffffffffffffffffffffffff82169050919050565b6000819050919050565b600061141761141261140d846113d2565b6113f2565b6113d2565b9050919050565b6000611429826113fc565b9050919050565b600061143b8261141e565b9050919050565b61144b81611430565b82525050565b60006020820190506114666000830184611442565b92915050565b6000611477826113d2565b9050919050565b6114878161146c565b82525050565b60006020820190506114a2600083018461147e565b92915050565b6114b18161146c565b81146114bc57600080fd5b50565b6000813590506114ce816114a8565b92915050565b6000806000606084860312156114ed576114ec61136a565b5b60006114fb86828701611390565b935050602061150c86828701611390565b925050604061151d868287016114bf565b9150509250925092565b60006020828403121561153d5761153c61136a565b5b600061154b848285016114bf565b91505092915050565b600061155f8261141e565b9050919050565b61156f81611554565b82525050565b600060208201905061158a6000830184611566565b92915050565b600080604083850312156115a7576115a661136a565b5b60006115b585828601611390565b92505060206115c6858286016114bf565b9150509250929050565b60006115db8261141e565b9050919050565b6115eb816115d0565b82525050565b600060208201905061160660008301846115e2565b92915050565b600080604083850312156116235761162261136a565b5b600061163185828601611390565b925050602061164285828601611390565b9150509250929050565b600081519050919050565b600082825260208201905092915050565b6000819050602082019050919050565b6116818161146c565b82525050565b6116908161136f565b82525050565b60c0820160008201516116ac6000850182611678565b5060208201516116bf6020850182611687565b5060408201516116d26040850182611687565b5060608201516116e56060850182611687565b5060808201516116f86080850182611687565b5060a082015161170b60a0850182611687565b50505050565b600061171d8383611696565b60c08301905092915050565b6000602082019050919050565b60006117418261164c565b61174b8185611657565b935061175683611668565b8060005b8381101561178757815161176e8882611711565b975061177983611729565b92505060018101905061175a565b5085935050505092915050565b600060208201905081810360008301526117ae8184611736565b905092915050565b600082825260208201905092915050565b7f416c726561647920612062656e65666963696172790000000000000000000000600082015250565b60006117fd6015836117b6565b9150611808826117c7565b602082019050919050565b6000602082019050818103600083015261182c816117f0565b9050919050565b7f4e6f7420612062656e6566696369617279000000000000000000000000000000600082015250565b60006118696011836117b6565b915061187482611833565b602082019050919050565b600060208201905081810360008301526118988161185c565b9050919050565b6118a88161136f565b82525050565b60006040820190506118c3600083018561147e565b6118d0602083018461189f565b9392505050565b7f4e6f7420746865204f6e77657200000000000000000000000000000000000000600082015250565b600061190d600d836117b6565b9150611918826118d7565b602082019050919050565b6000602082019050818103600083015261193c81611900565b9050919050565b7f4e6f742061206d616e7566616374757265720000000000000000000000000000600082015250565b60006119796012836117b6565b915061198482611943565b602082019050919050565b600060208201905081810360008301526119a88161196c565b9050919050565b60006060820190506119c4600083018661189f565b6119d1602083018561189f565b6119de604083018461147e565b949350505050565b7f416c72656164792061206d616e756661637475726572206f722061646d696e00600082015250565b6000611a1c601f836117b6565b9150611a27826119e6565b602082019050919050565b60006020820190508181036000830152611a4b81611a0f565b9050919050565b6000604082019050611a67600083018561189f565b611a74602083018461189f565b9392505050565b7f4e487b7100000000000000000000000000000000000000000000000000000000600052604160045260246000fd5b7f4e487b7100000000000000000000000000000000000000000000000000000000600052603260045260246000fd5b600081519050611ae8816114a8565b92915050565b600081519050611afd81611379565b92915050565b60008060008060008060c08789031215611b2057611b1f61136a565b5b6000611b2e89828a01611ad9565b9650506020611b3f89828a01611aee565b9550506040611b5089828a01611aee565b9450506060611b6189828a01611aee565b9350506080611b7289828a01611aee565b92505060a0611b8389828a01611aee565b9150509295509295509295565b7f4e487b7100000000000000000000000000000000000000000000000000000000600052601160045260246000fd5b6000611bca8261136f565b91507fffffffffffffffffffffffffffffffffffffffffffffffffffffffffffffffff8203611bfc57611bfb611b90565b5b60018201905091905056fe6080604052600060025534801561001557600080fd5b50336000806101000a81548173ffffffffffffffffffffffffffffffffffffffff021916908373ffffffffffffffffffffffffffffffffffffffff16021790555061073b806100656000396000f3fe608060405234801561001057600080fd5b50600436106100935760003560e01c8063a3e0688011610066578063a3e06880146100f8578063a846118b14610114578063c2d4688514610132578063eb87047314610150578063f0ab19861461016e57610093565b80631be1500a1461009857806354c30984146100b457806368e7ad36146100d05780638da5cb5b146100da575b600080fd5b6100b260048036038101906100ad9190610442565b61018c565b005b6100ce60048036038101906100c99190610482565b610268565b005b6100d8610272565b005b6100e261028c565b6040516100ef91906104be565b60405180910390f35b610112600480360381019061010d91906104d9565b6102b0565b005b61011c610389565b6040516101299190610515565b60405180910390f35b61013a610393565b6040516101479190610515565b60405180910390f35b610158610399565b6040516101659190610515565b60405180910390f35b6101766103a3565b6040516101839190610515565b60405180910390f35b6000600254146101d1576040517f08c379a00000000000000000000000000000000000000000000000000000000081526004016101c8906105b3565b60405180910390fd5b60008290508073ffffffffffffffffffffffffffffffffffffffff1663fefd0e0b60008054906101000a900473ffffffffffffffffffffffffffffffffffffffff16846040518363ffffffff1660e01b81526004016102319291906105d3565b600060405180830381600087803b15801561024b57600080fd5b505af115801561025f573d6000803e3d6000fd5b50505050505050565b8060018190555050565b600260008154809291906102859061062b565b9190505550565b60008054906101000a900473ffffffffffffffffffffffffffffffffffffffff1681565b6001600254146102f5576040517f08c379a00000000000000000000000000000000000000000000000000000000081526004016102ec906106e5565b60405180910390fd5b60008190508073ffffffffffffffffffffffffffffffffffffffff16636730a63d60008054906101000a900473ffffffffffffffffffffffffffffffffffffffff166040518263ffffffff1660e01b815260040161035391906104be565b600060405180830381600087803b15801561036d57600080fd5b505af1158015610381573d6000803e3d6000fd5b505050505050565b6000600154905090565b60015481565b6000600254905090565b60025481565b600080fd5b600073ffffffffffffffffffffffffffffffffffffffff82169050919050565b60006103d9826103ae565b9050919050565b6103e9816103ce565b81146103f457600080fd5b50565b600081359050610406816103e0565b92915050565b6000819050919050565b61041f8161040c565b811461042a57600080fd5b50565b60008135905061043c81610416565b92915050565b60008060408385031215610459576104586103a9565b5b6000610467858286016103f7565b92505060206104788582860161042d565b9150509250929050565b600060208284031215610498576104976103a9565b5b60006104a68482850161042d565b91505092915050565b6104b8816103ce565b82525050565b60006020820190506104d360008301846104af565b92915050565b6000602082840312156104ef576104ee6103a9565b5b60006104fd848285016103f7565b91505092915050565b61050f8161040c565b82525050565b600060208201905061052a6000830184610506565b92915050565b600082825260208201905092915050565b7f546869732062656e65666963696172792068617320616c72656164792068617660008201527f652069747320666972737420646f7365206f662076616363696e650000000000602082015250565b600061059d603b83610530565b91506105a882610541565b604082019050919050565b600060208201905081810360008301526105cc81610590565b9050919050565b60006040820190506105e860008301856104af565b6105f56020830184610506565b9392505050565b7f4e487b7100000000000000000000000000000000000000000000000000000000600052601160045260246000fd5b60006106368261040c565b91507fffffffffffffffffffffffffffffffffffffffffffffffffffffffffffffffff8203610668576106676105fc565b5b600182019050919050565b7f546869732062656e656669636961727920686173206e6f74206861766520697460008201527f7320666972737420646f7365206f662076616363696e65000000000000000000602082015250565b60006106cf603783610530565b91506106da82610673565b604082019050919050565b600060208201905081810360008301526106fe816106c2565b905091905056fea264697066735822122055b2a87eec5571f7ccd6b3b2bf6bb9220d0bfeaae42ef7637ea9287bb277acee64736f6c634300080d0033608060405234801561001057600080fd5b50336000806101000a81548173ffffffffffffffffffffffffffffffffffffffff021916908373ffffffffffffffffffffffffffffffffffffffff160217905550611171806100606000396000f3fe6080604052600436106200004f5760003560e01c8062262b6c146200005457806329e7ac4514620000825780635fc50a2f14620000b05780638017b8d414620000d05780638da5cb5b14620000fe575b600080fd5b3480156200006157600080fd5b506200008060048036038101906200007a919062000588565b6200012e565b005b3480156200008f57600080fd5b50620000ae6004803603810190620000a8919062000634565b620001f2565b005b620000ce6004803603810190620000c8919062000634565b620003b0565b005b348015620000dd57600080fd5b50620000fc6004803603810190620000f6919062000690565b620004a8565b005b3480156200010b57600080fd5b506200011662000516565b604051620001259190620006fd565b60405180910390f35b60008054906101000a900473ffffffffffffffffffffffffffffffffffffffff1673ffffffffffffffffffffffffffffffffffffffff163373ffffffffffffffffffffffffffffffffffffffff1614620001bf576040517f08c379a0000000000000000000000000000000000000000000000000000000008152600401620001b6906200077b565b60405180910390fd5b80600260008481526020019081526020016000206001016000828254620001e79190620007cc565b925050819055505050565b81600160008373ffffffffffffffffffffffffffffffffffffffff1673ffffffffffffffffffffffffffffffffffffffff168152602001908152602001600020600085815260200190815260200160002054101562000288576040517f08c379a00000000000000000000000000000000000000000000000000000000081526004016200027f9062000879565b60405180910390fd5b81600160008373ffffffffffffffffffffffffffffffffffffffff1673ffffffffffffffffffffffffffffffffffffffff16815260200190815260200160002060008581526020019081526020016000206000828254620002ea91906200089b565b9250508190555060008060009054906101000a900473ffffffffffffffffffffffffffffffffffffffff1682858560405162000326906200053a565b620003359493929190620008e7565b604051809103906000f08015801562000352573d6000803e3d6000fd5b50905082600360008373ffffffffffffffffffffffffffffffffffffffff1673ffffffffffffffffffffffffffffffffffffffff16815260200190815260200160002060008681526020019081526020016000208190555050505050565b816002600085815260200190815260200160002060010154106200040b576040517f08c379a0000000000000000000000000000000000000000000000000000000008152600401620004029062000984565b60405180910390fd5b81600160008373ffffffffffffffffffffffffffffffffffffffff1673ffffffffffffffffffffffffffffffffffffffff168152602001908152602001600020600085815260200190815260200160002060008282546200046d9190620007cc565b92505081905550816002600085815260200190815260200160002060010160008282546200049c91906200089b565b92505081905550505050565b80600360008573ffffffffffffffffffffffffffffffffffffffff1673ffffffffffffffffffffffffffffffffffffffff168152602001908152602001600020600084815260200190815260200160002060008282546200050a91906200089b565b92505081905550505050565b60008054906101000a900473ffffffffffffffffffffffffffffffffffffffff1681565b61079580620009a783390190565b600080fd5b6000819050919050565b62000562816200054d565b81146200056e57600080fd5b50565b600081359050620005828162000557565b92915050565b60008060408385031215620005a257620005a162000548565b5b6000620005b28582860162000571565b9250506020620005c58582860162000571565b9150509250929050565b600073ffffffffffffffffffffffffffffffffffffffff82169050919050565b6000620005fc82620005cf565b9050919050565b6200060e81620005ef565b81146200061a57600080fd5b50565b6000813590506200062e8162000603565b92915050565b60008060006060848603121562000650576200064f62000548565b5b6000620006608682870162000571565b9350506020620006738682870162000571565b925050604062000686868287016200061d565b9150509250925092565b600080600060608486031215620006ac57620006ab62000548565b5b6000620006bc868287016200061d565b9350506020620006cf8682870162000571565b9250506040620006e28682870162000571565b9150509250925092565b620006f781620005ef565b82525050565b6000602082019050620007146000830184620006ec565b92915050565b600082825260208201905092915050565b7f596f7520617265206e6f7420746865206d616e75666163747572657200000000600082015250565b600062000763601c836200071a565b915062000770826200072b565b602082019050919050565b60006020820190508181036000830152620007968162000754565b9050919050565b7f4e487b7100000000000000000000000000000000000000000000000000000000600052601160045260246000fd5b6000620007d9826200054d565b9150620007e6836200054d565b9250827fffffffffffffffffffffffffffffffffffffffffffffffffffffffffffffffff038211156200081e576200081d6200079d565b5b828201905092915050565b7f4f7264657220706c61636564206973206c657373000000000000000000000000600082015250565b6000620008616014836200071a565b91506200086e8262000829565b602082019050919050565b60006020820190508181036000830152620008948162000852565b9050919050565b6000620008a8826200054d565b9150620008b5836200054d565b925082821015620008cb57620008ca6200079d565b5b828203905092915050565b620008e1816200054d565b82525050565b6000608082019050620008fe6000830187620006ec565b6200090d6020830186620006ec565b6200091c6040830185620008d6565b6200092b6060830184620008d6565b95945050505050565b7f496e73756666696369656e742053746f636b0000000000000000000000000000600082015250565b60006200096c6012836200071a565b9150620009798262000934565b602082019050919050565b600060208201905081810360008301526200099f816200095d565b905091905056fe60806040526001600660006101000a81548160ff02191690831515021790555034801561002b57600080fd5b50604051610795380380610795833981810160405281019061004d919061017e565b836000806101000a81548173ffffffffffffffffffffffffffffffffffffffff021916908373ffffffffffffffffffffffffffffffffffffffff16021790555082600160006101000a81548173ffffffffffffffffffffffffffffffffffffffff021916908373ffffffffffffffffffffffffffffffffffffffff1602179055508160028190555080600381905550505050506101e5565b600080fd5b600073ffffffffffffffffffffffffffffffffffffffff82169050919050565b6000610115826100ea565b9050919050565b6101258161010a565b811461013057600080fd5b50565b6000815190506101428161011c565b92915050565b6000819050919050565b61015b81610148565b811461016657600080fd5b50565b60008151905061017881610152565b92915050565b60008060008060808587031215610198576101976100e5565b5b60006101a687828801610133565b94505060206101b787828801610133565b93505060406101c887828801610169565b92505060606101d987828801610169565b91505092959194509250565b6105a1806101f46000396000f3fe608060405234801561001057600080fd5b50600436106100575760003560e01c806310272d131461005c578063258b43d7146100665780634acc3a8e1461008257806356dcb0221461008c578063aae8107b146100a8575b600080fd5b6100646100c4565b005b610080600480360381019061007b91906102c8565b610181565b005b61008a61018b565b005b6100a660048036038101906100a1919061043b565b6101b7565b005b6100c260048036038101906100bd91906102c8565b6101d1565b005b6000600160009054906101000a900473ffffffffffffffffffffffffffffffffffffffff1690508073ffffffffffffffffffffffffffffffffffffffff1663750a49cc60025460035460008054906101000a900473ffffffffffffffffffffffffffffffffffffffff166040518463ffffffff1660e01b815260040161014c939291906104d4565b600060405180830381600087803b15801561016657600080fd5b505af115801561017a573d6000803e3d6000fd5b5050505050565b8060078190555050565b600660009054906101000a900460ff1615600660006101000a81548160ff021916908315150217905550565b80600490805190602001906101cd9291906101db565b5050565b8060058190555050565b8280546101e79061053a565b90600052602060002090601f0160209004810192826102095760008555610250565b82601f1061022257805160ff1916838001178555610250565b82800160010185558215610250579182015b8281111561024f578251825591602001919060010190610234565b5b50905061025d9190610261565b5090565b5b8082111561027a576000816000905550600101610262565b5090565b6000604051905090565b600080fd5b600080fd5b6000819050919050565b6102a581610292565b81146102b057600080fd5b50565b6000813590506102c28161029c565b92915050565b6000602082840312156102de576102dd610288565b5b60006102ec848285016102b3565b91505092915050565b600080fd5b600080fd5b6000601f19601f8301169050919050565b7f4e487b7100000000000000000000000000000000000000000000000000000000600052604160045260246000fd5b610348826102ff565b810181811067ffffffffffffffff8211171561036757610366610310565b5b80604052505050565b600061037a61027e565b9050610386828261033f565b919050565b600067ffffffffffffffff8211156103a6576103a5610310565b5b6103af826102ff565b9050602081019050919050565b82818337600083830152505050565b60006103de6103d98461038b565b610370565b9050828152602081018484840111156103fa576103f96102fa565b5b6104058482856103bc565b509392505050565b600082601f830112610422576104216102f5565b5b81356104328482602086016103cb565b91505092915050565b60006020828403121561045157610450610288565b5b600082013567ffffffffffffffff81111561046f5761046e61028d565b5b61047b8482850161040d565b91505092915050565b61048d81610292565b82525050565b600073ffffffffffffffffffffffffffffffffffffffff82169050919050565b60006104be82610493565b9050919050565b6104ce816104b3565b82525050565b60006060820190506104e96000830186610484565b6104f66020830185610484565b61050360408301846104c5565b949350505050565b7f4e487b7100000000000000000000000000000000000000000000000000000000600052602260045260246000fd5b6000600282049050600182168061055257607f821691505b6020821081036105655761056461050b565b5b5091905056fea26469706673582212201abcfded4259f4f860e482c41bb41a5d7c00d561d6251c95bead986418281bad64736f6c634300080d0033a26469706673582212207e9eea8435827b6ba872da31d0794aa6b7a4f3d1cc4c296bca0a9ec752f1713264736f6c634300080d00336080604052600060055534801561001557600080fd5b50336000806101000a81548173ffffffffffffffffffffffffffffffffffffffff021916908373ffffffffffffffffffffffffffffffffffffffff160217905550611035806100656000396000f3fe608060405234801561001057600080fd5b506004361061009e5760003560e01c80636ee75c4e116100665780636ee75c4e1461015e578063750a49cc1461018e5780638da5cb5b146101aa578063e3ef418b146101c8578063fefd0e0b146101e45761009e565b806311fc3b4e146100a35780633867f1ec146100bf5780633c70d04a146100ef5780635a9b0b891461011f5780636730a63d14610142575b600080fd5b6100bd60048036038101906100b89190610af8565b610200565b005b6100d960048036038101906100d49190610b4b565b610301565b6040516100e69190610b87565b60405180910390f35b61010960048036038101906101049190610ba2565b610319565b6040516101169190610b87565b60405180910390f35b610127610331565b60405161013996959493929190610bde565b60405180910390f35b61015c60048036038101906101579190610b4b565b6103c6565b005b61017860048036038101906101739190610c3f565b61058f565b6040516101859190610b87565b60405180910390f35b6101a860048036038101906101a39190610af8565b6105b4565b005b6101b2610789565b6040516101bf9190610c7f565b60405180910390f35b6101e260048036038101906101dd9190610b4b565b6107ad565b005b6101fe60048036038101906101f99190610c3f565b61097c565b005b60008190508073ffffffffffffffffffffffffffffffffffffffff16635fc50a2f858560008054906101000a900473ffffffffffffffffffffffffffffffffffffffff166040518463ffffffff1660e01b815260040161026293929190610c9a565b600060405180830381600087803b15801561027c57600080fd5b505af1158015610290573d6000803e3d6000fd5b5050505082600360008473ffffffffffffffffffffffffffffffffffffffff1673ffffffffffffffffffffffffffffffffffffffff168152602001908152602001600020600086815260200190815260200160002060008282546102f49190610d00565b9250508190555050505050565b60046020528060005260406000206000915090505481565b60026020528060005260406000206000915090505481565b60008060008060008060008054906101000a900473ffffffffffffffffffffffffffffffffffffffff16600154600260006001815260200190815260200160002054600260006002815260200190815260200160002054600260006003815260200190815260200160002054600260006004815260200190815260200160002054955095509550955095509550909192939495565b600081905060008173ffffffffffffffffffffffffffffffffffffffff1663eb8704736040518163ffffffff1660e01b8152600401602060405180830381865afa158015610418573d6000803e3d6000fd5b505050506040513d601f19601f8201168201806040525081019061043c9190610d6b565b1461047c576040517f08c379a000000000000000000000000000000000000000000000000000000000815260040161047390610e1b565b60405180910390fd5b60008173ffffffffffffffffffffffffffffffffffffffff1663a846118b6040518163ffffffff1660e01b8152600401602060405180830381865afa1580156104c9573d6000803e3d6000fd5b505050506040513d601f19601f820116820180604052508101906104ed9190610d6b565b90506000600260008381526020019081526020016000205411610545576040517f08c379a000000000000000000000000000000000000000000000000000000000815260040161053c90610e87565b60405180910390fd5b60016002600083815260200190815260200160002060008282546105699190610ea7565b925050819055506001600560008282546105839190610ea7565b92505081905550505050565b6003602052816000526040600020602052806000526040600020600091509150505481565b6000600360008373ffffffffffffffffffffffffffffffffffffffff1673ffffffffffffffffffffffffffffffffffffffff16815260200190815260200160002060008581526020019081526020016000205403610647576040517f08c379a000000000000000000000000000000000000000000000000000000000815260040161063e90610f4d565b60405180910390fd5b81600360008373ffffffffffffffffffffffffffffffffffffffff1673ffffffffffffffffffffffffffffffffffffffff16815260200190815260200160002060008581526020019081526020016000205410156106da576040517f08c379a00000000000000000000000000000000000000000000000000000000081526004016106d190610fdf565b60405180910390fd5b816002600085815260200190815260200160002060008282546106fd9190610d00565b9250508190555081600560008282546107169190610d00565b9250508190555081600360008373ffffffffffffffffffffffffffffffffffffffff1673ffffffffffffffffffffffffffffffffffffffff1681526020019081526020016000206000858152602001908152602001600020600082825461077d9190610ea7565b92505081905550505050565b60008054906101000a900473ffffffffffffffffffffffffffffffffffffffff1681565b60008190508073ffffffffffffffffffffffffffffffffffffffff166368e7ad366040518163ffffffff1660e01b8152600401600060405180830381600087803b1580156107fa57600080fd5b505af115801561080e573d6000803e3d6000fd5b5050505060018173ffffffffffffffffffffffffffffffffffffffff1663eb8704736040518163ffffffff1660e01b8152600401602060405180830381865afa15801561085f573d6000803e3d6000fd5b505050506040513d601f19601f820116820180604052508101906108839190610d6b565b03610933578073ffffffffffffffffffffffffffffffffffffffff166354c30984600460008573ffffffffffffffffffffffffffffffffffffffff1673ffffffffffffffffffffffffffffffffffffffff168152602001908152602001600020546040518263ffffffff1660e01b81526004016109009190610b87565b600060405180830381600087803b15801561091a57600080fd5b505af115801561092e573d6000803e3d6000fd5b505050505b6000600460008473ffffffffffffffffffffffffffffffffffffffff1673ffffffffffffffffffffffffffffffffffffffff168152602001908152602001600020819055505050565b60006002600083815260200190815260200160002054116109d2576040517f08c379a00000000000000000000000000000000000000000000000000000000081526004016109c990610e87565b60405180910390fd5b60016002600083815260200190815260200160002060008282546109f69190610ea7565b92505081905550600160056000828254610a109190610ea7565b9250508190555080600460008473ffffffffffffffffffffffffffffffffffffffff1673ffffffffffffffffffffffffffffffffffffffff168152602001908152602001600020819055505050565b600080fd5b6000819050919050565b610a7781610a64565b8114610a8257600080fd5b50565b600081359050610a9481610a6e565b92915050565b600073ffffffffffffffffffffffffffffffffffffffff82169050919050565b6000610ac582610a9a565b9050919050565b610ad581610aba565b8114610ae057600080fd5b50565b600081359050610af281610acc565b92915050565b600080600060608486031215610b1157610b10610a5f565b5b6000610b1f86828701610a85565b9350506020610b3086828701610a85565b9250506040610b4186828701610ae3565b9150509250925092565b600060208284031215610b6157610b60610a5f565b5b6000610b6f84828501610ae3565b91505092915050565b610b8181610a64565b82525050565b6000602082019050610b9c6000830184610b78565b92915050565b600060208284031215610bb857610bb7610a5f565b5b6000610bc684828501610a85565b91505092915050565b610bd881610aba565b82525050565b600060c082019050610bf36000830189610bcf565b610c006020830188610b78565b610c0d6040830187610b78565b610c1a6060830186610b78565b610c276080830185610b78565b610c3460a0830184610b78565b979650505050505050565b60008060408385031215610c5657610c55610a5f565b5b6000610c6485828601610ae3565b9250506020610c7585828601610a85565b9150509250929050565b6000602082019050610c946000830184610bcf565b92915050565b6000606082019050610caf6000830186610b78565b610cbc6020830185610b78565b610cc96040830184610bcf565b949350505050565b7f4e487b7100000000000000000000000000000000000000000000000000000000600052601160045260246000fd5b6000610d0b82610a64565b9150610d1683610a64565b9250827fffffffffffffffffffffffffffffffffffffffffffffffffffffffffffffffff03821115610d4b57610d4a610cd1565b5b828201905092915050565b600081519050610d6581610a6e565b92915050565b600060208284031215610d8157610d80610a5f565b5b6000610d8f84828501610d56565b91505092915050565b600082825260208201905092915050565b7f546869732063616e6e6f74206265207468652062656e6566696369617279207360008201527f65636f6e642076616363696e6500000000000000000000000000000000000000602082015250565b6000610e05602d83610d98565b9150610e1082610da9565b604082019050919050565b60006020820190508181036000830152610e3481610df8565b9050919050565b7f496e73756666696369656e742053746f636b7300000000000000000000000000600082015250565b6000610e71601383610d98565b9150610e7c82610e3b565b602082019050919050565b60006020820190508181036000830152610ea081610e64565b9050919050565b6000610eb282610a64565b9150610ebd83610a64565b925082821015610ed057610ecf610cd1565b5b828203905092915050565b7f4e6f206f7264657220686164206265656e20706c61636564207769746820746860008201527f6973206d616e7566616374757265720000000000000000000000000000000000602082015250565b6000610f37602f83610d98565b9150610f4282610edb565b604082019050919050565b60006020820190508181036000830152610f6681610f2a565b9050919050565b7f4d6f7265207468616e206f7264657265642076616363696e657320686173206260008201527f65656e2072656365697665640000000000000000000000000000000000000000602082015250565b6000610fc9602c83610d98565b9150610fd482610f6d565b604082019050919050565b60006020820190508181036000830152610ff881610fbc565b905091905056fea2646970667358221220968032ba1ba17be5f5cdd3a42feb8f2bb37b12b2172e357a2c660e8415d347cd64736f6c634300080d0033a26469706673582212200d78bb29015743aa47a39d780bff1e0b4f2eec21d59440d4eb6fee011c9c599864736f6c634300080d0033",
  "immutableReferences": {},
  "source": "// SPDX-License-Identifier: MIT\r\n\r\npragma solidity ^0.8.13;\r\n\r\nimport \"./Manufacturer.sol\";\r\nimport \"./People.sol\";\r\nimport \"./Admin.sol\";\r\nimport \"./Delivery.sol\";\r\n\r\ncontract Actors {\r\n    address owner;\r\n    mapping(address => Admin) public admins;\r\n    mapping(uint256 => People) public beneficiaries;\r\n    mapping(address => Manufacturer) public manufacturers;\r\n    Admin[] public adminArray;\r\n    People[] public beneficiaryArray;\r\n    Manufacturer[] public manufacturerArray;\r\n    struct adminInfo {\r\n        address owner;\r\n        uint256 center_no;\r\n        uint256 available_a;\r\n        uint256 available_b;\r\n        uint256 available_c;\r\n        uint256 available_d;\r\n    }\r\n\r\n    struct beneficiaryInfo {\r\n        uint256 vaccine;\r\n        uint256 num_of_doses;\r\n    }\r\n\r\n    constructor() {\r\n        owner = msg.sender;\r\n    }\r\n\r\n    modifier onlyOwner() {\r\n        require(msg.sender == owner, \"Not the Onwer\");\r\n        _;\r\n    }\r\n\r\n    modifier notManufacturer() {\r\n        require(\r\n            address(manufacturers[msg.sender]) == address(0),\r\n            \"Already a manufacturer or admin\"\r\n        );\r\n        _;\r\n    }\r\n    modifier notAdmin() {\r\n        require(\r\n            address(admins[msg.sender]) == address(0),\r\n            \"Already a manufacturer or admin\"\r\n        );\r\n        _;\r\n    }\r\n    modifier noBenefeciary(uint256 _aadhar) {\r\n        require(\r\n            address(beneficiaries[_aadhar]) == address(0),\r\n            \"Already a beneficiary\"\r\n        );\r\n        _;\r\n    }\r\n    modifier onlyManufacturer() {\r\n        require(\r\n            address(manufacturers[msg.sender]) != address(0),\r\n            \"Not a manufacturer\"\r\n        );\r\n        _;\r\n    }\r\n    modifier onlyBenefeciary(uint256 _aadhar) {\r\n        require(\r\n            address(beneficiaries[_aadhar]) != address(0),\r\n            \"Not a beneficiary\"\r\n        );\r\n        _;\r\n    }\r\n    modifier onlyAdmin() {\r\n        require(\r\n            address(admins[msg.sender]) != address(0),\r\n            \"Not a manufacturer\"\r\n        );\r\n        _;\r\n    }\r\n\r\n    function createManufacturer() public notManufacturer {\r\n        manufacturers[msg.sender] = new Manufacturer();\r\n    }\r\n\r\n    function createBenefeciary(uint256 _aadhar)\r\n        public\r\n        noBenefeciary(_aadhar)\r\n        returns (address)\r\n    {\r\n        beneficiaries[_aadhar] = new People();\r\n        return address(beneficiaries[_aadhar]);\r\n    }\r\n\r\n    function createAdmin() public notAdmin {\r\n        admins[msg.sender] = new Admin();\r\n    }\r\n\r\n    function adminCreateOrder(\r\n        uint256 _vaccine,\r\n        uint256 _qty,\r\n        address _manufacturer\r\n    ) public onlyAdmin {\r\n        Admin admin = Admin(msg.sender);\r\n        admin.makeOrder(_vaccine, _qty, _manufacturer);\r\n    }\r\n\r\n    function adminVaccinationDone(uint256 _aadhar) public onlyAdmin {\r\n        Admin admin = Admin(msg.sender);\r\n        admin.vaccinationDone(address(beneficiaries[_aadhar]));\r\n    }\r\n\r\n    function beneficiaryFirstVaccine(\r\n        uint256 _aadhar,\r\n        uint256 _vaccine,\r\n        address _admin\r\n    ) public onlyBenefeciary(_aadhar) {\r\n        People beneficiary = People(beneficiaries[_aadhar]);\r\n        beneficiary.registerFirstVaccine(_admin, _vaccine);\r\n    }\r\n\r\n    function beneficiarySecondVaccine(uint256 _aadhar, address _admin)\r\n        public\r\n        onlyBenefeciary(_aadhar)\r\n        onlyOwner\r\n    {\r\n        People beneficiary = People(beneficiaries[_aadhar]);\r\n        beneficiary.registerSecondVaccine(_admin);\r\n    }\r\n\r\n    function manufacturerAddStock(uint256 _vaccine, uint256 _qty)\r\n        public\r\n        onlyManufacturer\r\n    {\r\n        Manufacturer manufacturer = Manufacturer(msg.sender);\r\n        manufacturer.addStocks(_vaccine, _qty);\r\n    }\r\n\r\n    function manufacturerCreateDelivery(\r\n        uint256 vac,\r\n        uint256 qty,\r\n        address _admin\r\n    ) public onlyManufacturer {\r\n        Manufacturer manufacturer = Manufacturer(msg.sender);\r\n        manufacturer.createDelivery(vac, qty, _admin);\r\n    }\r\n\r\n    function getAllAdmins() public view returns (adminInfo[] memory) {\r\n        adminInfo[] memory arrays = new adminInfo[](adminArray.length);\r\n        for (uint256 i = 0; i < adminArray.length; i++) {\r\n            (\r\n                address add,\r\n                uint256 c_no,\r\n                uint256 a,\r\n                uint256 b,\r\n                uint256 c,\r\n                uint256 d\r\n            ) = adminArray[i].getInfo();\r\n            adminInfo memory info = adminInfo(add, c_no, a, b, c, d);\r\n            arrays[i] = info;\r\n        }\r\n        return arrays;\r\n    }\r\n}\r\n",
  "sourcePath": "C:\\Users\\mdzai\\Desktop\\VCSM-Blockchain\\contracts\\Actors.sol",
  "compiler": {
    "name": "solc",
    "version": "0.8.13+commit.abaa5c0e.Emscripten.clang"
  },
  "schemaVersion": "3.4.7",
  "updatedAt": "2022-04-19T04:12:23.962Z",
  "networkType": "ethereum",
  "devdoc": {
    "kind": "dev",
    "methods": {},
    "version": 1
  },
  "userdoc": {
    "kind": "user",
    "methods": {},
    "version": 1
  }
}