{
  "contractName": "Actors",
  "abi": [
    {
      "inputs": [],
      "stateMutability": "nonpayable",
      "type": "constructor"
    },
    {
      "anonymous": false,
      "inputs": [
        {
          "indexed": false,
          "internalType": "address",
          "name": "add",
          "type": "address"
        }
      ],
      "name": "Address",
      "type": "event"
    },
    {
      "anonymous": false,
      "inputs": [
        {
          "components": [
            {
              "internalType": "address",
              "name": "owner",
              "type": "address"
            },
            {
              "internalType": "uint256",
              "name": "center_no",
              "type": "uint256"
            },
            {
              "components": [
                {
                  "internalType": "uint256",
                  "name": "a",
                  "type": "uint256"
                },
                {
                  "internalType": "uint256",
                  "name": "b",
                  "type": "uint256"
                },
                {
                  "internalType": "uint256",
                  "name": "c",
                  "type": "uint256"
                },
                {
                  "internalType": "uint256",
                  "name": "d",
                  "type": "uint256"
                }
              ],
              "internalType": "struct Admin.stocks",
              "name": "available",
              "type": "tuple"
            },
            {
              "components": [
                {
                  "internalType": "uint256",
                  "name": "a",
                  "type": "uint256"
                },
                {
                  "internalType": "uint256",
                  "name": "b",
                  "type": "uint256"
                },
                {
                  "internalType": "uint256",
                  "name": "c",
                  "type": "uint256"
                },
                {
                  "internalType": "uint256",
                  "name": "d",
                  "type": "uint256"
                }
              ],
              "internalType": "struct Admin.stocks",
              "name": "ordered",
              "type": "tuple"
            },
            {
              "components": [
                {
                  "internalType": "uint256",
                  "name": "a",
                  "type": "uint256"
                },
                {
                  "internalType": "uint256",
                  "name": "b",
                  "type": "uint256"
                },
                {
                  "internalType": "uint256",
                  "name": "c",
                  "type": "uint256"
                },
                {
                  "internalType": "uint256",
                  "name": "d",
                  "type": "uint256"
                }
              ],
              "internalType": "struct Admin.stocks",
              "name": "registered",
              "type": "tuple"
            }
          ],
          "indexed": false,
          "internalType": "struct Admins.adminInfo",
          "name": "info",
          "type": "tuple"
        }
      ],
      "name": "AdminInfo",
      "type": "event"
    },
    {
      "anonymous": false,
      "inputs": [
        {
          "components": [
            {
              "internalType": "address",
              "name": "owner",
              "type": "address"
            },
            {
              "internalType": "uint256",
              "name": "center_no",
              "type": "uint256"
            },
            {
              "components": [
                {
                  "internalType": "uint256",
                  "name": "a",
                  "type": "uint256"
                },
                {
                  "internalType": "uint256",
                  "name": "b",
                  "type": "uint256"
                },
                {
                  "internalType": "uint256",
                  "name": "c",
                  "type": "uint256"
                },
                {
                  "internalType": "uint256",
                  "name": "d",
                  "type": "uint256"
                }
              ],
              "internalType": "struct Admin.stocks",
              "name": "available",
              "type": "tuple"
            },
            {
              "components": [
                {
                  "internalType": "uint256",
                  "name": "a",
                  "type": "uint256"
                },
                {
                  "internalType": "uint256",
                  "name": "b",
                  "type": "uint256"
                },
                {
                  "internalType": "uint256",
                  "name": "c",
                  "type": "uint256"
                },
                {
                  "internalType": "uint256",
                  "name": "d",
                  "type": "uint256"
                }
              ],
              "internalType": "struct Admin.stocks",
              "name": "ordered",
              "type": "tuple"
            },
            {
              "components": [
                {
                  "internalType": "uint256",
                  "name": "a",
                  "type": "uint256"
                },
                {
                  "internalType": "uint256",
                  "name": "b",
                  "type": "uint256"
                },
                {
                  "internalType": "uint256",
                  "name": "c",
                  "type": "uint256"
                },
                {
                  "internalType": "uint256",
                  "name": "d",
                  "type": "uint256"
                }
              ],
              "internalType": "struct Admin.stocks",
              "name": "registered",
              "type": "tuple"
            }
          ],
          "indexed": false,
          "internalType": "struct Admins.adminInfo[]",
          "name": "arr",
          "type": "tuple[]"
        }
      ],
      "name": "AllAdminsInfo",
      "type": "event"
    },
    {
      "anonymous": false,
      "inputs": [
        {
          "components": [
            {
              "internalType": "address",
              "name": "owner",
              "type": "address"
            },
            {
              "components": [
                {
                  "internalType": "uint256",
                  "name": "a",
                  "type": "uint256"
                },
                {
                  "internalType": "uint256",
                  "name": "b",
                  "type": "uint256"
                },
                {
                  "internalType": "uint256",
                  "name": "c",
                  "type": "uint256"
                },
                {
                  "internalType": "uint256",
                  "name": "d",
                  "type": "uint256"
                }
              ],
              "internalType": "struct Manufacturer.stocks",
              "name": "available",
              "type": "tuple"
            },
            {
              "components": [
                {
                  "internalType": "uint256",
                  "name": "a",
                  "type": "uint256"
                },
                {
                  "internalType": "uint256",
                  "name": "b",
                  "type": "uint256"
                },
                {
                  "internalType": "uint256",
                  "name": "c",
                  "type": "uint256"
                },
                {
                  "internalType": "uint256",
                  "name": "d",
                  "type": "uint256"
                }
              ],
              "internalType": "struct Manufacturer.stocks",
              "name": "ordered",
              "type": "tuple"
            },
            {
              "components": [
                {
                  "internalType": "uint256",
                  "name": "a",
                  "type": "uint256"
                },
                {
                  "internalType": "uint256",
                  "name": "b",
                  "type": "uint256"
                },
                {
                  "internalType": "uint256",
                  "name": "c",
                  "type": "uint256"
                },
                {
                  "internalType": "uint256",
                  "name": "d",
                  "type": "uint256"
                }
              ],
              "internalType": "struct Manufacturer.stocks",
              "name": "out_for_delivery",
              "type": "tuple"
            }
          ],
          "indexed": false,
          "internalType": "struct Manufacturers.manufacturerInfo[]",
          "name": "arr",
          "type": "tuple[]"
        }
      ],
      "name": "AllManufacturersInfo",
      "type": "event"
    },
    {
      "anonymous": false,
      "inputs": [
        {
          "components": [
            {
              "internalType": "uint256",
              "name": "vaccine",
              "type": "uint256"
            },
            {
              "internalType": "uint256",
              "name": "num_of_doses",
              "type": "uint256"
            }
          ],
          "indexed": false,
          "internalType": "struct Beneficiaries.beneficiaryInfo",
          "name": "info",
          "type": "tuple"
        }
      ],
      "name": "BeneficiaryInfo",
      "type": "event"
    },
    {
      "anonymous": false,
      "inputs": [
        {
          "components": [
            {
              "internalType": "address",
              "name": "owner",
              "type": "address"
            },
            {
              "components": [
                {
                  "internalType": "uint256",
                  "name": "a",
                  "type": "uint256"
                },
                {
                  "internalType": "uint256",
                  "name": "b",
                  "type": "uint256"
                },
                {
                  "internalType": "uint256",
                  "name": "c",
                  "type": "uint256"
                },
                {
                  "internalType": "uint256",
                  "name": "d",
                  "type": "uint256"
                }
              ],
              "internalType": "struct Manufacturer.stocks",
              "name": "available",
              "type": "tuple"
            },
            {
              "components": [
                {
                  "internalType": "uint256",
                  "name": "a",
                  "type": "uint256"
                },
                {
                  "internalType": "uint256",
                  "name": "b",
                  "type": "uint256"
                },
                {
                  "internalType": "uint256",
                  "name": "c",
                  "type": "uint256"
                },
                {
                  "internalType": "uint256",
                  "name": "d",
                  "type": "uint256"
                }
              ],
              "internalType": "struct Manufacturer.stocks",
              "name": "ordered",
              "type": "tuple"
            },
            {
              "components": [
                {
                  "internalType": "uint256",
                  "name": "a",
                  "type": "uint256"
                },
                {
                  "internalType": "uint256",
                  "name": "b",
                  "type": "uint256"
                },
                {
                  "internalType": "uint256",
                  "name": "c",
                  "type": "uint256"
                },
                {
                  "internalType": "uint256",
                  "name": "d",
                  "type": "uint256"
                }
              ],
              "internalType": "struct Manufacturer.stocks",
              "name": "out_for_delivery",
              "type": "tuple"
            }
          ],
          "indexed": false,
          "internalType": "struct Manufacturers.manufacturerInfo",
          "name": "info",
          "type": "tuple"
        }
      ],
      "name": "ManufacturerInfo",
      "type": "event"
    },
    {
      "anonymous": false,
      "inputs": [
        {
          "indexed": false,
          "internalType": "bool",
          "name": "success",
          "type": "bool"
        }
      ],
      "name": "Success",
      "type": "event"
    },
    {
      "inputs": [],
      "name": "createManufacturer",
      "outputs": [],
      "stateMutability": "nonpayable",
      "type": "function"
    },
    {
      "inputs": [
        {
          "internalType": "uint256",
          "name": "_aadhar",
          "type": "uint256"
        }
      ],
      "name": "createBenefeciary",
      "outputs": [],
      "stateMutability": "nonpayable",
      "type": "function"
    },
    {
      "inputs": [],
      "name": "createAdmin",
      "outputs": [],
      "stateMutability": "nonpayable",
      "type": "function"
    },
    {
      "inputs": [
        {
          "internalType": "uint256",
          "name": "_vaccine",
          "type": "uint256"
        },
        {
          "internalType": "uint256",
          "name": "_qty",
          "type": "uint256"
        },
        {
          "internalType": "address",
          "name": "_manufacturer",
          "type": "address"
        }
      ],
      "name": "adminCreateOrder",
      "outputs": [],
      "stateMutability": "nonpayable",
      "type": "function"
    },
    {
      "inputs": [
        {
          "internalType": "uint256",
          "name": "_aadhar",
          "type": "uint256"
        }
      ],
      "name": "adminVaccinationDone",
      "outputs": [],
      "stateMutability": "nonpayable",
      "type": "function"
    },
    {
      "inputs": [
        {
          "internalType": "uint256",
          "name": "_aadhar",
          "type": "uint256"
        },
        {
          "internalType": "uint256",
          "name": "_vaccine",
          "type": "uint256"
        },
        {
          "internalType": "address",
          "name": "_admin",
          "type": "address"
        }
      ],
      "name": "beneficiaryFirstVaccine",
      "outputs": [],
      "stateMutability": "nonpayable",
      "type": "function"
    },
    {
      "inputs": [
        {
          "internalType": "uint256",
          "name": "_aadhar",
          "type": "uint256"
        },
        {
          "internalType": "address",
          "name": "_admin",
          "type": "address"
        }
      ],
      "name": "beneficiarySecondVaccine",
      "outputs": [],
      "stateMutability": "nonpayable",
      "type": "function"
    },
    {
      "inputs": [
        {
          "internalType": "uint256",
          "name": "_vaccine",
          "type": "uint256"
        },
        {
          "internalType": "uint256",
          "name": "_qty",
          "type": "uint256"
        }
      ],
      "name": "manufacturerAddStock",
      "outputs": [],
      "stateMutability": "nonpayable",
      "type": "function"
    },
    {
      "inputs": [
        {
          "internalType": "uint256",
          "name": "vac",
          "type": "uint256"
        },
        {
          "internalType": "uint256",
          "name": "qty",
          "type": "uint256"
        },
        {
          "internalType": "address",
          "name": "_admin",
          "type": "address"
        }
      ],
      "name": "manufacturerCreateDelivery",
      "outputs": [],
      "stateMutability": "nonpayable",
      "type": "function"
    },
    {
      "inputs": [],
      "name": "getAllAdmins",
      "outputs": [],
      "stateMutability": "nonpayable",
      "type": "function"
    },
    {
      "inputs": [],
      "name": "getAllManufacturers",
      "outputs": [],
      "stateMutability": "nonpayable",
      "type": "function"
    },
    {
      "inputs": [
        {
          "internalType": "uint256",
          "name": "_aadhar",
          "type": "uint256"
        }
      ],
      "name": "getBeneficiaryInfo",
      "outputs": [],
      "stateMutability": "nonpayable",
      "type": "function"
    },
    {
      "inputs": [],
      "name": "getAdminInfo",
      "outputs": [],
      "stateMutability": "nonpayable",
      "type": "function"
    },
    {
      "inputs": [],
      "name": "getManufacturerInfo",
      "outputs": [],
      "stateMutability": "nonpayable",
      "type": "function"
    }
  ],
  "bytecode": "0x60806040523480156200001157600080fd5b5033600360006101000a81548173ffffffffffffffffffffffffffffffffffffffff021916908373ffffffffffffffffffffffffffffffffffffffff16021790555060405162000061906200019c565b604051809103906000f0801580156200007e573d6000803e3d6000fd5b506000806101000a81548173ffffffffffffffffffffffffffffffffffffffff021916908373ffffffffffffffffffffffffffffffffffffffff160217905550604051620000cc90620001aa565b604051809103906000f080158015620000e9573d6000803e3d6000fd5b50600160006101000a81548173ffffffffffffffffffffffffffffffffffffffff021916908373ffffffffffffffffffffffffffffffffffffffff1602179055506040516200013890620001b8565b604051809103906000f08015801562000155573d6000803e3d6000fd5b50600260006101000a81548173ffffffffffffffffffffffffffffffffffffffff021916908373ffffffffffffffffffffffffffffffffffffffff160217905550620001c6565b612a1d8062001eeb83390190565b612adf806200490883390190565b61129280620073e783390190565b611d1580620001d66000396000f3fe608060405234801561001057600080fd5b50600436106100ea5760003560e01c8063aa833e6c1161008c578063de6f072211610066578063de6f0722146101d1578063e8e7c0ad146101db578063e92980c5146101f7578063e9523c9714610201576100ea565b8063aa833e6c146101a1578063c3d5fd39146101bd578063ddba07a4146101c7576100ea565b80635adb0ec2116100c85780635adb0ec21461014357806382a9bcd21461015f578063963178ba146101695780639b7abde714610185576100ea565b806313b1a822146100ef578063339874d51461010b57806357d5b1c914610127575b600080fd5b61010960048036038101906101049190610ead565b61020b565b005b61012560048036038101906101209190610f38565b6102e2565b005b610141600480360381019061013c9190610f8b565b6103bf565b005b61015d60048036038101906101589190610f38565b610499565b005b610167610576565b005b610183600480360381019061017e9190610ead565b61064a565b005b61019f600480360381019061019a9190610ead565b6107be565b005b6101bb60048036038101906101b69190610f38565b610892565b005b6101c5610971565b005b6101cf610a46565b005b6101d9610b12565b005b6101f560048036038101906101f09190610fcb565b610be5565b005b6101ff610cbf565b005b610209610d95565b005b7f3b0a8ddef325df2bfdfa6b430ae4c8421841cd135bfa8fb5e432f200787520bb600260009054906101000a900473ffffffffffffffffffffffffffffffffffffffff1673ffffffffffffffffffffffffffffffffffffffff166313b1a822836040518263ffffffff1660e01b8152600401610287919061101a565b6020604051808303816000875af11580156102a6573d6000803e3d6000fd5b505050506040513d601f19601f820116820180604052508101906102ca919061106d565b6040516102d791906110a9565b60405180910390a150565b7f3b0a8ddef325df2bfdfa6b430ae4c8421841cd135bfa8fb5e432f200787520bb600260009054906101000a900473ffffffffffffffffffffffffffffffffffffffff1673ffffffffffffffffffffffffffffffffffffffff1663339874d58585856040518463ffffffff1660e01b8152600401610362939291906110d3565b6020604051808303816000875af1158015610381573d6000803e3d6000fd5b505050506040513d601f19601f820116820180604052508101906103a5919061106d565b6040516103b291906110a9565b60405180910390a1505050565b7f3b0a8ddef325df2bfdfa6b430ae4c8421841cd135bfa8fb5e432f200787520bb600260009054906101000a900473ffffffffffffffffffffffffffffffffffffffff1673ffffffffffffffffffffffffffffffffffffffff166357d5b1c984846040518363ffffffff1660e01b815260040161043d92919061110a565b6020604051808303816000875af115801561045c573d6000803e3d6000fd5b505050506040513d601f19601f82011682018060405250810190610480919061106d565b60405161048d91906110a9565b60405180910390a15050565b7f3b0a8ddef325df2bfdfa6b430ae4c8421841cd135bfa8fb5e432f200787520bb60008054906101000a900473ffffffffffffffffffffffffffffffffffffffff1673ffffffffffffffffffffffffffffffffffffffff16635ddd0a43338686866040518563ffffffff1660e01b81526004016105199493929190611133565b6020604051808303816000875af1158015610538573d6000803e3d6000fd5b505050506040513d601f19601f8201168201806040525081019061055c919061106d565b60405161056991906110a9565b60405180910390a1505050565b7f3b0a8ddef325df2bfdfa6b430ae4c8421841cd135bfa8fb5e432f200787520bb60008054906101000a900473ffffffffffffffffffffffffffffffffffffffff1673ffffffffffffffffffffffffffffffffffffffff1663253dbcc8336040518263ffffffff1660e01b81526004016105f09190611178565b6020604051808303816000875af115801561060f573d6000803e3d6000fd5b505050506040513d601f19601f82011682018060405250810190610633919061106d565b60405161064091906110a9565b60405180910390a1565b7f3b0a8ddef325df2bfdfa6b430ae4c8421841cd135bfa8fb5e432f200787520bb600160009054906101000a900473ffffffffffffffffffffffffffffffffffffffff1673ffffffffffffffffffffffffffffffffffffffff16633a49972c33600260009054906101000a900473ffffffffffffffffffffffffffffffffffffffff1673ffffffffffffffffffffffffffffffffffffffff1663302df083866040518263ffffffff1660e01b8152600401610705919061101a565b602060405180830381865afa158015610722573d6000803e3d6000fd5b505050506040513d601f19601f8201168201806040525081019061074691906111d1565b6040518363ffffffff1660e01b815260040161076392919061125d565b6020604051808303816000875af1158015610782573d6000803e3d6000fd5b505050506040513d601f19601f820116820180604052508101906107a6919061106d565b6040516107b391906110a9565b60405180910390a150565b7f82874b8e83e7fdadd2bcf068473e6d090d32b26693d8ae5a656b5a542649d445600260009054906101000a900473ffffffffffffffffffffffffffffffffffffffff1673ffffffffffffffffffffffffffffffffffffffff16639b7abde7836040518263ffffffff1660e01b815260040161083a919061101a565b6040805180830381865afa158015610856573d6000803e3d6000fd5b505050506040513d601f19601f8201168201806040525081019061087a919061137c565b60405161088791906113e7565b60405180910390a150565b7f3b0a8ddef325df2bfdfa6b430ae4c8421841cd135bfa8fb5e432f200787520bb600160009054906101000a900473ffffffffffffffffffffffffffffffffffffffff1673ffffffffffffffffffffffffffffffffffffffff166357afa3e8338686866040518563ffffffff1660e01b81526004016109149493929190611133565b6020604051808303816000875af1158015610933573d6000803e3d6000fd5b505050506040513d601f19601f82011682018060405250810190610957919061106d565b60405161096491906110a9565b60405180910390a1505050565b7fd622f8bf8afab07fb43b13f13208608db4b1d615ccbefc252eb7ada5e1186364600160009054906101000a900473ffffffffffffffffffffffffffffffffffffffff1673ffffffffffffffffffffffffffffffffffffffff1663722b0376336040518263ffffffff1660e01b81526004016109ed9190611178565b6101c060405180830381865afa158015610a0b573d6000803e3d6000fd5b505050506040513d601f19601f82011682018060405250810190610a2f919061151d565b604051610a3c9190611619565b60405180910390a1565b7f79aeea4219da0bbc11e436c905d6ab1922356db8b8f606ada5aec37fdfb2763f60008054906101000a900473ffffffffffffffffffffffffffffffffffffffff1673ffffffffffffffffffffffffffffffffffffffff1663ddba07a46040518163ffffffff1660e01b8152600401600060405180830381865afa158015610ad2573d6000803e3d6000fd5b505050506040513d6000823e3d601f19601f82011682018060405250810190610afb91906117f6565b604051610b08919061199b565b60405180910390a1565b7f1700ec1aebae13baca6ce6ba2b24c3b611637e2737ec1ffcfc95ce03dd0c1b8d60008054906101000a900473ffffffffffffffffffffffffffffffffffffffff1673ffffffffffffffffffffffffffffffffffffffff1663043be2e4336040518263ffffffff1660e01b8152600401610b8c9190611178565b6101a060405180830381865afa158015610baa573d6000803e3d6000fd5b505050506040513d601f19601f82011682018060405250810190610bce91906119bd565b604051610bdb9190611a42565b60405180910390a1565b7f3b0a8ddef325df2bfdfa6b430ae4c8421841cd135bfa8fb5e432f200787520bb60008054906101000a900473ffffffffffffffffffffffffffffffffffffffff1673ffffffffffffffffffffffffffffffffffffffff16638c816a633385856040518463ffffffff1660e01b8152600401610c6393929190611a5e565b6020604051808303816000875af1158015610c82573d6000803e3d6000fd5b505050506040513d601f19601f82011682018060405250810190610ca6919061106d565b604051610cb391906110a9565b60405180910390a15050565b7f3b0a8ddef325df2bfdfa6b430ae4c8421841cd135bfa8fb5e432f200787520bb600160009054906101000a900473ffffffffffffffffffffffffffffffffffffffff1673ffffffffffffffffffffffffffffffffffffffff166304020595336040518263ffffffff1660e01b8152600401610d3b9190611178565b6020604051808303816000875af1158015610d5a573d6000803e3d6000fd5b505050506040513d601f19601f82011682018060405250810190610d7e919061106d565b604051610d8b91906110a9565b60405180910390a1565b7f759679c842f8da4788fbb7922f43bd622dea53f5c6b18b8687b68d2c117f4607600160009054906101000a900473ffffffffffffffffffffffffffffffffffffffff1673ffffffffffffffffffffffffffffffffffffffff1663e9523c976040518163ffffffff1660e01b8152600401600060405180830381865afa158015610e23573d6000803e3d6000fd5b505050506040513d6000823e3d601f19601f82011682018060405250810190610e4c9190611b5a565b604051610e599190611cbd565b60405180910390a1565b6000604051905090565b600080fd5b600080fd5b6000819050919050565b610e8a81610e77565b8114610e9557600080fd5b50565b600081359050610ea781610e81565b92915050565b600060208284031215610ec357610ec2610e6d565b5b6000610ed184828501610e98565b91505092915050565b600073ffffffffffffffffffffffffffffffffffffffff82169050919050565b6000610f0582610eda565b9050919050565b610f1581610efa565b8114610f2057600080fd5b50565b600081359050610f3281610f0c565b92915050565b600080600060608486031215610f5157610f50610e6d565b5b6000610f5f86828701610e98565b9350506020610f7086828701610e98565b9250506040610f8186828701610f23565b9150509250925092565b60008060408385031215610fa257610fa1610e6d565b5b6000610fb085828601610e98565b9250506020610fc185828601610f23565b9150509250929050565b60008060408385031215610fe257610fe1610e6d565b5b6000610ff085828601610e98565b925050602061100185828601610e98565b9150509250929050565b61101481610e77565b82525050565b600060208201905061102f600083018461100b565b92915050565b60008115159050919050565b61104a81611035565b811461105557600080fd5b50565b60008151905061106781611041565b92915050565b60006020828403121561108357611082610e6d565b5b600061109184828501611058565b91505092915050565b6110a381611035565b82525050565b60006020820190506110be600083018461109a565b92915050565b6110cd81610efa565b82525050565b60006060820190506110e8600083018661100b565b6110f5602083018561100b565b61110260408301846110c4565b949350505050565b600060408201905061111f600083018561100b565b61112c60208301846110c4565b9392505050565b600060808201905061114860008301876110c4565b611155602083018661100b565b611162604083018561100b565b61116f60608301846110c4565b95945050505050565b600060208201905061118d60008301846110c4565b92915050565b600061119e82610efa565b9050919050565b6111ae81611193565b81146111b957600080fd5b50565b6000815190506111cb816111a5565b92915050565b6000602082840312156111e7576111e6610e6d565b5b60006111f5848285016111bc565b91505092915050565b6000819050919050565b600061122361121e61121984610eda565b6111fe565b610eda565b9050919050565b600061123582611208565b9050919050565b60006112478261122a565b9050919050565b6112578161123c565b82525050565b600060408201905061127260008301856110c4565b61127f602083018461124e565b9392505050565b600080fd5b6000601f19601f8301169050919050565b7f4e487b7100000000000000000000000000000000000000000000000000000000600052604160045260246000fd5b6112d48261128b565b810181811067ffffffffffffffff821117156112f3576112f261129c565b5b80604052505050565b6000611306610e63565b905061131282826112cb565b919050565b60008151905061132681610e81565b92915050565b60006040828403121561134257611341611286565b5b61134c60406112fc565b9050600061135c84828501611317565b600083015250602061137084828501611317565b60208301525092915050565b60006040828403121561139257611391610e6d565b5b60006113a08482850161132c565b91505092915050565b6113b281610e77565b82525050565b6040820160008201516113ce60008501826113a9565b5060208201516113e160208501826113a9565b50505050565b60006040820190506113fc60008301846113b8565b92915050565b60008151905061141181610f0c565b92915050565b60006080828403121561142d5761142c611286565b5b61143760806112fc565b9050600061144784828501611317565b600083015250602061145b84828501611317565b602083015250604061146f84828501611317565b604083015250606061148384828501611317565b60608301525092915050565b60006101c082840312156114a6576114a5611286565b5b6114b060a06112fc565b905060006114c084828501611402565b60008301525060206114d484828501611317565b60208301525060406114e884828501611417565b60408301525060c06114fc84828501611417565b60608301525061014061151184828501611417565b60808301525092915050565b60006101c0828403121561153457611533610e6d565b5b60006115428482850161148f565b91505092915050565b61155481610efa565b82525050565b60808201600082015161157060008501826113a9565b50602082015161158360208501826113a9565b50604082015161159660408501826113a9565b5060608201516115a960608501826113a9565b50505050565b6101c0820160008201516115c6600085018261154b565b5060208201516115d960208501826113a9565b5060408201516115ec604085018261155a565b5060608201516115ff60c085018261155a565b50608082015161161361014085018261155a565b50505050565b60006101c08201905061162f60008301846115af565b92915050565b600080fd5b600067ffffffffffffffff8211156116555761165461129c565b5b602082029050602081019050919050565b600080fd5b60006080828403121561168157611680611286565b5b61168b60806112fc565b9050600061169b84828501611317565b60008301525060206116af84828501611317565b60208301525060406116c384828501611317565b60408301525060606116d784828501611317565b60608301525092915050565b60006101a082840312156116fa576116f9611286565b5b61170460806112fc565b9050600061171484828501611402565b60008301525060206117288482850161166b565b60208301525060a061173c8482850161166b565b6040830152506101206117518482850161166b565b60608301525092915050565b600061177061176b8461163a565b6112fc565b9050808382526020820190506101a0840283018581111561179457611793611666565b5b835b818110156117be57806117a988826116e3565b8452602084019350506101a081019050611796565b5050509392505050565b600082601f8301126117dd576117dc611635565b5b81516117ed84826020860161175d565b91505092915050565b60006020828403121561180c5761180b610e6d565b5b600082015167ffffffffffffffff81111561182a57611829610e72565b5b611836848285016117c8565b91505092915050565b600081519050919050565b600082825260208201905092915050565b6000819050602082019050919050565b60808201600082015161188160008501826113a9565b50602082015161189460208501826113a9565b5060408201516118a760408501826113a9565b5060608201516118ba60608501826113a9565b50505050565b6101a0820160008201516118d7600085018261154b565b5060208201516118ea602085018261186b565b5060408201516118fd60a085018261186b565b50606082015161191161012085018261186b565b50505050565b600061192383836118c0565b6101a08301905092915050565b6000602082019050919050565b60006119488261183f565b611952818561184a565b935061195d8361185b565b8060005b8381101561198e5781516119758882611917565b975061198083611930565b925050600181019050611961565b5085935050505092915050565b600060208201905081810360008301526119b5818461193d565b905092915050565b60006101a082840312156119d4576119d3610e6d565b5b60006119e2848285016116e3565b91505092915050565b6101a082016000820151611a02600085018261154b565b506020820151611a15602085018261186b565b506040820151611a2860a085018261186b565b506060820151611a3c61012085018261186b565b50505050565b60006101a082019050611a5860008301846119eb565b92915050565b6000606082019050611a7360008301866110c4565b611a80602083018561100b565b611a8d604083018461100b565b949350505050565b600067ffffffffffffffff821115611ab057611aaf61129c565b5b602082029050602081019050919050565b6000611ad4611acf84611a95565b6112fc565b9050808382526020820190506101c08402830185811115611af857611af7611666565b5b835b81811015611b225780611b0d888261148f565b8452602084019350506101c081019050611afa565b5050509392505050565b600082601f830112611b4157611b40611635565b5b8151611b51848260208601611ac1565b91505092915050565b600060208284031215611b7057611b6f610e6d565b5b600082015167ffffffffffffffff811115611b8e57611b8d610e72565b5b611b9a84828501611b2c565b91505092915050565b600081519050919050565b600082825260208201905092915050565b6000819050602082019050919050565b6101c082016000820151611be6600085018261154b565b506020820151611bf960208501826113a9565b506040820151611c0c604085018261155a565b506060820151611c1f60c085018261155a565b506080820151611c3361014085018261155a565b50505050565b6000611c458383611bcf565b6101c08301905092915050565b6000602082019050919050565b6000611c6a82611ba3565b611c748185611bae565b9350611c7f83611bbf565b8060005b83811015611cb0578151611c978882611c39565b9750611ca283611c52565b925050600181019050611c83565b5085935050505092915050565b60006020820190508181036000830152611cd78184611c5f565b90509291505056fea26469706673582212203df0a4a269fe04b88c86f9f689390567df74a42fc2bad9190c1719c888d6c69064736f6c634300080d0033608060405234801561001057600080fd5b506129fd806100206000396000f3fe60806040523480156200001157600080fd5b5060043610620000885760003560e01c80636b5eb09c11620000635780636b5eb09c146200012f5780638c816a631462000165578063ddba07a4146200019b578063ed7494ee14620001bd5762000088565b8063043be2e4146200008d578063253dbcc814620000c35780635ddd0a4314620000f9575b600080fd5b620000ab6004803603810190620000a5919062000cae565b620001f3565b604051620000ba919062000dc8565b60405180910390f35b620000e16004803603810190620000db919062000cae565b62000464565b604051620000f0919062000e03565b60405180910390f35b62000117600480360381019062000111919062000e51565b62000682565b60405162000126919062000e03565b60405180910390f35b6200014d600480360381019062000147919062000cae565b62000804565b6040516200015c919062000f2e565b60405180910390f35b6200018360048036038101906200017d919062000f4b565b62000837565b60405162000192919062000e03565b60405180910390f35b620001a5620009b5565b604051620001b49190620010c4565b60405180910390f35b620001db6004803603810190620001d59190620010e8565b62000b6e565b604051620001ea919062000f2e565b60405180910390f35b620001fd62000bae565b600073ffffffffffffffffffffffffffffffffffffffff166000808473ffffffffffffffffffffffffffffffffffffffff1673ffffffffffffffffffffffffffffffffffffffff16815260200190815260200160002060009054906101000a900473ffffffffffffffffffffffffffffffffffffffff1673ffffffffffffffffffffffffffffffffffffffff16036200033c576040518060800160405280600073ffffffffffffffffffffffffffffffffffffffff1681526020016040518060800160405280600081526020016000815260200160008152602001600081525081526020016040518060800160405280600081526020016000815260200160008152602001600081525081526020016040518060800160405280600081526020016000815260200160008152602001600081525081525090506200045f565b60008060008473ffffffffffffffffffffffffffffffffffffffff1673ffffffffffffffffffffffffffffffffffffffff16815260200190815260200160002060009054906101000a900473ffffffffffffffffffffffffffffffffffffffff1690506000806000808473ffffffffffffffffffffffffffffffffffffffff16635a9b0b896040518163ffffffff1660e01b81526004016101a060405180830381865afa158015620003f2573d6000803e3d6000fd5b505050506040513d601f19601f8201168201806040525081019062000418919062001267565b935093509350935060405180608001604052808573ffffffffffffffffffffffffffffffffffffffff16815260200184815260200183815260200182815250955050505050505b919050565b60008073ffffffffffffffffffffffffffffffffffffffff166000808473ffffffffffffffffffffffffffffffffffffffff1673ffffffffffffffffffffffffffffffffffffffff16815260200190815260200160002060009054906101000a900473ffffffffffffffffffffffffffffffffffffffff1673ffffffffffffffffffffffffffffffffffffffff16146200050257600090506200067d565b81604051620005119062000c04565b6200051d9190620012ec565b604051809103906000f0801580156200053a573d6000803e3d6000fd5b506000808473ffffffffffffffffffffffffffffffffffffffff1673ffffffffffffffffffffffffffffffffffffffff16815260200190815260200160002060006101000a81548173ffffffffffffffffffffffffffffffffffffffff021916908373ffffffffffffffffffffffffffffffffffffffff16021790555060016000808473ffffffffffffffffffffffffffffffffffffffff1673ffffffffffffffffffffffffffffffffffffffff16815260200190815260200160002060009054906101000a900473ffffffffffffffffffffffffffffffffffffffff169080600181540180825580915050600190039060005260206000200160009091909190916101000a81548173ffffffffffffffffffffffffffffffffffffffff021916908373ffffffffffffffffffffffffffffffffffffffff160217905550600190505b919050565b60008073ffffffffffffffffffffffffffffffffffffffff166000808773ffffffffffffffffffffffffffffffffffffffff1673ffffffffffffffffffffffffffffffffffffffff16815260200190815260200160002060009054906101000a900473ffffffffffffffffffffffffffffffffffffffff1673ffffffffffffffffffffffffffffffffffffffff1603620007205760009050620007fc565b60008060008773ffffffffffffffffffffffffffffffffffffffff1673ffffffffffffffffffffffffffffffffffffffff16815260200190815260200160002060009054906101000a900473ffffffffffffffffffffffffffffffffffffffff1690508073ffffffffffffffffffffffffffffffffffffffff166329e7ac458686866040518463ffffffff1660e01b8152600401620007c2939291906200131a565b600060405180830381600087803b158015620007dd57600080fd5b505af1158015620007f2573d6000803e3d6000fd5b5050505060019150505b949350505050565b60006020528060005260406000206000915054906101000a900473ffffffffffffffffffffffffffffffffffffffff1681565b60008073ffffffffffffffffffffffffffffffffffffffff166000808673ffffffffffffffffffffffffffffffffffffffff1673ffffffffffffffffffffffffffffffffffffffff16815260200190815260200160002060009054906101000a900473ffffffffffffffffffffffffffffffffffffffff1673ffffffffffffffffffffffffffffffffffffffff1603620008d55760009050620009ae565b60008060008673ffffffffffffffffffffffffffffffffffffffff1673ffffffffffffffffffffffffffffffffffffffff16815260200190815260200160002060009054906101000a900473ffffffffffffffffffffffffffffffffffffffff1690508073ffffffffffffffffffffffffffffffffffffffff1662262b6c85856040518363ffffffff1660e01b81526004016200097492919062001357565b600060405180830381600087803b1580156200098f57600080fd5b505af1158015620009a4573d6000803e3d6000fd5b5050505060019150505b9392505050565b6060600060018054905067ffffffffffffffff811115620009db57620009da62001147565b5b60405190808252806020026020018201604052801562000a1857816020015b62000a0462000bae565b815260200190600190039081620009fa5790505b50905060005b60018054905081101562000b66576000806000806001858154811062000a495762000a4862001384565b5b9060005260206000200160009054906101000a900473ffffffffffffffffffffffffffffffffffffffff1673ffffffffffffffffffffffffffffffffffffffff16635a9b0b896040518163ffffffff1660e01b81526004016101a060405180830381865afa15801562000ac0573d6000803e3d6000fd5b505050506040513d601f19601f8201168201806040525081019062000ae6919062001267565b9350935093509350600060405180608001604052808673ffffffffffffffffffffffffffffffffffffffff1681526020018581526020018481526020018381525090508087878151811062000b405762000b3f62001384565b5b60200260200101819052505050505050808062000b5d90620013e2565b91505062000a1e565b508091505090565b6001818154811062000b7f57600080fd5b906000526020600020016000915054906101000a900473ffffffffffffffffffffffffffffffffffffffff1681565b6040518060800160405280600073ffffffffffffffffffffffffffffffffffffffff16815260200162000be062000c12565b815260200162000bef62000c12565b815260200162000bfe62000c12565b81525090565b611598806200143083390190565b6040518060800160405280600081526020016000815260200160008152602001600081525090565b6000604051905090565b600080fd5b600073ffffffffffffffffffffffffffffffffffffffff82169050919050565b600062000c768262000c49565b9050919050565b62000c888162000c69565b811462000c9457600080fd5b50565b60008135905062000ca88162000c7d565b92915050565b60006020828403121562000cc75762000cc662000c44565b5b600062000cd78482850162000c97565b91505092915050565b62000ceb8162000c69565b82525050565b6000819050919050565b62000d068162000cf1565b82525050565b60808201600082015162000d24600085018262000cfb565b50602082015162000d39602085018262000cfb565b50604082015162000d4e604085018262000cfb565b50606082015162000d63606085018262000cfb565b50505050565b6101a08201600082015162000d82600085018262000ce0565b50602082015162000d97602085018262000d0c565b50604082015162000dac60a085018262000d0c565b50606082015162000dc261012085018262000d0c565b50505050565b60006101a08201905062000de0600083018462000d69565b92915050565b60008115159050919050565b62000dfd8162000de6565b82525050565b600060208201905062000e1a600083018462000df2565b92915050565b62000e2b8162000cf1565b811462000e3757600080fd5b50565b60008135905062000e4b8162000e20565b92915050565b6000806000806080858703121562000e6e5762000e6d62000c44565b5b600062000e7e8782880162000c97565b945050602062000e918782880162000e3a565b935050604062000ea48782880162000e3a565b925050606062000eb78782880162000c97565b91505092959194509250565b6000819050919050565b600062000eee62000ee862000ee28462000c49565b62000ec3565b62000c49565b9050919050565b600062000f028262000ecd565b9050919050565b600062000f168262000ef5565b9050919050565b62000f288162000f09565b82525050565b600060208201905062000f45600083018462000f1d565b92915050565b60008060006060848603121562000f675762000f6662000c44565b5b600062000f778682870162000c97565b935050602062000f8a8682870162000e3a565b925050604062000f9d8682870162000e3a565b9150509250925092565b600081519050919050565b600082825260208201905092915050565b6000819050602082019050919050565b6101a08201600082015162000fec600085018262000ce0565b50602082015162001001602085018262000d0c565b5060408201516200101660a085018262000d0c565b5060608201516200102c61012085018262000d0c565b50505050565b600062001040838362000fd3565b6101a08301905092915050565b6000602082019050919050565b6000620010678262000fa7565b62001073818562000fb2565b9350620010808362000fc3565b8060005b83811015620010b75781516200109b888262001032565b9750620010a8836200104d565b92505060018101905062001084565b5085935050505092915050565b60006020820190508181036000830152620010e081846200105a565b905092915050565b60006020828403121562001101576200110062000c44565b5b6000620011118482850162000e3a565b91505092915050565b6000815190506200112b8162000c7d565b92915050565b600080fd5b6000601f19601f8301169050919050565b7f4e487b7100000000000000000000000000000000000000000000000000000000600052604160045260246000fd5b620011818262001136565b810181811067ffffffffffffffff82111715620011a357620011a262001147565b5b80604052505050565b6000620011b862000c3a565b9050620011c6828262001176565b919050565b600081519050620011dc8162000e20565b92915050565b600060808284031215620011fb57620011fa62001131565b5b620012076080620011ac565b905060006200121984828501620011cb565b60008301525060206200122f84828501620011cb565b60208301525060406200124584828501620011cb565b60408301525060606200125b84828501620011cb565b60608301525092915050565b6000806000806101a0858703121562001285576200128462000c44565b5b600062001295878288016200111a565b9450506020620012a887828801620011e2565b93505060a0620012bb87828801620011e2565b925050610120620012cf87828801620011e2565b91505092959194509250565b620012e68162000c69565b82525050565b6000602082019050620013036000830184620012db565b92915050565b620013148162000cf1565b82525050565b600060608201905062001331600083018662001309565b62001340602083018562001309565b6200134f6040830184620012db565b949350505050565b60006040820190506200136e600083018562001309565b6200137d602083018462001309565b9392505050565b7f4e487b7100000000000000000000000000000000000000000000000000000000600052603260045260246000fd5b7f4e487b7100000000000000000000000000000000000000000000000000000000600052601160045260246000fd5b6000620013ef8262000cf1565b91507fffffffffffffffffffffffffffffffffffffffffffffffffffffffffffffffff8203620014245762001423620013b3565b5b60018201905091905056fe608060405234801561001057600080fd5b50604051611598380380611598833981810160405281019061003291906100db565b806000806101000a81548173ffffffffffffffffffffffffffffffffffffffff021916908373ffffffffffffffffffffffffffffffffffffffff16021790555050610108565b600080fd5b600073ffffffffffffffffffffffffffffffffffffffff82169050919050565b60006100a88261007d565b9050919050565b6100b88161009d565b81146100c357600080fd5b50565b6000815190506100d5816100af565b92915050565b6000602082840312156100f1576100f0610078565b5b60006100ff848285016100c6565b91505092915050565b611481806101176000396000f3fe60806040523480156200001157600080fd5b5060043610620000935760003560e01c80635a9b0b8911620000635780635a9b0b8914620001445780635fc50a2f14620001695780638017b8d414620001895780638da5cb5b14620001a95762000093565b8062262b6c14620000985780631b0e9bcd14620000b857806329e7ac4514620000ee5780634b58143e146200010e575b600080fd5b620000b66004803603810190620000b09190620007fe565b620001cb565b005b620000d66004803603810190620000d0919062000845565b620001fe565b604051620000e5919062000888565b60405180910390f35b6200010c60048036038101906200010691906200090a565b62000216565b005b6200012c600480360381019062000126919062000845565b62000437565b6040516200013b919062000888565b60405180910390f35b6200014e6200044f565b604051620001609493929190620009e5565b60405180910390f35b6200018760048036038101906200018191906200090a565b620005fd565b005b620001a76004803603810190620001a1919062000a34565b620006f6565b005b620001b362000764565b604051620001c2919062000a90565b60405180910390f35b80600260008481526020019081526020016000206001016000828254620001f3919062000adc565b925050819055505050565b60046020528060005260406000206000915090505481565b81600160008373ffffffffffffffffffffffffffffffffffffffff1673ffffffffffffffffffffffffffffffffffffffff1681526020019081526020016000206000858152602001908152602001600020541015620002ac576040517f08c379a0000000000000000000000000000000000000000000000000000000008152600401620002a39062000b9a565b60405180910390fd5b81600160008373ffffffffffffffffffffffffffffffffffffffff1673ffffffffffffffffffffffffffffffffffffffff168152602001908152602001600020600085815260200190815260200160002060008282546200030e919062000bbc565b9250508190555060008060009054906101000a900473ffffffffffffffffffffffffffffffffffffffff168285856040516200034a9062000788565b62000359949392919062000bf7565b604051809103906000f08015801562000376573d6000803e3d6000fd5b50905082600360008373ffffffffffffffffffffffffffffffffffffffff1673ffffffffffffffffffffffffffffffffffffffff1681526020019081526020016000206000868152602001908152602001600020819055506006819080600181540180825580915050600190039060005260206000200160009091909190916101000a81548173ffffffffffffffffffffffffffffffffffffffff021916908373ffffffffffffffffffffffffffffffffffffffff16021790555050505050565b60056020528060005260406000206000915090505481565b60006200045b62000796565b6200046562000796565b6200046f62000796565b60008054906101000a900473ffffffffffffffffffffffffffffffffffffffff16604051806080016040528060026000600181526020019081526020016000206001015481526020016002600060028152602001908152602001600020600101548152602001600260006003815260200190815260200160002060010154815260200160026000600481526020019081526020016000206001015481525060405180608001604052806004600060018152602001908152602001600020548152602001600460006002815260200190815260200160002054815260200160046000600381526020019081526020016000205481526020016004600060048152602001908152602001600020548152506040518060800160405280600560006001815260200190815260200160002054815260200160056000600281526020019081526020016000205481526020016005600060038152602001908152602001600020548152602001600560006004815260200190815260200160002054815250935093509350935090919293565b816002600085815260200190815260200160002060010154101562000659576040517f08c379a0000000000000000000000000000000000000000000000000000000008152600401620006509062000c94565b60405180910390fd5b81600160008373ffffffffffffffffffffffffffffffffffffffff1673ffffffffffffffffffffffffffffffffffffffff16815260200190815260200160002060008581526020019081526020016000206000828254620006bb919062000adc565b9250508190555081600260008581526020019081526020016000206001016000828254620006ea919062000bbc565b92505081905550505050565b80600360008573ffffffffffffffffffffffffffffffffffffffff1673ffffffffffffffffffffffffffffffffffffffff1681526020019081526020016000206000848152602001908152602001600020600082825462000758919062000bbc565b92505081905550505050565b60008054906101000a900473ffffffffffffffffffffffffffffffffffffffff1681565b6107958062000cb783390190565b6040518060800160405280600081526020016000815260200160008152602001600081525090565b600080fd5b6000819050919050565b620007d881620007c3565b8114620007e457600080fd5b50565b600081359050620007f881620007cd565b92915050565b60008060408385031215620008185762000817620007be565b5b60006200082885828601620007e7565b92505060206200083b85828601620007e7565b9150509250929050565b6000602082840312156200085e576200085d620007be565b5b60006200086e84828501620007e7565b91505092915050565b6200088281620007c3565b82525050565b60006020820190506200089f600083018462000877565b92915050565b600073ffffffffffffffffffffffffffffffffffffffff82169050919050565b6000620008d282620008a5565b9050919050565b620008e481620008c5565b8114620008f057600080fd5b50565b6000813590506200090481620008d9565b92915050565b600080600060608486031215620009265762000925620007be565b5b60006200093686828701620007e7565b93505060206200094986828701620007e7565b92505060406200095c86828701620008f3565b9150509250925092565b6200097181620008c5565b82525050565b6200098281620007c3565b82525050565b608082016000820151620009a0600085018262000977565b506020820151620009b5602085018262000977565b506040820151620009ca604085018262000977565b506060820151620009df606085018262000977565b50505050565b60006101a082019050620009fd600083018762000966565b62000a0c602083018662000988565b62000a1b60a083018562000988565b62000a2b61012083018462000988565b95945050505050565b60008060006060848603121562000a505762000a4f620007be565b5b600062000a6086828701620008f3565b935050602062000a7386828701620007e7565b925050604062000a8686828701620007e7565b9150509250925092565b600060208201905062000aa7600083018462000966565b92915050565b7f4e487b7100000000000000000000000000000000000000000000000000000000600052601160045260246000fd5b600062000ae982620007c3565b915062000af683620007c3565b9250827fffffffffffffffffffffffffffffffffffffffffffffffffffffffffffffffff0382111562000b2e5762000b2d62000aad565b5b828201905092915050565b600082825260208201905092915050565b7f4f7264657220706c61636564206973206c657373000000000000000000000000600082015250565b600062000b8260148362000b39565b915062000b8f8262000b4a565b602082019050919050565b6000602082019050818103600083015262000bb58162000b73565b9050919050565b600062000bc982620007c3565b915062000bd683620007c3565b92508282101562000bec5762000beb62000aad565b5b828203905092915050565b600060808201905062000c0e600083018762000966565b62000c1d602083018662000966565b62000c2c604083018562000877565b62000c3b606083018462000877565b95945050505050565b7f496e73756666696369656e742053746f636b0000000000000000000000000000600082015250565b600062000c7c60128362000b39565b915062000c898262000c44565b602082019050919050565b6000602082019050818103600083015262000caf8162000c6d565b905091905056fe60806040526001600660006101000a81548160ff02191690831515021790555034801561002b57600080fd5b50604051610795380380610795833981810160405281019061004d919061017e565b836000806101000a81548173ffffffffffffffffffffffffffffffffffffffff021916908373ffffffffffffffffffffffffffffffffffffffff16021790555082600160006101000a81548173ffffffffffffffffffffffffffffffffffffffff021916908373ffffffffffffffffffffffffffffffffffffffff1602179055508160028190555080600381905550505050506101e5565b600080fd5b600073ffffffffffffffffffffffffffffffffffffffff82169050919050565b6000610115826100ea565b9050919050565b6101258161010a565b811461013057600080fd5b50565b6000815190506101428161011c565b92915050565b6000819050919050565b61015b81610148565b811461016657600080fd5b50565b60008151905061017881610152565b92915050565b60008060008060808587031215610198576101976100e5565b5b60006101a687828801610133565b94505060206101b787828801610133565b93505060406101c887828801610169565b92505060606101d987828801610169565b91505092959194509250565b6105a1806101f46000396000f3fe608060405234801561001057600080fd5b50600436106100575760003560e01c806310272d131461005c578063258b43d7146100665780634acc3a8e1461008257806356dcb0221461008c578063aae8107b146100a8575b600080fd5b6100646100c4565b005b610080600480360381019061007b91906102c8565b610181565b005b61008a61018b565b005b6100a660048036038101906100a1919061043b565b6101b7565b005b6100c260048036038101906100bd91906102c8565b6101d1565b005b6000600160009054906101000a900473ffffffffffffffffffffffffffffffffffffffff1690508073ffffffffffffffffffffffffffffffffffffffff1663750a49cc60025460035460008054906101000a900473ffffffffffffffffffffffffffffffffffffffff166040518463ffffffff1660e01b815260040161014c939291906104d4565b600060405180830381600087803b15801561016657600080fd5b505af115801561017a573d6000803e3d6000fd5b5050505050565b8060078190555050565b600660009054906101000a900460ff1615600660006101000a81548160ff021916908315150217905550565b80600490805190602001906101cd9291906101db565b5050565b8060058190555050565b8280546101e79061053a565b90600052602060002090601f0160209004810192826102095760008555610250565b82601f1061022257805160ff1916838001178555610250565b82800160010185558215610250579182015b8281111561024f578251825591602001919060010190610234565b5b50905061025d9190610261565b5090565b5b8082111561027a576000816000905550600101610262565b5090565b6000604051905090565b600080fd5b600080fd5b6000819050919050565b6102a581610292565b81146102b057600080fd5b50565b6000813590506102c28161029c565b92915050565b6000602082840312156102de576102dd610288565b5b60006102ec848285016102b3565b91505092915050565b600080fd5b600080fd5b6000601f19601f8301169050919050565b7f4e487b7100000000000000000000000000000000000000000000000000000000600052604160045260246000fd5b610348826102ff565b810181811067ffffffffffffffff8211171561036757610366610310565b5b80604052505050565b600061037a61027e565b9050610386828261033f565b919050565b600067ffffffffffffffff8211156103a6576103a5610310565b5b6103af826102ff565b9050602081019050919050565b82818337600083830152505050565b60006103de6103d98461038b565b610370565b9050828152602081018484840111156103fa576103f96102fa565b5b6104058482856103bc565b509392505050565b600082601f830112610422576104216102f5565b5b81356104328482602086016103cb565b91505092915050565b60006020828403121561045157610450610288565b5b600082013567ffffffffffffffff81111561046f5761046e61028d565b5b61047b8482850161040d565b91505092915050565b61048d81610292565b82525050565b600073ffffffffffffffffffffffffffffffffffffffff82169050919050565b60006104be82610493565b9050919050565b6104ce816104b3565b82525050565b60006060820190506104e96000830186610484565b6104f66020830185610484565b61050360408301846104c5565b949350505050565b7f4e487b7100000000000000000000000000000000000000000000000000000000600052602260045260246000fd5b6000600282049050600182168061055257607f821691505b6020821081036105655761056461050b565b5b5091905056fea26469706673582212202f9e91bb5c6b41992515175578590ce3141da01c6e8eefe741961c3f5d0fadfa64736f6c634300080d0033a26469706673582212207a99b20272b9e98c4c87022966c4b3c2e3f981612c0e37f4092b6b3165ee900264736f6c634300080d0033a26469706673582212205d744112ae92be1f9f150b1c4ba1280a5e0b368bce742dcd1e0ee06f50f3bd5e64736f6c634300080d00336080604052600160005534801561001557600080fd5b50612aba806100256000396000f3fe60806040523480156200001157600080fd5b5060043610620000885760003560e01c806357afa3e8116200006357806357afa3e8146200012f578063722b03761462000165578063973f6129146200019b578063e9523c9714620001d15762000088565b806304020595146200008d5780633a49972c14620000c3578063429b62e514620000f9575b600080fd5b620000ab6004803603810190620000a5919062000cf6565b620001f3565b604051620000ba919062000d45565b60405180910390f35b620000e16004803603810190620000db919062000da7565b62000431565b604051620000f0919062000d45565b60405180910390f35b62000117600480360381019062000111919062000cf6565b620005af565b60405162000126919062000e59565b60405180910390f35b6200014d600480360381019062000147919062000eb1565b620005e2565b6040516200015c919062000d45565b60405180910390f35b6200018360048036038101906200017d919062000cf6565b62000766565b60405162000192919062001016565b60405180910390f35b620001b96004803603810190620001b3919062001034565b620009eb565b604051620001c8919062000e59565b60405180910390f35b620001db62000a2b565b604051620001ea919062001198565b60405180910390f35b60008073ffffffffffffffffffffffffffffffffffffffff16600160008473ffffffffffffffffffffffffffffffffffffffff1673ffffffffffffffffffffffffffffffffffffffff16815260200190815260200160002060009054906101000a900473ffffffffffffffffffffffffffffffffffffffff1673ffffffffffffffffffffffffffffffffffffffff16146200029257600090506200042c565b60005482604051620002a49062000bef565b620002b1929190620011de565b604051809103906000f080158015620002ce573d6000803e3d6000fd5b50600160008473ffffffffffffffffffffffffffffffffffffffff1673ffffffffffffffffffffffffffffffffffffffff16815260200190815260200160002060006101000a81548173ffffffffffffffffffffffffffffffffffffffff021916908373ffffffffffffffffffffffffffffffffffffffff16021790555060008081548092919062000360906200123a565b91905055506002600160008473ffffffffffffffffffffffffffffffffffffffff1673ffffffffffffffffffffffffffffffffffffffff16815260200190815260200160002060009054906101000a900473ffffffffffffffffffffffffffffffffffffffff169080600181540180825580915050600190039060005260206000200160009091909190916101000a81548173ffffffffffffffffffffffffffffffffffffffff021916908373ffffffffffffffffffffffffffffffffffffffff160217905550600190505b919050565b60008073ffffffffffffffffffffffffffffffffffffffff16600160008573ffffffffffffffffffffffffffffffffffffffff1673ffffffffffffffffffffffffffffffffffffffff16815260200190815260200160002060009054906101000a900473ffffffffffffffffffffffffffffffffffffffff1673ffffffffffffffffffffffffffffffffffffffff1603620004d05760009050620005a9565b6000600160008573ffffffffffffffffffffffffffffffffffffffff1673ffffffffffffffffffffffffffffffffffffffff16815260200190815260200160002060009054906101000a900473ffffffffffffffffffffffffffffffffffffffff1690508073ffffffffffffffffffffffffffffffffffffffff1663e3ef418b846040518263ffffffff1660e01b81526004016200056f919062001287565b600060405180830381600087803b1580156200058a57600080fd5b505af11580156200059f573d6000803e3d6000fd5b5050505060019150505b92915050565b60016020528060005260406000206000915054906101000a900473ffffffffffffffffffffffffffffffffffffffff1681565b60008073ffffffffffffffffffffffffffffffffffffffff16600160008773ffffffffffffffffffffffffffffffffffffffff1673ffffffffffffffffffffffffffffffffffffffff16815260200190815260200160002060009054906101000a900473ffffffffffffffffffffffffffffffffffffffff1673ffffffffffffffffffffffffffffffffffffffff16036200068157600090506200075e565b6000600160008773ffffffffffffffffffffffffffffffffffffffff1673ffffffffffffffffffffffffffffffffffffffff16815260200190815260200160002060009054906101000a900473ffffffffffffffffffffffffffffffffffffffff1690508073ffffffffffffffffffffffffffffffffffffffff166311fc3b4e8686866040518463ffffffff1660e01b81526004016200072493929190620012a4565b600060405180830381600087803b1580156200073f57600080fd5b505af115801562000754573d6000803e3d6000fd5b5050505060019150505b949350505050565b6200077062000bfd565b600073ffffffffffffffffffffffffffffffffffffffff16600160008473ffffffffffffffffffffffffffffffffffffffff1673ffffffffffffffffffffffffffffffffffffffff16815260200190815260200160002060009054906101000a900473ffffffffffffffffffffffffffffffffffffffff1673ffffffffffffffffffffffffffffffffffffffff1603620008b7576040518060a00160405280600073ffffffffffffffffffffffffffffffffffffffff16815260200160008152602001604051806080016040528060008152602001600081526020016000815260200160008152508152602001604051806080016040528060008152602001600081526020016000815260200160008152508152602001604051806080016040528060008152602001600081526020016000815260200160008152508152509050620009e6565b6000600160008473ffffffffffffffffffffffffffffffffffffffff1673ffffffffffffffffffffffffffffffffffffffff16815260200190815260200160002060009054906101000a900473ffffffffffffffffffffffffffffffffffffffff16905060008060008060008573ffffffffffffffffffffffffffffffffffffffff16635a9b0b896040518163ffffffff1660e01b81526004016101c060405180830381865afa15801562000970573d6000803e3d6000fd5b505050506040513d601f19601f820116820180604052508101906200099691906200142e565b945094509450945094506040518060a001604052808673ffffffffffffffffffffffffffffffffffffffff1681526020018581526020018481526020018381526020018281525096505050505050505b919050565b60028181548110620009fc57600080fd5b906000526020600020016000915054906101000a900473ffffffffffffffffffffffffffffffffffffffff1681565b6060600060028054905067ffffffffffffffff81111562000a515762000a5062001325565b5b60405190808252806020026020018201604052801562000a8e57816020015b62000a7a62000bfd565b81526020019060019003908162000a705790505b50905060005b60028054905081101562000be75760008060008060006002868154811062000ac15762000ac0620014b8565b5b9060005260206000200160009054906101000a900473ffffffffffffffffffffffffffffffffffffffff1673ffffffffffffffffffffffffffffffffffffffff16635a9b0b896040518163ffffffff1660e01b81526004016101c060405180830381865afa15801562000b38573d6000803e3d6000fd5b505050506040513d601f19601f8201168201806040525081019062000b5e91906200142e565b9450945094509450945060006040518060a001604052808773ffffffffffffffffffffffffffffffffffffffff1681526020018681526020018581526020018481526020018381525090508088888151811062000bc05762000bbf620014b8565b5b6020026020010181905250505050505050808062000bde906200123a565b91505062000a94565b508091505090565b61159d80620014e883390190565b6040518060a00160405280600073ffffffffffffffffffffffffffffffffffffffff1681526020016000815260200162000c3662000c5a565b815260200162000c4562000c5a565b815260200162000c5462000c5a565b81525090565b6040518060800160405280600081526020016000815260200160008152602001600081525090565b6000604051905090565b600080fd5b600073ffffffffffffffffffffffffffffffffffffffff82169050919050565b600062000cbe8262000c91565b9050919050565b62000cd08162000cb1565b811462000cdc57600080fd5b50565b60008135905062000cf08162000cc5565b92915050565b60006020828403121562000d0f5762000d0e62000c8c565b5b600062000d1f8482850162000cdf565b91505092915050565b60008115159050919050565b62000d3f8162000d28565b82525050565b600060208201905062000d5c600083018462000d34565b92915050565b600062000d6f8262000cb1565b9050919050565b62000d818162000d62565b811462000d8d57600080fd5b50565b60008135905062000da18162000d76565b92915050565b6000806040838503121562000dc15762000dc062000c8c565b5b600062000dd18582860162000cdf565b925050602062000de48582860162000d90565b9150509250929050565b6000819050919050565b600062000e1962000e1362000e0d8462000c91565b62000dee565b62000c91565b9050919050565b600062000e2d8262000df8565b9050919050565b600062000e418262000e20565b9050919050565b62000e538162000e34565b82525050565b600060208201905062000e70600083018462000e48565b92915050565b6000819050919050565b62000e8b8162000e76565b811462000e9757600080fd5b50565b60008135905062000eab8162000e80565b92915050565b6000806000806080858703121562000ece5762000ecd62000c8c565b5b600062000ede8782880162000cdf565b945050602062000ef18782880162000e9a565b935050604062000f048782880162000e9a565b925050606062000f178782880162000cdf565b91505092959194509250565b62000f2e8162000cb1565b82525050565b62000f3f8162000e76565b82525050565b60808201600082015162000f5d600085018262000f34565b50602082015162000f72602085018262000f34565b50604082015162000f87604085018262000f34565b50606082015162000f9c606085018262000f34565b50505050565b6101c08201600082015162000fbb600085018262000f23565b50602082015162000fd0602085018262000f34565b50604082015162000fe5604085018262000f45565b50606082015162000ffa60c085018262000f45565b5060808201516200101061014085018262000f45565b50505050565b60006101c0820190506200102e600083018462000fa2565b92915050565b6000602082840312156200104d576200104c62000c8c565b5b60006200105d8482850162000e9a565b91505092915050565b600081519050919050565b600082825260208201905092915050565b6000819050602082019050919050565b6101c082016000820151620010ab600085018262000f23565b506020820151620010c0602085018262000f34565b506040820151620010d5604085018262000f45565b506060820151620010ea60c085018262000f45565b5060808201516200110061014085018262000f45565b50505050565b600062001114838362001092565b6101c08301905092915050565b6000602082019050919050565b60006200113b8262001066565b62001147818562001071565b9350620011548362001082565b8060005b838110156200118b5781516200116f888262001106565b97506200117c8362001121565b92505060018101905062001158565b5085935050505092915050565b60006020820190508181036000830152620011b481846200112e565b905092915050565b620011c78162000e76565b82525050565b620011d88162000cb1565b82525050565b6000604082019050620011f56000830185620011bc565b620012046020830184620011cd565b9392505050565b7f4e487b7100000000000000000000000000000000000000000000000000000000600052601160045260246000fd5b6000620012478262000e76565b91507fffffffffffffffffffffffffffffffffffffffffffffffffffffffffffffffff82036200127c576200127b6200120b565b5b600182019050919050565b60006020820190506200129e6000830184620011cd565b92915050565b6000606082019050620012bb6000830186620011bc565b620012ca6020830185620011bc565b620012d96040830184620011cd565b949350505050565b600081519050620012f28162000cc5565b92915050565b600081519050620013098162000e80565b92915050565b600080fd5b6000601f19601f8301169050919050565b7f4e487b7100000000000000000000000000000000000000000000000000000000600052604160045260246000fd5b6200135f8262001314565b810181811067ffffffffffffffff8211171562001381576200138062001325565b5b80604052505050565b60006200139662000c82565b9050620013a4828262001354565b919050565b600060808284031215620013c257620013c16200130f565b5b620013ce60806200138a565b90506000620013e084828501620012f8565b6000830152506020620013f684828501620012f8565b60208301525060406200140c84828501620012f8565b60408301525060606200142284828501620012f8565b60608301525092915050565b60008060008060006101c086880312156200144e576200144d62000c8c565b5b60006200145e88828901620012e1565b95505060206200147188828901620012f8565b94505060406200148488828901620013a9565b93505060c06200149788828901620013a9565b925050610140620014ab88828901620013a9565b9150509295509295909350565b7f4e487b7100000000000000000000000000000000000000000000000000000000600052603260045260246000fdfe608060405260006007553480156200001657600080fd5b506040516200159d3803806200159d83398181016040528101906200003c919062000130565b806000806101000a81548173ffffffffffffffffffffffffffffffffffffffff021916908373ffffffffffffffffffffffffffffffffffffffff16021790555081600181905550505062000177565b600080fd5b6000819050919050565b620000a58162000090565b8114620000b157600080fd5b50565b600081519050620000c5816200009a565b92915050565b600073ffffffffffffffffffffffffffffffffffffffff82169050919050565b6000620000f882620000cb565b9050919050565b6200010a81620000eb565b81146200011657600080fd5b50565b6000815190506200012a81620000ff565b92915050565b600080604083850312156200014a57620001496200008b565b5b60006200015a85828601620000b4565b92505060206200016d8582860162000119565b9150509250929050565b61141680620001876000396000f3fe608060405234801561001057600080fd5b50600436106100b45760003560e01c80636ee75c4e116100715780636ee75c4e146101a3578063750a49cc146101d35780638da5cb5b146101ef578063d3cc2e0d1461020d578063e3ef418b1461023d578063fefd0e0b14610259576100b4565b806311fc3b4e146100b95780631b0e9bcd146100d55780633867f1ec146101055780633c70d04a146101355780635a9b0b89146101655780636730a63d14610187575b600080fd5b6100d360048036038101906100ce9190610e10565b610275565b005b6100ef60048036038101906100ea9190610e63565b6103a0565b6040516100fc9190610e9f565b60405180910390f35b61011f600480360381019061011a9190610eba565b6103b8565b60405161012c9190610e9f565b60405180910390f35b61014f600480360381019061014a9190610e63565b6103d0565b60405161015c9190610e9f565b60405180910390f35b61016d6103e8565b60405161017e959493929190610f5a565b60405180910390f35b6101a1600480360381019061019c9190610eba565b61058b565b005b6101bd60048036038101906101b89190610faf565b61077d565b6040516101ca9190610e9f565b60405180910390f35b6101ed60048036038101906101e89190610e10565b6107a2565b005b6101f76109a1565b6040516102049190610fef565b60405180910390f35b61022760048036038101906102229190610e63565b6109c5565b6040516102349190610e9f565b60405180910390f35b61025760048036038101906102529190610eba565b6109dd565b005b610273600480360381019061026e9190610faf565b610c43565b005b60008190508073ffffffffffffffffffffffffffffffffffffffff16635fc50a2f858560008054906101000a900473ffffffffffffffffffffffffffffffffffffffff166040518463ffffffff1660e01b81526004016102d79392919061100a565b600060405180830381600087803b1580156102f157600080fd5b505af1158015610305573d6000803e3d6000fd5b5050505082600360008473ffffffffffffffffffffffffffffffffffffffff1673ffffffffffffffffffffffffffffffffffffffff168152602001908152602001600020600086815260200190815260200160002060008282546103699190611070565b92505081905550826005600086815260200190815260200160002060008282546103939190611070565b9250508190555050505050565b60056020528060005260406000206000915090505481565b60046020528060005260406000206000915090505481565b60026020528060005260406000206000915090505481565b6000806103f3610d4f565b6103fb610d4f565b610403610d4f565b60008054906101000a900473ffffffffffffffffffffffffffffffffffffffff16600154604051806080016040528060026000600181526020019081526020016000205481526020016002600060028152602001908152602001600020548152602001600260006003815260200190815260200160002054815260200160026000600481526020019081526020016000205481525060405180608001604052806005600060018152602001908152602001600020548152602001600560006002815260200190815260200160002054815260200160056000600381526020019081526020016000205481526020016005600060048152602001908152602001600020548152506040518060800160405280600660006001815260200190815260200160002054815260200160066000600281526020019081526020016000205481526020016006600060038152602001908152602001600020548152602001600660006004815260200190815260200160002054815250945094509450945094509091929394565b600081905060008173ffffffffffffffffffffffffffffffffffffffff1663eb8704736040518163ffffffff1660e01b8152600401602060405180830381865afa1580156105dd573d6000803e3d6000fd5b505050506040513d601f19601f8201168201806040525081019061060191906110db565b14610641576040517f08c379a00000000000000000000000000000000000000000000000000000000081526004016106389061118b565b60405180910390fd5b60008173ffffffffffffffffffffffffffffffffffffffff1663a846118b6040518163ffffffff1660e01b8152600401602060405180830381865afa15801561068e573d6000803e3d6000fd5b505050506040513d601f19601f820116820180604052508101906106b291906110db565b9050600060026000838152602001908152602001600020541161070a576040517f08c379a0000000000000000000000000000000000000000000000000000000008152600401610701906111f7565b60405180910390fd5b600160026000838152602001908152602001600020600082825461072e9190611217565b925050819055506001600760008282546107489190611217565b925050819055506006600082815260200190815260200160002060008154809291906107739061124b565b9190505550505050565b6003602052816000526040600020602052806000526040600020600091509150505481565b6000600360008373ffffffffffffffffffffffffffffffffffffffff1673ffffffffffffffffffffffffffffffffffffffff16815260200190815260200160002060008581526020019081526020016000205403610835576040517f08c379a000000000000000000000000000000000000000000000000000000000815260040161082c90611305565b60405180910390fd5b81600360008373ffffffffffffffffffffffffffffffffffffffff1673ffffffffffffffffffffffffffffffffffffffff16815260200190815260200160002060008581526020019081526020016000205410156108c8576040517f08c379a00000000000000000000000000000000000000000000000000000000081526004016108bf90611397565b60405180910390fd5b816002600085815260200190815260200160002060008282546108eb9190611070565b9250508190555081600760008282546109049190611070565b9250508190555081600360008373ffffffffffffffffffffffffffffffffffffffff1673ffffffffffffffffffffffffffffffffffffffff1681526020019081526020016000206000858152602001908152602001600020600082825461096b9190611217565b92505081905550816005600085815260200190815260200160002060008282546109959190611217565b92505081905550505050565b60008054906101000a900473ffffffffffffffffffffffffffffffffffffffff1681565b60066020528060005260406000206000915090505481565b60008190508073ffffffffffffffffffffffffffffffffffffffff166368e7ad366040518163ffffffff1660e01b8152600401600060405180830381600087803b158015610a2a57600080fd5b505af1158015610a3e573d6000803e3d6000fd5b5050505060018173ffffffffffffffffffffffffffffffffffffffff1663eb8704736040518163ffffffff1660e01b8152600401602060405180830381865afa158015610a8f573d6000803e3d6000fd5b505050506040513d601f19601f82011682018060405250810190610ab391906110db565b03610b63578073ffffffffffffffffffffffffffffffffffffffff166354c30984600460008573ffffffffffffffffffffffffffffffffffffffff1673ffffffffffffffffffffffffffffffffffffffff168152602001908152602001600020546040518263ffffffff1660e01b8152600401610b309190610e9f565b600060405180830381600087803b158015610b4a57600080fd5b505af1158015610b5e573d6000803e3d6000fd5b505050505b6000600460008473ffffffffffffffffffffffffffffffffffffffff1673ffffffffffffffffffffffffffffffffffffffff16815260200190815260200160002081905550600660008273ffffffffffffffffffffffffffffffffffffffff1663a846118b6040518163ffffffff1660e01b8152600401602060405180830381865afa158015610bf7573d6000803e3d6000fd5b505050506040513d601f19601f82011682018060405250810190610c1b91906110db565b81526020019081526020016000206000815480929190610c3a906113b7565b91905055505050565b6000600260008381526020019081526020016000205411610c99576040517f08c379a0000000000000000000000000000000000000000000000000000000008152600401610c90906111f7565b60405180910390fd5b6001600260008381526020019081526020016000206000828254610cbd9190611217565b92505081905550600160076000828254610cd79190611217565b9250508190555080600460008473ffffffffffffffffffffffffffffffffffffffff1673ffffffffffffffffffffffffffffffffffffffff16815260200190815260200160002081905550600660008281526020019081526020016000206000815480929190610d469061124b565b91905055505050565b6040518060800160405280600081526020016000815260200160008152602001600081525090565b600080fd5b6000819050919050565b610d8f81610d7c565b8114610d9a57600080fd5b50565b600081359050610dac81610d86565b92915050565b600073ffffffffffffffffffffffffffffffffffffffff82169050919050565b6000610ddd82610db2565b9050919050565b610ded81610dd2565b8114610df857600080fd5b50565b600081359050610e0a81610de4565b92915050565b600080600060608486031215610e2957610e28610d77565b5b6000610e3786828701610d9d565b9350506020610e4886828701610d9d565b9250506040610e5986828701610dfb565b9150509250925092565b600060208284031215610e7957610e78610d77565b5b6000610e8784828501610d9d565b91505092915050565b610e9981610d7c565b82525050565b6000602082019050610eb46000830184610e90565b92915050565b600060208284031215610ed057610ecf610d77565b5b6000610ede84828501610dfb565b91505092915050565b610ef081610dd2565b82525050565b610eff81610d7c565b82525050565b608082016000820151610f1b6000850182610ef6565b506020820151610f2e6020850182610ef6565b506040820151610f416040850182610ef6565b506060820151610f546060850182610ef6565b50505050565b60006101c082019050610f706000830188610ee7565b610f7d6020830187610e90565b610f8a6040830186610f05565b610f9760c0830185610f05565b610fa5610140830184610f05565b9695505050505050565b60008060408385031215610fc657610fc5610d77565b5b6000610fd485828601610dfb565b9250506020610fe585828601610d9d565b9150509250929050565b60006020820190506110046000830184610ee7565b92915050565b600060608201905061101f6000830186610e90565b61102c6020830185610e90565b6110396040830184610ee7565b949350505050565b7f4e487b7100000000000000000000000000000000000000000000000000000000600052601160045260246000fd5b600061107b82610d7c565b915061108683610d7c565b9250827fffffffffffffffffffffffffffffffffffffffffffffffffffffffffffffffff038211156110bb576110ba611041565b5b828201905092915050565b6000815190506110d581610d86565b92915050565b6000602082840312156110f1576110f0610d77565b5b60006110ff848285016110c6565b91505092915050565b600082825260208201905092915050565b7f546869732063616e6e6f74206265207468652062656e6566696369617279207360008201527f65636f6e642076616363696e6500000000000000000000000000000000000000602082015250565b6000611175602d83611108565b915061118082611119565b604082019050919050565b600060208201905081810360008301526111a481611168565b9050919050565b7f496e73756666696369656e742053746f636b7300000000000000000000000000600082015250565b60006111e1601383611108565b91506111ec826111ab565b602082019050919050565b60006020820190508181036000830152611210816111d4565b9050919050565b600061122282610d7c565b915061122d83610d7c565b9250828210156112405761123f611041565b5b828203905092915050565b600061125682610d7c565b91507fffffffffffffffffffffffffffffffffffffffffffffffffffffffffffffffff820361128857611287611041565b5b600182019050919050565b7f4e6f206f7264657220686164206265656e20706c61636564207769746820746860008201527f6973206d616e7566616374757265720000000000000000000000000000000000602082015250565b60006112ef602f83611108565b91506112fa82611293565b604082019050919050565b6000602082019050818103600083015261131e816112e2565b9050919050565b7f4d6f7265207468616e206f7264657265642076616363696e657320686173206260008201527f65656e2072656365697665640000000000000000000000000000000000000000602082015250565b6000611381602c83611108565b915061138c82611325565b604082019050919050565b600060208201905081810360008301526113b081611374565b9050919050565b60006113c282610d7c565b9150600082036113d5576113d4611041565b5b60018203905091905056fea264697066735822122018b1c6a7e9fe81c17edd69942e701338579f9dbc0201a3c5a91897ab5e8d6a9d64736f6c634300080d0033a26469706673582212200e21b588ba741ae936b100473ed98a332980062c25e926037db618b15b29626c64736f6c634300080d0033608060405234801561001057600080fd5b50611272806100206000396000f3fe608060405234801561001057600080fd5b506004361061007d5760003560e01c8063339874d51161005b578063339874d51461011257806357d5b1c9146101425780639b7abde714610172578063efeb5e58146101a25761007d565b80630a9890251461008257806313b1a822146100b2578063302df083146100e2575b600080fd5b61009c600480360381019061009791906107d1565b6101d2565b6040516100a9919061087d565b60405180910390f35b6100cc60048036038101906100c791906107d1565b610211565b6040516100d991906108b3565b60405180910390f35b6100fc60048036038101906100f791906107d1565b610304565b604051610109919061087d565b60405180910390f35b61012c6004803603810190610127919061090c565b610340565b60405161013991906108b3565b60405180910390f35b61015c6004803603810190610157919061095f565b610461565b60405161016991906108b3565b60405180910390f35b61018c600480360381019061018791906107d1565b61057f565b60405161019991906109dd565b60405180910390f35b6101bc60048036038101906101b791906107d1565b61073c565b6040516101c9919061087d565b60405180910390f35b600181815481106101e257600080fd5b906000526020600020016000915054906101000a900473ffffffffffffffffffffffffffffffffffffffff1681565b60008073ffffffffffffffffffffffffffffffffffffffff1660008084815260200190815260200160002060009054906101000a900473ffffffffffffffffffffffffffffffffffffffff1673ffffffffffffffffffffffffffffffffffffffff16036102fa576040516102849061076f565b604051809103906000f0801580156102a0573d6000803e3d6000fd5b5060008084815260200190815260200160002060006101000a81548173ffffffffffffffffffffffffffffffffffffffff021916908373ffffffffffffffffffffffffffffffffffffffff160217905550600190506102ff565b600090505b919050565b600080600083815260200190815260200160002060009054906101000a900473ffffffffffffffffffffffffffffffffffffffff169050919050565b60008073ffffffffffffffffffffffffffffffffffffffff1660008086815260200190815260200160002060009054906101000a900473ffffffffffffffffffffffffffffffffffffffff1673ffffffffffffffffffffffffffffffffffffffff16036103b0576000905061045a565b600080600086815260200190815260200160002060009054906101000a900473ffffffffffffffffffffffffffffffffffffffff1690508073ffffffffffffffffffffffffffffffffffffffff16631be1500a84866040518363ffffffff1660e01b8152600401610422929190610a16565b600060405180830381600087803b15801561043c57600080fd5b505af1158015610450573d6000803e3d6000fd5b5050505060019150505b9392505050565b60008073ffffffffffffffffffffffffffffffffffffffff1660008085815260200190815260200160002060009054906101000a900473ffffffffffffffffffffffffffffffffffffffff1673ffffffffffffffffffffffffffffffffffffffff16036104d15760009050610579565b600080600085815260200190815260200160002060009054906101000a900473ffffffffffffffffffffffffffffffffffffffff1690508073ffffffffffffffffffffffffffffffffffffffff1663a3e06880846040518263ffffffff1660e01b81526004016105419190610a3f565b600060405180830381600087803b15801561055b57600080fd5b505af115801561056f573d6000803e3d6000fd5b5050505060019150505b92915050565b61058761077c565b600073ffffffffffffffffffffffffffffffffffffffff1660008084815260200190815260200160002060009054906101000a900473ffffffffffffffffffffffffffffffffffffffff1673ffffffffffffffffffffffffffffffffffffffff160361060b576040518060400160405280600a8152602001600a8152509050610737565b600080600084815260200190815260200160002060009054906101000a900473ffffffffffffffffffffffffffffffffffffffff16905060405180604001604052808273ffffffffffffffffffffffffffffffffffffffff1663a846118b6040518163ffffffff1660e01b8152600401602060405180830381865afa158015610698573d6000803e3d6000fd5b505050506040513d601f19601f820116820180604052508101906106bc9190610a6f565b81526020018273ffffffffffffffffffffffffffffffffffffffff1663eb8704736040518163ffffffff1660e01b8152600401602060405180830381865afa15801561070c573d6000803e3d6000fd5b505050506040513d601f19601f820116820180604052508101906107309190610a6f565b8152509150505b919050565b60006020528060005260406000206000915054906101000a900473ffffffffffffffffffffffffffffffffffffffff1681565b6107a080610a9d83390190565b604051806040016040528060008152602001600081525090565b600080fd5b6000819050919050565b6107ae8161079b565b81146107b957600080fd5b50565b6000813590506107cb816107a5565b92915050565b6000602082840312156107e7576107e6610796565b5b60006107f5848285016107bc565b91505092915050565b600073ffffffffffffffffffffffffffffffffffffffff82169050919050565b6000819050919050565b600061084361083e610839846107fe565b61081e565b6107fe565b9050919050565b600061085582610828565b9050919050565b60006108678261084a565b9050919050565b6108778161085c565b82525050565b6000602082019050610892600083018461086e565b92915050565b60008115159050919050565b6108ad81610898565b82525050565b60006020820190506108c860008301846108a4565b92915050565b60006108d9826107fe565b9050919050565b6108e9816108ce565b81146108f457600080fd5b50565b600081359050610906816108e0565b92915050565b60008060006060848603121561092557610924610796565b5b6000610933868287016107bc565b9350506020610944868287016107bc565b9250506040610955868287016108f7565b9150509250925092565b6000806040838503121561097657610975610796565b5b6000610984858286016107bc565b9250506020610995858286016108f7565b9150509250929050565b6109a88161079b565b82525050565b6040820160008201516109c4600085018261099f565b5060208201516109d7602085018261099f565b50505050565b60006040820190506109f260008301846109ae565b92915050565b610a01816108ce565b82525050565b610a108161079b565b82525050565b6000604082019050610a2b60008301856109f8565b610a386020830184610a07565b9392505050565b6000602082019050610a5460008301846109f8565b92915050565b600081519050610a69816107a5565b92915050565b600060208284031215610a8557610a84610796565b5b6000610a9384828501610a5a565b9150509291505056fe6080604052600060025534801561001557600080fd5b50336000806101000a81548173ffffffffffffffffffffffffffffffffffffffff021916908373ffffffffffffffffffffffffffffffffffffffff16021790555061073b806100656000396000f3fe608060405234801561001057600080fd5b50600436106100935760003560e01c8063a3e0688011610066578063a3e06880146100f8578063a846118b14610114578063c2d4688514610132578063eb87047314610150578063f0ab19861461016e57610093565b80631be1500a1461009857806354c30984146100b457806368e7ad36146100d05780638da5cb5b146100da575b600080fd5b6100b260048036038101906100ad9190610442565b61018c565b005b6100ce60048036038101906100c99190610482565b610268565b005b6100d8610272565b005b6100e261028c565b6040516100ef91906104be565b60405180910390f35b610112600480360381019061010d91906104d9565b6102b0565b005b61011c610389565b6040516101299190610515565b60405180910390f35b61013a610393565b6040516101479190610515565b60405180910390f35b610158610399565b6040516101659190610515565b60405180910390f35b6101766103a3565b6040516101839190610515565b60405180910390f35b6000600254146101d1576040517f08c379a00000000000000000000000000000000000000000000000000000000081526004016101c8906105b3565b60405180910390fd5b60008290508073ffffffffffffffffffffffffffffffffffffffff1663fefd0e0b60008054906101000a900473ffffffffffffffffffffffffffffffffffffffff16846040518363ffffffff1660e01b81526004016102319291906105d3565b600060405180830381600087803b15801561024b57600080fd5b505af115801561025f573d6000803e3d6000fd5b50505050505050565b8060018190555050565b600260008154809291906102859061062b565b9190505550565b60008054906101000a900473ffffffffffffffffffffffffffffffffffffffff1681565b6001600254146102f5576040517f08c379a00000000000000000000000000000000000000000000000000000000081526004016102ec906106e5565b60405180910390fd5b60008190508073ffffffffffffffffffffffffffffffffffffffff16636730a63d60008054906101000a900473ffffffffffffffffffffffffffffffffffffffff166040518263ffffffff1660e01b815260040161035391906104be565b600060405180830381600087803b15801561036d57600080fd5b505af1158015610381573d6000803e3d6000fd5b505050505050565b6000600154905090565b60015481565b6000600254905090565b60025481565b600080fd5b600073ffffffffffffffffffffffffffffffffffffffff82169050919050565b60006103d9826103ae565b9050919050565b6103e9816103ce565b81146103f457600080fd5b50565b600081359050610406816103e0565b92915050565b6000819050919050565b61041f8161040c565b811461042a57600080fd5b50565b60008135905061043c81610416565b92915050565b60008060408385031215610459576104586103a9565b5b6000610467858286016103f7565b92505060206104788582860161042d565b9150509250929050565b600060208284031215610498576104976103a9565b5b60006104a68482850161042d565b91505092915050565b6104b8816103ce565b82525050565b60006020820190506104d360008301846104af565b92915050565b6000602082840312156104ef576104ee6103a9565b5b60006104fd848285016103f7565b91505092915050565b61050f8161040c565b82525050565b600060208201905061052a6000830184610506565b92915050565b600082825260208201905092915050565b7f546869732062656e65666963696172792068617320616c72656164792068617660008201527f652069747320666972737420646f7365206f662076616363696e650000000000602082015250565b600061059d603b83610530565b91506105a882610541565b604082019050919050565b600060208201905081810360008301526105cc81610590565b9050919050565b60006040820190506105e860008301856104af565b6105f56020830184610506565b9392505050565b7f4e487b7100000000000000000000000000000000000000000000000000000000600052601160045260246000fd5b60006106368261040c565b91507fffffffffffffffffffffffffffffffffffffffffffffffffffffffffffffffff8203610668576106676105fc565b5b600182019050919050565b7f546869732062656e656669636961727920686173206e6f74206861766520697460008201527f7320666972737420646f7365206f662076616363696e65000000000000000000602082015250565b60006106cf603783610530565b91506106da82610673565b604082019050919050565b600060208201905081810360008301526106fe816106c2565b905091905056fea2646970667358221220b0c5341d0e707ff2e096bb8520678281037c90da9b7bc369aa66a39a0b3e4fac64736f6c634300080d0033a2646970667358221220d1a4bac7a55222661ad09b4e208d731ddcfb8cc595d7c133b08cfc7a539d2e9f64736f6c634300080d0033",
  "immutableReferences": {},
  "source": "// SPDX-License-Identifier: MIT\r\n\r\npragma solidity ^0.8.13;\r\n\r\nimport \"./Manufacturers.sol\";\r\nimport \"./Beneficiaries.sol\";\r\nimport \"./Admins.sol\";\r\nimport \"./Delivery.sol\";\r\n\r\ncontract Actors {\r\n    Manufacturers manufacturer;\r\n    Admins admin;\r\n    Beneficiaries beneficiary;\r\n    address owner;\r\n\r\n    event Success(bool success);\r\n    event Address(address add);\r\n    event BeneficiaryInfo(Beneficiaries.beneficiaryInfo info);\r\n    event AllAdminsInfo(Admins.adminInfo[] arr);\r\n    event AdminInfo(Admins.adminInfo info);\r\n    event AllManufacturersInfo(Manufacturers.manufacturerInfo[] arr);\r\n    event ManufacturerInfo(Manufacturers.manufacturerInfo info);\r\n\r\n    constructor() {\r\n        owner = msg.sender;\r\n        manufacturer = new Manufacturers();\r\n        admin = new Admins();\r\n        beneficiary = new Beneficiaries();\r\n    }\r\n\r\n    function createManufacturer() public {\r\n        emit Success(manufacturer.createManufacturer(msg.sender));\r\n    }\r\n\r\n    function createBenefeciary(uint256 _aadhar) public {\r\n        emit Success(beneficiary.createBenefeciary(_aadhar));\r\n    }\r\n\r\n    function createAdmin() public {\r\n        emit Success(admin.createAdmin(msg.sender));\r\n    }\r\n\r\n    function adminCreateOrder(\r\n        uint256 _vaccine,\r\n        uint256 _qty,\r\n        address _manufacturer\r\n    ) public {\r\n        emit Success(\r\n            admin.adminCreateOrder(msg.sender, _vaccine, _qty, _manufacturer)\r\n        );\r\n    }\r\n\r\n    function adminVaccinationDone(uint256 _aadhar) public {\r\n        emit Success(\r\n            admin.adminVaccinationDone(\r\n                msg.sender,\r\n                beneficiary.getBeneficiary(_aadhar)\r\n            )\r\n        );\r\n    }\r\n\r\n    function beneficiaryFirstVaccine(\r\n        uint256 _aadhar,\r\n        uint256 _vaccine,\r\n        address _admin\r\n    ) public {\r\n        emit Success(\r\n            beneficiary.beneficiaryFirstVaccine(_aadhar, _vaccine, _admin)\r\n        );\r\n    }\r\n\r\n    function beneficiarySecondVaccine(uint256 _aadhar, address _admin) public {\r\n        emit Success(beneficiary.beneficiarySecondVaccine(_aadhar, _admin));\r\n    }\r\n\r\n    function manufacturerAddStock(uint256 _vaccine, uint256 _qty) public {\r\n        emit Success(\r\n            manufacturer.manufacturerAddStock(msg.sender, _vaccine, _qty)\r\n        );\r\n    }\r\n\r\n    function manufacturerCreateDelivery(\r\n        uint256 vac,\r\n        uint256 qty,\r\n        address _admin\r\n    ) public {\r\n        emit Success(\r\n            manufacturer.manufacturerCreateDelivery(\r\n                msg.sender,\r\n                vac,\r\n                qty,\r\n                _admin\r\n            )\r\n        );\r\n    }\r\n\r\n    function getAllAdmins() public {\r\n        emit AllAdminsInfo(admin.getAllAdmins());\r\n    }\r\n\r\n    function getAllManufacturers() public {\r\n        emit AllManufacturersInfo(manufacturer.getAllManufacturers());\r\n    }\r\n\r\n    function getBeneficiaryInfo(uint256 _aadhar) public {\r\n        emit BeneficiaryInfo(beneficiary.getBeneficiaryInfo(_aadhar));\r\n    }\r\n\r\n    function getAdminInfo() public {\r\n        emit AdminInfo(admin.getAdminInfo(msg.sender));\r\n    }\r\n\r\n    function getManufacturerInfo() public {\r\n        emit ManufacturerInfo(manufacturer.getManufacturerInfo(msg.sender));\r\n    }\r\n}\r\n",
  "sourcePath": "C:\\Users\\mdzai\\Desktop\\VCSM-Blockchain\\contracts\\Actors.sol",
  "compiler": {
    "name": "solc",
    "version": "0.8.13+commit.abaa5c0e.Emscripten.clang"
  },
  "schemaVersion": "3.4.7",
  "updatedAt": "2022-04-24T06:49:23.724Z",
  "networkType": "ethereum",
  "devdoc": {
    "kind": "dev",
    "methods": {},
    "version": 1
  },
  "userdoc": {
    "kind": "user",
    "methods": {},
    "version": 1
  }
}