{
  "contractName": "Actors",
  "abi": [
    {
      "inputs": [],
      "stateMutability": "nonpayable",
      "type": "constructor"
    },
    {
      "inputs": [
        {
          "internalType": "address",
          "name": "",
          "type": "address"
        }
      ],
      "name": "admins",
      "outputs": [
        {
          "internalType": "contract Admin",
          "name": "",
          "type": "address"
        }
      ],
      "stateMutability": "view",
      "type": "function",
      "constant": true
    },
    {
      "inputs": [
        {
          "internalType": "uint256",
          "name": "",
          "type": "uint256"
        }
      ],
      "name": "beneficiaries",
      "outputs": [
        {
          "internalType": "contract People",
          "name": "",
          "type": "address"
        }
      ],
      "stateMutability": "view",
      "type": "function",
      "constant": true
    },
    {
      "inputs": [
        {
          "internalType": "address",
          "name": "",
          "type": "address"
        }
      ],
      "name": "manufacturers",
      "outputs": [
        {
          "internalType": "contract Manufacturer",
          "name": "",
          "type": "address"
        }
      ],
      "stateMutability": "view",
      "type": "function",
      "constant": true
    },
    {
      "inputs": [],
      "name": "createManufacturer",
      "outputs": [],
      "stateMutability": "nonpayable",
      "type": "function"
    },
    {
      "inputs": [
        {
          "internalType": "uint256",
          "name": "_aadhar",
          "type": "uint256"
        }
      ],
      "name": "createBenefeciary",
      "outputs": [],
      "stateMutability": "nonpayable",
      "type": "function"
    },
    {
      "inputs": [],
      "name": "createAdmin",
      "outputs": [],
      "stateMutability": "nonpayable",
      "type": "function"
    },
    {
      "inputs": [
        {
          "internalType": "uint256",
          "name": "_vaccine",
          "type": "uint256"
        },
        {
          "internalType": "uint256",
          "name": "_qty",
          "type": "uint256"
        },
        {
          "internalType": "address",
          "name": "_manufacturer",
          "type": "address"
        }
      ],
      "name": "adminCreateOrder",
      "outputs": [],
      "stateMutability": "nonpayable",
      "type": "function"
    },
    {
      "inputs": [
        {
          "internalType": "uint256",
          "name": "_aadhar",
          "type": "uint256"
        }
      ],
      "name": "adminVaccinationDone",
      "outputs": [],
      "stateMutability": "nonpayable",
      "type": "function"
    },
    {
      "inputs": [
        {
          "internalType": "uint256",
          "name": "_aadhar",
          "type": "uint256"
        },
        {
          "internalType": "uint256",
          "name": "_vaccine",
          "type": "uint256"
        },
        {
          "internalType": "address",
          "name": "_admin",
          "type": "address"
        }
      ],
      "name": "beneficiaryFirstVaccine",
      "outputs": [],
      "stateMutability": "nonpayable",
      "type": "function"
    },
    {
      "inputs": [
        {
          "internalType": "uint256",
          "name": "_aadhar",
          "type": "uint256"
        },
        {
          "internalType": "address",
          "name": "_admin",
          "type": "address"
        }
      ],
      "name": "beneficiarySecondVaccine",
      "outputs": [],
      "stateMutability": "nonpayable",
      "type": "function"
    },
    {
      "inputs": [
        {
          "internalType": "uint256",
          "name": "_vaccine",
          "type": "uint256"
        },
        {
          "internalType": "uint256",
          "name": "_qty",
          "type": "uint256"
        }
      ],
      "name": "manufacturerAddStock",
      "outputs": [],
      "stateMutability": "nonpayable",
      "type": "function"
    },
    {
      "inputs": [
        {
          "internalType": "uint256",
          "name": "vac",
          "type": "uint256"
        },
        {
          "internalType": "uint256",
          "name": "qty",
          "type": "uint256"
        },
        {
          "internalType": "address",
          "name": "_admin",
          "type": "address"
        }
      ],
      "name": "manufacturerCreateDelivery",
      "outputs": [],
      "stateMutability": "nonpayable",
      "type": "function"
    }
  ],
  "bytecode": "0x608060405234801561001057600080fd5b50336000806101000a81548173ffffffffffffffffffffffffffffffffffffffff021916908373ffffffffffffffffffffffffffffffffffffffff160217905550614059806100606000396000f3fe608060405234801561001057600080fd5b50600436106100b45760003560e01c806382a9bcd21161007157806382a9bcd214610189578063963178ba14610193578063aa833e6c146101af578063e8e7c0ad146101cb578063e92980c5146101e7578063efeb5e58146101f1576100b4565b806313b1a822146100b9578063339874d5146100d5578063429b62e5146100f157806357d5b1c9146101215780635adb0ec21461013d5780636b5eb09c14610159575b600080fd5b6100d360048036038101906100ce91906111d0565b610221565b005b6100ef60048036038101906100ea919061125b565b610399565b005b61010b600480360381019061010691906112ae565b610540565b604051610118919061133a565b60405180910390f35b61013b60048036038101906101369190611355565b610573565b005b6101576004803603810190610152919061125b565b6107a5565b005b610173600480360381019061016e91906112ae565b6108ed565b60405161018091906113b6565b60405180910390f35b610191610920565b005b6101ad60048036038101906101a891906111d0565b610b2d565b005b6101c960048036038101906101c4919061125b565b610ca2565b005b6101e560048036038101906101e091906113d1565b610dea565b005b6101ef610f2e565b005b61020b600480360381019061020691906111d0565b61113b565b6040516102189190611432565b60405180910390f35b80600073ffffffffffffffffffffffffffffffffffffffff166002600083815260200190815260200160002060009054906101000a900473ffffffffffffffffffffffffffffffffffffffff1673ffffffffffffffffffffffffffffffffffffffff161480156102dc575060008054906101000a900473ffffffffffffffffffffffffffffffffffffffff1673ffffffffffffffffffffffffffffffffffffffff163373ffffffffffffffffffffffffffffffffffffffff16145b61031b576040517f08c379a0000000000000000000000000000000000000000000000000000000008152600401610312906114aa565b60405180910390fd5b6040516103279061116e565b604051809103906000f080158015610343573d6000803e3d6000fd5b506002600084815260200190815260200160002060006101000a81548173ffffffffffffffffffffffffffffffffffffffff021916908373ffffffffffffffffffffffffffffffffffffffff1602179055505050565b82600073ffffffffffffffffffffffffffffffffffffffff166002600083815260200190815260200160002060009054906101000a900473ffffffffffffffffffffffffffffffffffffffff1673ffffffffffffffffffffffffffffffffffffffff1614158015610455575060008054906101000a900473ffffffffffffffffffffffffffffffffffffffff1673ffffffffffffffffffffffffffffffffffffffff163373ffffffffffffffffffffffffffffffffffffffff16145b610494576040517f08c379a000000000000000000000000000000000000000000000000000000000815260040161048b90611516565b60405180910390fd5b60006002600086815260200190815260200160002060009054906101000a900473ffffffffffffffffffffffffffffffffffffffff1690508073ffffffffffffffffffffffffffffffffffffffff16631be1500a84866040518363ffffffff1660e01b8152600401610507929190611554565b600060405180830381600087803b15801561052157600080fd5b505af1158015610535573d6000803e3d6000fd5b505050505050505050565b60016020528060005260406000206000915054906101000a900473ffffffffffffffffffffffffffffffffffffffff1681565b81600073ffffffffffffffffffffffffffffffffffffffff166002600083815260200190815260200160002060009054906101000a900473ffffffffffffffffffffffffffffffffffffffff1673ffffffffffffffffffffffffffffffffffffffff161415801561062f575060008054906101000a900473ffffffffffffffffffffffffffffffffffffffff1673ffffffffffffffffffffffffffffffffffffffff163373ffffffffffffffffffffffffffffffffffffffff16145b61066e576040517f08c379a000000000000000000000000000000000000000000000000000000000815260040161066590611516565b60405180910390fd5b60008054906101000a900473ffffffffffffffffffffffffffffffffffffffff1673ffffffffffffffffffffffffffffffffffffffff163373ffffffffffffffffffffffffffffffffffffffff16146106fc576040517f08c379a00000000000000000000000000000000000000000000000000000000081526004016106f3906115c9565b60405180910390fd5b60006002600085815260200190815260200160002060009054906101000a900473ffffffffffffffffffffffffffffffffffffffff1690508073ffffffffffffffffffffffffffffffffffffffff1663a3e06880846040518263ffffffff1660e01b815260040161076d91906115e9565b600060405180830381600087803b15801561078757600080fd5b505af115801561079b573d6000803e3d6000fd5b5050505050505050565b600073ffffffffffffffffffffffffffffffffffffffff16600360003373ffffffffffffffffffffffffffffffffffffffff1673ffffffffffffffffffffffffffffffffffffffff16815260200190815260200160002060009054906101000a900473ffffffffffffffffffffffffffffffffffffffff1673ffffffffffffffffffffffffffffffffffffffff1603610873576040517f08c379a000000000000000000000000000000000000000000000000000000000815260040161086a90611650565b60405180910390fd5b60003390508073ffffffffffffffffffffffffffffffffffffffff166329e7ac458585856040518463ffffffff1660e01b81526004016108b593929190611670565b600060405180830381600087803b1580156108cf57600080fd5b505af11580156108e3573d6000803e3d6000fd5b5050505050505050565b60036020528060005260406000206000915054906101000a900473ffffffffffffffffffffffffffffffffffffffff1681565b600073ffffffffffffffffffffffffffffffffffffffff16600360003373ffffffffffffffffffffffffffffffffffffffff1673ffffffffffffffffffffffffffffffffffffffff16815260200190815260200160002060009054906101000a900473ffffffffffffffffffffffffffffffffffffffff1673ffffffffffffffffffffffffffffffffffffffff16148015610a465750600073ffffffffffffffffffffffffffffffffffffffff16600160003373ffffffffffffffffffffffffffffffffffffffff1673ffffffffffffffffffffffffffffffffffffffff16815260200190815260200160002060009054906101000a900473ffffffffffffffffffffffffffffffffffffffff1673ffffffffffffffffffffffffffffffffffffffff16145b610a85576040517f08c379a0000000000000000000000000000000000000000000000000000000008152600401610a7c906116f3565b60405180910390fd5b604051610a919061117b565b604051809103906000f080158015610aad573d6000803e3d6000fd5b50600360003373ffffffffffffffffffffffffffffffffffffffff1673ffffffffffffffffffffffffffffffffffffffff16815260200190815260200160002060006101000a81548173ffffffffffffffffffffffffffffffffffffffff021916908373ffffffffffffffffffffffffffffffffffffffff160217905550565b600073ffffffffffffffffffffffffffffffffffffffff16600160003373ffffffffffffffffffffffffffffffffffffffff1673ffffffffffffffffffffffffffffffffffffffff16815260200190815260200160002060009054906101000a900473ffffffffffffffffffffffffffffffffffffffff1673ffffffffffffffffffffffffffffffffffffffff1603610bfb576040517f08c379a0000000000000000000000000000000000000000000000000000000008152600401610bf290611650565b60405180910390fd5b60003390508073ffffffffffffffffffffffffffffffffffffffff1663e3ef418b6002600085815260200190815260200160002060009054906101000a900473ffffffffffffffffffffffffffffffffffffffff166040518263ffffffff1660e01b8152600401610c6c91906115e9565b600060405180830381600087803b158015610c8657600080fd5b505af1158015610c9a573d6000803e3d6000fd5b505050505050565b600073ffffffffffffffffffffffffffffffffffffffff16600160003373ffffffffffffffffffffffffffffffffffffffff1673ffffffffffffffffffffffffffffffffffffffff16815260200190815260200160002060009054906101000a900473ffffffffffffffffffffffffffffffffffffffff1673ffffffffffffffffffffffffffffffffffffffff1603610d70576040517f08c379a0000000000000000000000000000000000000000000000000000000008152600401610d6790611650565b60405180910390fd5b60003390508073ffffffffffffffffffffffffffffffffffffffff166311fc3b4e8585856040518463ffffffff1660e01b8152600401610db293929190611670565b600060405180830381600087803b158015610dcc57600080fd5b505af1158015610de0573d6000803e3d6000fd5b5050505050505050565b600073ffffffffffffffffffffffffffffffffffffffff16600360003373ffffffffffffffffffffffffffffffffffffffff1673ffffffffffffffffffffffffffffffffffffffff16815260200190815260200160002060009054906101000a900473ffffffffffffffffffffffffffffffffffffffff1673ffffffffffffffffffffffffffffffffffffffff1603610eb8576040517f08c379a0000000000000000000000000000000000000000000000000000000008152600401610eaf90611650565b60405180910390fd5b60003390508073ffffffffffffffffffffffffffffffffffffffff1662262b6c84846040518363ffffffff1660e01b8152600401610ef7929190611713565b600060405180830381600087803b158015610f1157600080fd5b505af1158015610f25573d6000803e3d6000fd5b50505050505050565b600073ffffffffffffffffffffffffffffffffffffffff16600360003373ffffffffffffffffffffffffffffffffffffffff1673ffffffffffffffffffffffffffffffffffffffff16815260200190815260200160002060009054906101000a900473ffffffffffffffffffffffffffffffffffffffff1673ffffffffffffffffffffffffffffffffffffffff161480156110545750600073ffffffffffffffffffffffffffffffffffffffff16600160003373ffffffffffffffffffffffffffffffffffffffff1673ffffffffffffffffffffffffffffffffffffffff16815260200190815260200160002060009054906101000a900473ffffffffffffffffffffffffffffffffffffffff1673ffffffffffffffffffffffffffffffffffffffff16145b611093576040517f08c379a000000000000000000000000000000000000000000000000000000000815260040161108a906116f3565b60405180910390fd5b60405161109f90611188565b604051809103906000f0801580156110bb573d6000803e3d6000fd5b50600160003373ffffffffffffffffffffffffffffffffffffffff1673ffffffffffffffffffffffffffffffffffffffff16815260200190815260200160002060006101000a81548173ffffffffffffffffffffffffffffffffffffffff021916908373ffffffffffffffffffffffffffffffffffffffff160217905550565b60026020528060005260406000206000915054906101000a900473ffffffffffffffffffffffffffffffffffffffff1681565b6107a08061173d83390190565b6111d180611edd83390190565b610f76806130ae83390190565b600080fd5b6000819050919050565b6111ad8161119a565b81146111b857600080fd5b50565b6000813590506111ca816111a4565b92915050565b6000602082840312156111e6576111e5611195565b5b60006111f4848285016111bb565b91505092915050565b600073ffffffffffffffffffffffffffffffffffffffff82169050919050565b6000611228826111fd565b9050919050565b6112388161121d565b811461124357600080fd5b50565b6000813590506112558161122f565b92915050565b60008060006060848603121561127457611273611195565b5b6000611282868287016111bb565b9350506020611293868287016111bb565b92505060406112a486828701611246565b9150509250925092565b6000602082840312156112c4576112c3611195565b5b60006112d284828501611246565b91505092915050565b6000819050919050565b60006113006112fb6112f6846111fd565b6112db565b6111fd565b9050919050565b6000611312826112e5565b9050919050565b600061132482611307565b9050919050565b61133481611319565b82525050565b600060208201905061134f600083018461132b565b92915050565b6000806040838503121561136c5761136b611195565b5b600061137a858286016111bb565b925050602061138b85828601611246565b9150509250929050565b60006113a082611307565b9050919050565b6113b081611395565b82525050565b60006020820190506113cb60008301846113a7565b92915050565b600080604083850312156113e8576113e7611195565b5b60006113f6858286016111bb565b9250506020611407858286016111bb565b9150509250929050565b600061141c82611307565b9050919050565b61142c81611411565b82525050565b60006020820190506114476000830184611423565b92915050565b600082825260208201905092915050565b7f416c726561647920612062656e65666963696172790000000000000000000000600082015250565b600061149460158361144d565b915061149f8261145e565b602082019050919050565b600060208201905081810360008301526114c381611487565b9050919050565b7f4e6f7420612062656e6566696369617279000000000000000000000000000000600082015250565b600061150060118361144d565b915061150b826114ca565b602082019050919050565b6000602082019050818103600083015261152f816114f3565b9050919050565b61153f8161121d565b82525050565b61154e8161119a565b82525050565b60006040820190506115696000830185611536565b6115766020830184611545565b9392505050565b7f4e6f7420746865204f6e77657200000000000000000000000000000000000000600082015250565b60006115b3600d8361144d565b91506115be8261157d565b602082019050919050565b600060208201905081810360008301526115e2816115a6565b9050919050565b60006020820190506115fe6000830184611536565b92915050565b7f4e6f742061206d616e7566616374757265720000000000000000000000000000600082015250565b600061163a60128361144d565b915061164582611604565b602082019050919050565b600060208201905081810360008301526116698161162d565b9050919050565b60006060820190506116856000830186611545565b6116926020830185611545565b61169f6040830184611536565b949350505050565b7f416c72656164792061206d616e756661637475726572206f722061646d696e00600082015250565b60006116dd601f8361144d565b91506116e8826116a7565b602082019050919050565b6000602082019050818103600083015261170c816116d0565b9050919050565b60006040820190506117286000830185611545565b6117356020830184611545565b939250505056fe6080604052600060025534801561001557600080fd5b50336000806101000a81548173ffffffffffffffffffffffffffffffffffffffff021916908373ffffffffffffffffffffffffffffffffffffffff16021790555061073b806100656000396000f3fe608060405234801561001057600080fd5b50600436106100935760003560e01c8063a3e0688011610066578063a3e06880146100f8578063a846118b14610114578063c2d4688514610132578063eb87047314610150578063f0ab19861461016e57610093565b80631be1500a1461009857806354c30984146100b457806368e7ad36146100d05780638da5cb5b146100da575b600080fd5b6100b260048036038101906100ad9190610442565b61018c565b005b6100ce60048036038101906100c99190610482565b610268565b005b6100d8610272565b005b6100e261028c565b6040516100ef91906104be565b60405180910390f35b610112600480360381019061010d91906104d9565b6102b0565b005b61011c610389565b6040516101299190610515565b60405180910390f35b61013a610393565b6040516101479190610515565b60405180910390f35b610158610399565b6040516101659190610515565b60405180910390f35b6101766103a3565b6040516101839190610515565b60405180910390f35b6000600254146101d1576040517f08c379a00000000000000000000000000000000000000000000000000000000081526004016101c8906105b3565b60405180910390fd5b60008290508073ffffffffffffffffffffffffffffffffffffffff1663fefd0e0b60008054906101000a900473ffffffffffffffffffffffffffffffffffffffff16846040518363ffffffff1660e01b81526004016102319291906105d3565b600060405180830381600087803b15801561024b57600080fd5b505af115801561025f573d6000803e3d6000fd5b50505050505050565b8060018190555050565b600260008154809291906102859061062b565b9190505550565b60008054906101000a900473ffffffffffffffffffffffffffffffffffffffff1681565b6001600254146102f5576040517f08c379a00000000000000000000000000000000000000000000000000000000081526004016102ec906106e5565b60405180910390fd5b60008190508073ffffffffffffffffffffffffffffffffffffffff16636730a63d60008054906101000a900473ffffffffffffffffffffffffffffffffffffffff166040518263ffffffff1660e01b815260040161035391906104be565b600060405180830381600087803b15801561036d57600080fd5b505af1158015610381573d6000803e3d6000fd5b505050505050565b6000600154905090565b60015481565b6000600254905090565b60025481565b600080fd5b600073ffffffffffffffffffffffffffffffffffffffff82169050919050565b60006103d9826103ae565b9050919050565b6103e9816103ce565b81146103f457600080fd5b50565b600081359050610406816103e0565b92915050565b6000819050919050565b61041f8161040c565b811461042a57600080fd5b50565b60008135905061043c81610416565b92915050565b60008060408385031215610459576104586103a9565b5b6000610467858286016103f7565b92505060206104788582860161042d565b9150509250929050565b600060208284031215610498576104976103a9565b5b60006104a68482850161042d565b91505092915050565b6104b8816103ce565b82525050565b60006020820190506104d360008301846104af565b92915050565b6000602082840312156104ef576104ee6103a9565b5b60006104fd848285016103f7565b91505092915050565b61050f8161040c565b82525050565b600060208201905061052a6000830184610506565b92915050565b600082825260208201905092915050565b7f546869732062656e65666963696172792068617320616c72656164792068617660008201527f652069747320666972737420646f7365206f662076616363696e650000000000602082015250565b600061059d603b83610530565b91506105a882610541565b604082019050919050565b600060208201905081810360008301526105cc81610590565b9050919050565b60006040820190506105e860008301856104af565b6105f56020830184610506565b9392505050565b7f4e487b7100000000000000000000000000000000000000000000000000000000600052601160045260246000fd5b60006106368261040c565b91507fffffffffffffffffffffffffffffffffffffffffffffffffffffffffffffffff8203610668576106676105fc565b5b600182019050919050565b7f546869732062656e656669636961727920686173206e6f74206861766520697460008201527f7320666972737420646f7365206f662076616363696e65000000000000000000602082015250565b60006106cf603783610530565b91506106da82610673565b604082019050919050565b600060208201905081810360008301526106fe816106c2565b905091905056fea264697066735822122045099af1e5beb8c99a31dc388ec9c16623fcbc2ecd1dab033929387124c0808f64736f6c634300080d0033608060405234801561001057600080fd5b50336000806101000a81548173ffffffffffffffffffffffffffffffffffffffff021916908373ffffffffffffffffffffffffffffffffffffffff160217905550611171806100606000396000f3fe6080604052600436106200004f5760003560e01c8062262b6c146200005457806329e7ac4514620000825780635fc50a2f14620000b05780638017b8d414620000d05780638da5cb5b14620000fe575b600080fd5b3480156200006157600080fd5b506200008060048036038101906200007a919062000588565b6200012e565b005b3480156200008f57600080fd5b50620000ae6004803603810190620000a8919062000634565b620001f2565b005b620000ce6004803603810190620000c8919062000634565b620003b0565b005b348015620000dd57600080fd5b50620000fc6004803603810190620000f6919062000690565b620004a8565b005b3480156200010b57600080fd5b506200011662000516565b604051620001259190620006fd565b60405180910390f35b60008054906101000a900473ffffffffffffffffffffffffffffffffffffffff1673ffffffffffffffffffffffffffffffffffffffff163373ffffffffffffffffffffffffffffffffffffffff1614620001bf576040517f08c379a0000000000000000000000000000000000000000000000000000000008152600401620001b6906200077b565b60405180910390fd5b80600260008481526020019081526020016000206001016000828254620001e79190620007cc565b925050819055505050565b81600160008373ffffffffffffffffffffffffffffffffffffffff1673ffffffffffffffffffffffffffffffffffffffff168152602001908152602001600020600085815260200190815260200160002054101562000288576040517f08c379a00000000000000000000000000000000000000000000000000000000081526004016200027f9062000879565b60405180910390fd5b81600160008373ffffffffffffffffffffffffffffffffffffffff1673ffffffffffffffffffffffffffffffffffffffff16815260200190815260200160002060008581526020019081526020016000206000828254620002ea91906200089b565b9250508190555060008060009054906101000a900473ffffffffffffffffffffffffffffffffffffffff1682858560405162000326906200053a565b620003359493929190620008e7565b604051809103906000f08015801562000352573d6000803e3d6000fd5b50905082600360008373ffffffffffffffffffffffffffffffffffffffff1673ffffffffffffffffffffffffffffffffffffffff16815260200190815260200160002060008681526020019081526020016000208190555050505050565b816002600085815260200190815260200160002060010154106200040b576040517f08c379a0000000000000000000000000000000000000000000000000000000008152600401620004029062000984565b60405180910390fd5b81600160008373ffffffffffffffffffffffffffffffffffffffff1673ffffffffffffffffffffffffffffffffffffffff168152602001908152602001600020600085815260200190815260200160002060008282546200046d9190620007cc565b92505081905550816002600085815260200190815260200160002060010160008282546200049c91906200089b565b92505081905550505050565b80600360008573ffffffffffffffffffffffffffffffffffffffff1673ffffffffffffffffffffffffffffffffffffffff168152602001908152602001600020600084815260200190815260200160002060008282546200050a91906200089b565b92505081905550505050565b60008054906101000a900473ffffffffffffffffffffffffffffffffffffffff1681565b61079580620009a783390190565b600080fd5b6000819050919050565b62000562816200054d565b81146200056e57600080fd5b50565b600081359050620005828162000557565b92915050565b60008060408385031215620005a257620005a162000548565b5b6000620005b28582860162000571565b9250506020620005c58582860162000571565b9150509250929050565b600073ffffffffffffffffffffffffffffffffffffffff82169050919050565b6000620005fc82620005cf565b9050919050565b6200060e81620005ef565b81146200061a57600080fd5b50565b6000813590506200062e8162000603565b92915050565b60008060006060848603121562000650576200064f62000548565b5b6000620006608682870162000571565b9350506020620006738682870162000571565b925050604062000686868287016200061d565b9150509250925092565b600080600060608486031215620006ac57620006ab62000548565b5b6000620006bc868287016200061d565b9350506020620006cf8682870162000571565b9250506040620006e28682870162000571565b9150509250925092565b620006f781620005ef565b82525050565b6000602082019050620007146000830184620006ec565b92915050565b600082825260208201905092915050565b7f596f7520617265206e6f7420746865206d616e75666163747572657200000000600082015250565b600062000763601c836200071a565b915062000770826200072b565b602082019050919050565b60006020820190508181036000830152620007968162000754565b9050919050565b7f4e487b7100000000000000000000000000000000000000000000000000000000600052601160045260246000fd5b6000620007d9826200054d565b9150620007e6836200054d565b9250827fffffffffffffffffffffffffffffffffffffffffffffffffffffffffffffffff038211156200081e576200081d6200079d565b5b828201905092915050565b7f4f7264657220706c61636564206973206c657373000000000000000000000000600082015250565b6000620008616014836200071a565b91506200086e8262000829565b602082019050919050565b60006020820190508181036000830152620008948162000852565b9050919050565b6000620008a8826200054d565b9150620008b5836200054d565b925082821015620008cb57620008ca6200079d565b5b828203905092915050565b620008e1816200054d565b82525050565b6000608082019050620008fe6000830187620006ec565b6200090d6020830186620006ec565b6200091c6040830185620008d6565b6200092b6060830184620008d6565b95945050505050565b7f496e73756666696369656e742053746f636b0000000000000000000000000000600082015250565b60006200096c6012836200071a565b9150620009798262000934565b602082019050919050565b600060208201905081810360008301526200099f816200095d565b905091905056fe60806040526001600660006101000a81548160ff02191690831515021790555034801561002b57600080fd5b50604051610795380380610795833981810160405281019061004d919061017e565b836000806101000a81548173ffffffffffffffffffffffffffffffffffffffff021916908373ffffffffffffffffffffffffffffffffffffffff16021790555082600160006101000a81548173ffffffffffffffffffffffffffffffffffffffff021916908373ffffffffffffffffffffffffffffffffffffffff1602179055508160028190555080600381905550505050506101e5565b600080fd5b600073ffffffffffffffffffffffffffffffffffffffff82169050919050565b6000610115826100ea565b9050919050565b6101258161010a565b811461013057600080fd5b50565b6000815190506101428161011c565b92915050565b6000819050919050565b61015b81610148565b811461016657600080fd5b50565b60008151905061017881610152565b92915050565b60008060008060808587031215610198576101976100e5565b5b60006101a687828801610133565b94505060206101b787828801610133565b93505060406101c887828801610169565b92505060606101d987828801610169565b91505092959194509250565b6105a1806101f46000396000f3fe608060405234801561001057600080fd5b50600436106100575760003560e01c806310272d131461005c578063258b43d7146100665780634acc3a8e1461008257806356dcb0221461008c578063aae8107b146100a8575b600080fd5b6100646100c4565b005b610080600480360381019061007b91906102c8565b610181565b005b61008a61018b565b005b6100a660048036038101906100a1919061043b565b6101b7565b005b6100c260048036038101906100bd91906102c8565b6101d1565b005b6000600160009054906101000a900473ffffffffffffffffffffffffffffffffffffffff1690508073ffffffffffffffffffffffffffffffffffffffff1663750a49cc60025460035460008054906101000a900473ffffffffffffffffffffffffffffffffffffffff166040518463ffffffff1660e01b815260040161014c939291906104d4565b600060405180830381600087803b15801561016657600080fd5b505af115801561017a573d6000803e3d6000fd5b5050505050565b8060078190555050565b600660009054906101000a900460ff1615600660006101000a81548160ff021916908315150217905550565b80600490805190602001906101cd9291906101db565b5050565b8060058190555050565b8280546101e79061053a565b90600052602060002090601f0160209004810192826102095760008555610250565b82601f1061022257805160ff1916838001178555610250565b82800160010185558215610250579182015b8281111561024f578251825591602001919060010190610234565b5b50905061025d9190610261565b5090565b5b8082111561027a576000816000905550600101610262565b5090565b6000604051905090565b600080fd5b600080fd5b6000819050919050565b6102a581610292565b81146102b057600080fd5b50565b6000813590506102c28161029c565b92915050565b6000602082840312156102de576102dd610288565b5b60006102ec848285016102b3565b91505092915050565b600080fd5b600080fd5b6000601f19601f8301169050919050565b7f4e487b7100000000000000000000000000000000000000000000000000000000600052604160045260246000fd5b610348826102ff565b810181811067ffffffffffffffff8211171561036757610366610310565b5b80604052505050565b600061037a61027e565b9050610386828261033f565b919050565b600067ffffffffffffffff8211156103a6576103a5610310565b5b6103af826102ff565b9050602081019050919050565b82818337600083830152505050565b60006103de6103d98461038b565b610370565b9050828152602081018484840111156103fa576103f96102fa565b5b6104058482856103bc565b509392505050565b600082601f830112610422576104216102f5565b5b81356104328482602086016103cb565b91505092915050565b60006020828403121561045157610450610288565b5b600082013567ffffffffffffffff81111561046f5761046e61028d565b5b61047b8482850161040d565b91505092915050565b61048d81610292565b82525050565b600073ffffffffffffffffffffffffffffffffffffffff82169050919050565b60006104be82610493565b9050919050565b6104ce816104b3565b82525050565b60006060820190506104e96000830186610484565b6104f66020830185610484565b61050360408301846104c5565b949350505050565b7f4e487b7100000000000000000000000000000000000000000000000000000000600052602260045260246000fd5b6000600282049050600182168061055257607f821691505b6020821081036105655761056461050b565b5b5091905056fea2646970667358221220ba858351c4c56205d36d78a9497ecf5623ed333b5bcb43a513213e4257c0054564736f6c634300080d0033a264697066735822122016833a2f87dddfd65a6e91914e6e6c617c8c14f69d19d9ad56b6ed7334c6fd1d64736f6c634300080d00336080604052600060055534801561001557600080fd5b50336000806101000a81548173ffffffffffffffffffffffffffffffffffffffff021916908373ffffffffffffffffffffffffffffffffffffffff160217905550610f11806100656000396000f3fe608060405234801561001057600080fd5b50600436106100935760003560e01c80636ee75c4e116100665780636ee75c4e14610130578063750a49cc146101605780638da5cb5b1461017c578063e3ef418b1461019a578063fefd0e0b146101b657610093565b806311fc3b4e146100985780633867f1ec146100b45780633c70d04a146100e45780636730a63d14610114575b600080fd5b6100b260048036038101906100ad9190610a35565b6101d2565b005b6100ce60048036038101906100c99190610a88565b6102d3565b6040516100db9190610ac4565b60405180910390f35b6100fe60048036038101906100f99190610adf565b6102eb565b60405161010b9190610ac4565b60405180910390f35b61012e60048036038101906101299190610a88565b610303565b005b61014a60048036038101906101459190610b0c565b6104cc565b6040516101579190610ac4565b60405180910390f35b61017a60048036038101906101759190610a35565b6104f1565b005b6101846106c6565b6040516101919190610b5b565b60405180910390f35b6101b460048036038101906101af9190610a88565b6106ea565b005b6101d060048036038101906101cb9190610b0c565b6108b9565b005b60008190508073ffffffffffffffffffffffffffffffffffffffff16635fc50a2f858560008054906101000a900473ffffffffffffffffffffffffffffffffffffffff166040518463ffffffff1660e01b815260040161023493929190610b76565b600060405180830381600087803b15801561024e57600080fd5b505af1158015610262573d6000803e3d6000fd5b5050505082600360008473ffffffffffffffffffffffffffffffffffffffff1673ffffffffffffffffffffffffffffffffffffffff168152602001908152602001600020600086815260200190815260200160002060008282546102c69190610bdc565b9250508190555050505050565b60046020528060005260406000206000915090505481565b60026020528060005260406000206000915090505481565b600081905060008173ffffffffffffffffffffffffffffffffffffffff1663eb8704736040518163ffffffff1660e01b8152600401602060405180830381865afa158015610355573d6000803e3d6000fd5b505050506040513d601f19601f820116820180604052508101906103799190610c47565b146103b9576040517f08c379a00000000000000000000000000000000000000000000000000000000081526004016103b090610cf7565b60405180910390fd5b60008173ffffffffffffffffffffffffffffffffffffffff1663a846118b6040518163ffffffff1660e01b8152600401602060405180830381865afa158015610406573d6000803e3d6000fd5b505050506040513d601f19601f8201168201806040525081019061042a9190610c47565b90506000600260008381526020019081526020016000205411610482576040517f08c379a000000000000000000000000000000000000000000000000000000000815260040161047990610d63565b60405180910390fd5b60016002600083815260200190815260200160002060008282546104a69190610d83565b925050819055506001600560008282546104c09190610d83565b92505081905550505050565b6003602052816000526040600020602052806000526040600020600091509150505481565b6000600360008373ffffffffffffffffffffffffffffffffffffffff1673ffffffffffffffffffffffffffffffffffffffff16815260200190815260200160002060008581526020019081526020016000205403610584576040517f08c379a000000000000000000000000000000000000000000000000000000000815260040161057b90610e29565b60405180910390fd5b81600360008373ffffffffffffffffffffffffffffffffffffffff1673ffffffffffffffffffffffffffffffffffffffff1681526020019081526020016000206000858152602001908152602001600020541015610617576040517f08c379a000000000000000000000000000000000000000000000000000000000815260040161060e90610ebb565b60405180910390fd5b8160026000858152602001908152602001600020600082825461063a9190610bdc565b9250508190555081600560008282546106539190610bdc565b9250508190555081600360008373ffffffffffffffffffffffffffffffffffffffff1673ffffffffffffffffffffffffffffffffffffffff168152602001908152602001600020600085815260200190815260200160002060008282546106ba9190610d83565b92505081905550505050565b60008054906101000a900473ffffffffffffffffffffffffffffffffffffffff1681565b60008190508073ffffffffffffffffffffffffffffffffffffffff166368e7ad366040518163ffffffff1660e01b8152600401600060405180830381600087803b15801561073757600080fd5b505af115801561074b573d6000803e3d6000fd5b5050505060018173ffffffffffffffffffffffffffffffffffffffff1663eb8704736040518163ffffffff1660e01b8152600401602060405180830381865afa15801561079c573d6000803e3d6000fd5b505050506040513d601f19601f820116820180604052508101906107c09190610c47565b03610870578073ffffffffffffffffffffffffffffffffffffffff166354c30984600460008573ffffffffffffffffffffffffffffffffffffffff1673ffffffffffffffffffffffffffffffffffffffff168152602001908152602001600020546040518263ffffffff1660e01b815260040161083d9190610ac4565b600060405180830381600087803b15801561085757600080fd5b505af115801561086b573d6000803e3d6000fd5b505050505b6000600460008473ffffffffffffffffffffffffffffffffffffffff1673ffffffffffffffffffffffffffffffffffffffff168152602001908152602001600020819055505050565b600060026000838152602001908152602001600020541161090f576040517f08c379a000000000000000000000000000000000000000000000000000000000815260040161090690610d63565b60405180910390fd5b60016002600083815260200190815260200160002060008282546109339190610d83565b9250508190555060016005600082825461094d9190610d83565b9250508190555080600460008473ffffffffffffffffffffffffffffffffffffffff1673ffffffffffffffffffffffffffffffffffffffff168152602001908152602001600020819055505050565b600080fd5b6000819050919050565b6109b4816109a1565b81146109bf57600080fd5b50565b6000813590506109d1816109ab565b92915050565b600073ffffffffffffffffffffffffffffffffffffffff82169050919050565b6000610a02826109d7565b9050919050565b610a12816109f7565b8114610a1d57600080fd5b50565b600081359050610a2f81610a09565b92915050565b600080600060608486031215610a4e57610a4d61099c565b5b6000610a5c868287016109c2565b9350506020610a6d868287016109c2565b9250506040610a7e86828701610a20565b9150509250925092565b600060208284031215610a9e57610a9d61099c565b5b6000610aac84828501610a20565b91505092915050565b610abe816109a1565b82525050565b6000602082019050610ad96000830184610ab5565b92915050565b600060208284031215610af557610af461099c565b5b6000610b03848285016109c2565b91505092915050565b60008060408385031215610b2357610b2261099c565b5b6000610b3185828601610a20565b9250506020610b42858286016109c2565b9150509250929050565b610b55816109f7565b82525050565b6000602082019050610b706000830184610b4c565b92915050565b6000606082019050610b8b6000830186610ab5565b610b986020830185610ab5565b610ba56040830184610b4c565b949350505050565b7f4e487b7100000000000000000000000000000000000000000000000000000000600052601160045260246000fd5b6000610be7826109a1565b9150610bf2836109a1565b9250827fffffffffffffffffffffffffffffffffffffffffffffffffffffffffffffffff03821115610c2757610c26610bad565b5b828201905092915050565b600081519050610c41816109ab565b92915050565b600060208284031215610c5d57610c5c61099c565b5b6000610c6b84828501610c32565b91505092915050565b600082825260208201905092915050565b7f546869732063616e6e6f74206265207468652062656e6566696369617279207360008201527f65636f6e642076616363696e6500000000000000000000000000000000000000602082015250565b6000610ce1602d83610c74565b9150610cec82610c85565b604082019050919050565b60006020820190508181036000830152610d1081610cd4565b9050919050565b7f496e73756666696369656e742053746f636b7300000000000000000000000000600082015250565b6000610d4d601383610c74565b9150610d5882610d17565b602082019050919050565b60006020820190508181036000830152610d7c81610d40565b9050919050565b6000610d8e826109a1565b9150610d99836109a1565b925082821015610dac57610dab610bad565b5b828203905092915050565b7f4e6f206f7264657220686164206265656e20706c61636564207769746820746860008201527f6973206d616e7566616374757265720000000000000000000000000000000000602082015250565b6000610e13602f83610c74565b9150610e1e82610db7565b604082019050919050565b60006020820190508181036000830152610e4281610e06565b9050919050565b7f4d6f7265207468616e206f7264657265642076616363696e657320686173206260008201527f65656e2072656365697665640000000000000000000000000000000000000000602082015250565b6000610ea5602c83610c74565b9150610eb082610e49565b604082019050919050565b60006020820190508181036000830152610ed481610e98565b905091905056fea264697066735822122006739c4e6dfaf9848a9caa3ec223c4b47101a8f7c90dcf3efafbd04dd438031464736f6c634300080d0033a2646970667358221220c08adc4bbf38bba79f45b11a123af646d389fb54a0c5e6a7c94f7e44ee50a88764736f6c634300080d0033",
  "immutableReferences": {},
  "source": "// SPDX-License-Identifier: MIT\r\n\r\npragma solidity ^0.8.13;\r\n\r\nimport \"./Manufacturer.sol\";\r\nimport \"./People.sol\";\r\nimport \"./Admin.sol\";\r\nimport \"./Delivery.sol\";\r\n\r\ncontract Actors{\r\n    address owner;\r\n    mapping (address => Admin) public admins;\r\n    mapping (uint => People) public beneficiaries;\r\n    mapping (address => Manufacturer) public manufacturers;\r\n\r\n    constructor(){\r\n        owner = msg.sender;\r\n    }\r\n\r\n    modifier onlyOwner(){\r\n        require(msg.sender == owner, \"Not the Onwer\");\r\n        _;\r\n    }\r\n\r\n    modifier notRegistered(){\r\n        require(address(manufacturers[msg.sender]) == address(0) && address(admins[msg.sender]) == address(0), \"Already a manufacturer or admin\");\r\n        _;\r\n    }\r\n    modifier noBenefeciary(uint _aadhar){\r\n        require(address(beneficiaries[_aadhar]) == address(0) && msg.sender == owner, \"Already a beneficiary\");\r\n        _;\r\n    }\r\n    modifier onlyManufacturer(){\r\n        require(address(manufacturers[msg.sender]) != address(0), \"Not a manufacturer\");\r\n        _;\r\n    }\r\n    modifier onlyBenefeciary(uint _aadhar){\r\n        require(address(beneficiaries[_aadhar]) != address(0) && msg.sender == owner, \"Not a beneficiary\");\r\n        _;\r\n    }\r\n    modifier onlyAdmin(){\r\n        require(address(admins[msg.sender]) != address(0), \"Not a manufacturer\");\r\n        _;\r\n    }    \r\n\r\n    function createManufacturer() public notRegistered{\r\n        manufacturers[msg.sender] = new Manufacturer();\r\n    }\r\n\r\n    function createBenefeciary(uint _aadhar) public noBenefeciary(_aadhar){        \r\n        beneficiaries[_aadhar] = new People();\r\n    }\r\n\r\n    function createAdmin() public notRegistered{\r\n        admins[msg.sender] = new Admin();\r\n    }\r\n\r\n    function adminCreateOrder(uint _vaccine, uint _qty, address _manufacturer) public onlyAdmin{\r\n        Admin admin = Admin(msg.sender);\r\n        admin.makeOrder(_vaccine, _qty, _manufacturer);\r\n    }\r\n\r\n    function adminVaccinationDone(uint _aadhar) public onlyAdmin{\r\n        Admin admin = Admin(msg.sender);\r\n        admin.vaccinationDone(address(beneficiaries[_aadhar]));\r\n    }\r\n\r\n    function beneficiaryFirstVaccine(uint _aadhar, uint _vaccine, address _admin) public onlyBenefeciary(_aadhar){\r\n        People beneficiary = People(beneficiaries[_aadhar]);\r\n        beneficiary.registerFirstVaccine(_admin, _vaccine);\r\n    }\r\n\r\n    function beneficiarySecondVaccine(uint _aadhar, address _admin) public onlyBenefeciary(_aadhar) onlyOwner{\r\n        People beneficiary = People(beneficiaries[_aadhar]);\r\n        beneficiary.registerSecondVaccine(_admin);\r\n    }\r\n\r\n    function manufacturerAddStock(uint _vaccine, uint _qty) public onlyManufacturer{\r\n        Manufacturer manufacturer = Manufacturer(msg.sender);\r\n        manufacturer.addStocks(_vaccine, _qty);\r\n    }\r\n\r\n    function manufacturerCreateDelivery(uint vac, uint qty, address _admin) public onlyManufacturer{\r\n        Manufacturer manufacturer = Manufacturer(msg.sender);\r\n        manufacturer.createDelivery(vac, qty, _admin);\r\n    }\r\n}",
  "sourcePath": "C:\\Users\\mdzai\\Desktop\\VCSM-Blockchain\\contracts\\Actors.sol",
  "compiler": {
    "name": "solc",
    "version": "0.8.13+commit.abaa5c0e.Emscripten.clang"
  },
  "schemaVersion": "3.4.7",
  "updatedAt": "2022-04-13T19:39:40.667Z",
  "networkType": "ethereum",
  "devdoc": {
    "kind": "dev",
    "methods": {},
    "version": 1
  },
  "userdoc": {
    "kind": "user",
    "methods": {},
    "version": 1
  }
}