{
  "contractName": "Actors",
  "abi": [
    {
      "inputs": [],
      "stateMutability": "nonpayable",
      "type": "constructor"
    },
    {
      "anonymous": false,
      "inputs": [
        {
          "indexed": false,
          "internalType": "address",
          "name": "add",
          "type": "address"
        }
      ],
      "name": "Address",
      "type": "event"
    },
    {
      "anonymous": false,
      "inputs": [
        {
          "components": [
            {
              "internalType": "address",
              "name": "owner",
              "type": "address"
            },
            {
              "internalType": "uint256",
              "name": "center_no",
              "type": "uint256"
            },
            {
              "components": [
                {
                  "internalType": "uint256",
                  "name": "a",
                  "type": "uint256"
                },
                {
                  "internalType": "uint256",
                  "name": "b",
                  "type": "uint256"
                },
                {
                  "internalType": "uint256",
                  "name": "c",
                  "type": "uint256"
                },
                {
                  "internalType": "uint256",
                  "name": "d",
                  "type": "uint256"
                }
              ],
              "internalType": "struct Admin.stocks",
              "name": "available",
              "type": "tuple"
            },
            {
              "components": [
                {
                  "internalType": "uint256",
                  "name": "a",
                  "type": "uint256"
                },
                {
                  "internalType": "uint256",
                  "name": "b",
                  "type": "uint256"
                },
                {
                  "internalType": "uint256",
                  "name": "c",
                  "type": "uint256"
                },
                {
                  "internalType": "uint256",
                  "name": "d",
                  "type": "uint256"
                }
              ],
              "internalType": "struct Admin.stocks",
              "name": "ordered",
              "type": "tuple"
            },
            {
              "components": [
                {
                  "internalType": "uint256",
                  "name": "a",
                  "type": "uint256"
                },
                {
                  "internalType": "uint256",
                  "name": "b",
                  "type": "uint256"
                },
                {
                  "internalType": "uint256",
                  "name": "c",
                  "type": "uint256"
                },
                {
                  "internalType": "uint256",
                  "name": "d",
                  "type": "uint256"
                }
              ],
              "internalType": "struct Admin.stocks",
              "name": "registered",
              "type": "tuple"
            }
          ],
          "indexed": false,
          "internalType": "struct Admins.adminInfo",
          "name": "info",
          "type": "tuple"
        }
      ],
      "name": "AdminInfo",
      "type": "event"
    },
    {
      "anonymous": false,
      "inputs": [
        {
          "components": [
            {
              "internalType": "address",
              "name": "owner",
              "type": "address"
            },
            {
              "internalType": "uint256",
              "name": "center_no",
              "type": "uint256"
            },
            {
              "components": [
                {
                  "internalType": "uint256",
                  "name": "a",
                  "type": "uint256"
                },
                {
                  "internalType": "uint256",
                  "name": "b",
                  "type": "uint256"
                },
                {
                  "internalType": "uint256",
                  "name": "c",
                  "type": "uint256"
                },
                {
                  "internalType": "uint256",
                  "name": "d",
                  "type": "uint256"
                }
              ],
              "internalType": "struct Admin.stocks",
              "name": "available",
              "type": "tuple"
            },
            {
              "components": [
                {
                  "internalType": "uint256",
                  "name": "a",
                  "type": "uint256"
                },
                {
                  "internalType": "uint256",
                  "name": "b",
                  "type": "uint256"
                },
                {
                  "internalType": "uint256",
                  "name": "c",
                  "type": "uint256"
                },
                {
                  "internalType": "uint256",
                  "name": "d",
                  "type": "uint256"
                }
              ],
              "internalType": "struct Admin.stocks",
              "name": "ordered",
              "type": "tuple"
            },
            {
              "components": [
                {
                  "internalType": "uint256",
                  "name": "a",
                  "type": "uint256"
                },
                {
                  "internalType": "uint256",
                  "name": "b",
                  "type": "uint256"
                },
                {
                  "internalType": "uint256",
                  "name": "c",
                  "type": "uint256"
                },
                {
                  "internalType": "uint256",
                  "name": "d",
                  "type": "uint256"
                }
              ],
              "internalType": "struct Admin.stocks",
              "name": "registered",
              "type": "tuple"
            }
          ],
          "indexed": false,
          "internalType": "struct Admins.adminInfo[]",
          "name": "arr",
          "type": "tuple[]"
        }
      ],
      "name": "AllAdminsInfo",
      "type": "event"
    },
    {
      "anonymous": false,
      "inputs": [
        {
          "components": [
            {
              "internalType": "uint256",
              "name": "vaccine",
              "type": "uint256"
            },
            {
              "internalType": "uint256",
              "name": "qty",
              "type": "uint256"
            },
            {
              "internalType": "address",
              "name": "admin",
              "type": "address"
            }
          ],
          "indexed": false,
          "internalType": "struct Manufacturer.orderInfo[]",
          "name": "info",
          "type": "tuple[]"
        }
      ],
      "name": "AllManufacturerOrders",
      "type": "event"
    },
    {
      "anonymous": false,
      "inputs": [
        {
          "components": [
            {
              "internalType": "address",
              "name": "owner",
              "type": "address"
            },
            {
              "components": [
                {
                  "internalType": "uint256",
                  "name": "a",
                  "type": "uint256"
                },
                {
                  "internalType": "uint256",
                  "name": "b",
                  "type": "uint256"
                },
                {
                  "internalType": "uint256",
                  "name": "c",
                  "type": "uint256"
                },
                {
                  "internalType": "uint256",
                  "name": "d",
                  "type": "uint256"
                }
              ],
              "internalType": "struct Manufacturer.stocks",
              "name": "available",
              "type": "tuple"
            },
            {
              "components": [
                {
                  "internalType": "uint256",
                  "name": "a",
                  "type": "uint256"
                },
                {
                  "internalType": "uint256",
                  "name": "b",
                  "type": "uint256"
                },
                {
                  "internalType": "uint256",
                  "name": "c",
                  "type": "uint256"
                },
                {
                  "internalType": "uint256",
                  "name": "d",
                  "type": "uint256"
                }
              ],
              "internalType": "struct Manufacturer.stocks",
              "name": "ordered",
              "type": "tuple"
            },
            {
              "components": [
                {
                  "internalType": "uint256",
                  "name": "a",
                  "type": "uint256"
                },
                {
                  "internalType": "uint256",
                  "name": "b",
                  "type": "uint256"
                },
                {
                  "internalType": "uint256",
                  "name": "c",
                  "type": "uint256"
                },
                {
                  "internalType": "uint256",
                  "name": "d",
                  "type": "uint256"
                }
              ],
              "internalType": "struct Manufacturer.stocks",
              "name": "out_for_delivery",
              "type": "tuple"
            },
            {
              "internalType": "uint256",
              "name": "price_a",
              "type": "uint256"
            },
            {
              "internalType": "uint256",
              "name": "price_b",
              "type": "uint256"
            },
            {
              "internalType": "uint256",
              "name": "price_c",
              "type": "uint256"
            },
            {
              "internalType": "uint256",
              "name": "price_d",
              "type": "uint256"
            },
            {
              "components": [
                {
                  "internalType": "uint256",
                  "name": "vaccine",
                  "type": "uint256"
                },
                {
                  "internalType": "uint256",
                  "name": "qty",
                  "type": "uint256"
                },
                {
                  "internalType": "address",
                  "name": "admin",
                  "type": "address"
                }
              ],
              "internalType": "struct Manufacturer.orderInfo[]",
              "name": "manufacturerOrders",
              "type": "tuple[]"
            },
            {
              "components": [
                {
                  "internalType": "uint256",
                  "name": "vac",
                  "type": "uint256"
                },
                {
                  "internalType": "uint256",
                  "name": "qty",
                  "type": "uint256"
                },
                {
                  "internalType": "address",
                  "name": "_admin",
                  "type": "address"
                }
              ],
              "internalType": "struct Delivery.deliveryInfo[]",
              "name": "manufacturerDeliveries",
              "type": "tuple[]"
            }
          ],
          "indexed": false,
          "internalType": "struct Manufacturers.manufacturerInfo[]",
          "name": "arr",
          "type": "tuple[]"
        }
      ],
      "name": "AllManufacturersInfo",
      "type": "event"
    },
    {
      "anonymous": false,
      "inputs": [
        {
          "components": [
            {
              "internalType": "uint256",
              "name": "vaccine",
              "type": "uint256"
            },
            {
              "internalType": "uint256",
              "name": "num_of_doses",
              "type": "uint256"
            },
            {
              "internalType": "uint256",
              "name": "admin_center_no",
              "type": "uint256"
            }
          ],
          "indexed": false,
          "internalType": "struct Beneficiaries.beneficiaryInfo",
          "name": "info",
          "type": "tuple"
        }
      ],
      "name": "BeneficiaryInfo",
      "type": "event"
    },
    {
      "anonymous": false,
      "inputs": [
        {
          "components": [
            {
              "internalType": "address",
              "name": "owner",
              "type": "address"
            },
            {
              "components": [
                {
                  "internalType": "uint256",
                  "name": "a",
                  "type": "uint256"
                },
                {
                  "internalType": "uint256",
                  "name": "b",
                  "type": "uint256"
                },
                {
                  "internalType": "uint256",
                  "name": "c",
                  "type": "uint256"
                },
                {
                  "internalType": "uint256",
                  "name": "d",
                  "type": "uint256"
                }
              ],
              "internalType": "struct Manufacturer.stocks",
              "name": "available",
              "type": "tuple"
            },
            {
              "components": [
                {
                  "internalType": "uint256",
                  "name": "a",
                  "type": "uint256"
                },
                {
                  "internalType": "uint256",
                  "name": "b",
                  "type": "uint256"
                },
                {
                  "internalType": "uint256",
                  "name": "c",
                  "type": "uint256"
                },
                {
                  "internalType": "uint256",
                  "name": "d",
                  "type": "uint256"
                }
              ],
              "internalType": "struct Manufacturer.stocks",
              "name": "ordered",
              "type": "tuple"
            },
            {
              "components": [
                {
                  "internalType": "uint256",
                  "name": "a",
                  "type": "uint256"
                },
                {
                  "internalType": "uint256",
                  "name": "b",
                  "type": "uint256"
                },
                {
                  "internalType": "uint256",
                  "name": "c",
                  "type": "uint256"
                },
                {
                  "internalType": "uint256",
                  "name": "d",
                  "type": "uint256"
                }
              ],
              "internalType": "struct Manufacturer.stocks",
              "name": "out_for_delivery",
              "type": "tuple"
            },
            {
              "internalType": "uint256",
              "name": "price_a",
              "type": "uint256"
            },
            {
              "internalType": "uint256",
              "name": "price_b",
              "type": "uint256"
            },
            {
              "internalType": "uint256",
              "name": "price_c",
              "type": "uint256"
            },
            {
              "internalType": "uint256",
              "name": "price_d",
              "type": "uint256"
            },
            {
              "components": [
                {
                  "internalType": "uint256",
                  "name": "vaccine",
                  "type": "uint256"
                },
                {
                  "internalType": "uint256",
                  "name": "qty",
                  "type": "uint256"
                },
                {
                  "internalType": "address",
                  "name": "admin",
                  "type": "address"
                }
              ],
              "internalType": "struct Manufacturer.orderInfo[]",
              "name": "manufacturerOrders",
              "type": "tuple[]"
            },
            {
              "components": [
                {
                  "internalType": "uint256",
                  "name": "vac",
                  "type": "uint256"
                },
                {
                  "internalType": "uint256",
                  "name": "qty",
                  "type": "uint256"
                },
                {
                  "internalType": "address",
                  "name": "_admin",
                  "type": "address"
                }
              ],
              "internalType": "struct Delivery.deliveryInfo[]",
              "name": "manufacturerDeliveries",
              "type": "tuple[]"
            }
          ],
          "indexed": false,
          "internalType": "struct Manufacturers.manufacturerInfo",
          "name": "info",
          "type": "tuple"
        }
      ],
      "name": "ManufacturerInfo",
      "type": "event"
    },
    {
      "anonymous": false,
      "inputs": [
        {
          "indexed": false,
          "internalType": "bool",
          "name": "success",
          "type": "bool"
        }
      ],
      "name": "Success",
      "type": "event"
    },
    {
      "anonymous": false,
      "inputs": [
        {
          "indexed": false,
          "internalType": "uint256",
          "name": "value",
          "type": "uint256"
        }
      ],
      "name": "Value",
      "type": "event"
    },
    {
      "inputs": [],
      "name": "createManufacturer",
      "outputs": [],
      "stateMutability": "nonpayable",
      "type": "function"
    },
    {
      "inputs": [
        {
          "internalType": "uint256",
          "name": "_aadhar",
          "type": "uint256"
        }
      ],
      "name": "createBenefeciary",
      "outputs": [],
      "stateMutability": "nonpayable",
      "type": "function"
    },
    {
      "inputs": [],
      "name": "createAdmin",
      "outputs": [],
      "stateMutability": "nonpayable",
      "type": "function"
    },
    {
      "inputs": [
        {
          "internalType": "uint256",
          "name": "_vaccine",
          "type": "uint256"
        },
        {
          "internalType": "uint256",
          "name": "_qty",
          "type": "uint256"
        },
        {
          "internalType": "address",
          "name": "_manufacturer",
          "type": "address"
        }
      ],
      "name": "adminCreateOrder",
      "outputs": [],
      "stateMutability": "payable",
      "type": "function",
      "payable": true
    },
    {
      "inputs": [
        {
          "internalType": "uint256",
          "name": "_aadhar",
          "type": "uint256"
        }
      ],
      "name": "adminVaccinationDone",
      "outputs": [],
      "stateMutability": "nonpayable",
      "type": "function"
    },
    {
      "inputs": [
        {
          "internalType": "uint256",
          "name": "_aadhar",
          "type": "uint256"
        },
        {
          "internalType": "uint256",
          "name": "_vaccine",
          "type": "uint256"
        },
        {
          "internalType": "address",
          "name": "_admin",
          "type": "address"
        }
      ],
      "name": "beneficiaryFirstVaccine",
      "outputs": [],
      "stateMutability": "nonpayable",
      "type": "function"
    },
    {
      "inputs": [
        {
          "internalType": "uint256",
          "name": "_aadhar",
          "type": "uint256"
        },
        {
          "internalType": "address",
          "name": "_admin",
          "type": "address"
        }
      ],
      "name": "beneficiarySecondVaccine",
      "outputs": [],
      "stateMutability": "nonpayable",
      "type": "function"
    },
    {
      "inputs": [
        {
          "internalType": "uint256",
          "name": "_vaccine",
          "type": "uint256"
        },
        {
          "internalType": "uint256",
          "name": "_qty",
          "type": "uint256"
        }
      ],
      "name": "manufacturerAddStock",
      "outputs": [],
      "stateMutability": "nonpayable",
      "type": "function"
    },
    {
      "inputs": [
        {
          "internalType": "uint256",
          "name": "ind",
          "type": "uint256"
        }
      ],
      "name": "manufacturerCreateDelivery",
      "outputs": [],
      "stateMutability": "nonpayable",
      "type": "function"
    },
    {
      "inputs": [
        {
          "internalType": "uint256",
          "name": "ind",
          "type": "uint256"
        }
      ],
      "name": "manufacturerFinishDelivery",
      "outputs": [],
      "stateMutability": "nonpayable",
      "type": "function"
    },
    {
      "inputs": [],
      "name": "getAllAdmins",
      "outputs": [],
      "stateMutability": "nonpayable",
      "type": "function"
    },
    {
      "inputs": [],
      "name": "getAllManufacturers",
      "outputs": [],
      "stateMutability": "nonpayable",
      "type": "function"
    },
    {
      "inputs": [
        {
          "internalType": "uint256",
          "name": "_aadhar",
          "type": "uint256"
        }
      ],
      "name": "getBeneficiaryInfo",
      "outputs": [],
      "stateMutability": "nonpayable",
      "type": "function"
    },
    {
      "inputs": [],
      "name": "getAdminInfo",
      "outputs": [],
      "stateMutability": "nonpayable",
      "type": "function"
    },
    {
      "inputs": [],
      "name": "getManufacturerInfo",
      "outputs": [],
      "stateMutability": "nonpayable",
      "type": "function"
    },
    {
      "inputs": [
        {
          "internalType": "uint256",
          "name": "a",
          "type": "uint256"
        },
        {
          "internalType": "uint256",
          "name": "b",
          "type": "uint256"
        },
        {
          "internalType": "uint256",
          "name": "c",
          "type": "uint256"
        },
        {
          "internalType": "uint256",
          "name": "d",
          "type": "uint256"
        }
      ],
      "name": "manufacturerSetPrice",
      "outputs": [],
      "stateMutability": "nonpayable",
      "type": "function"
    },
    {
      "inputs": [],
      "name": "getAllOrders",
      "outputs": [],
      "stateMutability": "nonpayable",
      "type": "function"
    }
  ],
  "bytecode": "0x60806040523480156200001157600080fd5b5033600360006101000a81548173ffffffffffffffffffffffffffffffffffffffff021916908373ffffffffffffffffffffffffffffffffffffffff16021790555060405162000061906200019c565b604051809103906000f0801580156200007e573d6000803e3d6000fd5b506000806101000a81548173ffffffffffffffffffffffffffffffffffffffff021916908373ffffffffffffffffffffffffffffffffffffffff160217905550604051620000cc90620001aa565b604051809103906000f080158015620000e9573d6000803e3d6000fd5b50600160006101000a81548173ffffffffffffffffffffffffffffffffffffffff021916908373ffffffffffffffffffffffffffffffffffffffff1602179055506040516200013890620001b8565b604051809103906000f08015801562000155573d6000803e3d6000fd5b50600260006101000a81548173ffffffffffffffffffffffffffffffffffffffff021916908373ffffffffffffffffffffffffffffffffffffffff160217905550620001c6565b614e62806200322d83390190565b612a18806200808f83390190565b611478806200aaa783390190565b61305780620001d66000396000f3fe6080604052600436106100fe5760003560e01c80639b7abde711610095578063ddba07a411610064578063ddba07a4146102ac578063de6f0722146102c3578063e8e7c0ad146102da578063e92980c514610303578063e9523c971461031a576100fe565b80639b7abde714610227578063aa833e6c14610250578063b86094b71461026c578063c3d5fd3914610295576100fe565b806382a9bcd2116100d157806382a9bcd2146101955780638406ef12146101ac5780638564bc5f146101d5578063963178ba146101fe576100fe565b806313b1a82214610103578063339874d51461012c57806357d5b1c9146101555780637bea0d1c1461017e575b600080fd5b34801561010f57600080fd5b5061012a600480360381019061012591906117a9565b610331565b005b34801561013857600080fd5b50610153600480360381019061014e9190611834565b610408565b005b34801561016157600080fd5b5061017c60048036038101906101779190611887565b610580565b005b34801561018a57600080fd5b506101936106f5565b005b3480156101a157600080fd5b506101aa6107cc565b005b3480156101b857600080fd5b506101d360048036038101906101ce91906117a9565b6108a0565b005b3480156101e157600080fd5b506101fc60048036038101906101f791906117a9565b61099b565b005b34801561020a57600080fd5b50610225600480360381019061022091906117a9565b610a72565b005b34801561023357600080fd5b5061024e600480360381019061024991906117a9565b610be8565b005b61026a60048036038101906102659190611834565b610cbd565b005b34801561027857600080fd5b50610293600480360381019061028e91906118c7565b6111d0565b005b3480156102a157600080fd5b506102aa611269565b005b3480156102b857600080fd5b506102c161133e565b005b3480156102cf57600080fd5b506102d861140a565b005b3480156102e657600080fd5b5061030160048036038101906102fc919061192e565b6114e1565b005b34801561030f57600080fd5b506103186115bb565b005b34801561032657600080fd5b5061032f611691565b005b7f3b0a8ddef325df2bfdfa6b430ae4c8421841cd135bfa8fb5e432f200787520bb600260009054906101000a900473ffffffffffffffffffffffffffffffffffffffff1673ffffffffffffffffffffffffffffffffffffffff166313b1a822836040518263ffffffff1660e01b81526004016103ad919061197d565b6020604051808303816000875af11580156103cc573d6000803e3d6000fd5b505050506040513d601f19601f820116820180604052508101906103f091906119d0565b6040516103fd9190611a0c565b60405180910390a150565b7f3b0a8ddef325df2bfdfa6b430ae4c8421841cd135bfa8fb5e432f200787520bb600260009054906101000a900473ffffffffffffffffffffffffffffffffffffffff1673ffffffffffffffffffffffffffffffffffffffff1663339874d58585600160009054906101000a900473ffffffffffffffffffffffffffffffffffffffff1673ffffffffffffffffffffffffffffffffffffffff166364efb22b876040518263ffffffff1660e01b81526004016104c49190611a36565b602060405180830381865afa1580156104e1573d6000803e3d6000fd5b505050506040513d601f19601f820116820180604052508101906105059190611a8f565b6040518463ffffffff1660e01b815260040161052393929190611b1b565b6020604051808303816000875af1158015610542573d6000803e3d6000fd5b505050506040513d601f19601f8201168201806040525081019061056691906119d0565b6040516105739190611a0c565b60405180910390a1505050565b7f3b0a8ddef325df2bfdfa6b430ae4c8421841cd135bfa8fb5e432f200787520bb600260009054906101000a900473ffffffffffffffffffffffffffffffffffffffff1673ffffffffffffffffffffffffffffffffffffffff166357d5b1c984600160009054906101000a900473ffffffffffffffffffffffffffffffffffffffff1673ffffffffffffffffffffffffffffffffffffffff166364efb22b866040518263ffffffff1660e01b815260040161063b9190611a36565b602060405180830381865afa158015610658573d6000803e3d6000fd5b505050506040513d601f19601f8201168201806040525081019061067c9190611a8f565b6040518363ffffffff1660e01b8152600401610699929190611b52565b6020604051808303816000875af11580156106b8573d6000803e3d6000fd5b505050506040513d601f19601f820116820180604052508101906106dc91906119d0565b6040516106e99190611a0c565b60405180910390a15050565b7fbbccf868a67a2c57510ba0005f578af0ec82b4ba4784bcbc1ac9d0cc60be23ab60008054906101000a900473ffffffffffffffffffffffffffffffffffffffff1673ffffffffffffffffffffffffffffffffffffffff1663b5fec1ff336040518263ffffffff1660e01b815260040161076f9190611a36565b600060405180830381865afa15801561078c573d6000803e3d6000fd5b505050506040513d6000823e3d601f19601f820116820180604052508101906107b59190611d6c565b6040516107c29190611ec4565b60405180910390a1565b7f3b0a8ddef325df2bfdfa6b430ae4c8421841cd135bfa8fb5e432f200787520bb60008054906101000a900473ffffffffffffffffffffffffffffffffffffffff1673ffffffffffffffffffffffffffffffffffffffff1663253dbcc8336040518263ffffffff1660e01b81526004016108469190611a36565b6020604051808303816000875af1158015610865573d6000803e3d6000fd5b505050506040513d601f19601f8201168201806040525081019061088991906119d0565b6040516108969190611a0c565b60405180910390a1565b7f3b0a8ddef325df2bfdfa6b430ae4c8421841cd135bfa8fb5e432f200787520bb60008054906101000a900473ffffffffffffffffffffffffffffffffffffffff1673ffffffffffffffffffffffffffffffffffffffff1663bc2f00753384600160009054906101000a900473ffffffffffffffffffffffffffffffffffffffff166040518463ffffffff1660e01b815260040161094093929190611f07565b6020604051808303816000875af115801561095f573d6000803e3d6000fd5b505050506040513d601f19601f8201168201806040525081019061098391906119d0565b6040516109909190611a0c565b60405180910390a150565b7f3b0a8ddef325df2bfdfa6b430ae4c8421841cd135bfa8fb5e432f200787520bb60008054906101000a900473ffffffffffffffffffffffffffffffffffffffff1673ffffffffffffffffffffffffffffffffffffffff1663d8d4214833846040518363ffffffff1660e01b8152600401610a17929190611f3e565b6020604051808303816000875af1158015610a36573d6000803e3d6000fd5b505050506040513d601f19601f82011682018060405250810190610a5a91906119d0565b604051610a679190611a0c565b60405180910390a150565b7f3b0a8ddef325df2bfdfa6b430ae4c8421841cd135bfa8fb5e432f200787520bb600160009054906101000a900473ffffffffffffffffffffffffffffffffffffffff1673ffffffffffffffffffffffffffffffffffffffff16632761b8ad3384600260009054906101000a900473ffffffffffffffffffffffffffffffffffffffff1673ffffffffffffffffffffffffffffffffffffffff1663302df083876040518263ffffffff1660e01b8152600401610b2e919061197d565b602060405180830381865afa158015610b4b573d6000803e3d6000fd5b505050506040513d601f19601f82011682018060405250810190610b6f9190611fa5565b6040518463ffffffff1660e01b8152600401610b8d93929190611ff3565b6020604051808303816000875af1158015610bac573d6000803e3d6000fd5b505050506040513d601f19601f82011682018060405250810190610bd091906119d0565b604051610bdd9190611a0c565b60405180910390a150565b7f876c3f0c369cc22262e2996067c6d4716866069a707b21dfa6df53b7ab3c1914600260009054906101000a900473ffffffffffffffffffffffffffffffffffffffff1673ffffffffffffffffffffffffffffffffffffffff16639b7abde7836040518263ffffffff1660e01b8152600401610c64919061197d565b606060405180830381865afa158015610c81573d6000803e3d6000fd5b505050506040513d601f19601f82011682018060405250810190610ca5919061208e565b604051610cb291906120fd565b60405180910390a150565b60008060009054906101000a900473ffffffffffffffffffffffffffffffffffffffff1673ffffffffffffffffffffffffffffffffffffffff1663043be2e4836040518263ffffffff1660e01b8152600401610d199190611a36565b600060405180830381865afa158015610d36573d6000803e3d6000fd5b505050506040513d6000823e3d601f19601f82011682018060405250810190610d5f91906123ea565b905060018403610e0e5734838260800151610d7a9190612462565b03610dcb578173ffffffffffffffffffffffffffffffffffffffff166108fc349081150290604051600060405180830381858888f19350505050158015610dc5573d6000803e3d6000fd5b50610e09565b7f3b0a8ddef325df2bfdfa6b430ae4c8421841cd135bfa8fb5e432f200787520bb6000604051610dfb9190611a0c565b60405180910390a1506111cb565b611056565b60028403610ebb5734838260a00151610e279190612462565b03610e78578173ffffffffffffffffffffffffffffffffffffffff166108fc349081150290604051600060405180830381858888f19350505050158015610e72573d6000803e3d6000fd5b50610eb6565b7f3b0a8ddef325df2bfdfa6b430ae4c8421841cd135bfa8fb5e432f200787520bb6000604051610ea89190611a0c565b60405180910390a1506111cb565b611055565b60038403610f685734838260c00151610ed49190612462565b03610f25578173ffffffffffffffffffffffffffffffffffffffff166108fc349081150290604051600060405180830381858888f19350505050158015610f1f573d6000803e3d6000fd5b50610f63565b7f3b0a8ddef325df2bfdfa6b430ae4c8421841cd135bfa8fb5e432f200787520bb6000604051610f559190611a0c565b60405180910390a1506111cb565b611054565b600484036110155734838260e00151610f819190612462565b03610fd2578173ffffffffffffffffffffffffffffffffffffffff166108fc349081150290604051600060405180830381858888f19350505050158015610fcc573d6000803e3d6000fd5b50611010565b7f3b0a8ddef325df2bfdfa6b430ae4c8421841cd135bfa8fb5e432f200787520bb60006040516110029190611a0c565b60405180910390a1506111cb565b611053565b7f3b0a8ddef325df2bfdfa6b430ae4c8421841cd135bfa8fb5e432f200787520bb60006040516110459190611a0c565b60405180910390a1506111cb565b5b5b5b7f3b0a8ddef325df2bfdfa6b430ae4c8421841cd135bfa8fb5e432f200787520bb600160009054906101000a900473ffffffffffffffffffffffffffffffffffffffff1673ffffffffffffffffffffffffffffffffffffffff166357afa3e833878760008054906101000a900473ffffffffffffffffffffffffffffffffffffffff1673ffffffffffffffffffffffffffffffffffffffff1663191bcef6896040518263ffffffff1660e01b81526004016111119190611a36565b602060405180830381865afa15801561112e573d6000803e3d6000fd5b505050506040513d601f19601f8201168201806040525081019061115291906124fa565b6040518563ffffffff1660e01b81526004016111719493929190612548565b6020604051808303816000875af1158015611190573d6000803e3d6000fd5b505050506040513d601f19601f820116820180604052508101906111b491906119d0565b6040516111c19190611a0c565b60405180910390a1505b505050565b60008054906101000a900473ffffffffffffffffffffffffffffffffffffffff1673ffffffffffffffffffffffffffffffffffffffff1663a9db4dd333868686866040518663ffffffff1660e01b815260040161123195949392919061258d565b600060405180830381600087803b15801561124b57600080fd5b505af115801561125f573d6000803e3d6000fd5b5050505050505050565b7fd622f8bf8afab07fb43b13f13208608db4b1d615ccbefc252eb7ada5e1186364600160009054906101000a900473ffffffffffffffffffffffffffffffffffffffff1673ffffffffffffffffffffffffffffffffffffffff1663722b0376336040518263ffffffff1660e01b81526004016112e59190611a36565b6101c060405180830381865afa158015611303573d6000803e3d6000fd5b505050506040513d601f19601f8201168201806040525081019061132791906126e6565b60405161133491906127d3565b60405180910390a1565b7fc0af513e151ebeae837da31e0572e5ff4dc2c8c0dd74b37e00913597d67fca3460008054906101000a900473ffffffffffffffffffffffffffffffffffffffff1673ffffffffffffffffffffffffffffffffffffffff1663ddba07a46040518163ffffffff1660e01b8152600401600060405180830381865afa1580156113ca573d6000803e3d6000fd5b505050506040513d6000823e3d601f19601f820116820180604052508101906113f391906128d0565b6040516114009190612c76565b60405180910390a1565b7ff5169b2b8823f0c692db658c7c281e402db7d27586040404dd1b9e3795cf640460008054906101000a900473ffffffffffffffffffffffffffffffffffffffff1673ffffffffffffffffffffffffffffffffffffffff1663043be2e4336040518263ffffffff1660e01b81526004016114849190611a36565b600060405180830381865afa1580156114a1573d6000803e3d6000fd5b505050506040513d6000823e3d601f19601f820116820180604052508101906114ca91906123ea565b6040516114d79190612d7e565b60405180910390a1565b7f3b0a8ddef325df2bfdfa6b430ae4c8421841cd135bfa8fb5e432f200787520bb60008054906101000a900473ffffffffffffffffffffffffffffffffffffffff1673ffffffffffffffffffffffffffffffffffffffff16638c816a633385856040518463ffffffff1660e01b815260040161155f93929190612da0565b6020604051808303816000875af115801561157e573d6000803e3d6000fd5b505050506040513d601f19601f820116820180604052508101906115a291906119d0565b6040516115af9190611a0c565b60405180910390a15050565b7f3b0a8ddef325df2bfdfa6b430ae4c8421841cd135bfa8fb5e432f200787520bb600160009054906101000a900473ffffffffffffffffffffffffffffffffffffffff1673ffffffffffffffffffffffffffffffffffffffff166304020595336040518263ffffffff1660e01b81526004016116379190611a36565b6020604051808303816000875af1158015611656573d6000803e3d6000fd5b505050506040513d601f19601f8201168201806040525081019061167a91906119d0565b6040516116879190611a0c565b60405180910390a1565b7f759679c842f8da4788fbb7922f43bd622dea53f5c6b18b8687b68d2c117f4607600160009054906101000a900473ffffffffffffffffffffffffffffffffffffffff1673ffffffffffffffffffffffffffffffffffffffff1663e9523c976040518163ffffffff1660e01b8152600401600060405180830381865afa15801561171f573d6000803e3d6000fd5b505050506040513d6000823e3d601f19601f820116820180604052508101906117489190612e9c565b6040516117559190612fff565b60405180910390a1565b6000604051905090565b600080fd5b600080fd5b6000819050919050565b61178681611773565b811461179157600080fd5b50565b6000813590506117a38161177d565b92915050565b6000602082840312156117bf576117be611769565b5b60006117cd84828501611794565b91505092915050565b600073ffffffffffffffffffffffffffffffffffffffff82169050919050565b6000611801826117d6565b9050919050565b611811816117f6565b811461181c57600080fd5b50565b60008135905061182e81611808565b92915050565b60008060006060848603121561184d5761184c611769565b5b600061185b86828701611794565b935050602061186c86828701611794565b925050604061187d8682870161181f565b9150509250925092565b6000806040838503121561189e5761189d611769565b5b60006118ac85828601611794565b92505060206118bd8582860161181f565b9150509250929050565b600080600080608085870312156118e1576118e0611769565b5b60006118ef87828801611794565b945050602061190087828801611794565b935050604061191187828801611794565b925050606061192287828801611794565b91505092959194509250565b6000806040838503121561194557611944611769565b5b600061195385828601611794565b925050602061196485828601611794565b9150509250929050565b61197781611773565b82525050565b6000602082019050611992600083018461196e565b92915050565b60008115159050919050565b6119ad81611998565b81146119b857600080fd5b50565b6000815190506119ca816119a4565b92915050565b6000602082840312156119e6576119e5611769565b5b60006119f4848285016119bb565b91505092915050565b611a0681611998565b82525050565b6000602082019050611a2160008301846119fd565b92915050565b611a30816117f6565b82525050565b6000602082019050611a4b6000830184611a27565b92915050565b6000611a5c826117f6565b9050919050565b611a6c81611a51565b8114611a7757600080fd5b50565b600081519050611a8981611a63565b92915050565b600060208284031215611aa557611aa4611769565b5b6000611ab384828501611a7a565b91505092915050565b6000819050919050565b6000611ae1611adc611ad7846117d6565b611abc565b6117d6565b9050919050565b6000611af382611ac6565b9050919050565b6000611b0582611ae8565b9050919050565b611b1581611afa565b82525050565b6000606082019050611b30600083018661196e565b611b3d602083018561196e565b611b4a6040830184611b0c565b949350505050565b6000604082019050611b67600083018561196e565b611b746020830184611b0c565b9392505050565b600080fd5b6000601f19601f8301169050919050565b7f4e487b7100000000000000000000000000000000000000000000000000000000600052604160045260246000fd5b611bc982611b80565b810181811067ffffffffffffffff82111715611be857611be7611b91565b5b80604052505050565b6000611bfb61175f565b9050611c078282611bc0565b919050565b600067ffffffffffffffff821115611c2757611c26611b91565b5b602082029050602081019050919050565b600080fd5b600080fd5b600080fd5b600081519050611c568161177d565b92915050565b600081519050611c6b81611808565b92915050565b600060608284031215611c8757611c86611c3d565b5b611c916060611bf1565b90506000611ca184828501611c47565b6000830152506020611cb584828501611c47565b6020830152506040611cc984828501611c5c565b60408301525092915050565b6000611ce8611ce384611c0c565b611bf1565b90508083825260208201905060608402830185811115611d0b57611d0a611c38565b5b835b81811015611d345780611d208882611c71565b845260208401935050606081019050611d0d565b5050509392505050565b600082601f830112611d5357611d52611b7b565b5b8151611d63848260208601611cd5565b91505092915050565b600060208284031215611d8257611d81611769565b5b600082015167ffffffffffffffff811115611da057611d9f61176e565b5b611dac84828501611d3e565b91505092915050565b600081519050919050565b600082825260208201905092915050565b6000819050602082019050919050565b611dea81611773565b82525050565b611df9816117f6565b82525050565b606082016000820151611e156000850182611de1565b506020820151611e286020850182611de1565b506040820151611e3b6040850182611df0565b50505050565b6000611e4d8383611dff565b60608301905092915050565b6000602082019050919050565b6000611e7182611db5565b611e7b8185611dc0565b9350611e8683611dd1565b8060005b83811015611eb7578151611e9e8882611e41565b9750611ea983611e59565b925050600181019050611e8a565b5085935050505092915050565b60006020820190508181036000830152611ede8184611e66565b905092915050565b6000611ef182611ae8565b9050919050565b611f0181611ee6565b82525050565b6000606082019050611f1c6000830186611a27565b611f29602083018561196e565b611f366040830184611ef8565b949350505050565b6000604082019050611f536000830185611a27565b611f60602083018461196e565b9392505050565b6000611f72826117f6565b9050919050565b611f8281611f67565b8114611f8d57600080fd5b50565b600081519050611f9f81611f79565b92915050565b600060208284031215611fbb57611fba611769565b5b6000611fc984828501611f90565b91505092915050565b6000611fdd82611ae8565b9050919050565b611fed81611fd2565b82525050565b60006060820190506120086000830186611a27565b612015602083018561196e565b6120226040830184611fe4565b949350505050565b6000606082840312156120405761203f611c3d565b5b61204a6060611bf1565b9050600061205a84828501611c47565b600083015250602061206e84828501611c47565b602083015250604061208284828501611c47565b60408301525092915050565b6000606082840312156120a4576120a3611769565b5b60006120b28482850161202a565b91505092915050565b6060820160008201516120d16000850182611de1565b5060208201516120e46020850182611de1565b5060408201516120f76040850182611de1565b50505050565b600060608201905061211260008301846120bb565b92915050565b60006080828403121561212e5761212d611c3d565b5b6121386080611bf1565b9050600061214884828501611c47565b600083015250602061215c84828501611c47565b602083015250604061217084828501611c47565b604083015250606061218484828501611c47565b60608301525092915050565b600067ffffffffffffffff8211156121ab576121aa611b91565b5b602082029050602081019050919050565b6000606082840312156121d2576121d1611c3d565b5b6121dc6060611bf1565b905060006121ec84828501611c47565b600083015250602061220084828501611c47565b602083015250604061221484828501611c5c565b60408301525092915050565b600061223361222e84612190565b611bf1565b9050808382526020820190506060840283018581111561225657612255611c38565b5b835b8181101561227f578061226b88826121bc565b845260208401935050606081019050612258565b5050509392505050565b600082601f83011261229e5761229d611b7b565b5b81516122ae848260208601612220565b91505092915050565b600061026082840312156122ce576122cd611c3d565b5b6122d9610140611bf1565b905060006122e984828501611c5c565b60008301525060206122fd84828501612118565b60208301525060a061231184828501612118565b60408301525061012061232684828501612118565b6060830152506101a061233b84828501611c47565b6080830152506101c061235084828501611c47565b60a0830152506101e061236584828501611c47565b60c08301525061020061237a84828501611c47565b60e08301525061022082015167ffffffffffffffff81111561239f5761239e611c42565b5b6123ab84828501611d3e565b6101008301525061024082015167ffffffffffffffff8111156123d1576123d0611c42565b5b6123dd84828501612289565b6101208301525092915050565b600060208284031215612400576123ff611769565b5b600082015167ffffffffffffffff81111561241e5761241d61176e565b5b61242a848285016122b7565b91505092915050565b7f4e487b7100000000000000000000000000000000000000000000000000000000600052601160045260246000fd5b600061246d82611773565b915061247883611773565b9250817fffffffffffffffffffffffffffffffffffffffffffffffffffffffffffffffff04831182151516156124b1576124b0612433565b5b828202905092915050565b60006124c7826117f6565b9050919050565b6124d7816124bc565b81146124e257600080fd5b50565b6000815190506124f4816124ce565b92915050565b6000602082840312156125105761250f611769565b5b600061251e848285016124e5565b91505092915050565b600061253282611ae8565b9050919050565b61254281612527565b82525050565b600060808201905061255d6000830187611a27565b61256a602083018661196e565b612577604083018561196e565b6125846060830184612539565b95945050505050565b600060a0820190506125a26000830188611a27565b6125af602083018761196e565b6125bc604083018661196e565b6125c9606083018561196e565b6125d6608083018461196e565b9695505050505050565b6000608082840312156125f6576125f5611c3d565b5b6126006080611bf1565b9050600061261084828501611c47565b600083015250602061262484828501611c47565b602083015250604061263884828501611c47565b604083015250606061264c84828501611c47565b60608301525092915050565b60006101c0828403121561266f5761266e611c3d565b5b61267960a0611bf1565b9050600061268984828501611c5c565b600083015250602061269d84828501611c47565b60208301525060406126b1848285016125e0565b60408301525060c06126c5848285016125e0565b6060830152506101406126da848285016125e0565b60808301525092915050565b60006101c082840312156126fd576126fc611769565b5b600061270b84828501612658565b91505092915050565b60808201600082015161272a6000850182611de1565b50602082015161273d6020850182611de1565b5060408201516127506040850182611de1565b5060608201516127636060850182611de1565b50505050565b6101c0820160008201516127806000850182611df0565b5060208201516127936020850182611de1565b5060408201516127a66040850182612714565b5060608201516127b960c0850182612714565b5060808201516127cd610140850182612714565b50505050565b60006101c0820190506127e96000830184612769565b92915050565b600067ffffffffffffffff82111561280a57612809611b91565b5b602082029050602081019050919050565b600061282e612829846127ef565b611bf1565b9050808382526020820190506020840283018581111561285157612850611c38565b5b835b8181101561289857805167ffffffffffffffff81111561287657612875611b7b565b5b80860161288389826122b7565b85526020850194505050602081019050612853565b5050509392505050565b600082601f8301126128b7576128b6611b7b565b5b81516128c784826020860161281b565b91505092915050565b6000602082840312156128e6576128e5611769565b5b600082015167ffffffffffffffff8111156129045761290361176e565b5b612910848285016128a2565b91505092915050565b600081519050919050565b600082825260208201905092915050565b6000819050602082019050919050565b60808201600082015161295b6000850182611de1565b50602082015161296e6020850182611de1565b5060408201516129816040850182611de1565b5060608201516129946060850182611de1565b50505050565b600082825260208201905092915050565b60006129b682611db5565b6129c0818561299a565b93506129cb83611dd1565b8060005b838110156129fc5781516129e38882611e41565b97506129ee83611e59565b9250506001810190506129cf565b5085935050505092915050565b600081519050919050565b600082825260208201905092915050565b6000819050602082019050919050565b606082016000820151612a4b6000850182611de1565b506020820151612a5e6020850182611de1565b506040820151612a716040850182611df0565b50505050565b6000612a838383612a35565b60608301905092915050565b6000602082019050919050565b6000612aa782612a09565b612ab18185612a14565b9350612abc83612a25565b8060005b83811015612aed578151612ad48882612a77565b9750612adf83612a8f565b925050600181019050612ac0565b5085935050505092915050565b600061026083016000830151612b136000860182611df0565b506020830151612b266020860182612945565b506040830151612b3960a0860182612945565b506060830151612b4d610120860182612945565b506080830151612b616101a0860182611de1565b5060a0830151612b756101c0860182611de1565b5060c0830151612b896101e0860182611de1565b5060e0830151612b9d610200860182611de1565b50610100830151848203610220860152612bb782826129ab565b915050610120830151848203610240860152612bd38282612a9c565b9150508091505092915050565b6000612bec8383612afa565b905092915050565b6000602082019050919050565b6000612c0c82612919565b612c168185612924565b935083602082028501612c2885612935565b8060005b85811015612c645784840389528151612c458582612be0565b9450612c5083612bf4565b925060208a01995050600181019050612c2c565b50829750879550505050505092915050565b60006020820190508181036000830152612c908184612c01565b905092915050565b600061026083016000830151612cb16000860182611df0565b506020830151612cc46020860182612945565b506040830151612cd760a0860182612945565b506060830151612ceb610120860182612945565b506080830151612cff6101a0860182611de1565b5060a0830151612d136101c0860182611de1565b5060c0830151612d276101e0860182611de1565b5060e0830151612d3b610200860182611de1565b50610100830151848203610220860152612d5582826129ab565b915050610120830151848203610240860152612d718282612a9c565b9150508091505092915050565b60006020820190508181036000830152612d988184612c98565b905092915050565b6000606082019050612db56000830186611a27565b612dc2602083018561196e565b612dcf604083018461196e565b949350505050565b600067ffffffffffffffff821115612df257612df1611b91565b5b602082029050602081019050919050565b6000612e16612e1184612dd7565b611bf1565b9050808382526020820190506101c08402830185811115612e3a57612e39611c38565b5b835b81811015612e645780612e4f8882612658565b8452602084019350506101c081019050612e3c565b5050509392505050565b600082601f830112612e8357612e82611b7b565b5b8151612e93848260208601612e03565b91505092915050565b600060208284031215612eb257612eb1611769565b5b600082015167ffffffffffffffff811115612ed057612ecf61176e565b5b612edc84828501612e6e565b91505092915050565b600081519050919050565b600082825260208201905092915050565b6000819050602082019050919050565b6101c082016000820151612f286000850182611df0565b506020820151612f3b6020850182611de1565b506040820151612f4e6040850182612714565b506060820151612f6160c0850182612714565b506080820151612f75610140850182612714565b50505050565b6000612f878383612f11565b6101c08301905092915050565b6000602082019050919050565b6000612fac82612ee5565b612fb68185612ef0565b9350612fc183612f01565b8060005b83811015612ff2578151612fd98882612f7b565b9750612fe483612f94565b925050600181019050612fc5565b5085935050505092915050565b600060208201905081810360008301526130198184612fa1565b90509291505056fea2646970667358221220a0e2aac76983d695b461c04aaefd2290407b86a0eb35fd9e6c100bf0a994672064736f6c634300080d0033608060405234801561001057600080fd5b50614e42806100206000396000f3fe60806040523480156200001157600080fd5b5060043610620000c45760003560e01c8063a9db4dd3116200007b578063a9db4dd3146200020d578063b5fec1ff146200022d578063bc2f00751462000263578063d8d421481462000299578063ddba07a414620002cf578063ed7494ee14620002f157620000c4565b8063043be2e414620000c9578063191bcef614620000ff578063253dbcc814620001355780636b5eb09c146200016b5780638b0295de14620001a15780638c816a6314620001d7575b600080fd5b620000e76004803603810190620000e1919062001389565b62000327565b604051620000f6919062001748565b60405180910390f35b6200011d600480360381019062000117919062001389565b620006c7565b6040516200012c9190620017d7565b60405180910390f35b6200015360048036038101906200014d919062001389565b6200072f565b60405162000162919062001811565b60405180910390f35b62000189600480360381019062000183919062001389565b6200094d565b604051620001989190620017d7565b60405180910390f35b620001bf6004803603810190620001b9919062001389565b62000980565b604051620001ce9190620018a9565b60405180910390f35b620001f56004803603810190620001ef9190620018fe565b62000a5e565b60405162000204919062001811565b60405180910390f35b6200022b60048036038101906200022591906200195a565b62000bdc565b005b6200024b600480360381019062000245919062001389565b62000cb6565b6040516200025a919062001a5d565b60405180910390f35b6200028160048036038101906200027b919062001ac6565b62000d46565b60405162000290919062001811565b60405180910390f35b620002b76004803603810190620002b1919062001b22565b62000e32565b604051620002c6919062001811565b60405180910390f35b620002d962000fae565b604051620002e8919062001d33565b60405180910390f35b6200030f600480360381019062000309919062001d57565b620011ab565b6040516200031e9190620017d7565b60405180910390f35b62000331620011eb565b600073ffffffffffffffffffffffffffffffffffffffff166000808473ffffffffffffffffffffffffffffffffffffffff1673ffffffffffffffffffffffffffffffffffffffff16815260200190815260200160002060009054906101000a900473ffffffffffffffffffffffffffffffffffffffff1673ffffffffffffffffffffffffffffffffffffffff16036200055b576000600167ffffffffffffffff811115620003e457620003e362001d89565b5b6040519080825280602002602001820160405280156200042157816020015b6200040d6200126c565b815260200190600190039081620004035790505b5090506000600167ffffffffffffffff81111562000444576200044362001d89565b5b6040519080825280602002602001820160405280156200048157816020015b6200046d620012a3565b815260200190600190039081620004635790505b509050604051806101400160405280600073ffffffffffffffffffffffffffffffffffffffff168152602001604051806080016040528060008152602001600081526020016000815260200160008152508152602001604051806080016040528060008152602001600081526020016000815260200160008152508152602001604051806080016040528060008152602001600081526020016000815260200160008152508152602001600081526020016000815260200160008152602001600081526020018381526020018281525092505050620006c2565b60008060008473ffffffffffffffffffffffffffffffffffffffff1673ffffffffffffffffffffffffffffffffffffffff16815260200190815260200160002060009054906101000a900473ffffffffffffffffffffffffffffffffffffffff1690506000806000806000806000806000808a73ffffffffffffffffffffffffffffffffffffffff16635a9b0b896040518163ffffffff1660e01b8152600401600060405180830381865afa15801562000619573d6000803e3d6000fd5b505050506040513d6000823e3d601f19601f820116820180604052508101906200064491906200216a565b99509950995099509950995099509950995099506040518061014001604052808b73ffffffffffffffffffffffffffffffffffffffff1681526020018a8152602001898152602001888152602001878152602001868152602001858152602001848152602001838152602001828152509b5050505050505050505050505b919050565b60008060008373ffffffffffffffffffffffffffffffffffffffff1673ffffffffffffffffffffffffffffffffffffffff16815260200190815260200160002060009054906101000a900473ffffffffffffffffffffffffffffffffffffffff169050919050565b60008073ffffffffffffffffffffffffffffffffffffffff166000808473ffffffffffffffffffffffffffffffffffffffff1673ffffffffffffffffffffffffffffffffffffffff16815260200190815260200160002060009054906101000a900473ffffffffffffffffffffffffffffffffffffffff1673ffffffffffffffffffffffffffffffffffffffff1614620007cd576000905062000948565b81604051620007dc90620012da565b620007e89190620022b4565b604051809103906000f08015801562000805573d6000803e3d6000fd5b506000808473ffffffffffffffffffffffffffffffffffffffff1673ffffffffffffffffffffffffffffffffffffffff16815260200190815260200160002060006101000a81548173ffffffffffffffffffffffffffffffffffffffff021916908373ffffffffffffffffffffffffffffffffffffffff16021790555060016000808473ffffffffffffffffffffffffffffffffffffffff1673ffffffffffffffffffffffffffffffffffffffff16815260200190815260200160002060009054906101000a900473ffffffffffffffffffffffffffffffffffffffff169080600181540180825580915050600190039060005260206000200160009091909190916101000a81548173ffffffffffffffffffffffffffffffffffffffff021916908373ffffffffffffffffffffffffffffffffffffffff160217905550600190505b919050565b60006020528060005260406000206000915054906101000a900473ffffffffffffffffffffffffffffffffffffffff1681565b60606000808373ffffffffffffffffffffffffffffffffffffffff1673ffffffffffffffffffffffffffffffffffffffff16815260200190815260200160002060009054906101000a900473ffffffffffffffffffffffffffffffffffffffff1673ffffffffffffffffffffffffffffffffffffffff16638f00c3156040518163ffffffff1660e01b8152600401600060405180830381865afa15801562000a2c573d6000803e3d6000fd5b505050506040513d6000823e3d601f19601f8201168201806040525081019062000a579190620022d1565b9050919050565b60008073ffffffffffffffffffffffffffffffffffffffff166000808673ffffffffffffffffffffffffffffffffffffffff1673ffffffffffffffffffffffffffffffffffffffff16815260200190815260200160002060009054906101000a900473ffffffffffffffffffffffffffffffffffffffff1673ffffffffffffffffffffffffffffffffffffffff160362000afc576000905062000bd5565b60008060008673ffffffffffffffffffffffffffffffffffffffff1673ffffffffffffffffffffffffffffffffffffffff16815260200190815260200160002060009054906101000a900473ffffffffffffffffffffffffffffffffffffffff1690508073ffffffffffffffffffffffffffffffffffffffff1662262b6c85856040518363ffffffff1660e01b815260040162000b9b92919062002333565b600060405180830381600087803b15801562000bb657600080fd5b505af115801562000bcb573d6000803e3d6000fd5b5050505060019150505b9392505050565b6000808673ffffffffffffffffffffffffffffffffffffffff1673ffffffffffffffffffffffffffffffffffffffff16815260200190815260200160002060009054906101000a900473ffffffffffffffffffffffffffffffffffffffff1673ffffffffffffffffffffffffffffffffffffffff1663d176dd45858585856040518563ffffffff1660e01b815260040162000c7b949392919062002360565b600060405180830381600087803b15801562000c9657600080fd5b505af115801562000cab573d6000803e3d6000fd5b505050505050505050565b6060600062000cc583620006c7565b90508073ffffffffffffffffffffffffffffffffffffffff16637bea0d1c6040518163ffffffff1660e01b8152600401600060405180830381865afa15801562000d13573d6000803e3d6000fd5b505050506040513d6000823e3d601f19601f8201168201806040525081019062000d3e9190620023ad565b915050919050565b60008060008573ffffffffffffffffffffffffffffffffffffffff1673ffffffffffffffffffffffffffffffffffffffff16815260200190815260200160002060009054906101000a900473ffffffffffffffffffffffffffffffffffffffff1673ffffffffffffffffffffffffffffffffffffffff16639b15048984846040518363ffffffff1660e01b815260040162000de392919062002423565b6020604051808303816000875af115801562000e03573d6000803e3d6000fd5b505050506040513d601f19601f8201168201806040525081019062000e29919062002481565b90509392505050565b60008073ffffffffffffffffffffffffffffffffffffffff166000808573ffffffffffffffffffffffffffffffffffffffff1673ffffffffffffffffffffffffffffffffffffffff16815260200190815260200160002060009054906101000a900473ffffffffffffffffffffffffffffffffffffffff1673ffffffffffffffffffffffffffffffffffffffff160362000ed0576000905062000fa8565b60008060008573ffffffffffffffffffffffffffffffffffffffff1673ffffffffffffffffffffffffffffffffffffffff16815260200190815260200160002060009054906101000a900473ffffffffffffffffffffffffffffffffffffffff1690508073ffffffffffffffffffffffffffffffffffffffff166375e37fe5846040518263ffffffff1660e01b815260040162000f6e9190620024b3565b600060405180830381600087803b15801562000f8957600080fd5b505af115801562000f9e573d6000803e3d6000fd5b5050505060019150505b92915050565b6060600060018054905067ffffffffffffffff81111562000fd45762000fd362001d89565b5b6040519080825280602002602001820160405280156200101157816020015b62000ffd620011eb565b81526020019060019003908162000ff35790505b50905060005b600180549050811015620011a35760008060008060008060008060008060018b815481106200104b576200104a620024d0565b5b9060005260206000200160009054906101000a900473ffffffffffffffffffffffffffffffffffffffff1673ffffffffffffffffffffffffffffffffffffffff16635a9b0b896040518163ffffffff1660e01b8152600401600060405180830381865afa158015620010c1573d6000803e3d6000fd5b505050506040513d6000823e3d601f19601f82011682018060405250810190620010ec91906200216a565b995099509950995099509950995099509950995060006040518061014001604052808c73ffffffffffffffffffffffffffffffffffffffff1681526020018b81526020018a8152602001898152602001888152602001878152602001868152602001858152602001848152602001838152509050808d8d81518110620011775762001176620024d0565b5b6020026020010181905250505050505050505050505080806200119a906200252e565b91505062001017565b508091505090565b60018181548110620011bc57600080fd5b906000526020600020016000915054906101000a900473ffffffffffffffffffffffffffffffffffffffff1681565b604051806101400160405280600073ffffffffffffffffffffffffffffffffffffffff1681526020016200121e620012e8565b81526020016200122d620012e8565b81526020016200123c620012e8565b81526020016000815260200160008152602001600081526020016000815260200160608152602001606081525090565b60405180606001604052806000815260200160008152602001600073ffffffffffffffffffffffffffffffffffffffff1681525090565b60405180606001604052806000815260200160008152602001600073ffffffffffffffffffffffffffffffffffffffff1681525090565b612891806200257c83390190565b6040518060800160405280600081526020016000815260200160008152602001600081525090565b6000604051905090565b600080fd5b600080fd5b600073ffffffffffffffffffffffffffffffffffffffff82169050919050565b6000620013518262001324565b9050919050565b620013638162001344565b81146200136f57600080fd5b50565b600081359050620013838162001358565b92915050565b600060208284031215620013a257620013a16200131a565b5b6000620013b28482850162001372565b91505092915050565b620013c68162001344565b82525050565b6000819050919050565b620013e181620013cc565b82525050565b608082016000820151620013ff6000850182620013d6565b506020820151620014146020850182620013d6565b506040820151620014296040850182620013d6565b5060608201516200143e6060850182620013d6565b50505050565b600081519050919050565b600082825260208201905092915050565b6000819050602082019050919050565b606082016000820151620014886000850182620013d6565b5060208201516200149d6020850182620013d6565b506040820151620014b26040850182620013bb565b50505050565b6000620014c6838362001470565b60608301905092915050565b6000602082019050919050565b6000620014ec8262001444565b620014f881856200144f565b9350620015058362001460565b8060005b838110156200153c578151620015208882620014b8565b97506200152d83620014d2565b92505060018101905062001509565b5085935050505092915050565b600081519050919050565b600082825260208201905092915050565b6000819050602082019050919050565b6060820160008201516200158d6000850182620013d6565b506020820151620015a26020850182620013d6565b506040820151620015b76040850182620013bb565b50505050565b6000620015cb838362001575565b60608301905092915050565b6000602082019050919050565b6000620015f18262001549565b620015fd818562001554565b93506200160a8362001565565b8060005b8381101562001641578151620016258882620015bd565b97506200163283620015d7565b9250506001810190506200160e565b5085935050505092915050565b600061026083016000830151620016696000860182620013bb565b5060208301516200167e6020860182620013e7565b5060408301516200169360a0860182620013e7565b506060830151620016a9610120860182620013e7565b506080830151620016bf6101a0860182620013d6565b5060a0830151620016d56101c0860182620013d6565b5060c0830151620016eb6101e0860182620013d6565b5060e083015162001701610200860182620013d6565b506101008301518482036102208601526200171d8282620014df565b9150506101208301518482036102408601526200173b8282620015e4565b9150508091505092915050565b600060208201905081810360008301526200176481846200164e565b905092915050565b6000819050919050565b600062001797620017916200178b8462001324565b6200176c565b62001324565b9050919050565b6000620017ab8262001776565b9050919050565b6000620017bf826200179e565b9050919050565b620017d181620017b2565b82525050565b6000602082019050620017ee6000830184620017c6565b92915050565b60008115159050919050565b6200180b81620017f4565b82525050565b600060208201905062001828600083018462001800565b92915050565b600082825260208201905092915050565b60006200184c8262001549565b6200185881856200182e565b9350620018658362001565565b8060005b838110156200189c578151620018808882620015bd565b97506200188d83620015d7565b92505060018101905062001869565b5085935050505092915050565b60006020820190508181036000830152620018c581846200183f565b905092915050565b620018d881620013cc565b8114620018e457600080fd5b50565b600081359050620018f881620018cd565b92915050565b6000806000606084860312156200191a57620019196200131a565b5b60006200192a8682870162001372565b93505060206200193d86828701620018e7565b92505060406200195086828701620018e7565b9150509250925092565b600080600080600060a086880312156200197957620019786200131a565b5b6000620019898882890162001372565b95505060206200199c88828901620018e7565b9450506040620019af88828901620018e7565b9350506060620019c288828901620018e7565b9250506080620019d588828901620018e7565b9150509295509295909350565b600082825260208201905092915050565b600062001a008262001444565b62001a0c8185620019e2565b935062001a198362001460565b8060005b8381101562001a5057815162001a348882620014b8565b975062001a4183620014d2565b92505060018101905062001a1d565b5085935050505092915050565b6000602082019050818103600083015262001a798184620019f3565b905092915050565b600062001a8e8262001344565b9050919050565b62001aa08162001a81565b811462001aac57600080fd5b50565b60008135905062001ac08162001a95565b92915050565b60008060006060848603121562001ae25762001ae16200131a565b5b600062001af28682870162001372565b935050602062001b0586828701620018e7565b925050604062001b188682870162001aaf565b9150509250925092565b6000806040838503121562001b3c5762001b3b6200131a565b5b600062001b4c8582860162001372565b925050602062001b5f85828601620018e7565b9150509250929050565b600081519050919050565b600082825260208201905092915050565b6000819050602082019050919050565b60006102608301600083015162001bb06000860182620013bb565b50602083015162001bc56020860182620013e7565b50604083015162001bda60a0860182620013e7565b50606083015162001bf0610120860182620013e7565b50608083015162001c066101a0860182620013d6565b5060a083015162001c1c6101c0860182620013d6565b5060c083015162001c326101e0860182620013d6565b5060e083015162001c48610200860182620013d6565b5061010083015184820361022086015262001c648282620014df565b91505061012083015184820361024086015262001c828282620015e4565b9150508091505092915050565b600062001c9d838362001b95565b905092915050565b6000602082019050919050565b600062001cbf8262001b69565b62001ccb818562001b74565b93508360208202850162001cdf8562001b85565b8060005b8581101562001d21578484038952815162001cff858262001c8f565b945062001d0c8362001ca5565b925060208a0199505060018101905062001ce3565b50829750879550505050505092915050565b6000602082019050818103600083015262001d4f818462001cb2565b905092915050565b60006020828403121562001d705762001d6f6200131a565b5b600062001d8084828501620018e7565b91505092915050565b7f4e487b7100000000000000000000000000000000000000000000000000000000600052604160045260246000fd5b60008151905062001dc98162001358565b92915050565b600080fd5b6000601f19601f8301169050919050565b62001df08262001dd4565b810181811067ffffffffffffffff8211171562001e125762001e1162001d89565b5b80604052505050565b600062001e2762001310565b905062001e35828262001de5565b919050565b60008151905062001e4b81620018cd565b92915050565b60006080828403121562001e6a5762001e6962001dcf565b5b62001e76608062001e1b565b9050600062001e888482850162001e3a565b600083015250602062001e9e8482850162001e3a565b602083015250604062001eb48482850162001e3a565b604083015250606062001eca8482850162001e3a565b60608301525092915050565b600080fd5b600067ffffffffffffffff82111562001ef95762001ef862001d89565b5b602082029050602081019050919050565b600080fd5b60006060828403121562001f285762001f2762001dcf565b5b62001f34606062001e1b565b9050600062001f468482850162001e3a565b600083015250602062001f5c8482850162001e3a565b602083015250604062001f728482850162001db8565b60408301525092915050565b600062001f9562001f8f8462001edb565b62001e1b565b9050808382526020820190506060840283018581111562001fbb5762001fba62001f0a565b5b835b8181101562001fe8578062001fd3888262001f0f565b84526020840193505060608101905062001fbd565b5050509392505050565b600082601f8301126200200a576200200962001ed6565b5b81516200201c84826020860162001f7e565b91505092915050565b600067ffffffffffffffff82111562002043576200204262001d89565b5b602082029050602081019050919050565b6000606082840312156200206d576200206c62001dcf565b5b62002079606062001e1b565b905060006200208b8482850162001e3a565b6000830152506020620020a18482850162001e3a565b6020830152506040620020b78482850162001db8565b60408301525092915050565b6000620020da620020d48462002025565b62001e1b565b905080838252602082019050606084028301858111156200210057620020ff62001f0a565b5b835b818110156200212d578062002118888262002054565b84526020840193505060608101905062002102565b5050509392505050565b600082601f8301126200214f576200214e62001ed6565b5b815162002161848260208601620020c3565b91505092915050565b6000806000806000806000806000806102608b8d0312156200219157620021906200131a565b5b6000620021a18d828e0162001db8565b9a50506020620021b48d828e0162001e51565b99505060a0620021c78d828e0162001e51565b985050610120620021db8d828e0162001e51565b9750506101a0620021ef8d828e0162001e3a565b9650506101c0620022038d828e0162001e3a565b9550506101e0620022178d828e0162001e3a565b9450506102006200222b8d828e0162001e3a565b9350506102208b015167ffffffffffffffff81111562002250576200224f6200131f565b5b6200225e8d828e0162001ff2565b9250506102408b015167ffffffffffffffff8111156200228357620022826200131f565b5b620022918d828e0162002137565b9150509295989b9194979a5092959850565b620022ae8162001344565b82525050565b6000602082019050620022cb6000830184620022a3565b92915050565b600060208284031215620022ea57620022e96200131a565b5b600082015167ffffffffffffffff8111156200230b576200230a6200131f565b5b620023198482850162002137565b91505092915050565b6200232d81620013cc565b82525050565b60006040820190506200234a600083018562002322565b62002359602083018462002322565b9392505050565b600060808201905062002377600083018762002322565b62002386602083018662002322565b62002395604083018562002322565b620023a4606083018462002322565b95945050505050565b600060208284031215620023c657620023c56200131a565b5b600082015167ffffffffffffffff811115620023e757620023e66200131f565b5b620023f58482850162001ff2565b91505092915050565b60006200240b826200179e565b9050919050565b6200241d81620023fe565b82525050565b60006040820190506200243a600083018562002322565b62002449602083018462002412565b9392505050565b6200245b81620017f4565b81146200246757600080fd5b50565b6000815190506200247b8162002450565b92915050565b6000602082840312156200249a57620024996200131a565b5b6000620024aa848285016200246a565b91505092915050565b6000602082019050620024ca600083018462002322565b92915050565b7f4e487b7100000000000000000000000000000000000000000000000000000000600052603260045260246000fd5b7f4e487b7100000000000000000000000000000000000000000000000000000000600052601160045260246000fd5b60006200253b82620013cc565b91507fffffffffffffffffffffffffffffffffffffffffffffffffffffffffffffffff820362002570576200256f620024ff565b5b60018201905091905056fe60806040523480156200001157600080fd5b5060405162002891380380620028918339818101604052810190620000379190620000e8565b806000806101000a81548173ffffffffffffffffffffffffffffffffffffffff021916908373ffffffffffffffffffffffffffffffffffffffff160217905550506200011a565b600080fd5b600073ffffffffffffffffffffffffffffffffffffffff82169050919050565b6000620000b08262000083565b9050919050565b620000c281620000a3565b8114620000ce57600080fd5b50565b600081519050620000e281620000b7565b92915050565b6000602082840312156200010157620001006200007e565b5b60006200011184828501620000d1565b91505092915050565b612767806200012a6000396000f3fe60806040523480156200001157600080fd5b5060043610620000e15760003560e01c80637bea0d1c11620000995780638f00c315116200006f5780638f00c31514620002575780639b1504891462000279578063d176dd4514620002af578063e00d01df14620002cf57620000e1565b80637bea0d1c14620001f357806385dbe6ee14620002155780638da5cb5b146200023557620000e1565b8062262b6c14620000e65780631b0e9bcd14620001065780634b58143e146200013c5780635a9b0b8914620001725780635fc50a2f146200019d57806375e37fe514620001d3575b600080fd5b620001046004803603810190620000fe9190620012cf565b620002ef565b005b6200012460048036038101906200011e919062001316565b6200031f565b60405162000133919062001359565b60405180910390f35b6200015a600480360381019062000154919062001316565b62000337565b60405162000169919062001359565b60405180910390f35b6200017c6200034f565b604051620001949a9998979695949392919062001644565b60405180910390f35b620001bb6004803603810190620001b5919062001738565b6200052c565b604051620001ca9190620017b1565b60405180910390f35b620001f16004803603810190620001eb919062001316565b62000756565b005b620001fd62000a15565b6040516200020c9190620017ce565b60405180910390f35b6200023360048036038101906200022d919062001316565b62000b5f565b005b6200023f62000cb5565b6040516200024e9190620017f2565b60405180910390f35b6200026162000cd9565b6040516200027091906200180f565b60405180910390f35b62000297600480360381019062000291919062001878565b62000e3c565b604051620002a69190620017b1565b60405180910390f35b620002cd6004803603810190620002c79190620018bf565b62001024565b005b620002ed6004803603810190620002e7919062001316565b62001046565b005b8060086000848152602001908152602001600020600082825462000314919062001960565b925050819055505050565b600a6020528060005260406000206000915090505481565b600b6020528060005260406000206000915090505481565b60006200035b620011e1565b62000365620011e1565b6200036f620011e1565b60008060008060608060008054906101000a900473ffffffffffffffffffffffffffffffffffffffff1660405180608001604052806008600060018152602001908152602001600020548152602001600860006002815260200190815260200160002054815260200160086000600381526020019081526020016000205481526020016008600060048152602001908152602001600020548152506040518060800160405280600a600060018152602001908152602001600020548152602001600a600060028152602001908152602001600020548152602001600a600060038152602001908152602001600020548152602001600a600060048152602001908152602001600020548152506040518060800160405280600b600060018152602001908152602001600020548152602001600b600060028152602001908152602001600020548152602001600b600060038152602001908152602001600020548152602001600b600060048152602001908152602001600020548152506001546002546003546004546200050262000a15565b6200050c62000cd9565b995099509950995099509950995099509950995090919293949596979899565b6000826008600086815260200190815260200160002054106200074a57600654600580549050036200061757600560405180606001604052808681526020018581526020018473ffffffffffffffffffffffffffffffffffffffff168152509080600181540180825580915050600190039060005260206000209060030201600090919091909150600082015181600001556020820151816001015560408201518160020160006101000a81548173ffffffffffffffffffffffffffffffffffffffff021916908373ffffffffffffffffffffffffffffffffffffffff1602179055505050620006ce565b60405180606001604052808581526020018481526020018373ffffffffffffffffffffffffffffffffffffffff16815250600560065481548110620006615762000660620019bd565b5b9060005260206000209060030201600082015181600001556020820151816001015560408201518160020160006101000a81548173ffffffffffffffffffffffffffffffffffffffff021916908373ffffffffffffffffffffffffffffffffffffffff1602179055509050505b60066000815480929190620006e390620019ec565b919050555082600a600086815260200190815260200160002060008282546200070d919062001960565b925050819055508260086000868152602001908152602001600020600082825462000739919062001a39565b92505081905550600190506200074f565b600090505b9392505050565b6000600582815481106200076f576200076e620019bd565b5b90600052602060002090600302016001015490506000600583815481106200079c576200079b620019bd565b5b9060005260206000209060030201600001549050600060058481548110620007c957620007c8620019bd565b5b906000526020600020906003020160020160009054906101000a900473ffffffffffffffffffffffffffffffffffffffff169050620008088462001046565b60008060009054906101000a900473ffffffffffffffffffffffffffffffffffffffff168284866040516200083d9062001209565b6200084c949392919062001a74565b604051809103906000f08015801562000869573d6000803e3d6000fd5b50905083600960008373ffffffffffffffffffffffffffffffffffffffff1673ffffffffffffffffffffffffffffffffffffffff16815260200190815260200160002060008581526020019081526020016000208190555083600a60008581526020019081526020016000206000828254620008e6919062001a39565b9250508190555083600b6000858152602001908152602001600020600082825462000912919062001960565b92505081905550600c80549050600754036200099157600c819080600181540180825580915050600190039060005260206000200160009091909190916101000a81548173ffffffffffffffffffffffffffffffffffffffff021916908373ffffffffffffffffffffffffffffffffffffffff160217905550620009f4565b80600c60075481548110620009ab57620009aa620019bd565b5b9060005260206000200160006101000a81548173ffffffffffffffffffffffffffffffffffffffff021916908373ffffffffffffffffffffffffffffffffffffffff1602179055505b6007600081548092919062000a0990620019ec565b91905055505050505050565b6060600060065467ffffffffffffffff81111562000a385762000a3762001ac1565b5b60405190808252806020026020018201604052801562000a7557816020015b62000a6162001217565b81526020019060019003908162000a575790505b50905060005b60065481101562000b57576005818154811062000a9d5762000a9c620019bd565b5b906000526020600020906003020160405180606001604052908160008201548152602001600182015481526020016002820160009054906101000a900473ffffffffffffffffffffffffffffffffffffffff1673ffffffffffffffffffffffffffffffffffffffff1673ffffffffffffffffffffffffffffffffffffffff168152505082828151811062000b365762000b35620019bd565b5b6020026020010181905250808062000b4e90620019ec565b91505062000a7b565b508091505090565b60008190505b600160075462000b76919062001a39565b81101562000c4357600c60018262000b8f919062001960565b8154811062000ba35762000ba2620019bd565b5b9060005260206000200160009054906101000a900473ffffffffffffffffffffffffffffffffffffffff16600c828154811062000be55762000be4620019bd565b5b9060005260206000200160006101000a81548173ffffffffffffffffffffffffffffffffffffffff021916908373ffffffffffffffffffffffffffffffffffffffff160217905550808062000c3a90620019ec565b91505062000b65565b50600c600160075462000c57919062001a39565b8154811062000c6b5762000c6a620019bd565b5b9060005260206000200160006101000a81549073ffffffffffffffffffffffffffffffffffffffff02191690556007600081548092919062000cad9062001af0565b919050555050565b60008054906101000a900473ffffffffffffffffffffffffffffffffffffffff1681565b6060600060075467ffffffffffffffff81111562000cfc5762000cfb62001ac1565b5b60405190808252806020026020018201604052801562000d3957816020015b62000d256200124e565b81526020019060019003908162000d1b5790505b50905060005b60075481101562000e3457600c818154811062000d615762000d60620019bd565b5b9060005260206000200160009054906101000a900473ffffffffffffffffffffffffffffffffffffffff1673ffffffffffffffffffffffffffffffffffffffff16635a9b0b896040518163ffffffff1660e01b8152600401606060405180830381865afa15801562000dd7573d6000803e3d6000fd5b505050506040513d601f19601f8201168201806040525081019062000dfd919062001c26565b82828151811062000e135762000e12620019bd565b5b6020026020010181905250808062000e2b90620019ec565b91505062000d3f565b508091505090565b600080600c848154811062000e565762000e55620019bd565b5b9060005260206000200160009054906101000a900473ffffffffffffffffffffffffffffffffffffffff16905060008173ffffffffffffffffffffffffffffffffffffffff16635a9b0b896040518163ffffffff1660e01b8152600401606060405180830381865afa15801562000ed1573d6000803e3d6000fd5b505050506040513d601f19601f8201168201806040525081019062000ef7919062001c26565b90508060200151600960008473ffffffffffffffffffffffffffffffffffffffff1673ffffffffffffffffffffffffffffffffffffffff168152602001908152602001600020600083600001518152602001908152602001600020600082825462000f63919062001a39565b925050819055508060200151600b600083600001518152602001908152602001600020600082825462000f97919062001a39565b925050819055508173ffffffffffffffffffffffffffffffffffffffff16635125e702856040518263ffffffff1660e01b815260040162000fd9919062001cc3565b600060405180830381600087803b15801562000ff457600080fd5b505af115801562001009573d6000803e3d6000fd5b50505050620010188562000b5f565b60019250505092915050565b8360018190555082600281905550816003819055508060048190555050505050565b60008190505b60016006546200105d919062001a39565b8110156200115157600560018262001076919062001960565b815481106200108a5762001089620019bd565b5b906000526020600020906003020160058281548110620010af57620010ae620019bd565b5b906000526020600020906003020160008201548160000155600182015481600101556002820160009054906101000a900473ffffffffffffffffffffffffffffffffffffffff168160020160006101000a81548173ffffffffffffffffffffffffffffffffffffffff021916908373ffffffffffffffffffffffffffffffffffffffff16021790555090505080806200114890620019ec565b9150506200104c565b506005600160058054905062001168919062001a39565b815481106200117c576200117b620019bd565b5b906000526020600020906003020160008082016000905560018201600090556002820160006101000a81549073ffffffffffffffffffffffffffffffffffffffff0219169055505060066000815480929190620011d99062001af0565b919050555050565b6040518060800160405280600081526020016000815260200160008152602001600081525090565b610a518062001ce183390190565b60405180606001604052806000815260200160008152602001600073ffffffffffffffffffffffffffffffffffffffff1681525090565b60405180606001604052806000815260200160008152602001600073ffffffffffffffffffffffffffffffffffffffff1681525090565b6000604051905090565b600080fd5b6000819050919050565b620012a98162001294565b8114620012b557600080fd5b50565b600081359050620012c9816200129e565b92915050565b60008060408385031215620012e957620012e86200128f565b5b6000620012f985828601620012b8565b92505060206200130c85828601620012b8565b9150509250929050565b6000602082840312156200132f576200132e6200128f565b5b60006200133f84828501620012b8565b91505092915050565b620013538162001294565b82525050565b600060208201905062001370600083018462001348565b92915050565b600073ffffffffffffffffffffffffffffffffffffffff82169050919050565b6000620013a38262001376565b9050919050565b620013b58162001396565b82525050565b620013c68162001294565b82525050565b608082016000820151620013e46000850182620013bb565b506020820151620013f96020850182620013bb565b5060408201516200140e6040850182620013bb565b506060820151620014236060850182620013bb565b50505050565b600081519050919050565b600082825260208201905092915050565b6000819050602082019050919050565b620014608162001396565b82525050565b6060820160008201516200147e6000850182620013bb565b506020820151620014936020850182620013bb565b506040820151620014a8604085018262001455565b50505050565b6000620014bc838362001466565b60608301905092915050565b6000602082019050919050565b6000620014e28262001429565b620014ee818562001434565b9350620014fb8362001445565b8060005b8381101562001532578151620015168882620014ae565b97506200152383620014c8565b925050600181019050620014ff565b5085935050505092915050565b600081519050919050565b600082825260208201905092915050565b6000819050602082019050919050565b606082016000820151620015836000850182620013bb565b506020820151620015986020850182620013bb565b506040820151620015ad604085018262001455565b50505050565b6000620015c183836200156b565b60608301905092915050565b6000602082019050919050565b6000620015e7826200153f565b620015f381856200154a565b935062001600836200155b565b8060005b83811015620016375781516200161b8882620015b3565b97506200162883620015cd565b92505060018101905062001604565b5085935050505092915050565b6000610260820190506200165c600083018d620013aa565b6200166b602083018c620013cc565b6200167a60a083018b620013cc565b6200168a61012083018a620013cc565b6200169a6101a083018962001348565b620016aa6101c083018862001348565b620016ba6101e083018762001348565b620016ca61020083018662001348565b818103610220830152620016df8185620014d5565b9050818103610240830152620016f68184620015da565b90509b9a5050505050505050505050565b620017128162001396565b81146200171e57600080fd5b50565b600081359050620017328162001707565b92915050565b6000806000606084860312156200175457620017536200128f565b5b60006200176486828701620012b8565b93505060206200177786828701620012b8565b92505060406200178a8682870162001721565b9150509250925092565b60008115159050919050565b620017ab8162001794565b82525050565b6000602082019050620017c86000830184620017a0565b92915050565b60006020820190508181036000830152620017ea8184620014d5565b905092915050565b6000602082019050620018096000830184620013aa565b92915050565b600060208201905081810360008301526200182b8184620015da565b905092915050565b6000620018408262001396565b9050919050565b620018528162001833565b81146200185e57600080fd5b50565b600081359050620018728162001847565b92915050565b600080604083850312156200189257620018916200128f565b5b6000620018a285828601620012b8565b9250506020620018b58582860162001861565b9150509250929050565b60008060008060808587031215620018dc57620018db6200128f565b5b6000620018ec87828801620012b8565b9450506020620018ff87828801620012b8565b93505060406200191287828801620012b8565b92505060606200192587828801620012b8565b91505092959194509250565b7f4e487b7100000000000000000000000000000000000000000000000000000000600052601160045260246000fd5b60006200196d8262001294565b91506200197a8362001294565b9250827fffffffffffffffffffffffffffffffffffffffffffffffffffffffffffffffff03821115620019b257620019b162001931565b5b828201905092915050565b7f4e487b7100000000000000000000000000000000000000000000000000000000600052603260045260246000fd5b6000620019f98262001294565b91507fffffffffffffffffffffffffffffffffffffffffffffffffffffffffffffffff820362001a2e5762001a2d62001931565b5b600182019050919050565b600062001a468262001294565b915062001a538362001294565b92508282101562001a695762001a6862001931565b5b828203905092915050565b600060808201905062001a8b6000830187620013aa565b62001a9a6020830186620013aa565b62001aa9604083018562001348565b62001ab8606083018462001348565b95945050505050565b7f4e487b7100000000000000000000000000000000000000000000000000000000600052604160045260246000fd5b600062001afd8262001294565b91506000820362001b135762001b1262001931565b5b600182039050919050565b600080fd5b6000601f19601f8301169050919050565b62001b3f8262001b23565b810181811067ffffffffffffffff8211171562001b615762001b6062001ac1565b5b80604052505050565b600062001b7662001285565b905062001b84828262001b34565b919050565b60008151905062001b9a816200129e565b92915050565b60008151905062001bb18162001707565b92915050565b60006060828403121562001bd05762001bcf62001b1e565b5b62001bdc606062001b6a565b9050600062001bee8482850162001b89565b600083015250602062001c048482850162001b89565b602083015250604062001c1a8482850162001ba0565b60408301525092915050565b60006060828403121562001c3f5762001c3e6200128f565b5b600062001c4f8482850162001bb7565b91505092915050565b6000819050919050565b600062001c8362001c7d62001c778462001376565b62001c58565b62001376565b9050919050565b600062001c978262001c62565b9050919050565b600062001cab8262001c8a565b9050919050565b62001cbd8162001c9e565b82525050565b600060208201905062001cda600083018462001cb2565b9291505056fe60806040526001600660006101000a81548160ff02191690831515021790555034801561002b57600080fd5b50604051610a51380380610a51833981810160405281019061004d919061017e565b836000806101000a81548173ffffffffffffffffffffffffffffffffffffffff021916908373ffffffffffffffffffffffffffffffffffffffff16021790555082600160006101000a81548173ffffffffffffffffffffffffffffffffffffffff021916908373ffffffffffffffffffffffffffffffffffffffff1602179055508160028190555080600381905550505050506101e5565b600080fd5b600073ffffffffffffffffffffffffffffffffffffffff82169050919050565b6000610115826100ea565b9050919050565b6101258161010a565b811461013057600080fd5b50565b6000815190506101428161011c565b92915050565b6000819050919050565b61015b81610148565b811461016657600080fd5b50565b60008151905061017881610152565b92915050565b60008060008060808587031215610198576101976100e5565b5b60006101a687828801610133565b94505060206101b787828801610133565b93505060406101c887828801610169565b92505060606101d987828801610169565b91505092959194509250565b61085d806101f46000396000f3fe608060405234801561001057600080fd5b50600436106100625760003560e01c8063258b43d7146100675780634acc3a8e146100835780635125e7021461008d57806356dcb022146100a95780635a9b0b89146100c5578063aae8107b146100e3575b600080fd5b610081600480360381019061007c9190610418565b6100ff565b005b61008b610109565b005b6100a760048036038101906100a291906104b5565b610135565b005b6100c360048036038101906100be9190610628565b61026c565b005b6100cd610286565b6040516100da91906106d1565b60405180910390f35b6100fd60048036038101906100f89190610418565b6102ea565b005b8060078190555050565b600660009054906101000a900460ff1615600660006101000a81548160ff021916908315150217905550565b60008173ffffffffffffffffffffffffffffffffffffffff166364efb22b600160009054906101000a900473ffffffffffffffffffffffffffffffffffffffff166040518263ffffffff1660e01b815260040161019291906106fb565b602060405180830381865afa1580156101af573d6000803e3d6000fd5b505050506040513d601f19601f820116820180604052508101906101d39190610754565b90508073ffffffffffffffffffffffffffffffffffffffff1663750a49cc60025460035460008054906101000a900473ffffffffffffffffffffffffffffffffffffffff166040518463ffffffff1660e01b815260040161023693929190610790565b600060405180830381600087803b15801561025057600080fd5b505af1158015610264573d6000803e3d6000fd5b505050505050565b80600490805190602001906102829291906102f4565b5050565b61028e61037a565b604051806060016040528060025481526020016003548152602001600160009054906101000a900473ffffffffffffffffffffffffffffffffffffffff1673ffffffffffffffffffffffffffffffffffffffff16815250905090565b8060058190555050565b828054610300906107f6565b90600052602060002090601f0160209004810192826103225760008555610369565b82601f1061033b57805160ff1916838001178555610369565b82800160010185558215610369579182015b8281111561036857825182559160200191906001019061034d565b5b50905061037691906103b1565b5090565b60405180606001604052806000815260200160008152602001600073ffffffffffffffffffffffffffffffffffffffff1681525090565b5b808211156103ca5760008160009055506001016103b2565b5090565b6000604051905090565b600080fd5b600080fd5b6000819050919050565b6103f5816103e2565b811461040057600080fd5b50565b600081359050610412816103ec565b92915050565b60006020828403121561042e5761042d6103d8565b5b600061043c84828501610403565b91505092915050565b600073ffffffffffffffffffffffffffffffffffffffff82169050919050565b600061047082610445565b9050919050565b600061048282610465565b9050919050565b61049281610477565b811461049d57600080fd5b50565b6000813590506104af81610489565b92915050565b6000602082840312156104cb576104ca6103d8565b5b60006104d9848285016104a0565b91505092915050565b600080fd5b600080fd5b6000601f19601f8301169050919050565b7f4e487b7100000000000000000000000000000000000000000000000000000000600052604160045260246000fd5b610535826104ec565b810181811067ffffffffffffffff82111715610554576105536104fd565b5b80604052505050565b60006105676103ce565b9050610573828261052c565b919050565b600067ffffffffffffffff821115610593576105926104fd565b5b61059c826104ec565b9050602081019050919050565b82818337600083830152505050565b60006105cb6105c684610578565b61055d565b9050828152602081018484840111156105e7576105e66104e7565b5b6105f28482856105a9565b509392505050565b600082601f83011261060f5761060e6104e2565b5b813561061f8482602086016105b8565b91505092915050565b60006020828403121561063e5761063d6103d8565b5b600082013567ffffffffffffffff81111561065c5761065b6103dd565b5b610668848285016105fa565b91505092915050565b61067a816103e2565b82525050565b61068981610465565b82525050565b6060820160008201516106a56000850182610671565b5060208201516106b86020850182610671565b5060408201516106cb6040850182610680565b50505050565b60006060820190506106e6600083018461068f565b92915050565b6106f581610465565b82525050565b600060208201905061071060008301846106ec565b92915050565b600061072182610465565b9050919050565b61073181610716565b811461073c57600080fd5b50565b60008151905061074e81610728565b92915050565b60006020828403121561076a576107696103d8565b5b60006107788482850161073f565b91505092915050565b61078a816103e2565b82525050565b60006060820190506107a56000830186610781565b6107b26020830185610781565b6107bf60408301846106ec565b949350505050565b7f4e487b7100000000000000000000000000000000000000000000000000000000600052602260045260246000fd5b6000600282049050600182168061080e57607f821691505b602082108103610821576108206107c7565b5b5091905056fea2646970667358221220d99b0e4642b697c4ec7ac6ca4a6864779014a32194f072801f39869f791dac2464736f6c634300080d0033a2646970667358221220a29fa2709e11a08787b77f805672718bd42c3675e19216120c15c07f1af0da4064736f6c634300080d0033a26469706673582212206dafade7b2a05bd7db113bb169beda433ab0cde2c1c2cf027aa7b9a252cf883c64736f6c634300080d00336080604052600160005534801561001557600080fd5b506129f3806100256000396000f3fe60806040523480156200001157600080fd5b5060043610620000945760003560e01c806364efb22b116200006357806364efb22b1462000171578063722b037614620001a7578063973f612914620001dd578063e9523c9714620002135762000094565b80630402059514620000995780632761b8ad14620000cf578063429b62e5146200010557806357afa3e8146200013b575b600080fd5b620000b76004803603810190620000b1919062000dd7565b62000235565b604051620000c6919062000e26565b60405180910390f35b620000ed6004803603810190620000e7919062000ec3565b62000473565b604051620000fc919062000e26565b60405180910390f35b6200012360048036038101906200011d919062000dd7565b62000604565b60405162000132919062000f8a565b60405180910390f35b62000159600480360381019062000153919062000fec565b62000637565b60405162000168919062000e26565b60405180910390f35b6200018f600480360381019062000189919062000dd7565b620007de565b6040516200019e919062000f8a565b60405180910390f35b620001c56004803603810190620001bf919062000dd7565b62000847565b604051620001d4919062001151565b60405180910390f35b620001fb6004803603810190620001f591906200116f565b62000acc565b6040516200020a919062000f8a565b60405180910390f35b6200021d62000b0c565b6040516200022c9190620012d3565b60405180910390f35b60008073ffffffffffffffffffffffffffffffffffffffff16600160008473ffffffffffffffffffffffffffffffffffffffff1673ffffffffffffffffffffffffffffffffffffffff16815260200190815260200160002060009054906101000a900473ffffffffffffffffffffffffffffffffffffffff1673ffffffffffffffffffffffffffffffffffffffff1614620002d457600090506200046e565b60005482604051620002e69062000cd0565b620002f392919062001319565b604051809103906000f08015801562000310573d6000803e3d6000fd5b50600160008473ffffffffffffffffffffffffffffffffffffffff1673ffffffffffffffffffffffffffffffffffffffff16815260200190815260200160002060006101000a81548173ffffffffffffffffffffffffffffffffffffffff021916908373ffffffffffffffffffffffffffffffffffffffff160217905550600080815480929190620003a29062001375565b91905055506002600160008473ffffffffffffffffffffffffffffffffffffffff1673ffffffffffffffffffffffffffffffffffffffff16815260200190815260200160002060009054906101000a900473ffffffffffffffffffffffffffffffffffffffff169080600181540180825580915050600190039060005260206000200160009091909190916101000a81548173ffffffffffffffffffffffffffffffffffffffff021916908373ffffffffffffffffffffffffffffffffffffffff160217905550600190505b919050565b60008073ffffffffffffffffffffffffffffffffffffffff16600160008673ffffffffffffffffffffffffffffffffffffffff1673ffffffffffffffffffffffffffffffffffffffff16815260200190815260200160002060009054906101000a900473ffffffffffffffffffffffffffffffffffffffff1673ffffffffffffffffffffffffffffffffffffffff1603620005125760009050620005fd565b6000600160008673ffffffffffffffffffffffffffffffffffffffff1673ffffffffffffffffffffffffffffffffffffffff16815260200190815260200160002060009054906101000a900473ffffffffffffffffffffffffffffffffffffffff1690508073ffffffffffffffffffffffffffffffffffffffff166376c5249685856040518363ffffffff1660e01b8152600401620005b3929190620013e7565b6020604051808303816000875af1158015620005d3573d6000803e3d6000fd5b505050506040513d601f19601f82011682018060405250810190620005f9919062001445565b9150505b9392505050565b60016020528060005260406000206000915054906101000a900473ffffffffffffffffffffffffffffffffffffffff1681565b60008073ffffffffffffffffffffffffffffffffffffffff16600160008773ffffffffffffffffffffffffffffffffffffffff1673ffffffffffffffffffffffffffffffffffffffff16815260200190815260200160002060009054906101000a900473ffffffffffffffffffffffffffffffffffffffff1673ffffffffffffffffffffffffffffffffffffffff1603620006d65760009050620007d6565b6000600160008773ffffffffffffffffffffffffffffffffffffffff1673ffffffffffffffffffffffffffffffffffffffff16815260200190815260200160002060009054906101000a900473ffffffffffffffffffffffffffffffffffffffff1690508073ffffffffffffffffffffffffffffffffffffffff166311fc3b4e8686866040518463ffffffff1660e01b815260040162000779939291906200149c565b6020604051808303816000875af115801562000799573d6000803e3d6000fd5b505050506040513d601f19601f82011682018060405250810190620007bf919062001445565b15620007d0576001915050620007d6565b60009150505b949350505050565b6000600160008373ffffffffffffffffffffffffffffffffffffffff1673ffffffffffffffffffffffffffffffffffffffff16815260200190815260200160002060009054906101000a900473ffffffffffffffffffffffffffffffffffffffff169050919050565b6200085162000cde565b600073ffffffffffffffffffffffffffffffffffffffff16600160008473ffffffffffffffffffffffffffffffffffffffff1673ffffffffffffffffffffffffffffffffffffffff16815260200190815260200160002060009054906101000a900473ffffffffffffffffffffffffffffffffffffffff1673ffffffffffffffffffffffffffffffffffffffff160362000998576040518060a00160405280600073ffffffffffffffffffffffffffffffffffffffff1681526020016000815260200160405180608001604052806000815260200160008152602001600081526020016000815250815260200160405180608001604052806000815260200160008152602001600081526020016000815250815260200160405180608001604052806000815260200160008152602001600081526020016000815250815250905062000ac7565b6000600160008473ffffffffffffffffffffffffffffffffffffffff1673ffffffffffffffffffffffffffffffffffffffff16815260200190815260200160002060009054906101000a900473ffffffffffffffffffffffffffffffffffffffff16905060008060008060008573ffffffffffffffffffffffffffffffffffffffff16635a9b0b896040518163ffffffff1660e01b81526004016101c060405180830381865afa15801562000a51573d6000803e3d6000fd5b505050506040513d601f19601f8201168201806040525081019062000a77919062001626565b945094509450945094506040518060a001604052808673ffffffffffffffffffffffffffffffffffffffff1681526020018581526020018481526020018381526020018281525096505050505050505b919050565b6002818154811062000add57600080fd5b906000526020600020016000915054906101000a900473ffffffffffffffffffffffffffffffffffffffff1681565b6060600060028054905067ffffffffffffffff81111562000b325762000b316200151d565b5b60405190808252806020026020018201604052801562000b6f57816020015b62000b5b62000cde565b81526020019060019003908162000b515790505b50905060005b60028054905081101562000cc85760008060008060006002868154811062000ba25762000ba1620016b0565b5b9060005260206000200160009054906101000a900473ffffffffffffffffffffffffffffffffffffffff1673ffffffffffffffffffffffffffffffffffffffff16635a9b0b896040518163ffffffff1660e01b81526004016101c060405180830381865afa15801562000c19573d6000803e3d6000fd5b505050506040513d601f19601f8201168201806040525081019062000c3f919062001626565b9450945094509450945060006040518060a001604052808773ffffffffffffffffffffffffffffffffffffffff1681526020018681526020018581526020018481526020018381525090508088888151811062000ca15762000ca0620016b0565b5b6020026020010181905250505050505050808062000cbf9062001375565b91505062000b75565b508091505090565b6112de80620016e083390190565b6040518060a00160405280600073ffffffffffffffffffffffffffffffffffffffff1681526020016000815260200162000d1762000d3b565b815260200162000d2662000d3b565b815260200162000d3562000d3b565b81525090565b6040518060800160405280600081526020016000815260200160008152602001600081525090565b6000604051905090565b600080fd5b600073ffffffffffffffffffffffffffffffffffffffff82169050919050565b600062000d9f8262000d72565b9050919050565b62000db18162000d92565b811462000dbd57600080fd5b50565b60008135905062000dd18162000da6565b92915050565b60006020828403121562000df05762000def62000d6d565b5b600062000e008482850162000dc0565b91505092915050565b60008115159050919050565b62000e208162000e09565b82525050565b600060208201905062000e3d600083018462000e15565b92915050565b6000819050919050565b62000e588162000e43565b811462000e6457600080fd5b50565b60008135905062000e788162000e4d565b92915050565b600062000e8b8262000d92565b9050919050565b62000e9d8162000e7e565b811462000ea957600080fd5b50565b60008135905062000ebd8162000e92565b92915050565b60008060006060848603121562000edf5762000ede62000d6d565b5b600062000eef8682870162000dc0565b935050602062000f028682870162000e67565b925050604062000f158682870162000eac565b9150509250925092565b6000819050919050565b600062000f4a62000f4462000f3e8462000d72565b62000f1f565b62000d72565b9050919050565b600062000f5e8262000f29565b9050919050565b600062000f728262000f51565b9050919050565b62000f848162000f65565b82525050565b600060208201905062000fa1600083018462000f79565b92915050565b600062000fb48262000d92565b9050919050565b62000fc68162000fa7565b811462000fd257600080fd5b50565b60008135905062000fe68162000fbb565b92915050565b6000806000806080858703121562001009576200100862000d6d565b5b6000620010198782880162000dc0565b94505060206200102c8782880162000e67565b93505060406200103f8782880162000e67565b9250506060620010528782880162000fd5565b91505092959194509250565b620010698162000d92565b82525050565b6200107a8162000e43565b82525050565b6080820160008201516200109860008501826200106f565b506020820151620010ad60208501826200106f565b506040820151620010c260408501826200106f565b506060820151620010d760608501826200106f565b50505050565b6101c082016000820151620010f660008501826200105e565b5060208201516200110b60208501826200106f565b50604082015162001120604085018262001080565b5060608201516200113560c085018262001080565b5060808201516200114b61014085018262001080565b50505050565b60006101c082019050620011696000830184620010dd565b92915050565b60006020828403121562001188576200118762000d6d565b5b6000620011988482850162000e67565b91505092915050565b600081519050919050565b600082825260208201905092915050565b6000819050602082019050919050565b6101c082016000820151620011e660008501826200105e565b506020820151620011fb60208501826200106f565b50604082015162001210604085018262001080565b5060608201516200122560c085018262001080565b5060808201516200123b61014085018262001080565b50505050565b60006200124f8383620011cd565b6101c08301905092915050565b6000602082019050919050565b60006200127682620011a1565b620012828185620011ac565b93506200128f83620011bd565b8060005b83811015620012c6578151620012aa888262001241565b9750620012b7836200125c565b92505060018101905062001293565b5085935050505092915050565b60006020820190508181036000830152620012ef818462001269565b905092915050565b620013028162000e43565b82525050565b620013138162000d92565b82525050565b6000604082019050620013306000830185620012f7565b6200133f602083018462001308565b9392505050565b7f4e487b7100000000000000000000000000000000000000000000000000000000600052601160045260246000fd5b6000620013828262000e43565b91507fffffffffffffffffffffffffffffffffffffffffffffffffffffffffffffffff8203620013b757620013b662001346565b5b600182019050919050565b6000620013cf8262000f51565b9050919050565b620013e181620013c2565b82525050565b6000604082019050620013fe6000830185620012f7565b6200140d6020830184620013d6565b9392505050565b6200141f8162000e09565b81146200142b57600080fd5b50565b6000815190506200143f8162001414565b92915050565b6000602082840312156200145e576200145d62000d6d565b5b60006200146e848285016200142e565b91505092915050565b6000620014848262000f51565b9050919050565b620014968162001477565b82525050565b6000606082019050620014b36000830186620012f7565b620014c26020830185620012f7565b620014d160408301846200148b565b949350505050565b600081519050620014ea8162000da6565b92915050565b600081519050620015018162000e4d565b92915050565b600080fd5b6000601f19601f8301169050919050565b7f4e487b7100000000000000000000000000000000000000000000000000000000600052604160045260246000fd5b62001557826200150c565b810181811067ffffffffffffffff821117156200157957620015786200151d565b5b80604052505050565b60006200158e62000d63565b90506200159c82826200154c565b919050565b600060808284031215620015ba57620015b962001507565b5b620015c6608062001582565b90506000620015d884828501620014f0565b6000830152506020620015ee84828501620014f0565b60208301525060406200160484828501620014f0565b60408301525060606200161a84828501620014f0565b60608301525092915050565b60008060008060006101c0868803121562001646576200164562000d6d565b5b60006200165688828901620014d9565b95505060206200166988828901620014f0565b94505060406200167c88828901620015a1565b93505060c06200168f88828901620015a1565b925050610140620016a388828901620015a1565b9150509295509295909350565b7f4e487b7100000000000000000000000000000000000000000000000000000000600052603260045260246000fdfe608060405260006006553480156200001657600080fd5b50604051620012de380380620012de83398181016040528101906200003c919062000130565b806000806101000a81548173ffffffffffffffffffffffffffffffffffffffff021916908373ffffffffffffffffffffffffffffffffffffffff16021790555081600181905550505062000177565b600080fd5b6000819050919050565b620000a58162000090565b8114620000b157600080fd5b50565b600081519050620000c5816200009a565b92915050565b600073ffffffffffffffffffffffffffffffffffffffff82169050919050565b6000620000f882620000cb565b9050919050565b6200010a81620000eb565b81146200011657600080fd5b50565b6000815190506200012a81620000ff565b92915050565b600080604083850312156200014a57620001496200008b565b5b60006200015a85828601620000b4565b92505060206200016d8582860162000119565b9150509250929050565b61115780620001876000396000f3fe608060405234801561001057600080fd5b50600436106100b45760003560e01c8063750a49cc11610071578063750a49cc146101a357806376c52496146101bf5780638da5cb5b146101ef578063bcc0312c1461020d578063d3cc2e0d1461022b578063fbbd38d91461025b576100b4565b806311fc3b4e146100b95780631b0e9bcd146100e95780633c70d04a146101195780634f3777a3146101495780635a9b0b89146101655780636903b71614610187575b600080fd5b6100d360048036038101906100ce9190610b48565b61028b565b6040516100e09190610bb6565b60405180910390f35b61010360048036038101906100fe9190610bd1565b610371565b6040516101109190610c0d565b60405180910390f35b610133600480360381019061012e9190610bd1565b610389565b6040516101409190610c0d565b60405180910390f35b610163600480360381019061015e9190610c28565b6103a1565b005b61016d610481565b60405161017e959493929190610cdb565b60405180910390f35b6101a1600480360381019061019c9190610c28565b610624565b005b6101bd60048036038101906101b89190610d5c565b610704565b005b6101d960048036038101906101d49190610ded565b610776565b6040516101e69190610bb6565b60405180910390f35b6101f7610a17565b6040516102049190610e2d565b60405180910390f35b610215610a3b565b6040516102229190610c0d565b60405180910390f35b61024560048036038101906102409190610bd1565b610a45565b6040516102529190610c0d565b60405180910390f35b61027560048036038101906102709190610bd1565b610a5d565b6040516102829190610c0d565b60405180910390f35b60008173ffffffffffffffffffffffffffffffffffffffff16635fc50a2f858560008054906101000a900473ffffffffffffffffffffffffffffffffffffffff166040518463ffffffff1660e01b81526004016102ea93929190610e48565b6020604051808303816000875af1158015610309573d6000803e3d6000fd5b505050506040513d601f19601f8201168201806040525081019061032d9190610eab565b1561036557826004600086815260200190815260200160002060008282546103559190610f07565b925050819055506001905061036a565b600090505b9392505050565b60046020528060005260406000206000915090505481565b60026020528060005260406000206000915090505481565b60006002600083815260200190815260200160002054116103f7576040517f08c379a00000000000000000000000000000000000000000000000000000000081526004016103ee90610fba565b60405180910390fd5b80600360008481526020019081526020016000208190555060016002600083815260200190815260200160002060008282546104339190610fda565b9250508190555060016006600082825461044d9190610fda565b925050819055506005600082815260200190815260200160002060008154809291906104789061100e565b91905055505050565b60008061048c610a75565b610494610a75565b61049c610a75565b60008054906101000a900473ffffffffffffffffffffffffffffffffffffffff16600154604051806080016040528060026000600181526020019081526020016000205481526020016002600060028152602001908152602001600020548152602001600260006003815260200190815260200160002054815260200160026000600481526020019081526020016000205481525060405180608001604052806004600060018152602001908152602001600020548152602001600460006002815260200190815260200160002054815260200160046000600381526020019081526020016000205481526020016004600060048152602001908152602001600020548152506040518060800160405280600560006001815260200190815260200160002054815260200160056000600281526020019081526020016000205481526020016005600060038152602001908152602001600020548152602001600560006004815260200190815260200160002054815250945094509450945094509091929394565b600060026000838152602001908152602001600020541161067a576040517f08c379a000000000000000000000000000000000000000000000000000000000815260040161067190610fba565b60405180910390fd5b600160026000838152602001908152602001600020600082825461069e9190610fda565b925050819055506001600660008282546106b89190610fda565b925050819055508060036000848152602001908152602001600020819055506005600082815260200190815260200160002060008154809291906106fb9061100e565b91905055505050565b816002600085815260200190815260200160002060008282546107279190610f07565b9250508190555081600660008282546107409190610f07565b925050819055508160046000858152602001908152602001600020600082825461076a9190610fda565b92505081905550505050565b60008060036000858152602001908152602001600020540361079b5760009050610a11565b8173ffffffffffffffffffffffffffffffffffffffff166368e7ad366040518163ffffffff1660e01b8152600401600060405180830381600087803b1580156107e357600080fd5b505af11580156107f7573d6000803e3d6000fd5b5050505060018273ffffffffffffffffffffffffffffffffffffffff1663eb8704736040518163ffffffff1660e01b8152600401602060405180830381865afa158015610848573d6000803e3d6000fd5b505050506040513d601f19601f8201168201806040525081019061086c919061106b565b036108f0578173ffffffffffffffffffffffffffffffffffffffff166354c3098460036000868152602001908152602001600020546040518263ffffffff1660e01b81526004016108bd9190610c0d565b600060405180830381600087803b1580156108d757600080fd5b505af11580156108eb573d6000803e3d6000fd5b505050505b8173ffffffffffffffffffffffffffffffffffffffff1663ee3d52b360006040518263ffffffff1660e01b815260040161092a91906110dd565b600060405180830381600087803b15801561094457600080fd5b505af1158015610958573d6000803e3d6000fd5b5050505060006003600085815260200190815260200160002081905550600560008373ffffffffffffffffffffffffffffffffffffffff1663a846118b6040518163ffffffff1660e01b8152600401602060405180830381865afa1580156109c4573d6000803e3d6000fd5b505050506040513d601f19601f820116820180604052508101906109e8919061106b565b81526020019081526020016000206000815480929190610a07906110f8565b9190505550600190505b92915050565b60008054906101000a900473ffffffffffffffffffffffffffffffffffffffff1681565b6000600154905090565b60056020528060005260406000206000915090505481565b60036020528060005260406000206000915090505481565b6040518060800160405280600081526020016000815260200160008152602001600081525090565b600080fd5b6000819050919050565b610ab581610aa2565b8114610ac057600080fd5b50565b600081359050610ad281610aac565b92915050565b600073ffffffffffffffffffffffffffffffffffffffff82169050919050565b6000610b0382610ad8565b9050919050565b6000610b1582610af8565b9050919050565b610b2581610b0a565b8114610b3057600080fd5b50565b600081359050610b4281610b1c565b92915050565b600080600060608486031215610b6157610b60610a9d565b5b6000610b6f86828701610ac3565b9350506020610b8086828701610ac3565b9250506040610b9186828701610b33565b9150509250925092565b60008115159050919050565b610bb081610b9b565b82525050565b6000602082019050610bcb6000830184610ba7565b92915050565b600060208284031215610be757610be6610a9d565b5b6000610bf584828501610ac3565b91505092915050565b610c0781610aa2565b82525050565b6000602082019050610c226000830184610bfe565b92915050565b60008060408385031215610c3f57610c3e610a9d565b5b6000610c4d85828601610ac3565b9250506020610c5e85828601610ac3565b9150509250929050565b610c7181610af8565b82525050565b610c8081610aa2565b82525050565b608082016000820151610c9c6000850182610c77565b506020820151610caf6020850182610c77565b506040820151610cc26040850182610c77565b506060820151610cd56060850182610c77565b50505050565b60006101c082019050610cf16000830188610c68565b610cfe6020830187610bfe565b610d0b6040830186610c86565b610d1860c0830185610c86565b610d26610140830184610c86565b9695505050505050565b610d3981610af8565b8114610d4457600080fd5b50565b600081359050610d5681610d30565b92915050565b600080600060608486031215610d7557610d74610a9d565b5b6000610d8386828701610ac3565b9350506020610d9486828701610ac3565b9250506040610da586828701610d47565b9150509250925092565b6000610dba82610af8565b9050919050565b610dca81610daf565b8114610dd557600080fd5b50565b600081359050610de781610dc1565b92915050565b60008060408385031215610e0457610e03610a9d565b5b6000610e1285828601610ac3565b9250506020610e2385828601610dd8565b9150509250929050565b6000602082019050610e426000830184610c68565b92915050565b6000606082019050610e5d6000830186610bfe565b610e6a6020830185610bfe565b610e776040830184610c68565b949350505050565b610e8881610b9b565b8114610e9357600080fd5b50565b600081519050610ea581610e7f565b92915050565b600060208284031215610ec157610ec0610a9d565b5b6000610ecf84828501610e96565b91505092915050565b7f4e487b7100000000000000000000000000000000000000000000000000000000600052601160045260246000fd5b6000610f1282610aa2565b9150610f1d83610aa2565b9250827fffffffffffffffffffffffffffffffffffffffffffffffffffffffffffffffff03821115610f5257610f51610ed8565b5b828201905092915050565b600082825260208201905092915050565b7f496e73756666696369656e742053746f636b7300000000000000000000000000600082015250565b6000610fa4601383610f5d565b9150610faf82610f6e565b602082019050919050565b60006020820190508181036000830152610fd381610f97565b9050919050565b6000610fe582610aa2565b9150610ff083610aa2565b92508282101561100357611002610ed8565b5b828203905092915050565b600061101982610aa2565b91507fffffffffffffffffffffffffffffffffffffffffffffffffffffffffffffffff820361104b5761104a610ed8565b5b600182019050919050565b60008151905061106581610aac565b92915050565b60006020828403121561108157611080610a9d565b5b600061108f84828501611056565b91505092915050565b6000819050919050565b6000819050919050565b60006110c76110c26110bd84611098565b6110a2565b610aa2565b9050919050565b6110d7816110ac565b82525050565b60006020820190506110f260008301846110ce565b92915050565b600061110382610aa2565b91506000820361111657611115610ed8565b5b60018203905091905056fea26469706673582212200ce6aefc3026849454f6e49f3017b90ee15a362d7962bb0ca14a4c8af87969f864736f6c634300080d0033a2646970667358221220dc6a724951bb822ba614de40476309d3ca45c60f9e3fb6df8d9bd3dab7072e8164736f6c634300080d0033608060405234801561001057600080fd5b50611458806100206000396000f3fe608060405234801561001057600080fd5b506004361061007d5760003560e01c8063339874d51161005b578063339874d51461011257806357d5b1c9146101425780639b7abde714610172578063efeb5e58146101a25761007d565b80630a9890251461008257806313b1a822146100b2578063302df083146100e2575b600080fd5b61009c60048036038101906100979190610857565b6101d2565b6040516100a99190610903565b60405180910390f35b6100cc60048036038101906100c79190610857565b610211565b6040516100d99190610939565b60405180910390f35b6100fc60048036038101906100f79190610857565b610304565b6040516101099190610903565b60405180910390f35b61012c600480360381019061012791906109a4565b610340565b6040516101399190610939565b60405180910390f35b61015c600480360381019061015791906109f7565b610463565b6040516101699190610939565b60405180910390f35b61018c60048036038101906101879190610857565b610583565b6040516101999190610a88565b60405180910390f35b6101bc60048036038101906101b79190610857565b6107bb565b6040516101c99190610903565b60405180910390f35b600181815481106101e257600080fd5b906000526020600020016000915054906101000a900473ffffffffffffffffffffffffffffffffffffffff1681565b60008073ffffffffffffffffffffffffffffffffffffffff1660008084815260200190815260200160002060009054906101000a900473ffffffffffffffffffffffffffffffffffffffff1673ffffffffffffffffffffffffffffffffffffffff16036102fa57604051610284906107ee565b604051809103906000f0801580156102a0573d6000803e3d6000fd5b5060008084815260200190815260200160002060006101000a81548173ffffffffffffffffffffffffffffffffffffffff021916908373ffffffffffffffffffffffffffffffffffffffff160217905550600190506102ff565b600090505b919050565b600080600083815260200190815260200160002060009054906101000a900473ffffffffffffffffffffffffffffffffffffffff169050919050565b60008073ffffffffffffffffffffffffffffffffffffffff1660008086815260200190815260200160002060009054906101000a900473ffffffffffffffffffffffffffffffffffffffff1673ffffffffffffffffffffffffffffffffffffffff16036103b0576000905061045c565b600080600086815260200190815260200160002060009054906101000a900473ffffffffffffffffffffffffffffffffffffffff1690508073ffffffffffffffffffffffffffffffffffffffff1663dd4d1d8a8486886040518463ffffffff1660e01b815260040161042493929190610ad3565b600060405180830381600087803b15801561043e57600080fd5b505af1158015610452573d6000803e3d6000fd5b5050505060019150505b9392505050565b60008073ffffffffffffffffffffffffffffffffffffffff1660008085815260200190815260200160002060009054906101000a900473ffffffffffffffffffffffffffffffffffffffff1673ffffffffffffffffffffffffffffffffffffffff16036104d3576000905061057d565b600080600085815260200190815260200160002060009054906101000a900473ffffffffffffffffffffffffffffffffffffffff1690508073ffffffffffffffffffffffffffffffffffffffff166354056ed885856040518363ffffffff1660e01b8152600401610545929190610b0a565b600060405180830381600087803b15801561055f57600080fd5b505af1158015610573573d6000803e3d6000fd5b5050505060019150505b92915050565b61058b6107fb565b600073ffffffffffffffffffffffffffffffffffffffff1660008084815260200190815260200160002060009054906101000a900473ffffffffffffffffffffffffffffffffffffffff1673ffffffffffffffffffffffffffffffffffffffff1603610616576040518060600160405280600a8152602001600a8152602001600081525090506107b6565b600080600084815260200190815260200160002060009054906101000a900473ffffffffffffffffffffffffffffffffffffffff16905060405180606001604052808273ffffffffffffffffffffffffffffffffffffffff1663a846118b6040518163ffffffff1660e01b8152600401602060405180830381865afa1580156106a3573d6000803e3d6000fd5b505050506040513d601f19601f820116820180604052508101906106c79190610b48565b81526020018273ffffffffffffffffffffffffffffffffffffffff1663eb8704736040518163ffffffff1660e01b8152600401602060405180830381865afa158015610717573d6000803e3d6000fd5b505050506040513d601f19601f8201168201806040525081019061073b9190610b48565b81526020018273ffffffffffffffffffffffffffffffffffffffff166362a0c9046040518163ffffffff1660e01b8152600401602060405180830381865afa15801561078b573d6000803e3d6000fd5b505050506040513d601f19601f820116820180604052508101906107af9190610b48565b8152509150505b919050565b60006020528060005260406000206000915054906101000a900473ffffffffffffffffffffffffffffffffffffffff1681565b6108ad80610b7683390190565b60405180606001604052806000815260200160008152602001600081525090565b600080fd5b6000819050919050565b61083481610821565b811461083f57600080fd5b50565b6000813590506108518161082b565b92915050565b60006020828403121561086d5761086c61081c565b5b600061087b84828501610842565b91505092915050565b600073ffffffffffffffffffffffffffffffffffffffff82169050919050565b6000819050919050565b60006108c96108c46108bf84610884565b6108a4565b610884565b9050919050565b60006108db826108ae565b9050919050565b60006108ed826108d0565b9050919050565b6108fd816108e2565b82525050565b600060208201905061091860008301846108f4565b92915050565b60008115159050919050565b6109338161091e565b82525050565b600060208201905061094e600083018461092a565b92915050565b600061095f82610884565b9050919050565b600061097182610954565b9050919050565b61098181610966565b811461098c57600080fd5b50565b60008135905061099e81610978565b92915050565b6000806000606084860312156109bd576109bc61081c565b5b60006109cb86828701610842565b93505060206109dc86828701610842565b92505060406109ed8682870161098f565b9150509250925092565b60008060408385031215610a0e57610a0d61081c565b5b6000610a1c85828601610842565b9250506020610a2d8582860161098f565b9150509250929050565b610a4081610821565b82525050565b606082016000820151610a5c6000850182610a37565b506020820151610a6f6020850182610a37565b506040820151610a826040850182610a37565b50505050565b6000606082019050610a9d6000830184610a46565b92915050565b6000610aae826108d0565b9050919050565b610abe81610aa3565b82525050565b610acd81610821565b82525050565b6000606082019050610ae86000830186610ab5565b610af56020830185610ac4565b610b026040830184610ac4565b949350505050565b6000604082019050610b1f6000830185610ac4565b610b2c6020830184610ab5565b9392505050565b600081519050610b428161082b565b92915050565b600060208284031215610b5e57610b5d61081c565b5b6000610b6c84828501610b33565b9150509291505056fe6080604052600060025534801561001557600080fd5b50336000806101000a81548173ffffffffffffffffffffffffffffffffffffffff021916908373ffffffffffffffffffffffffffffffffffffffff160217905550610848806100656000396000f3fe608060405234801561001057600080fd5b50600436106100a95760003560e01c8063a846118b11610071578063a846118b1461012c578063c2d468851461014a578063dd4d1d8a14610168578063eb87047314610184578063ee3d52b3146101a2578063f0ab1986146101be576100a9565b806354056ed8146100ae57806354c30984146100ca57806362a0c904146100e657806368e7ad36146101045780638da5cb5b1461010e575b600080fd5b6100c860048036038101906100c391906104e7565b6101dc565b005b6100e460048036038101906100df9190610527565b610294565b005b6100ee61029e565b6040516100fb9190610563565b60405180910390f35b61010c6102a8565b005b6101166102c2565b604051610123919061058d565b60405180910390f35b6101346102e6565b6040516101419190610563565b60405180910390f35b6101526102f0565b60405161015f9190610563565b60405180910390f35b610182600480360381019061017d91906105a8565b6102f6565b005b61018c610422565b6040516101999190610563565b60405180910390f35b6101bc60048036038101906101b79190610527565b61042c565b005b6101c6610436565b6040516101d39190610563565b60405180910390f35b600160025414610221576040517f08c379a00000000000000000000000000000000000000000000000000000000081526004016102189061067e565b60405180910390fd5b8073ffffffffffffffffffffffffffffffffffffffff16634f3777a3836001546040518363ffffffff1660e01b815260040161025e92919061069e565b600060405180830381600087803b15801561027857600080fd5b505af115801561028c573d6000803e3d6000fd5b505050505050565b8060018190555050565b6000600354905090565b600260008154809291906102bb906106f6565b9190505550565b60008054906101000a900473ffffffffffffffffffffffffffffffffffffffff1681565b6000600154905090565b60015481565b60006002541461033b576040517f08c379a0000000000000000000000000000000000000000000000000000000008152600401610332906107b0565b60405180910390fd5b8273ffffffffffffffffffffffffffffffffffffffff16636903b71682846040518363ffffffff1660e01b815260040161037692919061069e565b600060405180830381600087803b15801561039057600080fd5b505af11580156103a4573d6000803e3d6000fd5b505050508273ffffffffffffffffffffffffffffffffffffffff1663bcc0312c6040518163ffffffff1660e01b8152600401602060405180830381865afa1580156103f3573d6000803e3d6000fd5b505050506040513d601f19601f8201168201806040525081019061041791906107e5565b600381905550505050565b6000600254905090565b8060038190555050565b60025481565b600080fd5b6000819050919050565b61045481610441565b811461045f57600080fd5b50565b6000813590506104718161044b565b92915050565b600073ffffffffffffffffffffffffffffffffffffffff82169050919050565b60006104a282610477565b9050919050565b60006104b482610497565b9050919050565b6104c4816104a9565b81146104cf57600080fd5b50565b6000813590506104e1816104bb565b92915050565b600080604083850312156104fe576104fd61043c565b5b600061050c85828601610462565b925050602061051d858286016104d2565b9150509250929050565b60006020828403121561053d5761053c61043c565b5b600061054b84828501610462565b91505092915050565b61055d81610441565b82525050565b60006020820190506105786000830184610554565b92915050565b61058781610497565b82525050565b60006020820190506105a2600083018461057e565b92915050565b6000806000606084860312156105c1576105c061043c565b5b60006105cf868287016104d2565b93505060206105e086828701610462565b92505060406105f186828701610462565b9150509250925092565b600082825260208201905092915050565b7f546869732062656e656669636961727920686173206e6f74206861766520697460008201527f7320666972737420646f7365206f662076616363696e65000000000000000000602082015250565b60006106686037836105fb565b91506106738261060c565b604082019050919050565b600060208201905081810360008301526106978161065b565b9050919050565b60006040820190506106b36000830185610554565b6106c06020830184610554565b9392505050565b7f4e487b7100000000000000000000000000000000000000000000000000000000600052601160045260246000fd5b600061070182610441565b91507fffffffffffffffffffffffffffffffffffffffffffffffffffffffffffffffff8203610733576107326106c7565b5b600182019050919050565b7f546869732062656e65666963696172792068617320616c72656164792068617660008201527f652069747320666972737420646f7365206f662076616363696e650000000000602082015250565b600061079a603b836105fb565b91506107a58261073e565b604082019050919050565b600060208201905081810360008301526107c98161078d565b9050919050565b6000815190506107df8161044b565b92915050565b6000602082840312156107fb576107fa61043c565b5b6000610809848285016107d0565b9150509291505056fea26469706673582212207d56f81e3d603fd198984ac17d798c357c3a6f19c9a5b0ae43df14e15d47ab8064736f6c634300080d0033a264697066735822122001c48595a309c86fe4951e583e8765b8d3e8bb2cad247c5ee6084ae2ec0813e164736f6c634300080d0033",
  "immutableReferences": {},
  "source": "// SPDX-License-Identifier: MIT\r\n\r\npragma solidity ^0.8.13;\r\n\r\nimport \"./Manufacturers.sol\";\r\nimport \"./Beneficiaries.sol\";\r\nimport \"./Admins.sol\";\r\nimport \"./Delivery.sol\";\r\nimport \"./Manufacturer.sol\";\r\n\r\ncontract Actors {\r\n    Manufacturers manufacturer;\r\n    Admins admin;\r\n    Beneficiaries beneficiary;\r\n    address owner;\r\n\r\n    event Success(bool success);\r\n    event Address(address add);\r\n    event BeneficiaryInfo(Beneficiaries.beneficiaryInfo info);\r\n    event AllAdminsInfo(Admins.adminInfo[] arr);\r\n    event AdminInfo(Admins.adminInfo info);\r\n    event AllManufacturersInfo(Manufacturers.manufacturerInfo[] arr);\r\n    event ManufacturerInfo(Manufacturers.manufacturerInfo info);\r\n    event AllManufacturerOrders(Manufacturer.orderInfo[] info);\r\n    event Value(uint value);\r\n\r\n    constructor() {\r\n        owner = msg.sender;\r\n        manufacturer = new Manufacturers();\r\n        admin = new Admins();\r\n        beneficiary = new Beneficiaries();\r\n    }\r\n\r\n    function createManufacturer() public {\r\n        emit Success(manufacturer.createManufacturer(msg.sender));\r\n    }\r\n\r\n    function createBenefeciary(uint256 _aadhar) public {\r\n        emit Success(beneficiary.createBenefeciary(_aadhar));\r\n    }\r\n\r\n    function createAdmin() public {\r\n        emit Success(admin.createAdmin(msg.sender));\r\n    }\r\n\r\n    function adminCreateOrder(\r\n        uint256 _vaccine,\r\n        uint256 _qty,\r\n        address _manufacturer\r\n    ) public payable {\r\n        Manufacturers.manufacturerInfo memory info = manufacturer.getManufacturerInfo(_manufacturer);\r\n        if(_vaccine == 1){\r\n            if(info.price_a*_qty == msg.value){\r\n                payable(_manufacturer).transfer(msg.value);\r\n            }else{\r\n                emit Success(false);\r\n                return;\r\n            }\r\n        }else if(_vaccine == 2){\r\n            if(info.price_b*_qty == msg.value){\r\n                payable(_manufacturer).transfer(msg.value);\r\n            }else{\r\n                emit Success(false);\r\n                return;\r\n            }\r\n        }else if(_vaccine == 3){\r\n            if(info.price_c*_qty == msg.value){\r\n                payable(_manufacturer).transfer(msg.value);\r\n            }else{\r\n                emit Success(false);\r\n                return;\r\n            }\r\n        }else if(_vaccine == 4){\r\n            if(info.price_d*_qty == msg.value){\r\n                payable(_manufacturer).transfer(msg.value);\r\n            }else{\r\n                emit Success(false);\r\n                return;\r\n            }\r\n        }else {\r\n            emit Success(false);\r\n            return;\r\n        }\r\n        emit Success(\r\n            admin.adminCreateOrder(\r\n                msg.sender,\r\n                _vaccine,\r\n                _qty,\r\n                manufacturer.getManufacturer(_manufacturer)\r\n            )\r\n        );\r\n    }\r\n\r\n    function adminVaccinationDone(uint256 _aadhar) public {\r\n        emit Success(\r\n            admin.adminVaccinationDone(\r\n                msg.sender,\r\n                _aadhar,\r\n                beneficiary.getBeneficiary(_aadhar)\r\n            )\r\n        );\r\n    }\r\n\r\n    function beneficiaryFirstVaccine(\r\n        uint256 _aadhar,\r\n        uint256 _vaccine,\r\n        address _admin\r\n    ) public {\r\n        emit Success(\r\n            beneficiary.beneficiaryFirstVaccine(\r\n                _aadhar,\r\n                _vaccine,\r\n                admin.getAdmin(_admin)\r\n            )\r\n        );\r\n    }\r\n\r\n    function beneficiarySecondVaccine(uint256 _aadhar, address _admin) public {\r\n        emit Success(\r\n            beneficiary.beneficiarySecondVaccine(\r\n                _aadhar,\r\n                admin.getAdmin(_admin)\r\n            )\r\n        );\r\n    }\r\n\r\n    function manufacturerAddStock(uint256 _vaccine, uint256 _qty) public {\r\n        emit Success(\r\n            manufacturer.manufacturerAddStock(msg.sender, _vaccine, _qty)\r\n        );\r\n    }\r\n\r\n    function manufacturerCreateDelivery(uint256 ind) public {\r\n        emit Success(manufacturer.manufacturerCreateDelivery(msg.sender, ind));\r\n    }\r\n\r\n    function manufacturerFinishDelivery(uint256 ind) public {\r\n        emit Success(manufacturer.manufacturerFinishDelivery(msg.sender, ind, admin));\r\n    }\r\n\r\n    function getAllAdmins() public {\r\n        emit AllAdminsInfo(admin.getAllAdmins());\r\n    }\r\n\r\n    function getAllManufacturers() public {\r\n        emit AllManufacturersInfo(manufacturer.getAllManufacturers());\r\n    }\r\n\r\n    function getBeneficiaryInfo(uint256 _aadhar) public {\r\n        emit BeneficiaryInfo(beneficiary.getBeneficiaryInfo(_aadhar));\r\n    }\r\n\r\n    function getAdminInfo() public {\r\n        emit AdminInfo(admin.getAdminInfo(msg.sender));\r\n    }\r\n\r\n    function getManufacturerInfo() public {\r\n        emit ManufacturerInfo(manufacturer.getManufacturerInfo(msg.sender));\r\n    }\r\n\r\n    function manufacturerSetPrice(\r\n        uint256 a,\r\n        uint256 b,\r\n        uint256 c,\r\n        uint256 d\r\n    ) public {\r\n        manufacturer.setPrice(msg.sender, a, b, c, d);\r\n    }\r\n\r\n    function getAllOrders() public {\r\n        emit AllManufacturerOrders(manufacturer.getAllOrders(msg.sender));\r\n    }\r\n}\r\n",
  "sourcePath": "C:\\Users\\mdzai\\Desktop\\VCSM-Blockchain\\contracts\\Actors.sol",
  "compiler": {
    "name": "solc",
    "version": "0.8.13+commit.abaa5c0e.Emscripten.clang"
  },
  "schemaVersion": "3.4.7",
  "updatedAt": "2022-04-28T13:55:00.266Z",
  "networkType": "ethereum",
  "devdoc": {
    "kind": "dev",
    "methods": {},
    "version": 1
  },
  "userdoc": {
    "kind": "user",
    "methods": {},
    "version": 1
  }
}