{
  "contractName": "Actors",
  "abi": [
    {
      "inputs": [],
      "stateMutability": "nonpayable",
      "type": "constructor"
    },
    {
      "anonymous": false,
      "inputs": [
        {
          "indexed": false,
          "internalType": "address",
          "name": "add",
          "type": "address"
        }
      ],
      "name": "Address",
      "type": "event"
    },
    {
      "anonymous": false,
      "inputs": [
        {
          "components": [
            {
              "internalType": "address",
              "name": "owner",
              "type": "address"
            },
            {
              "internalType": "uint256",
              "name": "center_no",
              "type": "uint256"
            },
            {
              "components": [
                {
                  "internalType": "uint256",
                  "name": "a",
                  "type": "uint256"
                },
                {
                  "internalType": "uint256",
                  "name": "b",
                  "type": "uint256"
                },
                {
                  "internalType": "uint256",
                  "name": "c",
                  "type": "uint256"
                },
                {
                  "internalType": "uint256",
                  "name": "d",
                  "type": "uint256"
                }
              ],
              "internalType": "struct Admin.stocks",
              "name": "available",
              "type": "tuple"
            },
            {
              "components": [
                {
                  "internalType": "uint256",
                  "name": "a",
                  "type": "uint256"
                },
                {
                  "internalType": "uint256",
                  "name": "b",
                  "type": "uint256"
                },
                {
                  "internalType": "uint256",
                  "name": "c",
                  "type": "uint256"
                },
                {
                  "internalType": "uint256",
                  "name": "d",
                  "type": "uint256"
                }
              ],
              "internalType": "struct Admin.stocks",
              "name": "ordered",
              "type": "tuple"
            },
            {
              "components": [
                {
                  "internalType": "uint256",
                  "name": "a",
                  "type": "uint256"
                },
                {
                  "internalType": "uint256",
                  "name": "b",
                  "type": "uint256"
                },
                {
                  "internalType": "uint256",
                  "name": "c",
                  "type": "uint256"
                },
                {
                  "internalType": "uint256",
                  "name": "d",
                  "type": "uint256"
                }
              ],
              "internalType": "struct Admin.stocks",
              "name": "registered",
              "type": "tuple"
            }
          ],
          "indexed": false,
          "internalType": "struct Admins.adminInfo",
          "name": "info",
          "type": "tuple"
        }
      ],
      "name": "AdminInfo",
      "type": "event"
    },
    {
      "anonymous": false,
      "inputs": [
        {
          "components": [
            {
              "internalType": "address",
              "name": "owner",
              "type": "address"
            },
            {
              "internalType": "uint256",
              "name": "center_no",
              "type": "uint256"
            },
            {
              "components": [
                {
                  "internalType": "uint256",
                  "name": "a",
                  "type": "uint256"
                },
                {
                  "internalType": "uint256",
                  "name": "b",
                  "type": "uint256"
                },
                {
                  "internalType": "uint256",
                  "name": "c",
                  "type": "uint256"
                },
                {
                  "internalType": "uint256",
                  "name": "d",
                  "type": "uint256"
                }
              ],
              "internalType": "struct Admin.stocks",
              "name": "available",
              "type": "tuple"
            },
            {
              "components": [
                {
                  "internalType": "uint256",
                  "name": "a",
                  "type": "uint256"
                },
                {
                  "internalType": "uint256",
                  "name": "b",
                  "type": "uint256"
                },
                {
                  "internalType": "uint256",
                  "name": "c",
                  "type": "uint256"
                },
                {
                  "internalType": "uint256",
                  "name": "d",
                  "type": "uint256"
                }
              ],
              "internalType": "struct Admin.stocks",
              "name": "ordered",
              "type": "tuple"
            },
            {
              "components": [
                {
                  "internalType": "uint256",
                  "name": "a",
                  "type": "uint256"
                },
                {
                  "internalType": "uint256",
                  "name": "b",
                  "type": "uint256"
                },
                {
                  "internalType": "uint256",
                  "name": "c",
                  "type": "uint256"
                },
                {
                  "internalType": "uint256",
                  "name": "d",
                  "type": "uint256"
                }
              ],
              "internalType": "struct Admin.stocks",
              "name": "registered",
              "type": "tuple"
            }
          ],
          "indexed": false,
          "internalType": "struct Admins.adminInfo[]",
          "name": "arr",
          "type": "tuple[]"
        }
      ],
      "name": "AllAdminsInfo",
      "type": "event"
    },
    {
      "anonymous": false,
      "inputs": [
        {
          "indexed": false,
          "internalType": "contract Delivery[]",
          "name": "deliveries",
          "type": "address[]"
        }
      ],
      "name": "AllDeliveries",
      "type": "event"
    },
    {
      "anonymous": false,
      "inputs": [
        {
          "components": [
            {
              "internalType": "address",
              "name": "owner",
              "type": "address"
            },
            {
              "components": [
                {
                  "internalType": "uint256",
                  "name": "a",
                  "type": "uint256"
                },
                {
                  "internalType": "uint256",
                  "name": "b",
                  "type": "uint256"
                },
                {
                  "internalType": "uint256",
                  "name": "c",
                  "type": "uint256"
                },
                {
                  "internalType": "uint256",
                  "name": "d",
                  "type": "uint256"
                }
              ],
              "internalType": "struct Manufacturer.stocks",
              "name": "available",
              "type": "tuple"
            },
            {
              "components": [
                {
                  "internalType": "uint256",
                  "name": "a",
                  "type": "uint256"
                },
                {
                  "internalType": "uint256",
                  "name": "b",
                  "type": "uint256"
                },
                {
                  "internalType": "uint256",
                  "name": "c",
                  "type": "uint256"
                },
                {
                  "internalType": "uint256",
                  "name": "d",
                  "type": "uint256"
                }
              ],
              "internalType": "struct Manufacturer.stocks",
              "name": "ordered",
              "type": "tuple"
            },
            {
              "components": [
                {
                  "internalType": "uint256",
                  "name": "a",
                  "type": "uint256"
                },
                {
                  "internalType": "uint256",
                  "name": "b",
                  "type": "uint256"
                },
                {
                  "internalType": "uint256",
                  "name": "c",
                  "type": "uint256"
                },
                {
                  "internalType": "uint256",
                  "name": "d",
                  "type": "uint256"
                }
              ],
              "internalType": "struct Manufacturer.stocks",
              "name": "out_for_delivery",
              "type": "tuple"
            },
            {
              "internalType": "uint256",
              "name": "price_a",
              "type": "uint256"
            },
            {
              "internalType": "uint256",
              "name": "price_b",
              "type": "uint256"
            },
            {
              "internalType": "uint256",
              "name": "price_c",
              "type": "uint256"
            },
            {
              "internalType": "uint256",
              "name": "price_d",
              "type": "uint256"
            }
          ],
          "indexed": false,
          "internalType": "struct Manufacturers.manufacturerInfo[]",
          "name": "arr",
          "type": "tuple[]"
        }
      ],
      "name": "AllManufacturersInfo",
      "type": "event"
    },
    {
      "anonymous": false,
      "inputs": [],
      "name": "AllOrders",
      "type": "event"
    },
    {
      "anonymous": false,
      "inputs": [
        {
          "components": [
            {
              "internalType": "uint256",
              "name": "vaccine",
              "type": "uint256"
            },
            {
              "internalType": "uint256",
              "name": "num_of_doses",
              "type": "uint256"
            }
          ],
          "indexed": false,
          "internalType": "struct Beneficiaries.beneficiaryInfo",
          "name": "info",
          "type": "tuple"
        }
      ],
      "name": "BeneficiaryInfo",
      "type": "event"
    },
    {
      "anonymous": false,
      "inputs": [
        {
          "components": [
            {
              "internalType": "address",
              "name": "owner",
              "type": "address"
            },
            {
              "components": [
                {
                  "internalType": "uint256",
                  "name": "a",
                  "type": "uint256"
                },
                {
                  "internalType": "uint256",
                  "name": "b",
                  "type": "uint256"
                },
                {
                  "internalType": "uint256",
                  "name": "c",
                  "type": "uint256"
                },
                {
                  "internalType": "uint256",
                  "name": "d",
                  "type": "uint256"
                }
              ],
              "internalType": "struct Manufacturer.stocks",
              "name": "available",
              "type": "tuple"
            },
            {
              "components": [
                {
                  "internalType": "uint256",
                  "name": "a",
                  "type": "uint256"
                },
                {
                  "internalType": "uint256",
                  "name": "b",
                  "type": "uint256"
                },
                {
                  "internalType": "uint256",
                  "name": "c",
                  "type": "uint256"
                },
                {
                  "internalType": "uint256",
                  "name": "d",
                  "type": "uint256"
                }
              ],
              "internalType": "struct Manufacturer.stocks",
              "name": "ordered",
              "type": "tuple"
            },
            {
              "components": [
                {
                  "internalType": "uint256",
                  "name": "a",
                  "type": "uint256"
                },
                {
                  "internalType": "uint256",
                  "name": "b",
                  "type": "uint256"
                },
                {
                  "internalType": "uint256",
                  "name": "c",
                  "type": "uint256"
                },
                {
                  "internalType": "uint256",
                  "name": "d",
                  "type": "uint256"
                }
              ],
              "internalType": "struct Manufacturer.stocks",
              "name": "out_for_delivery",
              "type": "tuple"
            },
            {
              "internalType": "uint256",
              "name": "price_a",
              "type": "uint256"
            },
            {
              "internalType": "uint256",
              "name": "price_b",
              "type": "uint256"
            },
            {
              "internalType": "uint256",
              "name": "price_c",
              "type": "uint256"
            },
            {
              "internalType": "uint256",
              "name": "price_d",
              "type": "uint256"
            }
          ],
          "indexed": false,
          "internalType": "struct Manufacturers.manufacturerInfo",
          "name": "info",
          "type": "tuple"
        }
      ],
      "name": "ManufacturerInfo",
      "type": "event"
    },
    {
      "anonymous": false,
      "inputs": [
        {
          "indexed": false,
          "internalType": "bool",
          "name": "success",
          "type": "bool"
        }
      ],
      "name": "Success",
      "type": "event"
    },
    {
      "inputs": [],
      "name": "createManufacturer",
      "outputs": [],
      "stateMutability": "nonpayable",
      "type": "function"
    },
    {
      "inputs": [
        {
          "internalType": "uint256",
          "name": "_aadhar",
          "type": "uint256"
        }
      ],
      "name": "createBenefeciary",
      "outputs": [],
      "stateMutability": "nonpayable",
      "type": "function"
    },
    {
      "inputs": [],
      "name": "createAdmin",
      "outputs": [],
      "stateMutability": "nonpayable",
      "type": "function"
    },
    {
      "inputs": [
        {
          "internalType": "uint256",
          "name": "_vaccine",
          "type": "uint256"
        },
        {
          "internalType": "uint256",
          "name": "_qty",
          "type": "uint256"
        },
        {
          "internalType": "address",
          "name": "_manufacturer",
          "type": "address"
        }
      ],
      "name": "adminCreateOrder",
      "outputs": [],
      "stateMutability": "nonpayable",
      "type": "function"
    },
    {
      "inputs": [
        {
          "internalType": "uint256",
          "name": "_aadhar",
          "type": "uint256"
        }
      ],
      "name": "adminVaccinationDone",
      "outputs": [],
      "stateMutability": "nonpayable",
      "type": "function"
    },
    {
      "inputs": [
        {
          "internalType": "uint256",
          "name": "_aadhar",
          "type": "uint256"
        },
        {
          "internalType": "uint256",
          "name": "_vaccine",
          "type": "uint256"
        },
        {
          "internalType": "address",
          "name": "_admin",
          "type": "address"
        }
      ],
      "name": "beneficiaryFirstVaccine",
      "outputs": [],
      "stateMutability": "nonpayable",
      "type": "function"
    },
    {
      "inputs": [
        {
          "internalType": "uint256",
          "name": "_aadhar",
          "type": "uint256"
        },
        {
          "internalType": "address",
          "name": "_admin",
          "type": "address"
        }
      ],
      "name": "beneficiarySecondVaccine",
      "outputs": [],
      "stateMutability": "nonpayable",
      "type": "function"
    },
    {
      "inputs": [
        {
          "internalType": "uint256",
          "name": "_vaccine",
          "type": "uint256"
        },
        {
          "internalType": "uint256",
          "name": "_qty",
          "type": "uint256"
        }
      ],
      "name": "manufacturerAddStock",
      "outputs": [],
      "stateMutability": "nonpayable",
      "type": "function"
    },
    {
      "inputs": [
        {
          "internalType": "uint256",
          "name": "vac",
          "type": "uint256"
        },
        {
          "internalType": "uint256",
          "name": "qty",
          "type": "uint256"
        },
        {
          "internalType": "address",
          "name": "_admin",
          "type": "address"
        }
      ],
      "name": "manufacturerCreateDelivery",
      "outputs": [],
      "stateMutability": "nonpayable",
      "type": "function"
    },
    {
      "inputs": [],
      "name": "getAllAdmins",
      "outputs": [],
      "stateMutability": "nonpayable",
      "type": "function"
    },
    {
      "inputs": [],
      "name": "getAllManufacturers",
      "outputs": [],
      "stateMutability": "nonpayable",
      "type": "function"
    },
    {
      "inputs": [
        {
          "internalType": "uint256",
          "name": "_aadhar",
          "type": "uint256"
        }
      ],
      "name": "getBeneficiaryInfo",
      "outputs": [],
      "stateMutability": "nonpayable",
      "type": "function"
    },
    {
      "inputs": [],
      "name": "getAdminInfo",
      "outputs": [],
      "stateMutability": "nonpayable",
      "type": "function"
    },
    {
      "inputs": [],
      "name": "getManufacturerInfo",
      "outputs": [],
      "stateMutability": "nonpayable",
      "type": "function"
    },
    {
      "inputs": [],
      "name": "getAllDeliveries",
      "outputs": [],
      "stateMutability": "nonpayable",
      "type": "function"
    },
    {
      "inputs": [
        {
          "internalType": "uint256",
          "name": "a",
          "type": "uint256"
        },
        {
          "internalType": "uint256",
          "name": "b",
          "type": "uint256"
        },
        {
          "internalType": "uint256",
          "name": "c",
          "type": "uint256"
        },
        {
          "internalType": "uint256",
          "name": "d",
          "type": "uint256"
        }
      ],
      "name": "manufacturerSetPrice",
      "outputs": [],
      "stateMutability": "nonpayable",
      "type": "function"
    }
  ],
  "bytecode": "0x60806040523480156200001157600080fd5b5033600360006101000a81548173ffffffffffffffffffffffffffffffffffffffff021916908373ffffffffffffffffffffffffffffffffffffffff16021790555060405162000061906200019c565b604051809103906000f0801580156200007e573d6000803e3d6000fd5b506000806101000a81548173ffffffffffffffffffffffffffffffffffffffff021916908373ffffffffffffffffffffffffffffffffffffffff160217905550604051620000cc90620001aa565b604051809103906000f080158015620000e9573d6000803e3d6000fd5b50600160006101000a81548173ffffffffffffffffffffffffffffffffffffffff021916908373ffffffffffffffffffffffffffffffffffffffff1602179055506040516200013890620001b8565b604051809103906000f08015801562000155573d6000803e3d6000fd5b50600260006101000a81548173ffffffffffffffffffffffffffffffffffffffff021916908373ffffffffffffffffffffffffffffffffffffffff160217905550620001c6565b61356e80620027be83390190565b612e638062005d2c83390190565b61153b8062008b8f83390190565b6125e880620001d66000396000f3fe608060405234801561001057600080fd5b50600436106101005760003560e01c8063aa833e6c11610097578063de6f072211610066578063de6f07221461020d578063e8e7c0ad14610217578063e92980c514610233578063e9523c971461023d57610100565b8063aa833e6c146101c1578063b86094b7146101dd578063c3d5fd39146101f9578063ddba07a41461020357610100565b806382a9bcd2116100d357806382a9bcd2146101755780638f00c3151461017f578063963178ba146101895780639b7abde7146101a557610100565b806313b1a82214610105578063339874d51461012157806357d5b1c91461013d5780635adb0ec214610159575b600080fd5b61011f600480360381019061011a919061122a565b610247565b005b61013b600480360381019061013691906112b5565b61031e565b005b61015760048036038101906101529190611308565b610496565b005b610173600480360381019061016e91906112b5565b61060b565b005b61017d6106e8565b005b6101876107bc565b005b6101a3600480360381019061019e919061122a565b610893565b005b6101bf60048036038101906101ba919061122a565b610a09565b005b6101db60048036038101906101d691906112b5565b610add565b005b6101f760048036038101906101f29190611348565b610c55565b005b610201610cee565b005b61020b610dc3565b005b610215610e8f565b005b610231600480360381019061022c91906113af565b610f62565b005b61023b61103c565b005b610245611112565b005b7f3b0a8ddef325df2bfdfa6b430ae4c8421841cd135bfa8fb5e432f200787520bb600260009054906101000a900473ffffffffffffffffffffffffffffffffffffffff1673ffffffffffffffffffffffffffffffffffffffff166313b1a822836040518263ffffffff1660e01b81526004016102c391906113fe565b6020604051808303816000875af11580156102e2573d6000803e3d6000fd5b505050506040513d601f19601f820116820180604052508101906103069190611451565b604051610313919061148d565b60405180910390a150565b7f3b0a8ddef325df2bfdfa6b430ae4c8421841cd135bfa8fb5e432f200787520bb600260009054906101000a900473ffffffffffffffffffffffffffffffffffffffff1673ffffffffffffffffffffffffffffffffffffffff1663339874d58585600160009054906101000a900473ffffffffffffffffffffffffffffffffffffffff1673ffffffffffffffffffffffffffffffffffffffff166364efb22b876040518263ffffffff1660e01b81526004016103da91906114b7565b602060405180830381865afa1580156103f7573d6000803e3d6000fd5b505050506040513d601f19601f8201168201806040525081019061041b9190611510565b6040518463ffffffff1660e01b81526004016104399392919061159c565b6020604051808303816000875af1158015610458573d6000803e3d6000fd5b505050506040513d601f19601f8201168201806040525081019061047c9190611451565b604051610489919061148d565b60405180910390a1505050565b7f3b0a8ddef325df2bfdfa6b430ae4c8421841cd135bfa8fb5e432f200787520bb600260009054906101000a900473ffffffffffffffffffffffffffffffffffffffff1673ffffffffffffffffffffffffffffffffffffffff166357d5b1c984600160009054906101000a900473ffffffffffffffffffffffffffffffffffffffff1673ffffffffffffffffffffffffffffffffffffffff166364efb22b866040518263ffffffff1660e01b815260040161055191906114b7565b602060405180830381865afa15801561056e573d6000803e3d6000fd5b505050506040513d601f19601f820116820180604052508101906105929190611510565b6040518363ffffffff1660e01b81526004016105af9291906115d3565b6020604051808303816000875af11580156105ce573d6000803e3d6000fd5b505050506040513d601f19601f820116820180604052508101906105f29190611451565b6040516105ff919061148d565b60405180910390a15050565b7f3b0a8ddef325df2bfdfa6b430ae4c8421841cd135bfa8fb5e432f200787520bb60008054906101000a900473ffffffffffffffffffffffffffffffffffffffff1673ffffffffffffffffffffffffffffffffffffffff16635ddd0a43338686866040518563ffffffff1660e01b815260040161068b94939291906115fc565b6020604051808303816000875af11580156106aa573d6000803e3d6000fd5b505050506040513d601f19601f820116820180604052508101906106ce9190611451565b6040516106db919061148d565b60405180910390a1505050565b7f3b0a8ddef325df2bfdfa6b430ae4c8421841cd135bfa8fb5e432f200787520bb60008054906101000a900473ffffffffffffffffffffffffffffffffffffffff1673ffffffffffffffffffffffffffffffffffffffff1663253dbcc8336040518263ffffffff1660e01b815260040161076291906114b7565b6020604051808303816000875af1158015610781573d6000803e3d6000fd5b505050506040513d601f19601f820116820180604052508101906107a59190611451565b6040516107b2919061148d565b60405180910390a1565b7f0b54e7ad9c58c91b695be909344e34b8c9dfda5ad7c46dfc4e0e084fa0b4c71860008054906101000a900473ffffffffffffffffffffffffffffffffffffffff1673ffffffffffffffffffffffffffffffffffffffff16638b0295de336040518263ffffffff1660e01b815260040161083691906114b7565b600060405180830381865afa158015610853573d6000803e3d6000fd5b505050506040513d6000823e3d601f19601f8201168201806040525081019061087c91906117d8565b60405161088991906118f1565b60405180910390a1565b7f3b0a8ddef325df2bfdfa6b430ae4c8421841cd135bfa8fb5e432f200787520bb600160009054906101000a900473ffffffffffffffffffffffffffffffffffffffff1673ffffffffffffffffffffffffffffffffffffffff16632761b8ad3384600260009054906101000a900473ffffffffffffffffffffffffffffffffffffffff1673ffffffffffffffffffffffffffffffffffffffff1663302df083876040518263ffffffff1660e01b815260040161094f91906113fe565b602060405180830381865afa15801561096c573d6000803e3d6000fd5b505050506040513d601f19601f820116820180604052508101906109909190611951565b6040518463ffffffff1660e01b81526004016109ae9392919061199f565b6020604051808303816000875af11580156109cd573d6000803e3d6000fd5b505050506040513d601f19601f820116820180604052508101906109f19190611451565b6040516109fe919061148d565b60405180910390a150565b7f82874b8e83e7fdadd2bcf068473e6d090d32b26693d8ae5a656b5a542649d445600260009054906101000a900473ffffffffffffffffffffffffffffffffffffffff1673ffffffffffffffffffffffffffffffffffffffff16639b7abde7836040518263ffffffff1660e01b8152600401610a8591906113fe565b6040805180830381865afa158015610aa1573d6000803e3d6000fd5b505050506040513d601f19601f82011682018060405250810190610ac59190611a40565b604051610ad29190611aab565b60405180910390a150565b7f3b0a8ddef325df2bfdfa6b430ae4c8421841cd135bfa8fb5e432f200787520bb600160009054906101000a900473ffffffffffffffffffffffffffffffffffffffff1673ffffffffffffffffffffffffffffffffffffffff166357afa3e833868660008054906101000a900473ffffffffffffffffffffffffffffffffffffffff1673ffffffffffffffffffffffffffffffffffffffff1663191bcef6886040518263ffffffff1660e01b8152600401610b9891906114b7565b602060405180830381865afa158015610bb5573d6000803e3d6000fd5b505050506040513d601f19601f82011682018060405250810190610bd99190611b04565b6040518563ffffffff1660e01b8152600401610bf89493929190611b52565b6020604051808303816000875af1158015610c17573d6000803e3d6000fd5b505050506040513d601f19601f82011682018060405250810190610c3b9190611451565b604051610c48919061148d565b60405180910390a1505050565b60008054906101000a900473ffffffffffffffffffffffffffffffffffffffff1673ffffffffffffffffffffffffffffffffffffffff1663a9db4dd333868686866040518663ffffffff1660e01b8152600401610cb6959493929190611b97565b600060405180830381600087803b158015610cd057600080fd5b505af1158015610ce4573d6000803e3d6000fd5b5050505050505050565b7fd622f8bf8afab07fb43b13f13208608db4b1d615ccbefc252eb7ada5e1186364600160009054906101000a900473ffffffffffffffffffffffffffffffffffffffff1673ffffffffffffffffffffffffffffffffffffffff1663722b0376336040518263ffffffff1660e01b8152600401610d6a91906114b7565b6101c060405180830381865afa158015610d88573d6000803e3d6000fd5b505050506040513d601f19601f82011682018060405250810190610dac9190611d05565b604051610db99190611e01565b60405180910390a1565b7f11bee873e135ffd9216513ae1c71c053fa6de55449af1170f3d99b388eb26d0060008054906101000a900473ffffffffffffffffffffffffffffffffffffffff1673ffffffffffffffffffffffffffffffffffffffff1663ddba07a46040518163ffffffff1660e01b8152600401600060405180830381865afa158015610e4f573d6000803e3d6000fd5b505050506040513d6000823e3d601f19601f82011682018060405250810190610e789190612029565b604051610e85919061221e565b60405180910390a1565b7f62d2bf9755be9930bdf70be84f21193d61048996c31ec4b3398bf301bfc1250760008054906101000a900473ffffffffffffffffffffffffffffffffffffffff1673ffffffffffffffffffffffffffffffffffffffff1663043be2e4336040518263ffffffff1660e01b8152600401610f0991906114b7565b61022060405180830381865afa158015610f27573d6000803e3d6000fd5b505050506040513d601f19601f82011682018060405250810190610f4b9190612240565b604051610f589190612315565b60405180910390a1565b7f3b0a8ddef325df2bfdfa6b430ae4c8421841cd135bfa8fb5e432f200787520bb60008054906101000a900473ffffffffffffffffffffffffffffffffffffffff1673ffffffffffffffffffffffffffffffffffffffff16638c816a633385856040518463ffffffff1660e01b8152600401610fe093929190612331565b6020604051808303816000875af1158015610fff573d6000803e3d6000fd5b505050506040513d601f19601f820116820180604052508101906110239190611451565b604051611030919061148d565b60405180910390a15050565b7f3b0a8ddef325df2bfdfa6b430ae4c8421841cd135bfa8fb5e432f200787520bb600160009054906101000a900473ffffffffffffffffffffffffffffffffffffffff1673ffffffffffffffffffffffffffffffffffffffff166304020595336040518263ffffffff1660e01b81526004016110b891906114b7565b6020604051808303816000875af11580156110d7573d6000803e3d6000fd5b505050506040513d601f19601f820116820180604052508101906110fb9190611451565b604051611108919061148d565b60405180910390a1565b7f759679c842f8da4788fbb7922f43bd622dea53f5c6b18b8687b68d2c117f4607600160009054906101000a900473ffffffffffffffffffffffffffffffffffffffff1673ffffffffffffffffffffffffffffffffffffffff1663e9523c976040518163ffffffff1660e01b8152600401600060405180830381865afa1580156111a0573d6000803e3d6000fd5b505050506040513d6000823e3d601f19601f820116820180604052508101906111c9919061242d565b6040516111d69190612590565b60405180910390a1565b6000604051905090565b600080fd5b600080fd5b6000819050919050565b611207816111f4565b811461121257600080fd5b50565b600081359050611224816111fe565b92915050565b6000602082840312156112405761123f6111ea565b5b600061124e84828501611215565b91505092915050565b600073ffffffffffffffffffffffffffffffffffffffff82169050919050565b600061128282611257565b9050919050565b61129281611277565b811461129d57600080fd5b50565b6000813590506112af81611289565b92915050565b6000806000606084860312156112ce576112cd6111ea565b5b60006112dc86828701611215565b93505060206112ed86828701611215565b92505060406112fe868287016112a0565b9150509250925092565b6000806040838503121561131f5761131e6111ea565b5b600061132d85828601611215565b925050602061133e858286016112a0565b9150509250929050565b60008060008060808587031215611362576113616111ea565b5b600061137087828801611215565b945050602061138187828801611215565b935050604061139287828801611215565b92505060606113a387828801611215565b91505092959194509250565b600080604083850312156113c6576113c56111ea565b5b60006113d485828601611215565b92505060206113e585828601611215565b9150509250929050565b6113f8816111f4565b82525050565b600060208201905061141360008301846113ef565b92915050565b60008115159050919050565b61142e81611419565b811461143957600080fd5b50565b60008151905061144b81611425565b92915050565b600060208284031215611467576114666111ea565b5b60006114758482850161143c565b91505092915050565b61148781611419565b82525050565b60006020820190506114a2600083018461147e565b92915050565b6114b181611277565b82525050565b60006020820190506114cc60008301846114a8565b92915050565b60006114dd82611277565b9050919050565b6114ed816114d2565b81146114f857600080fd5b50565b60008151905061150a816114e4565b92915050565b600060208284031215611526576115256111ea565b5b6000611534848285016114fb565b91505092915050565b6000819050919050565b600061156261155d61155884611257565b61153d565b611257565b9050919050565b600061157482611547565b9050919050565b600061158682611569565b9050919050565b6115968161157b565b82525050565b60006060820190506115b160008301866113ef565b6115be60208301856113ef565b6115cb604083018461158d565b949350505050565b60006040820190506115e860008301856113ef565b6115f5602083018461158d565b9392505050565b600060808201905061161160008301876114a8565b61161e60208301866113ef565b61162b60408301856113ef565b61163860608301846114a8565b95945050505050565b600080fd5b6000601f19601f8301169050919050565b7f4e487b7100000000000000000000000000000000000000000000000000000000600052604160045260246000fd5b61168f82611646565b810181811067ffffffffffffffff821117156116ae576116ad611657565b5b80604052505050565b60006116c16111e0565b90506116cd8282611686565b919050565b600067ffffffffffffffff8211156116ed576116ec611657565b5b602082029050602081019050919050565b600080fd5b600061170e82611277565b9050919050565b61171e81611703565b811461172957600080fd5b50565b60008151905061173b81611715565b92915050565b600061175461174f846116d2565b6116b7565b90508083825260208201905060208402830185811115611777576117766116fe565b5b835b818110156117a0578061178c888261172c565b845260208401935050602081019050611779565b5050509392505050565b600082601f8301126117bf576117be611641565b5b81516117cf848260208601611741565b91505092915050565b6000602082840312156117ee576117ed6111ea565b5b600082015167ffffffffffffffff81111561180c5761180b6111ef565b5b611818848285016117aa565b91505092915050565b600081519050919050565b600082825260208201905092915050565b6000819050602082019050919050565b600061185882611569565b9050919050565b6118688161184d565b82525050565b600061187a838361185f565b60208301905092915050565b6000602082019050919050565b600061189e82611821565b6118a8818561182c565b93506118b38361183d565b8060005b838110156118e45781516118cb888261186e565b97506118d683611886565b9250506001810190506118b7565b5085935050505092915050565b6000602082019050818103600083015261190b8184611893565b905092915050565b600061191e82611277565b9050919050565b61192e81611913565b811461193957600080fd5b50565b60008151905061194b81611925565b92915050565b600060208284031215611967576119666111ea565b5b60006119758482850161193c565b91505092915050565b600061198982611569565b9050919050565b6119998161197e565b82525050565b60006060820190506119b460008301866114a8565b6119c160208301856113ef565b6119ce6040830184611990565b949350505050565b600080fd5b6000815190506119ea816111fe565b92915050565b600060408284031215611a0657611a056119d6565b5b611a1060406116b7565b90506000611a20848285016119db565b6000830152506020611a34848285016119db565b60208301525092915050565b600060408284031215611a5657611a556111ea565b5b6000611a64848285016119f0565b91505092915050565b611a76816111f4565b82525050565b604082016000820151611a926000850182611a6d565b506020820151611aa56020850182611a6d565b50505050565b6000604082019050611ac06000830184611a7c565b92915050565b6000611ad182611277565b9050919050565b611ae181611ac6565b8114611aec57600080fd5b50565b600081519050611afe81611ad8565b92915050565b600060208284031215611b1a57611b196111ea565b5b6000611b2884828501611aef565b91505092915050565b6000611b3c82611569565b9050919050565b611b4c81611b31565b82525050565b6000608082019050611b6760008301876114a8565b611b7460208301866113ef565b611b8160408301856113ef565b611b8e6060830184611b43565b95945050505050565b600060a082019050611bac60008301886114a8565b611bb960208301876113ef565b611bc660408301866113ef565b611bd360608301856113ef565b611be060808301846113ef565b9695505050505050565b600081519050611bf981611289565b92915050565b600060808284031215611c1557611c146119d6565b5b611c1f60806116b7565b90506000611c2f848285016119db565b6000830152506020611c43848285016119db565b6020830152506040611c57848285016119db565b6040830152506060611c6b848285016119db565b60608301525092915050565b60006101c08284031215611c8e57611c8d6119d6565b5b611c9860a06116b7565b90506000611ca884828501611bea565b6000830152506020611cbc848285016119db565b6020830152506040611cd084828501611bff565b60408301525060c0611ce484828501611bff565b606083015250610140611cf984828501611bff565b60808301525092915050565b60006101c08284031215611d1c57611d1b6111ea565b5b6000611d2a84828501611c77565b91505092915050565b611d3c81611277565b82525050565b608082016000820151611d586000850182611a6d565b506020820151611d6b6020850182611a6d565b506040820151611d7e6040850182611a6d565b506060820151611d916060850182611a6d565b50505050565b6101c082016000820151611dae6000850182611d33565b506020820151611dc16020850182611a6d565b506040820151611dd46040850182611d42565b506060820151611de760c0850182611d42565b506080820151611dfb610140850182611d42565b50505050565b60006101c082019050611e176000830184611d97565b92915050565b600067ffffffffffffffff821115611e3857611e37611657565b5b602082029050602081019050919050565b600060808284031215611e5f57611e5e6119d6565b5b611e6960806116b7565b90506000611e79848285016119db565b6000830152506020611e8d848285016119db565b6020830152506040611ea1848285016119db565b6040830152506060611eb5848285016119db565b60608301525092915050565b60006102208284031215611ed857611ed76119d6565b5b611ee36101006116b7565b90506000611ef384828501611bea565b6000830152506020611f0784828501611e49565b60208301525060a0611f1b84828501611e49565b604083015250610120611f3084828501611e49565b6060830152506101a0611f45848285016119db565b6080830152506101c0611f5a848285016119db565b60a0830152506101e0611f6f848285016119db565b60c083015250610200611f84848285016119db565b60e08301525092915050565b6000611fa3611f9e84611e1d565b6116b7565b9050808382526020820190506102208402830185811115611fc757611fc66116fe565b5b835b81811015611ff15780611fdc8882611ec1565b84526020840193505061022081019050611fc9565b5050509392505050565b600082601f8301126120105761200f611641565b5b8151612020848260208601611f90565b91505092915050565b60006020828403121561203f5761203e6111ea565b5b600082015167ffffffffffffffff81111561205d5761205c6111ef565b5b61206984828501611ffb565b91505092915050565b600081519050919050565b600082825260208201905092915050565b6000819050602082019050919050565b6080820160008201516120b46000850182611a6d565b5060208201516120c76020850182611a6d565b5060408201516120da6040850182611a6d565b5060608201516120ed6060850182611a6d565b50505050565b6102208201600082015161210a6000850182611d33565b50602082015161211d602085018261209e565b50604082015161213060a085018261209e565b50606082015161214461012085018261209e565b5060808201516121586101a0850182611a6d565b5060a082015161216c6101c0850182611a6d565b5060c08201516121806101e0850182611a6d565b5060e0820151612194610200850182611a6d565b50505050565b60006121a683836120f3565b6102208301905092915050565b6000602082019050919050565b60006121cb82612072565b6121d5818561207d565b93506121e08361208e565b8060005b838110156122115781516121f8888261219a565b9750612203836121b3565b9250506001810190506121e4565b5085935050505092915050565b6000602082019050818103600083015261223881846121c0565b905092915050565b60006102208284031215612257576122566111ea565b5b600061226584828501611ec1565b91505092915050565b610220820160008201516122856000850182611d33565b506020820151612298602085018261209e565b5060408201516122ab60a085018261209e565b5060608201516122bf61012085018261209e565b5060808201516122d36101a0850182611a6d565b5060a08201516122e76101c0850182611a6d565b5060c08201516122fb6101e0850182611a6d565b5060e082015161230f610200850182611a6d565b50505050565b60006102208201905061232b600083018461226e565b92915050565b600060608201905061234660008301866114a8565b61235360208301856113ef565b61236060408301846113ef565b949350505050565b600067ffffffffffffffff82111561238357612382611657565b5b602082029050602081019050919050565b60006123a76123a284612368565b6116b7565b9050808382526020820190506101c084028301858111156123cb576123ca6116fe565b5b835b818110156123f557806123e08882611c77565b8452602084019350506101c0810190506123cd565b5050509392505050565b600082601f83011261241457612413611641565b5b8151612424848260208601612394565b91505092915050565b600060208284031215612443576124426111ea565b5b600082015167ffffffffffffffff811115612461576124606111ef565b5b61246d848285016123ff565b91505092915050565b600081519050919050565b600082825260208201905092915050565b6000819050602082019050919050565b6101c0820160008201516124b96000850182611d33565b5060208201516124cc6020850182611a6d565b5060408201516124df6040850182611d42565b5060608201516124f260c0850182611d42565b506080820151612506610140850182611d42565b50505050565b600061251883836124a2565b6101c08301905092915050565b6000602082019050919050565b600061253d82612476565b6125478185612481565b935061255283612492565b8060005b8381101561258357815161256a888261250c565b975061257583612525565b925050600181019050612556565b5085935050505092915050565b600060208201905081810360008301526125aa8184612532565b90509291505056fea2646970667358221220423b8b969a9e25ffd67f2290570b90af71e8cc55a3f03d8e28cf0d15e7aadfca64736f6c634300080d0033608060405234801561001057600080fd5b5061354e806100206000396000f3fe60806040523480156200001157600080fd5b5060043610620000ac5760003560e01c80638b0295de116200006f5780638b0295de14620001bf5780638c816a6314620001f5578063a9db4dd3146200022b578063ddba07a4146200024b578063ed7494ee146200026d57620000ac565b8063043be2e414620000b1578063191bcef614620000e7578063253dbcc8146200011d5780635ddd0a4314620001535780636b5eb09c1462000189575b600080fd5b620000cf6004803603810190620000c9919062001013565b620002a3565b604051620000de919062001185565b60405180910390f35b620001056004803603810190620000ff919062001013565b6200055c565b6040516200011491906200120e565b60405180910390f35b6200013b600480360381019062000135919062001013565b620005c4565b6040516200014a919062001248565b60405180910390f35b6200017160048036038101906200016b919062001296565b620007e2565b60405162000180919062001248565b60405180910390f35b620001a76004803603810190620001a1919062001013565b62000964565b604051620001b691906200120e565b60405180910390f35b620001dd6004803603810190620001d7919062001013565b62000997565b604051620001ec9190620013ea565b60405180910390f35b6200021360048036038101906200020d91906200140e565b62000a75565b60405162000222919062001248565b60405180910390f35b6200024960048036038101906200024391906200146a565b62000bf3565b005b6200025562000ccd565b60405162000264919062001667565b60405180910390f35b6200028b60048036038101906200028591906200168b565b62000eb1565b6040516200029a91906200120e565b60405180910390f35b620002ad62000ef1565b600073ffffffffffffffffffffffffffffffffffffffff166000808473ffffffffffffffffffffffffffffffffffffffff1673ffffffffffffffffffffffffffffffffffffffff16815260200190815260200160002060009054906101000a900473ffffffffffffffffffffffffffffffffffffffff1673ffffffffffffffffffffffffffffffffffffffff16036200040957604051806101000160405280600073ffffffffffffffffffffffffffffffffffffffff1681526020016040518060800160405280600081526020016000815260200160008152602001600081525081526020016040518060800160405280600081526020016000815260200160008152602001600081525081526020016040518060800160405280600081526020016000815260200160008152602001600081525081526020016000815260200160008152602001600081526020016000815250905062000557565b60008060008473ffffffffffffffffffffffffffffffffffffffff1673ffffffffffffffffffffffffffffffffffffffff16815260200190815260200160002060009054906101000a900473ffffffffffffffffffffffffffffffffffffffff1690506000806000806000806000808873ffffffffffffffffffffffffffffffffffffffff16635a9b0b896040518163ffffffff1660e01b815260040161022060405180830381865afa158015620004c5573d6000803e3d6000fd5b505050506040513d601f19601f82011682018060405250810190620004eb91906200180a565b975097509750975097509750975097506040518061010001604052808973ffffffffffffffffffffffffffffffffffffffff1681526020018881526020018781526020018681526020018581526020018481526020018381526020018281525099505050505050505050505b919050565b60008060008373ffffffffffffffffffffffffffffffffffffffff1673ffffffffffffffffffffffffffffffffffffffff16815260200190815260200160002060009054906101000a900473ffffffffffffffffffffffffffffffffffffffff169050919050565b60008073ffffffffffffffffffffffffffffffffffffffff166000808473ffffffffffffffffffffffffffffffffffffffff1673ffffffffffffffffffffffffffffffffffffffff16815260200190815260200160002060009054906101000a900473ffffffffffffffffffffffffffffffffffffffff1673ffffffffffffffffffffffffffffffffffffffff1614620006625760009050620007dd565b81604051620006719062000f64565b6200067d9190620018e9565b604051809103906000f0801580156200069a573d6000803e3d6000fd5b506000808473ffffffffffffffffffffffffffffffffffffffff1673ffffffffffffffffffffffffffffffffffffffff16815260200190815260200160002060006101000a81548173ffffffffffffffffffffffffffffffffffffffff021916908373ffffffffffffffffffffffffffffffffffffffff16021790555060016000808473ffffffffffffffffffffffffffffffffffffffff1673ffffffffffffffffffffffffffffffffffffffff16815260200190815260200160002060009054906101000a900473ffffffffffffffffffffffffffffffffffffffff169080600181540180825580915050600190039060005260206000200160009091909190916101000a81548173ffffffffffffffffffffffffffffffffffffffff021916908373ffffffffffffffffffffffffffffffffffffffff160217905550600190505b919050565b60008073ffffffffffffffffffffffffffffffffffffffff166000808773ffffffffffffffffffffffffffffffffffffffff1673ffffffffffffffffffffffffffffffffffffffff16815260200190815260200160002060009054906101000a900473ffffffffffffffffffffffffffffffffffffffff1673ffffffffffffffffffffffffffffffffffffffff16036200088057600090506200095c565b60008060008773ffffffffffffffffffffffffffffffffffffffff1673ffffffffffffffffffffffffffffffffffffffff16815260200190815260200160002060009054906101000a900473ffffffffffffffffffffffffffffffffffffffff1690508073ffffffffffffffffffffffffffffffffffffffff166329e7ac458686866040518463ffffffff1660e01b8152600401620009229392919062001917565b600060405180830381600087803b1580156200093d57600080fd5b505af115801562000952573d6000803e3d6000fd5b5050505060019150505b949350505050565b60006020528060005260406000206000915054906101000a900473ffffffffffffffffffffffffffffffffffffffff1681565b60606000808373ffffffffffffffffffffffffffffffffffffffff1673ffffffffffffffffffffffffffffffffffffffff16815260200190815260200160002060009054906101000a900473ffffffffffffffffffffffffffffffffffffffff1673ffffffffffffffffffffffffffffffffffffffff16638f00c3156040518163ffffffff1660e01b8152600401600060405180830381865afa15801562000a43573d6000803e3d6000fd5b505050506040513d6000823e3d601f19601f8201168201806040525081019062000a6e919062001a79565b9050919050565b60008073ffffffffffffffffffffffffffffffffffffffff166000808673ffffffffffffffffffffffffffffffffffffffff1673ffffffffffffffffffffffffffffffffffffffff16815260200190815260200160002060009054906101000a900473ffffffffffffffffffffffffffffffffffffffff1673ffffffffffffffffffffffffffffffffffffffff160362000b13576000905062000bec565b60008060008673ffffffffffffffffffffffffffffffffffffffff1673ffffffffffffffffffffffffffffffffffffffff16815260200190815260200160002060009054906101000a900473ffffffffffffffffffffffffffffffffffffffff1690508073ffffffffffffffffffffffffffffffffffffffff1662262b6c85856040518363ffffffff1660e01b815260040162000bb292919062001aca565b600060405180830381600087803b15801562000bcd57600080fd5b505af115801562000be2573d6000803e3d6000fd5b5050505060019150505b9392505050565b6000808673ffffffffffffffffffffffffffffffffffffffff1673ffffffffffffffffffffffffffffffffffffffff16815260200190815260200160002060009054906101000a900473ffffffffffffffffffffffffffffffffffffffff1673ffffffffffffffffffffffffffffffffffffffff1663d176dd45858585856040518563ffffffff1660e01b815260040162000c92949392919062001af7565b600060405180830381600087803b15801562000cad57600080fd5b505af115801562000cc2573d6000803e3d6000fd5b505050505050505050565b6060600060018054905067ffffffffffffffff81111562000cf35762000cf2620016ea565b5b60405190808252806020026020018201604052801562000d3057816020015b62000d1c62000ef1565b81526020019060019003908162000d125790505b50905060005b60018054905081101562000ea9576000806000806000806000806001898154811062000d675762000d6662001b44565b5b9060005260206000200160009054906101000a900473ffffffffffffffffffffffffffffffffffffffff1673ffffffffffffffffffffffffffffffffffffffff16635a9b0b896040518163ffffffff1660e01b815260040161022060405180830381865afa15801562000dde573d6000803e3d6000fd5b505050506040513d601f19601f8201168201806040525081019062000e0491906200180a565b9750975097509750975097509750975060006040518061010001604052808a73ffffffffffffffffffffffffffffffffffffffff168152602001898152602001888152602001878152602001868152602001858152602001848152602001838152509050808b8b8151811062000e7f5762000e7e62001b44565b5b6020026020010181905250505050505050505050808062000ea09062001ba2565b91505062000d36565b508091505090565b6001818154811062000ec257600080fd5b906000526020600020016000915054906101000a900473ffffffffffffffffffffffffffffffffffffffff1681565b604051806101000160405280600073ffffffffffffffffffffffffffffffffffffffff16815260200162000f2462000f72565b815260200162000f3362000f72565b815260200162000f4262000f72565b8152602001600081526020016000815260200160008152602001600081525090565b6119298062001bf083390190565b6040518060800160405280600081526020016000815260200160008152602001600081525090565b6000604051905090565b600080fd5b600080fd5b600073ffffffffffffffffffffffffffffffffffffffff82169050919050565b600062000fdb8262000fae565b9050919050565b62000fed8162000fce565b811462000ff957600080fd5b50565b6000813590506200100d8162000fe2565b92915050565b6000602082840312156200102c576200102b62000fa4565b5b60006200103c8482850162000ffc565b91505092915050565b620010508162000fce565b82525050565b6000819050919050565b6200106b8162001056565b82525050565b60808201600082015162001089600085018262001060565b5060208201516200109e602085018262001060565b506040820151620010b3604085018262001060565b506060820151620010c8606085018262001060565b50505050565b61022082016000820151620010e7600085018262001045565b506020820151620010fc602085018262001071565b5060408201516200111160a085018262001071565b5060608201516200112761012085018262001071565b5060808201516200113d6101a085018262001060565b5060a0820151620011536101c085018262001060565b5060c0820151620011696101e085018262001060565b5060e08201516200117f61020085018262001060565b50505050565b6000610220820190506200119d6000830184620010ce565b92915050565b6000819050919050565b6000620011ce620011c8620011c28462000fae565b620011a3565b62000fae565b9050919050565b6000620011e282620011ad565b9050919050565b6000620011f682620011d5565b9050919050565b6200120881620011e9565b82525050565b6000602082019050620012256000830184620011fd565b92915050565b60008115159050919050565b62001242816200122b565b82525050565b60006020820190506200125f600083018462001237565b92915050565b620012708162001056565b81146200127c57600080fd5b50565b600081359050620012908162001265565b92915050565b60008060008060808587031215620012b357620012b262000fa4565b5b6000620012c38782880162000ffc565b9450506020620012d6878288016200127f565b9350506040620012e9878288016200127f565b9250506060620012fc8782880162000ffc565b91505092959194509250565b600081519050919050565b600082825260208201905092915050565b6000819050602082019050919050565b60006200134182620011d5565b9050919050565b620013538162001334565b82525050565b600062001367838362001348565b60208301905092915050565b6000602082019050919050565b60006200138d8262001308565b62001399818562001313565b9350620013a68362001324565b8060005b83811015620013dd578151620013c1888262001359565b9750620013ce8362001373565b925050600181019050620013aa565b5085935050505092915050565b6000602082019050818103600083015262001406818462001380565b905092915050565b6000806000606084860312156200142a576200142962000fa4565b5b60006200143a8682870162000ffc565b93505060206200144d868287016200127f565b925050604062001460868287016200127f565b9150509250925092565b600080600080600060a0868803121562001489576200148862000fa4565b5b6000620014998882890162000ffc565b9550506020620014ac888289016200127f565b9450506040620014bf888289016200127f565b9350506060620014d2888289016200127f565b9250506080620014e5888289016200127f565b9150509295509295909350565b600081519050919050565b600082825260208201905092915050565b6000819050602082019050919050565b6102208201600082015162001537600085018262001045565b5060208201516200154c602085018262001071565b5060408201516200156160a085018262001071565b5060608201516200157761012085018262001071565b5060808201516200158d6101a085018262001060565b5060a0820151620015a36101c085018262001060565b5060c0820151620015b96101e085018262001060565b5060e0820151620015cf61020085018262001060565b50505050565b6000620015e383836200151e565b6102208301905092915050565b6000602082019050919050565b60006200160a82620014f2565b620016168185620014fd565b935062001623836200150e565b8060005b838110156200165a5781516200163e8882620015d5565b97506200164b83620015f0565b92505060018101905062001627565b5085935050505092915050565b60006020820190508181036000830152620016838184620015fd565b905092915050565b600060208284031215620016a457620016a362000fa4565b5b6000620016b4848285016200127f565b91505092915050565b600081519050620016ce8162000fe2565b92915050565b600080fd5b6000601f19601f8301169050919050565b7f4e487b7100000000000000000000000000000000000000000000000000000000600052604160045260246000fd5b6200172482620016d9565b810181811067ffffffffffffffff82111715620017465762001745620016ea565b5b80604052505050565b60006200175b62000f9a565b905062001769828262001719565b919050565b6000815190506200177f8162001265565b92915050565b6000608082840312156200179e576200179d620016d4565b5b620017aa60806200174f565b90506000620017bc848285016200176e565b6000830152506020620017d2848285016200176e565b6020830152506040620017e8848285016200176e565b6040830152506060620017fe848285016200176e565b60608301525092915050565b600080600080600080600080610220898b0312156200182e576200182d62000fa4565b5b60006200183e8b828c01620016bd565b9850506020620018518b828c0162001785565b97505060a0620018648b828c0162001785565b965050610120620018788b828c0162001785565b9550506101a06200188c8b828c016200176e565b9450506101c0620018a08b828c016200176e565b9350506101e0620018b48b828c016200176e565b925050610200620018c88b828c016200176e565b9150509295985092959890939650565b620018e38162000fce565b82525050565b6000602082019050620019006000830184620018d8565b92915050565b620019118162001056565b82525050565b60006060820190506200192e600083018662001906565b6200193d602083018562001906565b6200194c6040830184620018d8565b949350505050565b600080fd5b600067ffffffffffffffff821115620019775762001976620016ea565b5b602082029050602081019050919050565b600080fd5b60006200199a8262000fce565b9050919050565b620019ac816200198d565b8114620019b857600080fd5b50565b600081519050620019cc81620019a1565b92915050565b6000620019e9620019e38462001959565b6200174f565b9050808382526020820190506020840283018581111562001a0f5762001a0e62001988565b5b835b8181101562001a3c578062001a278882620019bb565b84526020840193505060208101905062001a11565b5050509392505050565b600082601f83011262001a5e5762001a5d62001954565b5b815162001a70848260208601620019d2565b91505092915050565b60006020828403121562001a925762001a9162000fa4565b5b600082015167ffffffffffffffff81111562001ab35762001ab262000fa9565b5b62001ac18482850162001a46565b91505092915050565b600060408201905062001ae1600083018562001906565b62001af0602083018462001906565b9392505050565b600060808201905062001b0e600083018762001906565b62001b1d602083018662001906565b62001b2c604083018562001906565b62001b3b606083018462001906565b95945050505050565b7f4e487b7100000000000000000000000000000000000000000000000000000000600052603260045260246000fd5b7f4e487b7100000000000000000000000000000000000000000000000000000000600052601160045260246000fd5b600062001baf8262001056565b91507fffffffffffffffffffffffffffffffffffffffffffffffffffffffffffffffff820362001be45762001be362001b73565b5b60018201905091905056fe60806040523480156200001157600080fd5b5060405162001929380380620019298339818101604052810190620000379190620000e8565b806000806101000a81548173ffffffffffffffffffffffffffffffffffffffff021916908373ffffffffffffffffffffffffffffffffffffffff160217905550506200011a565b600080fd5b600073ffffffffffffffffffffffffffffffffffffffff82169050919050565b6000620000b08262000083565b9050919050565b620000c281620000a3565b8114620000ce57600080fd5b50565b600081519050620000e281620000b7565b92915050565b6000602082840312156200010157620001006200007e565b5b60006200011184828501620000d1565b91505092915050565b6117ff806200012a6000396000f3fe60806040523480156200001157600080fd5b5060043610620000ab5760003560e01c80635fc50a2f116200006f5780635fc50a2f14620001855780638017b8d414620001bb5780638da5cb5b14620001db5780638f00c31514620001fd578063d176dd45146200021f57620000ab565b8062262b6c14620000b05780631b0e9bcd14620000d057806329e7ac4514620001065780634b58143e14620001265780635a9b0b89146200015c575b600080fd5b620000ce6004803603810190620000c89190620009b2565b6200023f565b005b620000ee6004803603810190620000e89190620009f9565b6200026f565b604051620000fd919062000a3c565b60405180910390f35b6200012460048036038101906200011e919062000abe565b62000287565b005b6200014460048036038101906200013e9190620009f9565b62000500565b60405162000153919062000a3c565b60405180910390f35b6200016662000518565b6040516200017c98979695949392919062000b99565b60405180910390f35b620001a360048036038101906200019d919062000abe565b620006d8565b604051620001b2919062000c49565b60405180910390f35b620001d96004803603810190620001d3919062000c66565b620007cc565b005b620001e562000866565b604051620001f4919062000cc2565b60405180910390f35b620002076200088a565b60405162000216919062000e07565b60405180910390f35b6200023d600480360381019062000237919062000e2b565b6200091a565b005b8060066000848152602001908152602001600020600082825462000264919062000ecc565b925050819055505050565b60086020528060005260406000206000915090505481565b81600560008373ffffffffffffffffffffffffffffffffffffffff1673ffffffffffffffffffffffffffffffffffffffff16815260200190815260200160002060008581526020019081526020016000205410156200031d576040517f08c379a0000000000000000000000000000000000000000000000000000000008152600401620003149062000f8a565b60405180910390fd5b81600560008373ffffffffffffffffffffffffffffffffffffffff1673ffffffffffffffffffffffffffffffffffffffff168152602001908152602001600020600085815260200190815260200160002060008282546200037f919062000fac565b9250508190555081600860008581526020019081526020016000206000828254620003ab919062000fac565b9250508190555060008060009054906101000a900473ffffffffffffffffffffffffffffffffffffffff16828585604051620003e7906200093c565b620003f6949392919062000fe7565b604051809103906000f08015801562000413573d6000803e3d6000fd5b50905082600760008373ffffffffffffffffffffffffffffffffffffffff1673ffffffffffffffffffffffffffffffffffffffff1681526020019081526020016000206000868152602001908152602001600020819055508260096000868152602001908152602001600020600082825462000490919062000ecc565b92505081905550600a819080600181540180825580915050600190039060005260206000200160009091909190916101000a81548173ffffffffffffffffffffffffffffffffffffffff021916908373ffffffffffffffffffffffffffffffffffffffff16021790555050505050565b60096020528060005260406000206000915090505481565b6000620005246200094a565b6200052e6200094a565b620005386200094a565b60008060008060008054906101000a900473ffffffffffffffffffffffffffffffffffffffff16604051806080016040528060066000600181526020019081526020016000205481526020016006600060028152602001908152602001600020548152602001600660006003815260200190815260200160002054815260200160066000600481526020019081526020016000205481525060405180608001604052806008600060018152602001908152602001600020548152602001600860006002815260200190815260200160002054815260200160086000600381526020019081526020016000205481526020016008600060048152602001908152602001600020548152506040518060800160405280600960006001815260200190815260200160002054815260200160096000600281526020019081526020016000205481526020016009600060038152602001908152602001600020548152602001600960006004815260200190815260200160002054815250600154600254600354600454975097509750975097509750975097509091929394959697565b600082600660008681526020019081526020016000205410620007c05782600560008473ffffffffffffffffffffffffffffffffffffffff1673ffffffffffffffffffffffffffffffffffffffff1681526020019081526020016000206000868152602001908152602001600020600082825462000757919062000ecc565b925050819055508260086000868152602001908152602001600020600082825462000783919062000ecc565b9250508190555082600660008681526020019081526020016000206000828254620007af919062000fac565b9250508190555060019050620007c5565b600090505b9392505050565b80600760008573ffffffffffffffffffffffffffffffffffffffff1673ffffffffffffffffffffffffffffffffffffffff168152602001908152602001600020600084815260200190815260200160002060008282546200082e919062000fac565b92505081905550806009600084815260200190815260200160002060008282546200085a919062000fac565b92505081905550505050565b60008054906101000a900473ffffffffffffffffffffffffffffffffffffffff1681565b6060600a8054806020026020016040519081016040528092919081815260200182805480156200091057602002820191906000526020600020905b8160009054906101000a900473ffffffffffffffffffffffffffffffffffffffff1673ffffffffffffffffffffffffffffffffffffffff1681526020019060010190808311620008c5575b5050505050905090565b8360018190555082600281905550816003819055508060048190555050505050565b610795806200103583390190565b6040518060800160405280600081526020016000815260200160008152602001600081525090565b600080fd5b6000819050919050565b6200098c8162000977565b81146200099857600080fd5b50565b600081359050620009ac8162000981565b92915050565b60008060408385031215620009cc57620009cb62000972565b5b6000620009dc858286016200099b565b9250506020620009ef858286016200099b565b9150509250929050565b60006020828403121562000a125762000a1162000972565b5b600062000a22848285016200099b565b91505092915050565b62000a368162000977565b82525050565b600060208201905062000a53600083018462000a2b565b92915050565b600073ffffffffffffffffffffffffffffffffffffffff82169050919050565b600062000a868262000a59565b9050919050565b62000a988162000a79565b811462000aa457600080fd5b50565b60008135905062000ab88162000a8d565b92915050565b60008060006060848603121562000ada5762000ad962000972565b5b600062000aea868287016200099b565b935050602062000afd868287016200099b565b925050604062000b108682870162000aa7565b9150509250925092565b62000b258162000a79565b82525050565b62000b368162000977565b82525050565b60808201600082015162000b54600085018262000b2b565b50602082015162000b69602085018262000b2b565b50604082015162000b7e604085018262000b2b565b50606082015162000b93606085018262000b2b565b50505050565b60006102208201905062000bb1600083018b62000b1a565b62000bc0602083018a62000b3c565b62000bcf60a083018962000b3c565b62000bdf61012083018862000b3c565b62000bef6101a083018762000a2b565b62000bff6101c083018662000a2b565b62000c0f6101e083018562000a2b565b62000c1f61020083018462000a2b565b9998505050505050505050565b60008115159050919050565b62000c438162000c2c565b82525050565b600060208201905062000c60600083018462000c38565b92915050565b60008060006060848603121562000c825762000c8162000972565b5b600062000c928682870162000aa7565b935050602062000ca5868287016200099b565b925050604062000cb8868287016200099b565b9150509250925092565b600060208201905062000cd9600083018462000b1a565b92915050565b600081519050919050565b600082825260208201905092915050565b6000819050602082019050919050565b6000819050919050565b600062000d3662000d3062000d2a8462000a59565b62000d0b565b62000a59565b9050919050565b600062000d4a8262000d15565b9050919050565b600062000d5e8262000d3d565b9050919050565b62000d708162000d51565b82525050565b600062000d84838362000d65565b60208301905092915050565b6000602082019050919050565b600062000daa8262000cdf565b62000db6818562000cea565b935062000dc38362000cfb565b8060005b8381101562000dfa57815162000dde888262000d76565b975062000deb8362000d90565b92505060018101905062000dc7565b5085935050505092915050565b6000602082019050818103600083015262000e23818462000d9d565b905092915050565b6000806000806080858703121562000e485762000e4762000972565b5b600062000e58878288016200099b565b945050602062000e6b878288016200099b565b935050604062000e7e878288016200099b565b925050606062000e91878288016200099b565b91505092959194509250565b7f4e487b7100000000000000000000000000000000000000000000000000000000600052601160045260246000fd5b600062000ed98262000977565b915062000ee68362000977565b9250827fffffffffffffffffffffffffffffffffffffffffffffffffffffffffffffffff0382111562000f1e5762000f1d62000e9d565b5b828201905092915050565b600082825260208201905092915050565b7f4f7264657220706c61636564206973206c657373000000000000000000000000600082015250565b600062000f7260148362000f29565b915062000f7f8262000f3a565b602082019050919050565b6000602082019050818103600083015262000fa58162000f63565b9050919050565b600062000fb98262000977565b915062000fc68362000977565b92508282101562000fdc5762000fdb62000e9d565b5b828203905092915050565b600060808201905062000ffe600083018762000b1a565b6200100d602083018662000b1a565b6200101c604083018562000a2b565b6200102b606083018462000a2b565b9594505050505056fe60806040526001600660006101000a81548160ff02191690831515021790555034801561002b57600080fd5b50604051610795380380610795833981810160405281019061004d919061017e565b836000806101000a81548173ffffffffffffffffffffffffffffffffffffffff021916908373ffffffffffffffffffffffffffffffffffffffff16021790555082600160006101000a81548173ffffffffffffffffffffffffffffffffffffffff021916908373ffffffffffffffffffffffffffffffffffffffff1602179055508160028190555080600381905550505050506101e5565b600080fd5b600073ffffffffffffffffffffffffffffffffffffffff82169050919050565b6000610115826100ea565b9050919050565b6101258161010a565b811461013057600080fd5b50565b6000815190506101428161011c565b92915050565b6000819050919050565b61015b81610148565b811461016657600080fd5b50565b60008151905061017881610152565b92915050565b60008060008060808587031215610198576101976100e5565b5b60006101a687828801610133565b94505060206101b787828801610133565b93505060406101c887828801610169565b92505060606101d987828801610169565b91505092959194509250565b6105a1806101f46000396000f3fe608060405234801561001057600080fd5b50600436106100575760003560e01c806310272d131461005c578063258b43d7146100665780634acc3a8e1461008257806356dcb0221461008c578063aae8107b146100a8575b600080fd5b6100646100c4565b005b610080600480360381019061007b91906102c8565b610181565b005b61008a61018b565b005b6100a660048036038101906100a1919061043b565b6101b7565b005b6100c260048036038101906100bd91906102c8565b6101d1565b005b6000600160009054906101000a900473ffffffffffffffffffffffffffffffffffffffff1690508073ffffffffffffffffffffffffffffffffffffffff1663750a49cc60025460035460008054906101000a900473ffffffffffffffffffffffffffffffffffffffff166040518463ffffffff1660e01b815260040161014c939291906104d4565b600060405180830381600087803b15801561016657600080fd5b505af115801561017a573d6000803e3d6000fd5b5050505050565b8060078190555050565b600660009054906101000a900460ff1615600660006101000a81548160ff021916908315150217905550565b80600490805190602001906101cd9291906101db565b5050565b8060058190555050565b8280546101e79061053a565b90600052602060002090601f0160209004810192826102095760008555610250565b82601f1061022257805160ff1916838001178555610250565b82800160010185558215610250579182015b8281111561024f578251825591602001919060010190610234565b5b50905061025d9190610261565b5090565b5b8082111561027a576000816000905550600101610262565b5090565b6000604051905090565b600080fd5b600080fd5b6000819050919050565b6102a581610292565b81146102b057600080fd5b50565b6000813590506102c28161029c565b92915050565b6000602082840312156102de576102dd610288565b5b60006102ec848285016102b3565b91505092915050565b600080fd5b600080fd5b6000601f19601f8301169050919050565b7f4e487b7100000000000000000000000000000000000000000000000000000000600052604160045260246000fd5b610348826102ff565b810181811067ffffffffffffffff8211171561036757610366610310565b5b80604052505050565b600061037a61027e565b9050610386828261033f565b919050565b600067ffffffffffffffff8211156103a6576103a5610310565b5b6103af826102ff565b9050602081019050919050565b82818337600083830152505050565b60006103de6103d98461038b565b610370565b9050828152602081018484840111156103fa576103f96102fa565b5b6104058482856103bc565b509392505050565b600082601f830112610422576104216102f5565b5b81356104328482602086016103cb565b91505092915050565b60006020828403121561045157610450610288565b5b600082013567ffffffffffffffff81111561046f5761046e61028d565b5b61047b8482850161040d565b91505092915050565b61048d81610292565b82525050565b600073ffffffffffffffffffffffffffffffffffffffff82169050919050565b60006104be82610493565b9050919050565b6104ce816104b3565b82525050565b60006060820190506104e96000830186610484565b6104f66020830185610484565b61050360408301846104c5565b949350505050565b7f4e487b7100000000000000000000000000000000000000000000000000000000600052602260045260246000fd5b6000600282049050600182168061055257607f821691505b6020821081036105655761056461050b565b5b5091905056fea2646970667358221220d52f890c657a1a0c8ab7378cfb2b9955adce8e53e506eba084cef4fa7802b0d164736f6c634300080d0033a2646970667358221220d6ee3ad7c81bfb9d3c4f3a9cb41c8cf52def993ca7d9397d27c2fde7c3017f1d64736f6c634300080d0033a26469706673582212203162aa4f3a779d479524a4f0a488a00a7c7845d5529eb26f2f6a188d9c742b1464736f6c634300080d00336080604052600160005534801561001557600080fd5b50612e3e806100256000396000f3fe60806040523480156200001157600080fd5b5060043610620000945760003560e01c806364efb22b116200006357806364efb22b1462000171578063722b037614620001a7578063973f612914620001dd578063e9523c9714620002135762000094565b80630402059514620000995780632761b8ad14620000cf578063429b62e5146200010557806357afa3e8146200013b575b600080fd5b620000b76004803603810190620000b1919062000dc7565b62000235565b604051620000c6919062000e16565b60405180910390f35b620000ed6004803603810190620000e7919062000eb3565b62000473565b604051620000fc919062000e16565b60405180910390f35b6200012360048036038101906200011d919062000dc7565b620005f4565b60405162000132919062000f7a565b60405180910390f35b62000159600480360381019062000153919062000fdc565b62000627565b60405162000168919062000e16565b60405180910390f35b6200018f600480360381019062000189919062000dc7565b620007ce565b6040516200019e919062000f7a565b60405180910390f35b620001c56004803603810190620001bf919062000dc7565b62000837565b604051620001d4919062001141565b60405180910390f35b620001fb6004803603810190620001f591906200115f565b62000abc565b6040516200020a919062000f7a565b60405180910390f35b6200021d62000afc565b6040516200022c9190620012c3565b60405180910390f35b60008073ffffffffffffffffffffffffffffffffffffffff16600160008473ffffffffffffffffffffffffffffffffffffffff1673ffffffffffffffffffffffffffffffffffffffff16815260200190815260200160002060009054906101000a900473ffffffffffffffffffffffffffffffffffffffff1673ffffffffffffffffffffffffffffffffffffffff1614620002d457600090506200046e565b60005482604051620002e69062000cc0565b620002f392919062001309565b604051809103906000f08015801562000310573d6000803e3d6000fd5b50600160008473ffffffffffffffffffffffffffffffffffffffff1673ffffffffffffffffffffffffffffffffffffffff16815260200190815260200160002060006101000a81548173ffffffffffffffffffffffffffffffffffffffff021916908373ffffffffffffffffffffffffffffffffffffffff160217905550600080815480929190620003a29062001365565b91905055506002600160008473ffffffffffffffffffffffffffffffffffffffff1673ffffffffffffffffffffffffffffffffffffffff16815260200190815260200160002060009054906101000a900473ffffffffffffffffffffffffffffffffffffffff169080600181540180825580915050600190039060005260206000200160009091909190916101000a81548173ffffffffffffffffffffffffffffffffffffffff021916908373ffffffffffffffffffffffffffffffffffffffff160217905550600190505b919050565b60008073ffffffffffffffffffffffffffffffffffffffff16600160008673ffffffffffffffffffffffffffffffffffffffff1673ffffffffffffffffffffffffffffffffffffffff16815260200190815260200160002060009054906101000a900473ffffffffffffffffffffffffffffffffffffffff1673ffffffffffffffffffffffffffffffffffffffff1603620005125760009050620005ed565b6000600160008673ffffffffffffffffffffffffffffffffffffffff1673ffffffffffffffffffffffffffffffffffffffff16815260200190815260200160002060009054906101000a900473ffffffffffffffffffffffffffffffffffffffff1690508073ffffffffffffffffffffffffffffffffffffffff166376c5249685856040518363ffffffff1660e01b8152600401620005b3929190620013d7565b600060405180830381600087803b158015620005ce57600080fd5b505af1158015620005e3573d6000803e3d6000fd5b5050505060019150505b9392505050565b60016020528060005260406000206000915054906101000a900473ffffffffffffffffffffffffffffffffffffffff1681565b60008073ffffffffffffffffffffffffffffffffffffffff16600160008773ffffffffffffffffffffffffffffffffffffffff1673ffffffffffffffffffffffffffffffffffffffff16815260200190815260200160002060009054906101000a900473ffffffffffffffffffffffffffffffffffffffff1673ffffffffffffffffffffffffffffffffffffffff1603620006c65760009050620007c6565b6000600160008773ffffffffffffffffffffffffffffffffffffffff1673ffffffffffffffffffffffffffffffffffffffff16815260200190815260200160002060009054906101000a900473ffffffffffffffffffffffffffffffffffffffff1690508073ffffffffffffffffffffffffffffffffffffffff166311fc3b4e8686866040518463ffffffff1660e01b8152600401620007699392919062001429565b6020604051808303816000875af115801562000789573d6000803e3d6000fd5b505050506040513d601f19601f82011682018060405250810190620007af919062001497565b15620007c0576001915050620007c6565b60009150505b949350505050565b6000600160008373ffffffffffffffffffffffffffffffffffffffff1673ffffffffffffffffffffffffffffffffffffffff16815260200190815260200160002060009054906101000a900473ffffffffffffffffffffffffffffffffffffffff169050919050565b6200084162000cce565b600073ffffffffffffffffffffffffffffffffffffffff16600160008473ffffffffffffffffffffffffffffffffffffffff1673ffffffffffffffffffffffffffffffffffffffff16815260200190815260200160002060009054906101000a900473ffffffffffffffffffffffffffffffffffffffff1673ffffffffffffffffffffffffffffffffffffffff160362000988576040518060a00160405280600073ffffffffffffffffffffffffffffffffffffffff1681526020016000815260200160405180608001604052806000815260200160008152602001600081526020016000815250815260200160405180608001604052806000815260200160008152602001600081526020016000815250815260200160405180608001604052806000815260200160008152602001600081526020016000815250815250905062000ab7565b6000600160008473ffffffffffffffffffffffffffffffffffffffff1673ffffffffffffffffffffffffffffffffffffffff16815260200190815260200160002060009054906101000a900473ffffffffffffffffffffffffffffffffffffffff16905060008060008060008573ffffffffffffffffffffffffffffffffffffffff16635a9b0b896040518163ffffffff1660e01b81526004016101c060405180830381865afa15801562000a41573d6000803e3d6000fd5b505050506040513d601f19601f8201168201806040525081019062000a67919062001616565b945094509450945094506040518060a001604052808673ffffffffffffffffffffffffffffffffffffffff1681526020018581526020018481526020018381526020018281525096505050505050505b919050565b6002818154811062000acd57600080fd5b906000526020600020016000915054906101000a900473ffffffffffffffffffffffffffffffffffffffff1681565b6060600060028054905067ffffffffffffffff81111562000b225762000b216200150d565b5b60405190808252806020026020018201604052801562000b5f57816020015b62000b4b62000cce565b81526020019060019003908162000b415790505b50905060005b60028054905081101562000cb85760008060008060006002868154811062000b925762000b91620016a0565b5b9060005260206000200160009054906101000a900473ffffffffffffffffffffffffffffffffffffffff1673ffffffffffffffffffffffffffffffffffffffff16635a9b0b896040518163ffffffff1660e01b81526004016101c060405180830381865afa15801562000c09573d6000803e3d6000fd5b505050506040513d601f19601f8201168201806040525081019062000c2f919062001616565b9450945094509450945060006040518060a001604052808773ffffffffffffffffffffffffffffffffffffffff1681526020018681526020018581526020018481526020018381525090508088888151811062000c915762000c90620016a0565b5b6020026020010181905250505050505050808062000caf9062001365565b91505062000b65565b508091505090565b61173980620016d083390190565b6040518060a00160405280600073ffffffffffffffffffffffffffffffffffffffff1681526020016000815260200162000d0762000d2b565b815260200162000d1662000d2b565b815260200162000d2562000d2b565b81525090565b6040518060800160405280600081526020016000815260200160008152602001600081525090565b6000604051905090565b600080fd5b600073ffffffffffffffffffffffffffffffffffffffff82169050919050565b600062000d8f8262000d62565b9050919050565b62000da18162000d82565b811462000dad57600080fd5b50565b60008135905062000dc18162000d96565b92915050565b60006020828403121562000de05762000ddf62000d5d565b5b600062000df08482850162000db0565b91505092915050565b60008115159050919050565b62000e108162000df9565b82525050565b600060208201905062000e2d600083018462000e05565b92915050565b6000819050919050565b62000e488162000e33565b811462000e5457600080fd5b50565b60008135905062000e688162000e3d565b92915050565b600062000e7b8262000d82565b9050919050565b62000e8d8162000e6e565b811462000e9957600080fd5b50565b60008135905062000ead8162000e82565b92915050565b60008060006060848603121562000ecf5762000ece62000d5d565b5b600062000edf8682870162000db0565b935050602062000ef28682870162000e57565b925050604062000f058682870162000e9c565b9150509250925092565b6000819050919050565b600062000f3a62000f3462000f2e8462000d62565b62000f0f565b62000d62565b9050919050565b600062000f4e8262000f19565b9050919050565b600062000f628262000f41565b9050919050565b62000f748162000f55565b82525050565b600060208201905062000f91600083018462000f69565b92915050565b600062000fa48262000d82565b9050919050565b62000fb68162000f97565b811462000fc257600080fd5b50565b60008135905062000fd68162000fab565b92915050565b6000806000806080858703121562000ff95762000ff862000d5d565b5b6000620010098782880162000db0565b94505060206200101c8782880162000e57565b93505060406200102f8782880162000e57565b9250506060620010428782880162000fc5565b91505092959194509250565b620010598162000d82565b82525050565b6200106a8162000e33565b82525050565b6080820160008201516200108860008501826200105f565b5060208201516200109d60208501826200105f565b506040820151620010b260408501826200105f565b506060820151620010c760608501826200105f565b50505050565b6101c082016000820151620010e660008501826200104e565b506020820151620010fb60208501826200105f565b50604082015162001110604085018262001070565b5060608201516200112560c085018262001070565b5060808201516200113b61014085018262001070565b50505050565b60006101c082019050620011596000830184620010cd565b92915050565b60006020828403121562001178576200117762000d5d565b5b6000620011888482850162000e57565b91505092915050565b600081519050919050565b600082825260208201905092915050565b6000819050602082019050919050565b6101c082016000820151620011d660008501826200104e565b506020820151620011eb60208501826200105f565b50604082015162001200604085018262001070565b5060608201516200121560c085018262001070565b5060808201516200122b61014085018262001070565b50505050565b60006200123f8383620011bd565b6101c08301905092915050565b6000602082019050919050565b6000620012668262001191565b6200127281856200119c565b93506200127f83620011ad565b8060005b83811015620012b65781516200129a888262001231565b9750620012a7836200124c565b92505060018101905062001283565b5085935050505092915050565b60006020820190508181036000830152620012df818462001259565b905092915050565b620012f28162000e33565b82525050565b620013038162000d82565b82525050565b6000604082019050620013206000830185620012e7565b6200132f6020830184620012f8565b9392505050565b7f4e487b7100000000000000000000000000000000000000000000000000000000600052601160045260246000fd5b6000620013728262000e33565b91507fffffffffffffffffffffffffffffffffffffffffffffffffffffffffffffffff8203620013a757620013a662001336565b5b600182019050919050565b6000620013bf8262000f41565b9050919050565b620013d181620013b2565b82525050565b6000604082019050620013ee6000830185620012e7565b620013fd6020830184620013c6565b9392505050565b6000620014118262000f41565b9050919050565b620014238162001404565b82525050565b6000606082019050620014406000830186620012e7565b6200144f6020830185620012e7565b6200145e604083018462001418565b949350505050565b620014718162000df9565b81146200147d57600080fd5b50565b600081519050620014918162001466565b92915050565b600060208284031215620014b057620014af62000d5d565b5b6000620014c08482850162001480565b91505092915050565b600081519050620014da8162000d96565b92915050565b600081519050620014f18162000e3d565b92915050565b600080fd5b6000601f19601f8301169050919050565b7f4e487b7100000000000000000000000000000000000000000000000000000000600052604160045260246000fd5b6200154782620014fc565b810181811067ffffffffffffffff821117156200156957620015686200150d565b5b80604052505050565b60006200157e62000d53565b90506200158c82826200153c565b919050565b600060808284031215620015aa57620015a9620014f7565b5b620015b6608062001572565b90506000620015c884828501620014e0565b6000830152506020620015de84828501620014e0565b6020830152506040620015f484828501620014e0565b60408301525060606200160a84828501620014e0565b60608301525092915050565b60008060008060006101c0868803121562001636576200163562000d5d565b5b60006200164688828901620014c9565b95505060206200165988828901620014e0565b94505060406200166c8882890162001591565b93505060c06200167f8882890162001591565b925050610140620016938882890162001591565b9150509295509295909350565b7f4e487b7100000000000000000000000000000000000000000000000000000000600052603260045260246000fdfe608060405260006007553480156200001657600080fd5b50604051620017393803806200173983398181016040528101906200003c919062000130565b806000806101000a81548173ffffffffffffffffffffffffffffffffffffffff021916908373ffffffffffffffffffffffffffffffffffffffff16021790555081600181905550505062000177565b600080fd5b6000819050919050565b620000a58162000090565b8114620000b157600080fd5b50565b600081519050620000c5816200009a565b92915050565b600073ffffffffffffffffffffffffffffffffffffffff82169050919050565b6000620000f882620000cb565b9050919050565b6200010a81620000eb565b81146200011657600080fd5b50565b6000815190506200012a81620000ff565b92915050565b600080604083850312156200014a57620001496200008b565b5b60006200015a85828601620000b4565b92505060206200016d8582860162000119565b9150509250929050565b6115b280620001876000396000f3fe608060405234801561001057600080fd5b50600436106100cf5760003560e01c8063750a49cc1161008c578063bcc0312c11610066578063bcc0312c14610228578063d3cc2e0d14610246578063f3a380d314610276578063fbbd38d914610292576100cf565b8063750a49cc146101d257806376c52496146101ee5780638da5cb5b1461020a576100cf565b806311fc3b4e146100d45780631b0e9bcd146101045780633c70d04a146101345780635a9b0b89146101645780636903b716146101865780636ee75c4e146101a2575b600080fd5b6100ee60048036038101906100e99190610e0d565b6102c2565b6040516100fb9190610e7b565b60405180910390f35b61011e60048036038101906101199190610e96565b61040f565b60405161012b9190610ed2565b60405180910390f35b61014e60048036038101906101499190610e96565b610427565b60405161015b9190610ed2565b60405180910390f35b61016c61043f565b60405161017d959493929190610f60565b60405180910390f35b6101a0600480360381019061019b9190610fb5565b6105e2565b005b6101bc60048036038101906101b79190611021565b6106c2565b6040516101c99190610ed2565b60405180910390f35b6101ec60048036038101906101e79190611061565b6106e7565b005b610208600480360381019061020391906110f2565b6108e6565b005b610212610aef565b60405161021f9190611132565b60405180910390f35b610230610b13565b60405161023d9190610ed2565b60405180910390f35b610260600480360381019061025b9190610e96565b610b1d565b60405161026d9190610ed2565b60405180910390f35b610290600480360381019061028b91906110f2565b610b35565b005b6102ac60048036038101906102a79190610e96565b610d22565b6040516102b99190610ed2565b60405180910390f35b60008173ffffffffffffffffffffffffffffffffffffffff16635fc50a2f858560008054906101000a900473ffffffffffffffffffffffffffffffffffffffff166040518463ffffffff1660e01b81526004016103219392919061114d565b6020604051808303816000875af1158015610340573d6000803e3d6000fd5b505050506040513d601f19601f8201168201806040525081019061036491906111b0565b156104035782600360008473ffffffffffffffffffffffffffffffffffffffff1673ffffffffffffffffffffffffffffffffffffffff168152602001908152602001600020600086815260200190815260200160002060008282546103c9919061120c565b92505081905550826005600086815260200190815260200160002060008282546103f3919061120c565b9250508190555060019050610408565b600090505b9392505050565b60056020528060005260406000206000915090505481565b60026020528060005260406000206000915090505481565b60008061044a610d3a565b610452610d3a565b61045a610d3a565b60008054906101000a900473ffffffffffffffffffffffffffffffffffffffff16600154604051806080016040528060026000600181526020019081526020016000205481526020016002600060028152602001908152602001600020548152602001600260006003815260200190815260200160002054815260200160026000600481526020019081526020016000205481525060405180608001604052806005600060018152602001908152602001600020548152602001600560006002815260200190815260200160002054815260200160056000600381526020019081526020016000205481526020016005600060048152602001908152602001600020548152506040518060800160405280600660006001815260200190815260200160002054815260200160066000600281526020019081526020016000205481526020016006600060038152602001908152602001600020548152602001600660006004815260200190815260200160002054815250945094509450945094509091929394565b6000600260008381526020019081526020016000205411610638576040517f08c379a000000000000000000000000000000000000000000000000000000000815260040161062f906112bf565b60405180910390fd5b600160026000838152602001908152602001600020600082825461065c91906112df565b9250508190555060016007600082825461067691906112df565b925050819055508060046000848152602001908152602001600020819055506006600082815260200190815260200160002060008154809291906106b990611313565b91905055505050565b6003602052816000526040600020602052806000526040600020600091509150505481565b6000600360008373ffffffffffffffffffffffffffffffffffffffff1673ffffffffffffffffffffffffffffffffffffffff1681526020019081526020016000206000858152602001908152602001600020540361077a576040517f08c379a0000000000000000000000000000000000000000000000000000000008152600401610771906113cd565b60405180910390fd5b81600360008373ffffffffffffffffffffffffffffffffffffffff1673ffffffffffffffffffffffffffffffffffffffff168152602001908152602001600020600085815260200190815260200160002054101561080d576040517f08c379a00000000000000000000000000000000000000000000000000000000081526004016108049061145f565b60405180910390fd5b81600260008581526020019081526020016000206000828254610830919061120c565b925050819055508160076000828254610849919061120c565b9250508190555081600360008373ffffffffffffffffffffffffffffffffffffffff1673ffffffffffffffffffffffffffffffffffffffff168152602001908152602001600020600085815260200190815260200160002060008282546108b091906112df565b92505081905550816005600085815260200190815260200160002060008282546108da91906112df565b92505081905550505050565b8073ffffffffffffffffffffffffffffffffffffffff166368e7ad366040518163ffffffff1660e01b8152600401600060405180830381600087803b15801561092e57600080fd5b505af1158015610942573d6000803e3d6000fd5b5050505060018173ffffffffffffffffffffffffffffffffffffffff1663eb8704736040518163ffffffff1660e01b8152600401602060405180830381865afa158015610993573d6000803e3d6000fd5b505050506040513d601f19601f820116820180604052508101906109b79190611494565b03610a3b578073ffffffffffffffffffffffffffffffffffffffff166354c3098460046000858152602001908152602001600020546040518263ffffffff1660e01b8152600401610a089190610ed2565b600060405180830381600087803b158015610a2257600080fd5b505af1158015610a36573d6000803e3d6000fd5b505050505b60006004600084815260200190815260200160002081905550600660008273ffffffffffffffffffffffffffffffffffffffff1663a846118b6040518163ffffffff1660e01b8152600401602060405180830381865afa158015610aa3573d6000803e3d6000fd5b505050506040513d601f19601f82011682018060405250810190610ac79190611494565b81526020019081526020016000206000815480929190610ae6906114c1565b91905055505050565b60008054906101000a900473ffffffffffffffffffffffffffffffffffffffff1681565b6000600154905090565b60066020528060005260406000206000915090505481565b60008173ffffffffffffffffffffffffffffffffffffffff1663eb8704736040518163ffffffff1660e01b8152600401602060405180830381865afa158015610b82573d6000803e3d6000fd5b505050506040513d601f19601f82011682018060405250810190610ba69190611494565b14610be6576040517f08c379a0000000000000000000000000000000000000000000000000000000008152600401610bdd9061155c565b60405180910390fd5b60008173ffffffffffffffffffffffffffffffffffffffff1663a846118b6040518163ffffffff1660e01b8152600401602060405180830381865afa158015610c33573d6000803e3d6000fd5b505050506040513d601f19601f82011682018060405250810190610c579190611494565b90506000600260008381526020019081526020016000205411610caf576040517f08c379a0000000000000000000000000000000000000000000000000000000008152600401610ca6906112bf565b60405180910390fd5b6001600260008381526020019081526020016000206000828254610cd391906112df565b92505081905550600160076000828254610ced91906112df565b92505081905550600660008281526020019081526020016000206000815480929190610d1890611313565b9190505550505050565b60046020528060005260406000206000915090505481565b6040518060800160405280600081526020016000815260200160008152602001600081525090565b600080fd5b6000819050919050565b610d7a81610d67565b8114610d8557600080fd5b50565b600081359050610d9781610d71565b92915050565b600073ffffffffffffffffffffffffffffffffffffffff82169050919050565b6000610dc882610d9d565b9050919050565b6000610dda82610dbd565b9050919050565b610dea81610dcf565b8114610df557600080fd5b50565b600081359050610e0781610de1565b92915050565b600080600060608486031215610e2657610e25610d62565b5b6000610e3486828701610d88565b9350506020610e4586828701610d88565b9250506040610e5686828701610df8565b9150509250925092565b60008115159050919050565b610e7581610e60565b82525050565b6000602082019050610e906000830184610e6c565b92915050565b600060208284031215610eac57610eab610d62565b5b6000610eba84828501610d88565b91505092915050565b610ecc81610d67565b82525050565b6000602082019050610ee76000830184610ec3565b92915050565b610ef681610dbd565b82525050565b610f0581610d67565b82525050565b608082016000820151610f216000850182610efc565b506020820151610f346020850182610efc565b506040820151610f476040850182610efc565b506060820151610f5a6060850182610efc565b50505050565b60006101c082019050610f766000830188610eed565b610f836020830187610ec3565b610f906040830186610f0b565b610f9d60c0830185610f0b565b610fab610140830184610f0b565b9695505050505050565b60008060408385031215610fcc57610fcb610d62565b5b6000610fda85828601610d88565b9250506020610feb85828601610d88565b9150509250929050565b610ffe81610dbd565b811461100957600080fd5b50565b60008135905061101b81610ff5565b92915050565b6000806040838503121561103857611037610d62565b5b60006110468582860161100c565b925050602061105785828601610d88565b9150509250929050565b60008060006060848603121561107a57611079610d62565b5b600061108886828701610d88565b935050602061109986828701610d88565b92505060406110aa8682870161100c565b9150509250925092565b60006110bf82610dbd565b9050919050565b6110cf816110b4565b81146110da57600080fd5b50565b6000813590506110ec816110c6565b92915050565b6000806040838503121561110957611108610d62565b5b600061111785828601610d88565b9250506020611128858286016110dd565b9150509250929050565b60006020820190506111476000830184610eed565b92915050565b60006060820190506111626000830186610ec3565b61116f6020830185610ec3565b61117c6040830184610eed565b949350505050565b61118d81610e60565b811461119857600080fd5b50565b6000815190506111aa81611184565b92915050565b6000602082840312156111c6576111c5610d62565b5b60006111d48482850161119b565b91505092915050565b7f4e487b7100000000000000000000000000000000000000000000000000000000600052601160045260246000fd5b600061121782610d67565b915061122283610d67565b9250827fffffffffffffffffffffffffffffffffffffffffffffffffffffffffffffffff03821115611257576112566111dd565b5b828201905092915050565b600082825260208201905092915050565b7f496e73756666696369656e742053746f636b7300000000000000000000000000600082015250565b60006112a9601383611262565b91506112b482611273565b602082019050919050565b600060208201905081810360008301526112d88161129c565b9050919050565b60006112ea82610d67565b91506112f583610d67565b925082821015611308576113076111dd565b5b828203905092915050565b600061131e82610d67565b91507fffffffffffffffffffffffffffffffffffffffffffffffffffffffffffffffff82036113505761134f6111dd565b5b600182019050919050565b7f4e6f206f7264657220686164206265656e20706c61636564207769746820746860008201527f6973206d616e7566616374757265720000000000000000000000000000000000602082015250565b60006113b7602f83611262565b91506113c28261135b565b604082019050919050565b600060208201905081810360008301526113e6816113aa565b9050919050565b7f4d6f7265207468616e206f7264657265642076616363696e657320686173206260008201527f65656e2072656365697665640000000000000000000000000000000000000000602082015250565b6000611449602c83611262565b9150611454826113ed565b604082019050919050565b600060208201905081810360008301526114788161143c565b9050919050565b60008151905061148e81610d71565b92915050565b6000602082840312156114aa576114a9610d62565b5b60006114b88482850161147f565b91505092915050565b60006114cc82610d67565b9150600082036114df576114de6111dd565b5b600182039050919050565b7f546869732063616e6e6f74206265207468652062656e6566696369617279207360008201527f65636f6e642076616363696e6500000000000000000000000000000000000000602082015250565b6000611546602d83611262565b9150611551826114ea565b604082019050919050565b6000602082019050818103600083015261157581611539565b905091905056fea2646970667358221220295a021b720fa8f4bc35b352d4b1ab2dfc7e45741624210527c0ecc987c4a07e64736f6c634300080d0033a2646970667358221220bcf1c635141a1c9aeedfce2c356d453a9ea4e618c1eaf096fdbd3ecf7f3b4a3564736f6c634300080d0033608060405234801561001057600080fd5b5061151b806100206000396000f3fe608060405234801561001057600080fd5b506004361061007d5760003560e01c8063339874d51161005b578063339874d51461011257806357d5b1c9146101425780639b7abde714610172578063efeb5e58146101a25761007d565b80630a9890251461008257806313b1a822146100b2578063302df083146100e2575b600080fd5b61009c600480360381019061009791906107d5565b6101d2565b6040516100a99190610881565b60405180910390f35b6100cc60048036038101906100c791906107d5565b610211565b6040516100d991906108b7565b60405180910390f35b6100fc60048036038101906100f791906107d5565b610304565b6040516101099190610881565b60405180910390f35b61012c60048036038101906101279190610922565b610340565b60405161013991906108b7565b60405180910390f35b61015c60048036038101906101579190610975565b610463565b60405161016991906108b7565b60405180910390f35b61018c600480360381019061018791906107d5565b610583565b60405161019991906109f3565b60405180910390f35b6101bc60048036038101906101b791906107d5565b610740565b6040516101c99190610881565b60405180910390f35b600181815481106101e257600080fd5b906000526020600020016000915054906101000a900473ffffffffffffffffffffffffffffffffffffffff1681565b60008073ffffffffffffffffffffffffffffffffffffffff1660008084815260200190815260200160002060009054906101000a900473ffffffffffffffffffffffffffffffffffffffff1673ffffffffffffffffffffffffffffffffffffffff16036102fa5760405161028490610773565b604051809103906000f0801580156102a0573d6000803e3d6000fd5b5060008084815260200190815260200160002060006101000a81548173ffffffffffffffffffffffffffffffffffffffff021916908373ffffffffffffffffffffffffffffffffffffffff160217905550600190506102ff565b600090505b919050565b600080600083815260200190815260200160002060009054906101000a900473ffffffffffffffffffffffffffffffffffffffff169050919050565b60008073ffffffffffffffffffffffffffffffffffffffff1660008086815260200190815260200160002060009054906101000a900473ffffffffffffffffffffffffffffffffffffffff1673ffffffffffffffffffffffffffffffffffffffff16036103b0576000905061045c565b600080600086815260200190815260200160002060009054906101000a900473ffffffffffffffffffffffffffffffffffffffff1690508073ffffffffffffffffffffffffffffffffffffffff1663dd4d1d8a8486886040518463ffffffff1660e01b815260040161042493929190610a3e565b600060405180830381600087803b15801561043e57600080fd5b505af1158015610452573d6000803e3d6000fd5b5050505060019150505b9392505050565b60008073ffffffffffffffffffffffffffffffffffffffff1660008085815260200190815260200160002060009054906101000a900473ffffffffffffffffffffffffffffffffffffffff1673ffffffffffffffffffffffffffffffffffffffff16036104d3576000905061057d565b600080600085815260200190815260200160002060009054906101000a900473ffffffffffffffffffffffffffffffffffffffff1690508073ffffffffffffffffffffffffffffffffffffffff166354056ed885856040518363ffffffff1660e01b8152600401610545929190610a75565b600060405180830381600087803b15801561055f57600080fd5b505af1158015610573573d6000803e3d6000fd5b5050505060019150505b92915050565b61058b610780565b600073ffffffffffffffffffffffffffffffffffffffff1660008084815260200190815260200160002060009054906101000a900473ffffffffffffffffffffffffffffffffffffffff1673ffffffffffffffffffffffffffffffffffffffff160361060f576040518060400160405280600a8152602001600a815250905061073b565b600080600084815260200190815260200160002060009054906101000a900473ffffffffffffffffffffffffffffffffffffffff16905060405180604001604052808273ffffffffffffffffffffffffffffffffffffffff1663a846118b6040518163ffffffff1660e01b8152600401602060405180830381865afa15801561069c573d6000803e3d6000fd5b505050506040513d601f19601f820116820180604052508101906106c09190610ab3565b81526020018273ffffffffffffffffffffffffffffffffffffffff1663eb8704736040518163ffffffff1660e01b8152600401602060405180830381865afa158015610710573d6000803e3d6000fd5b505050506040513d601f19601f820116820180604052508101906107349190610ab3565b8152509150505b919050565b60006020528060005260406000206000915054906101000a900473ffffffffffffffffffffffffffffffffffffffff1681565b610a0580610ae183390190565b604051806040016040528060008152602001600081525090565b600080fd5b6000819050919050565b6107b28161079f565b81146107bd57600080fd5b50565b6000813590506107cf816107a9565b92915050565b6000602082840312156107eb576107ea61079a565b5b60006107f9848285016107c0565b91505092915050565b600073ffffffffffffffffffffffffffffffffffffffff82169050919050565b6000819050919050565b600061084761084261083d84610802565b610822565b610802565b9050919050565b60006108598261082c565b9050919050565b600061086b8261084e565b9050919050565b61087b81610860565b82525050565b60006020820190506108966000830184610872565b92915050565b60008115159050919050565b6108b18161089c565b82525050565b60006020820190506108cc60008301846108a8565b92915050565b60006108dd82610802565b9050919050565b60006108ef826108d2565b9050919050565b6108ff816108e4565b811461090a57600080fd5b50565b60008135905061091c816108f6565b92915050565b60008060006060848603121561093b5761093a61079a565b5b6000610949868287016107c0565b935050602061095a868287016107c0565b925050604061096b8682870161090d565b9150509250925092565b6000806040838503121561098c5761098b61079a565b5b600061099a858286016107c0565b92505060206109ab8582860161090d565b9150509250929050565b6109be8161079f565b82525050565b6040820160008201516109da60008501826109b5565b5060208201516109ed60208501826109b5565b50505050565b6000604082019050610a0860008301846109c4565b92915050565b6000610a198261084e565b9050919050565b610a2981610a0e565b82525050565b610a388161079f565b82525050565b6000606082019050610a536000830186610a20565b610a606020830185610a2f565b610a6d6040830184610a2f565b949350505050565b6000604082019050610a8a6000830185610a2f565b610a976020830184610a20565b9392505050565b600081519050610aad816107a9565b92915050565b600060208284031215610ac957610ac861079a565b5b6000610ad784828501610a9e565b9150509291505056fe608060405260006002556000600360006101000a81548160ff02191690831515021790555034801561003057600080fd5b50336000806101000a81548173ffffffffffffffffffffffffffffffffffffffff021916908373ffffffffffffffffffffffffffffffffffffffff160217905550610985806100806000396000f3fe608060405234801561001057600080fd5b50600436106100a95760003560e01c8063a846118b11610071578063a846118b1461012c578063c2d468851461014a578063dd4d1d8a14610168578063eb87047314610184578063ecadbc04146101a2578063f0ab1986146101ac576100a9565b80632de40ce3146100ae57806354056ed8146100cc57806354c30984146100e857806368e7ad36146101045780638da5cb5b1461010e575b600080fd5b6100b66101ca565b6040516100c391906104d6565b60405180910390f35b6100e660048036038101906100e1919061059c565b6101dd565b005b61010260048036038101906100fd91906105dc565b6102c7565b005b61010c6102d1565b005b6101166102eb565b6040516101239190610618565b60405180910390f35b61013461030f565b6040516101419190610642565b60405180910390f35b610152610319565b60405161015f9190610642565b60405180910390f35b610182600480360381019061017d919061065d565b61031f565b005b61018c61047f565b6040516101999190610642565b60405180910390f35b6101aa610489565b005b6101b46104b5565b6040516101c19190610642565b60405180910390f35b600360009054906101000a900460ff1681565b60016002541480156101fc5750600360009054906101000a900460ff16155b61023b576040517f08c379a000000000000000000000000000000000000000000000000000000000815260040161023290610733565b60405180910390fd5b6001600360006101000a81548160ff0219169083151502179055508073ffffffffffffffffffffffffffffffffffffffff1663f3a380d383306040518363ffffffff1660e01b81526004016102919291906107b2565b600060405180830381600087803b1580156102ab57600080fd5b505af11580156102bf573d6000803e3d6000fd5b505050505050565b8060018190555050565b600260008154809291906102e49061080a565b9190505550565b60008054906101000a900473ffffffffffffffffffffffffffffffffffffffff1681565b6000600154905090565b60015481565b600060025414801561033e5750600360009054906101000a900460ff16155b61037d576040517f08c379a0000000000000000000000000000000000000000000000000000000008152600401610374906108c4565b60405180910390fd5b6001600360006101000a81548160ff0219169083151502179055508273ffffffffffffffffffffffffffffffffffffffff16636903b71682846040518363ffffffff1660e01b81526004016103d39291906108e4565b600060405180830381600087803b1580156103ed57600080fd5b505af1158015610401573d6000803e3d6000fd5b505050508273ffffffffffffffffffffffffffffffffffffffff1663bcc0312c6040518163ffffffff1660e01b8152600401602060405180830381865afa158015610450573d6000803e3d6000fd5b505050506040513d601f19601f820116820180604052508101906104749190610922565b600481905550505050565b6000600254905090565b600360009054906101000a900460ff1615600360006101000a81548160ff021916908315150217905550565b60025481565b60008115159050919050565b6104d0816104bb565b82525050565b60006020820190506104eb60008301846104c7565b92915050565b600080fd5b6000819050919050565b610509816104f6565b811461051457600080fd5b50565b60008135905061052681610500565b92915050565b600073ffffffffffffffffffffffffffffffffffffffff82169050919050565b60006105578261052c565b9050919050565b60006105698261054c565b9050919050565b6105798161055e565b811461058457600080fd5b50565b60008135905061059681610570565b92915050565b600080604083850312156105b3576105b26104f1565b5b60006105c185828601610517565b92505060206105d285828601610587565b9150509250929050565b6000602082840312156105f2576105f16104f1565b5b600061060084828501610517565b91505092915050565b6106128161054c565b82525050565b600060208201905061062d6000830184610609565b92915050565b61063c816104f6565b82525050565b60006020820190506106576000830184610633565b92915050565b600080600060608486031215610676576106756104f1565b5b600061068486828701610587565b935050602061069586828701610517565b92505060406106a686828701610517565b9150509250925092565b600082825260208201905092915050565b7f546869732062656e656669636961727920686173206e6f74206861766520697460008201527f7320666972737420646f7365206f662076616363696e65000000000000000000602082015250565b600061071d6037836106b0565b9150610728826106c1565b604082019050919050565b6000602082019050818103600083015261074c81610710565b9050919050565b6000819050919050565b600061077861077361076e8461052c565b610753565b61052c565b9050919050565b600061078a8261075d565b9050919050565b600061079c8261077f565b9050919050565b6107ac81610791565b82525050565b60006040820190506107c76000830185610633565b6107d460208301846107a3565b9392505050565b7f4e487b7100000000000000000000000000000000000000000000000000000000600052601160045260246000fd5b6000610815826104f6565b91507fffffffffffffffffffffffffffffffffffffffffffffffffffffffffffffffff8203610847576108466107db565b5b600182019050919050565b7f546869732062656e65666963696172792068617320616c72656164792068617660008201527f652069747320666972737420646f7365206f662076616363696e650000000000602082015250565b60006108ae603b836106b0565b91506108b982610852565b604082019050919050565b600060208201905081810360008301526108dd816108a1565b9050919050565b60006040820190506108f96000830185610633565b6109066020830184610633565b9392505050565b60008151905061091c81610500565b92915050565b600060208284031215610938576109376104f1565b5b60006109468482850161090d565b9150509291505056fea264697066735822122063c539b947664281034987399230e8b76d9111f780cfd63cc47b0df27d89f6ae64736f6c634300080d0033a2646970667358221220964f50baa7bcd32b433e3489dd71b716c7086712681714722d1855526c9c394c64736f6c634300080d0033",
  "immutableReferences": {},
  "source": "// SPDX-License-Identifier: MIT\r\n\r\npragma solidity ^0.8.13;\r\n\r\nimport \"./Manufacturers.sol\";\r\nimport \"./Beneficiaries.sol\";\r\nimport \"./Admins.sol\";\r\nimport \"./Delivery.sol\";\r\n\r\ncontract Actors {\r\n    Manufacturers manufacturer;\r\n    Admins admin;\r\n    Beneficiaries beneficiary;\r\n    address owner;\r\n\r\n    event Success(bool success);\r\n    event Address(address add);\r\n    event BeneficiaryInfo(Beneficiaries.beneficiaryInfo info);\r\n    event AllAdminsInfo(Admins.adminInfo[] arr);\r\n    event AdminInfo(Admins.adminInfo info);\r\n    event AllManufacturersInfo(Manufacturers.manufacturerInfo[] arr);\r\n    event ManufacturerInfo(Manufacturers.manufacturerInfo info);\r\n    event AllDeliveries(Delivery[] deliveries);\r\n    event AllOrders();\r\n\r\n    constructor() {\r\n        owner = msg.sender;\r\n        manufacturer = new Manufacturers();\r\n        admin = new Admins();\r\n        beneficiary = new Beneficiaries();\r\n    }\r\n\r\n    function createManufacturer() public {\r\n        emit Success(manufacturer.createManufacturer(msg.sender));\r\n    }\r\n\r\n    function createBenefeciary(uint256 _aadhar) public {\r\n        emit Success(beneficiary.createBenefeciary(_aadhar));\r\n    }\r\n\r\n    function createAdmin() public {\r\n        emit Success(admin.createAdmin(msg.sender));\r\n    }\r\n\r\n    function adminCreateOrder(\r\n        uint256 _vaccine,\r\n        uint256 _qty,\r\n        address _manufacturer\r\n    ) public {\r\n        emit Success(\r\n            admin.adminCreateOrder(\r\n                msg.sender,\r\n                _vaccine,\r\n                _qty,\r\n                manufacturer.getManufacturer(_manufacturer)\r\n            )\r\n        );\r\n    }\r\n\r\n    function adminVaccinationDone(uint256 _aadhar) public {\r\n        emit Success(\r\n            admin.adminVaccinationDone(\r\n                msg.sender,\r\n                _aadhar,\r\n                beneficiary.getBeneficiary(_aadhar)\r\n            )\r\n        );\r\n    }\r\n\r\n    function beneficiaryFirstVaccine(\r\n        uint256 _aadhar,\r\n        uint256 _vaccine,\r\n        address _admin\r\n    ) public {\r\n        emit Success(\r\n            beneficiary.beneficiaryFirstVaccine(\r\n                _aadhar,\r\n                _vaccine,\r\n                admin.getAdmin(_admin)\r\n            )\r\n        );\r\n    }\r\n\r\n    function beneficiarySecondVaccine(uint256 _aadhar, address _admin) public {\r\n        emit Success(\r\n            beneficiary.beneficiarySecondVaccine(\r\n                _aadhar,\r\n                admin.getAdmin(_admin)\r\n            )\r\n        );\r\n    }\r\n\r\n    function manufacturerAddStock(uint256 _vaccine, uint256 _qty) public {\r\n        emit Success(\r\n            manufacturer.manufacturerAddStock(msg.sender, _vaccine, _qty)\r\n        );\r\n    }\r\n\r\n    function manufacturerCreateDelivery(\r\n        uint256 vac,\r\n        uint256 qty,\r\n        address _admin\r\n    ) public {\r\n        emit Success(\r\n            manufacturer.manufacturerCreateDelivery(\r\n                msg.sender,\r\n                vac,\r\n                qty,\r\n                _admin\r\n            )\r\n        );\r\n    }\r\n\r\n    function getAllAdmins() public {\r\n        emit AllAdminsInfo(admin.getAllAdmins());\r\n    }\r\n\r\n    function getAllManufacturers() public {\r\n        emit AllManufacturersInfo(manufacturer.getAllManufacturers());\r\n    }\r\n\r\n    function getBeneficiaryInfo(uint256 _aadhar) public {\r\n        emit BeneficiaryInfo(beneficiary.getBeneficiaryInfo(_aadhar));\r\n    }\r\n\r\n    function getAdminInfo() public {\r\n        emit AdminInfo(admin.getAdminInfo(msg.sender));\r\n    }\r\n\r\n    function getManufacturerInfo() public {\r\n        emit ManufacturerInfo(manufacturer.getManufacturerInfo(msg.sender));\r\n    }\r\n\r\n    function getAllDeliveries() public {\r\n        emit AllDeliveries(manufacturer.getAllDeliveries(msg.sender));\r\n    }\r\n\r\n    function manufacturerSetPrice(uint a, uint b, uint c, uint d) public{\r\n        manufacturer.setPrice(msg.sender, a, b, c, d);\r\n    }\r\n}\r\n",
  "sourcePath": "C:\\Users\\mdzai\\Desktop\\VCSM-Blockchain\\contracts\\Actors.sol",
  "compiler": {
    "name": "solc",
    "version": "0.8.13+commit.abaa5c0e.Emscripten.clang"
  },
  "schemaVersion": "3.4.7",
  "updatedAt": "2022-04-25T07:01:26.415Z",
  "networkType": "ethereum",
  "devdoc": {
    "kind": "dev",
    "methods": {},
    "version": 1
  },
  "userdoc": {
    "kind": "user",
    "methods": {},
    "version": 1
  }
}