{
  "contractName": "Admin",
  "abi": [
    {
      "inputs": [],
      "stateMutability": "nonpayable",
      "type": "constructor"
    },
    {
      "inputs": [
        {
          "internalType": "uint256",
          "name": "",
          "type": "uint256"
        }
      ],
      "name": "available_stock",
      "outputs": [
        {
          "internalType": "uint256",
          "name": "",
          "type": "uint256"
        }
      ],
      "stateMutability": "view",
      "type": "function"
    },
    {
      "inputs": [
        {
          "internalType": "address",
          "name": "",
          "type": "address"
        },
        {
          "internalType": "uint256",
          "name": "",
          "type": "uint256"
        }
      ],
      "name": "ordered_stocks",
      "outputs": [
        {
          "internalType": "uint256",
          "name": "",
          "type": "uint256"
        }
      ],
      "stateMutability": "view",
      "type": "function"
    },
    {
      "inputs": [],
      "name": "owner",
      "outputs": [
        {
          "internalType": "address",
          "name": "",
          "type": "address"
        }
      ],
      "stateMutability": "view",
      "type": "function"
    },
    {
      "inputs": [
        {
          "internalType": "address",
          "name": "",
          "type": "address"
        }
      ],
      "name": "registered_stock",
      "outputs": [
        {
          "internalType": "uint256",
          "name": "",
          "type": "uint256"
        }
      ],
      "stateMutability": "view",
      "type": "function"
    },
    {
      "inputs": [
        {
          "internalType": "uint256",
          "name": "vac",
          "type": "uint256"
        },
        {
          "internalType": "uint256",
          "name": "qty",
          "type": "uint256"
        },
        {
          "internalType": "address",
          "name": "_manufacturer",
          "type": "address"
        }
      ],
      "name": "makeOrder",
      "outputs": [],
      "stateMutability": "nonpayable",
      "type": "function"
    },
    {
      "inputs": [
        {
          "internalType": "address",
          "name": "_beneficiary",
          "type": "address"
        },
        {
          "internalType": "uint256",
          "name": "_vaccine",
          "type": "uint256"
        }
      ],
      "name": "registerBeneficiaryFirstVaccine",
      "outputs": [],
      "stateMutability": "nonpayable",
      "type": "function"
    },
    {
      "inputs": [
        {
          "internalType": "address",
          "name": "_beneficiary",
          "type": "address"
        }
      ],
      "name": "registerBeneficiarySecondVaccine",
      "outputs": [],
      "stateMutability": "nonpayable",
      "type": "function"
    },
    {
      "inputs": [
        {
          "internalType": "address",
          "name": "_beneficiary",
          "type": "address"
        }
      ],
      "name": "vaccinationDone",
      "outputs": [],
      "stateMutability": "nonpayable",
      "type": "function"
    },
    {
      "inputs": [
        {
          "internalType": "uint256",
          "name": "_vaccine",
          "type": "uint256"
        },
        {
          "internalType": "uint256",
          "name": "qty",
          "type": "uint256"
        },
        {
          "internalType": "address",
          "name": "_manufacturer",
          "type": "address"
        }
      ],
      "name": "receivedVaccine",
      "outputs": [],
      "stateMutability": "nonpayable",
      "type": "function"
    },
    {
      "inputs": [],
      "name": "getInfo",
      "outputs": [
        {
          "internalType": "address",
          "name": "",
          "type": "address"
        },
        {
          "internalType": "uint256",
          "name": "",
          "type": "uint256"
        },
        {
          "internalType": "uint256",
          "name": "",
          "type": "uint256"
        },
        {
          "internalType": "uint256",
          "name": "",
          "type": "uint256"
        },
        {
          "internalType": "uint256",
          "name": "",
          "type": "uint256"
        },
        {
          "internalType": "uint256",
          "name": "",
          "type": "uint256"
        }
      ],
      "stateMutability": "view",
      "type": "function"
    }
  ],
  "bytecode": "0x6080604052600060055534801561001557600080fd5b50336000806101000a81548173ffffffffffffffffffffffffffffffffffffffff021916908373ffffffffffffffffffffffffffffffffffffffff160217905550611035806100656000396000f3fe608060405234801561001057600080fd5b506004361061009e5760003560e01c80636ee75c4e116100665780636ee75c4e1461015e578063750a49cc1461018e5780638da5cb5b146101aa578063e3ef418b146101c8578063fefd0e0b146101e45761009e565b806311fc3b4e146100a35780633867f1ec146100bf5780633c70d04a146100ef5780635a9b0b891461011f5780636730a63d14610142575b600080fd5b6100bd60048036038101906100b89190610af8565b610200565b005b6100d960048036038101906100d49190610b4b565b610301565b6040516100e69190610b87565b60405180910390f35b61010960048036038101906101049190610ba2565b610319565b6040516101169190610b87565b60405180910390f35b610127610331565b60405161013996959493929190610bde565b60405180910390f35b61015c60048036038101906101579190610b4b565b6103c6565b005b61017860048036038101906101739190610c3f565b61058f565b6040516101859190610b87565b60405180910390f35b6101a860048036038101906101a39190610af8565b6105b4565b005b6101b2610789565b6040516101bf9190610c7f565b60405180910390f35b6101e260048036038101906101dd9190610b4b565b6107ad565b005b6101fe60048036038101906101f99190610c3f565b61097c565b005b60008190508073ffffffffffffffffffffffffffffffffffffffff16635fc50a2f858560008054906101000a900473ffffffffffffffffffffffffffffffffffffffff166040518463ffffffff1660e01b815260040161026293929190610c9a565b600060405180830381600087803b15801561027c57600080fd5b505af1158015610290573d6000803e3d6000fd5b5050505082600360008473ffffffffffffffffffffffffffffffffffffffff1673ffffffffffffffffffffffffffffffffffffffff168152602001908152602001600020600086815260200190815260200160002060008282546102f49190610d00565b9250508190555050505050565b60046020528060005260406000206000915090505481565b60026020528060005260406000206000915090505481565b60008060008060008060008054906101000a900473ffffffffffffffffffffffffffffffffffffffff16600154600260006001815260200190815260200160002054600260006002815260200190815260200160002054600260006003815260200190815260200160002054600260006004815260200190815260200160002054955095509550955095509550909192939495565b600081905060008173ffffffffffffffffffffffffffffffffffffffff1663eb8704736040518163ffffffff1660e01b8152600401602060405180830381865afa158015610418573d6000803e3d6000fd5b505050506040513d601f19601f8201168201806040525081019061043c9190610d6b565b1461047c576040517f08c379a000000000000000000000000000000000000000000000000000000000815260040161047390610e1b565b60405180910390fd5b60008173ffffffffffffffffffffffffffffffffffffffff1663a846118b6040518163ffffffff1660e01b8152600401602060405180830381865afa1580156104c9573d6000803e3d6000fd5b505050506040513d601f19601f820116820180604052508101906104ed9190610d6b565b90506000600260008381526020019081526020016000205411610545576040517f08c379a000000000000000000000000000000000000000000000000000000000815260040161053c90610e87565b60405180910390fd5b60016002600083815260200190815260200160002060008282546105699190610ea7565b925050819055506001600560008282546105839190610ea7565b92505081905550505050565b6003602052816000526040600020602052806000526040600020600091509150505481565b6000600360008373ffffffffffffffffffffffffffffffffffffffff1673ffffffffffffffffffffffffffffffffffffffff16815260200190815260200160002060008581526020019081526020016000205403610647576040517f08c379a000000000000000000000000000000000000000000000000000000000815260040161063e90610f4d565b60405180910390fd5b81600360008373ffffffffffffffffffffffffffffffffffffffff1673ffffffffffffffffffffffffffffffffffffffff16815260200190815260200160002060008581526020019081526020016000205410156106da576040517f08c379a00000000000000000000000000000000000000000000000000000000081526004016106d190610fdf565b60405180910390fd5b816002600085815260200190815260200160002060008282546106fd9190610d00565b9250508190555081600560008282546107169190610d00565b9250508190555081600360008373ffffffffffffffffffffffffffffffffffffffff1673ffffffffffffffffffffffffffffffffffffffff1681526020019081526020016000206000858152602001908152602001600020600082825461077d9190610ea7565b92505081905550505050565b60008054906101000a900473ffffffffffffffffffffffffffffffffffffffff1681565b60008190508073ffffffffffffffffffffffffffffffffffffffff166368e7ad366040518163ffffffff1660e01b8152600401600060405180830381600087803b1580156107fa57600080fd5b505af115801561080e573d6000803e3d6000fd5b5050505060018173ffffffffffffffffffffffffffffffffffffffff1663eb8704736040518163ffffffff1660e01b8152600401602060405180830381865afa15801561085f573d6000803e3d6000fd5b505050506040513d601f19601f820116820180604052508101906108839190610d6b565b03610933578073ffffffffffffffffffffffffffffffffffffffff166354c30984600460008573ffffffffffffffffffffffffffffffffffffffff1673ffffffffffffffffffffffffffffffffffffffff168152602001908152602001600020546040518263ffffffff1660e01b81526004016109009190610b87565b600060405180830381600087803b15801561091a57600080fd5b505af115801561092e573d6000803e3d6000fd5b505050505b6000600460008473ffffffffffffffffffffffffffffffffffffffff1673ffffffffffffffffffffffffffffffffffffffff168152602001908152602001600020819055505050565b60006002600083815260200190815260200160002054116109d2576040517f08c379a00000000000000000000000000000000000000000000000000000000081526004016109c990610e87565b60405180910390fd5b60016002600083815260200190815260200160002060008282546109f69190610ea7565b92505081905550600160056000828254610a109190610ea7565b9250508190555080600460008473ffffffffffffffffffffffffffffffffffffffff1673ffffffffffffffffffffffffffffffffffffffff168152602001908152602001600020819055505050565b600080fd5b6000819050919050565b610a7781610a64565b8114610a8257600080fd5b50565b600081359050610a9481610a6e565b92915050565b600073ffffffffffffffffffffffffffffffffffffffff82169050919050565b6000610ac582610a9a565b9050919050565b610ad581610aba565b8114610ae057600080fd5b50565b600081359050610af281610acc565b92915050565b600080600060608486031215610b1157610b10610a5f565b5b6000610b1f86828701610a85565b9350506020610b3086828701610a85565b9250506040610b4186828701610ae3565b9150509250925092565b600060208284031215610b6157610b60610a5f565b5b6000610b6f84828501610ae3565b91505092915050565b610b8181610a64565b82525050565b6000602082019050610b9c6000830184610b78565b92915050565b600060208284031215610bb857610bb7610a5f565b5b6000610bc684828501610a85565b91505092915050565b610bd881610aba565b82525050565b600060c082019050610bf36000830189610bcf565b610c006020830188610b78565b610c0d6040830187610b78565b610c1a6060830186610b78565b610c276080830185610b78565b610c3460a0830184610b78565b979650505050505050565b60008060408385031215610c5657610c55610a5f565b5b6000610c6485828601610ae3565b9250506020610c7585828601610a85565b9150509250929050565b6000602082019050610c946000830184610bcf565b92915050565b6000606082019050610caf6000830186610b78565b610cbc6020830185610b78565b610cc96040830184610bcf565b949350505050565b7f4e487b7100000000000000000000000000000000000000000000000000000000600052601160045260246000fd5b6000610d0b82610a64565b9150610d1683610a64565b9250827fffffffffffffffffffffffffffffffffffffffffffffffffffffffffffffffff03821115610d4b57610d4a610cd1565b5b828201905092915050565b600081519050610d6581610a6e565b92915050565b600060208284031215610d8157610d80610a5f565b5b6000610d8f84828501610d56565b91505092915050565b600082825260208201905092915050565b7f546869732063616e6e6f74206265207468652062656e6566696369617279207360008201527f65636f6e642076616363696e6500000000000000000000000000000000000000602082015250565b6000610e05602d83610d98565b9150610e1082610da9565b604082019050919050565b60006020820190508181036000830152610e3481610df8565b9050919050565b7f496e73756666696369656e742053746f636b7300000000000000000000000000600082015250565b6000610e71601383610d98565b9150610e7c82610e3b565b602082019050919050565b60006020820190508181036000830152610ea081610e64565b9050919050565b6000610eb282610a64565b9150610ebd83610a64565b925082821015610ed057610ecf610cd1565b5b828203905092915050565b7f4e6f206f7264657220686164206265656e20706c61636564207769746820746860008201527f6973206d616e7566616374757265720000000000000000000000000000000000602082015250565b6000610f37602f83610d98565b9150610f4282610edb565b604082019050919050565b60006020820190508181036000830152610f6681610f2a565b9050919050565b7f4d6f7265207468616e206f7264657265642076616363696e657320686173206260008201527f65656e2072656365697665640000000000000000000000000000000000000000602082015250565b6000610fc9602c83610d98565b9150610fd482610f6d565b604082019050919050565b60006020820190508181036000830152610ff881610fbc565b905091905056fea2646970667358221220968032ba1ba17be5f5cdd3a42feb8f2bb37b12b2172e357a2c660e8415d347cd64736f6c634300080d0033",
  "immutableReferences": {},
  "source": "// SPDX-License-Identifier: MIT\r\n\r\npragma solidity ^0.8.13;\r\n\r\nimport \"./Manufacturer.sol\";\r\nimport \"./People.sol\";\r\n\r\ncontract Admin{\r\n    address public owner;\r\n\r\n    uint centre_no;\r\n    mapping(uint => uint) public available_stock;\r\n    mapping(address => mapping(uint => uint)) public ordered_stocks;\r\n    mapping(address => uint) public registered_stock;\r\n\r\n    uint totalVaccines = 0;\r\n\r\n    constructor(){\r\n        owner = msg.sender;\r\n    }\r\n\r\n    function makeOrder(uint vac, uint qty, address _manufacturer) public {\r\n        Manufacturer manuf = Manufacturer(_manufacturer);\r\n        manuf.receiveOrder(vac, qty, owner);\r\n        ordered_stocks[_manufacturer][vac] += qty;\r\n    }\r\n\r\n    function registerBeneficiaryFirstVaccine(address _beneficiary, uint _vaccine) public {\r\n        require(available_stock[_vaccine] > 0, \"Insufficient Stocks\");\r\n        available_stock[_vaccine] -= 1;\r\n        totalVaccines -= 1;\r\n        registered_stock[_beneficiary] = _vaccine;\r\n    }\r\n\r\n    function registerBeneficiarySecondVaccine(address _beneficiary) public {\r\n        People beneficiary = People(_beneficiary);\r\n        require(beneficiary.getNumOfDoses() == 0, \"This cannot be the beneficiary second vaccine\");\r\n        uint _vaccine = beneficiary.getVaccineType();\r\n        require(available_stock[_vaccine] > 0, \"Insufficient Stocks\");\r\n        available_stock[_vaccine] -= 1;\r\n        totalVaccines -= 1;\r\n    }\r\n\r\n    function vaccinationDone(address _beneficiary) public{\r\n        People beneficiary = People(_beneficiary);\r\n        beneficiary.increaseNumOfDoses();\r\n        if(beneficiary.getNumOfDoses() == 1)\r\n            beneficiary.setVaccineType(registered_stock[_beneficiary]);\r\n        registered_stock[_beneficiary] = 0;\r\n    }\r\n\r\n    function receivedVaccine(uint _vaccine, uint qty, address _manufacturer) public{\r\n        require(ordered_stocks[_manufacturer][_vaccine] != 0, \"No order had been placed with this manufacturer\");\r\n        require(ordered_stocks[_manufacturer][_vaccine] >= qty, \"More than ordered vaccines has been received\");\r\n        \r\n        available_stock[_vaccine] += qty;\r\n        totalVaccines += qty;\r\n        ordered_stocks[_manufacturer][_vaccine] -= qty;\r\n    }\r\n\r\n    function getInfo() public view returns(address, uint, uint, uint, uint, uint){\r\n        return(owner, centre_no, available_stock[1], available_stock[2], available_stock[3], available_stock[4]);\r\n    }\r\n}",
  "sourcePath": "C:\\Users\\mdzai\\Desktop\\VCSM-Blockchain\\contracts\\Admin.sol",
  "compiler": {
    "name": "solc",
    "version": "0.8.13+commit.abaa5c0e.Emscripten.clang"
  },
  "schemaVersion": "3.4.7",
  "updatedAt": "2022-04-19T04:11:46.046Z",
  "devdoc": {
    "kind": "dev",
    "methods": {},
    "version": 1
  },
  "userdoc": {
    "kind": "user",
    "methods": {},
    "version": 1
  }
}