{
  "contractName": "Admin",
  "abi": [
    {
      "inputs": [
        {
          "internalType": "uint256",
          "name": "n",
          "type": "uint256"
        },
        {
          "internalType": "address",
          "name": "add",
          "type": "address"
        }
      ],
      "stateMutability": "nonpayable",
      "type": "constructor"
    },
    {
      "inputs": [
        {
          "internalType": "uint256",
          "name": "",
          "type": "uint256"
        }
      ],
      "name": "available_stock",
      "outputs": [
        {
          "internalType": "uint256",
          "name": "",
          "type": "uint256"
        }
      ],
      "stateMutability": "view",
      "type": "function"
    },
    {
      "inputs": [
        {
          "internalType": "uint256",
          "name": "",
          "type": "uint256"
        }
      ],
      "name": "number_of_ordered_stocks",
      "outputs": [
        {
          "internalType": "uint256",
          "name": "",
          "type": "uint256"
        }
      ],
      "stateMutability": "view",
      "type": "function"
    },
    {
      "inputs": [
        {
          "internalType": "uint256",
          "name": "",
          "type": "uint256"
        }
      ],
      "name": "number_of_registered_stocks",
      "outputs": [
        {
          "internalType": "uint256",
          "name": "",
          "type": "uint256"
        }
      ],
      "stateMutability": "view",
      "type": "function"
    },
    {
      "inputs": [
        {
          "internalType": "address",
          "name": "",
          "type": "address"
        },
        {
          "internalType": "uint256",
          "name": "",
          "type": "uint256"
        }
      ],
      "name": "ordered_stocks",
      "outputs": [
        {
          "internalType": "uint256",
          "name": "",
          "type": "uint256"
        }
      ],
      "stateMutability": "view",
      "type": "function"
    },
    {
      "inputs": [],
      "name": "owner",
      "outputs": [
        {
          "internalType": "address",
          "name": "",
          "type": "address"
        }
      ],
      "stateMutability": "view",
      "type": "function"
    },
    {
      "inputs": [
        {
          "internalType": "uint256",
          "name": "",
          "type": "uint256"
        }
      ],
      "name": "registered_stock",
      "outputs": [
        {
          "internalType": "uint256",
          "name": "",
          "type": "uint256"
        }
      ],
      "stateMutability": "view",
      "type": "function"
    },
    {
      "inputs": [
        {
          "internalType": "uint256",
          "name": "vac",
          "type": "uint256"
        },
        {
          "internalType": "uint256",
          "name": "qty",
          "type": "uint256"
        },
        {
          "internalType": "contract Manufacturer",
          "name": "_manufacturer",
          "type": "address"
        }
      ],
      "name": "makeOrder",
      "outputs": [
        {
          "internalType": "bool",
          "name": "",
          "type": "bool"
        }
      ],
      "stateMutability": "nonpayable",
      "type": "function"
    },
    {
      "inputs": [
        {
          "internalType": "uint256",
          "name": "_aadhar",
          "type": "uint256"
        },
        {
          "internalType": "uint256",
          "name": "_vaccine",
          "type": "uint256"
        }
      ],
      "name": "registerBeneficiaryFirstVaccine",
      "outputs": [],
      "stateMutability": "nonpayable",
      "type": "function"
    },
    {
      "inputs": [
        {
          "internalType": "uint256",
          "name": "_aadhar",
          "type": "uint256"
        },
        {
          "internalType": "contract Beneficiary",
          "name": "_beneficiary",
          "type": "address"
        }
      ],
      "name": "registerBeneficiarySecondVaccine",
      "outputs": [],
      "stateMutability": "nonpayable",
      "type": "function"
    },
    {
      "inputs": [],
      "name": "getCenterNo",
      "outputs": [
        {
          "internalType": "uint256",
          "name": "",
          "type": "uint256"
        }
      ],
      "stateMutability": "view",
      "type": "function"
    },
    {
      "inputs": [
        {
          "internalType": "uint256",
          "name": "_aadhar",
          "type": "uint256"
        },
        {
          "internalType": "contract Beneficiary",
          "name": "_beneficiary",
          "type": "address"
        }
      ],
      "name": "vaccinationDone",
      "outputs": [],
      "stateMutability": "nonpayable",
      "type": "function"
    },
    {
      "inputs": [
        {
          "internalType": "uint256",
          "name": "_vaccine",
          "type": "uint256"
        },
        {
          "internalType": "uint256",
          "name": "qty",
          "type": "uint256"
        },
        {
          "internalType": "address",
          "name": "_manufacturer",
          "type": "address"
        }
      ],
      "name": "receivedVaccine",
      "outputs": [],
      "stateMutability": "nonpayable",
      "type": "function"
    },
    {
      "inputs": [],
      "name": "getInfo",
      "outputs": [
        {
          "internalType": "address",
          "name": "",
          "type": "address"
        },
        {
          "internalType": "uint256",
          "name": "",
          "type": "uint256"
        },
        {
          "components": [
            {
              "internalType": "uint256",
              "name": "a",
              "type": "uint256"
            },
            {
              "internalType": "uint256",
              "name": "b",
              "type": "uint256"
            },
            {
              "internalType": "uint256",
              "name": "c",
              "type": "uint256"
            },
            {
              "internalType": "uint256",
              "name": "d",
              "type": "uint256"
            }
          ],
          "internalType": "struct Admin.stocks",
          "name": "",
          "type": "tuple"
        },
        {
          "components": [
            {
              "internalType": "uint256",
              "name": "a",
              "type": "uint256"
            },
            {
              "internalType": "uint256",
              "name": "b",
              "type": "uint256"
            },
            {
              "internalType": "uint256",
              "name": "c",
              "type": "uint256"
            },
            {
              "internalType": "uint256",
              "name": "d",
              "type": "uint256"
            }
          ],
          "internalType": "struct Admin.stocks",
          "name": "",
          "type": "tuple"
        },
        {
          "components": [
            {
              "internalType": "uint256",
              "name": "a",
              "type": "uint256"
            },
            {
              "internalType": "uint256",
              "name": "b",
              "type": "uint256"
            },
            {
              "internalType": "uint256",
              "name": "c",
              "type": "uint256"
            },
            {
              "internalType": "uint256",
              "name": "d",
              "type": "uint256"
            }
          ],
          "internalType": "struct Admin.stocks",
          "name": "",
          "type": "tuple"
        }
      ],
      "stateMutability": "view",
      "type": "function"
    }
  ],
  "bytecode": "0x608060405260006007553480156200001657600080fd5b50604051620017393803806200173983398181016040528101906200003c919062000130565b806000806101000a81548173ffffffffffffffffffffffffffffffffffffffff021916908373ffffffffffffffffffffffffffffffffffffffff16021790555081600181905550505062000177565b600080fd5b6000819050919050565b620000a58162000090565b8114620000b157600080fd5b50565b600081519050620000c5816200009a565b92915050565b600073ffffffffffffffffffffffffffffffffffffffff82169050919050565b6000620000f882620000cb565b9050919050565b6200010a81620000eb565b81146200011657600080fd5b50565b6000815190506200012a81620000ff565b92915050565b600080604083850312156200014a57620001496200008b565b5b60006200015a85828601620000b4565b92505060206200016d8582860162000119565b9150509250929050565b6115b280620001876000396000f3fe608060405234801561001057600080fd5b50600436106100cf5760003560e01c8063750a49cc1161008c578063bcc0312c11610066578063bcc0312c14610228578063d3cc2e0d14610246578063f3a380d314610276578063fbbd38d914610292576100cf565b8063750a49cc146101d257806376c52496146101ee5780638da5cb5b1461020a576100cf565b806311fc3b4e146100d45780631b0e9bcd146101045780633c70d04a146101345780635a9b0b89146101645780636903b716146101865780636ee75c4e146101a2575b600080fd5b6100ee60048036038101906100e99190610e0d565b6102c2565b6040516100fb9190610e7b565b60405180910390f35b61011e60048036038101906101199190610e96565b61040f565b60405161012b9190610ed2565b60405180910390f35b61014e60048036038101906101499190610e96565b610427565b60405161015b9190610ed2565b60405180910390f35b61016c61043f565b60405161017d959493929190610f60565b60405180910390f35b6101a0600480360381019061019b9190610fb5565b6105e2565b005b6101bc60048036038101906101b79190611021565b6106c2565b6040516101c99190610ed2565b60405180910390f35b6101ec60048036038101906101e79190611061565b6106e7565b005b610208600480360381019061020391906110f2565b6108e6565b005b610212610aef565b60405161021f9190611132565b60405180910390f35b610230610b13565b60405161023d9190610ed2565b60405180910390f35b610260600480360381019061025b9190610e96565b610b1d565b60405161026d9190610ed2565b60405180910390f35b610290600480360381019061028b91906110f2565b610b35565b005b6102ac60048036038101906102a79190610e96565b610d22565b6040516102b99190610ed2565b60405180910390f35b60008173ffffffffffffffffffffffffffffffffffffffff16635fc50a2f858560008054906101000a900473ffffffffffffffffffffffffffffffffffffffff166040518463ffffffff1660e01b81526004016103219392919061114d565b6020604051808303816000875af1158015610340573d6000803e3d6000fd5b505050506040513d601f19601f8201168201806040525081019061036491906111b0565b156104035782600360008473ffffffffffffffffffffffffffffffffffffffff1673ffffffffffffffffffffffffffffffffffffffff168152602001908152602001600020600086815260200190815260200160002060008282546103c9919061120c565b92505081905550826005600086815260200190815260200160002060008282546103f3919061120c565b9250508190555060019050610408565b600090505b9392505050565b60056020528060005260406000206000915090505481565b60026020528060005260406000206000915090505481565b60008061044a610d3a565b610452610d3a565b61045a610d3a565b60008054906101000a900473ffffffffffffffffffffffffffffffffffffffff16600154604051806080016040528060026000600181526020019081526020016000205481526020016002600060028152602001908152602001600020548152602001600260006003815260200190815260200160002054815260200160026000600481526020019081526020016000205481525060405180608001604052806005600060018152602001908152602001600020548152602001600560006002815260200190815260200160002054815260200160056000600381526020019081526020016000205481526020016005600060048152602001908152602001600020548152506040518060800160405280600660006001815260200190815260200160002054815260200160066000600281526020019081526020016000205481526020016006600060038152602001908152602001600020548152602001600660006004815260200190815260200160002054815250945094509450945094509091929394565b6000600260008381526020019081526020016000205411610638576040517f08c379a000000000000000000000000000000000000000000000000000000000815260040161062f906112bf565b60405180910390fd5b600160026000838152602001908152602001600020600082825461065c91906112df565b9250508190555060016007600082825461067691906112df565b925050819055508060046000848152602001908152602001600020819055506006600082815260200190815260200160002060008154809291906106b990611313565b91905055505050565b6003602052816000526040600020602052806000526040600020600091509150505481565b6000600360008373ffffffffffffffffffffffffffffffffffffffff1673ffffffffffffffffffffffffffffffffffffffff1681526020019081526020016000206000858152602001908152602001600020540361077a576040517f08c379a0000000000000000000000000000000000000000000000000000000008152600401610771906113cd565b60405180910390fd5b81600360008373ffffffffffffffffffffffffffffffffffffffff1673ffffffffffffffffffffffffffffffffffffffff168152602001908152602001600020600085815260200190815260200160002054101561080d576040517f08c379a00000000000000000000000000000000000000000000000000000000081526004016108049061145f565b60405180910390fd5b81600260008581526020019081526020016000206000828254610830919061120c565b925050819055508160076000828254610849919061120c565b9250508190555081600360008373ffffffffffffffffffffffffffffffffffffffff1673ffffffffffffffffffffffffffffffffffffffff168152602001908152602001600020600085815260200190815260200160002060008282546108b091906112df565b92505081905550816005600085815260200190815260200160002060008282546108da91906112df565b92505081905550505050565b8073ffffffffffffffffffffffffffffffffffffffff166368e7ad366040518163ffffffff1660e01b8152600401600060405180830381600087803b15801561092e57600080fd5b505af1158015610942573d6000803e3d6000fd5b5050505060018173ffffffffffffffffffffffffffffffffffffffff1663eb8704736040518163ffffffff1660e01b8152600401602060405180830381865afa158015610993573d6000803e3d6000fd5b505050506040513d601f19601f820116820180604052508101906109b79190611494565b03610a3b578073ffffffffffffffffffffffffffffffffffffffff166354c3098460046000858152602001908152602001600020546040518263ffffffff1660e01b8152600401610a089190610ed2565b600060405180830381600087803b158015610a2257600080fd5b505af1158015610a36573d6000803e3d6000fd5b505050505b60006004600084815260200190815260200160002081905550600660008273ffffffffffffffffffffffffffffffffffffffff1663a846118b6040518163ffffffff1660e01b8152600401602060405180830381865afa158015610aa3573d6000803e3d6000fd5b505050506040513d601f19601f82011682018060405250810190610ac79190611494565b81526020019081526020016000206000815480929190610ae6906114c1565b91905055505050565b60008054906101000a900473ffffffffffffffffffffffffffffffffffffffff1681565b6000600154905090565b60066020528060005260406000206000915090505481565b60008173ffffffffffffffffffffffffffffffffffffffff1663eb8704736040518163ffffffff1660e01b8152600401602060405180830381865afa158015610b82573d6000803e3d6000fd5b505050506040513d601f19601f82011682018060405250810190610ba69190611494565b14610be6576040517f08c379a0000000000000000000000000000000000000000000000000000000008152600401610bdd9061155c565b60405180910390fd5b60008173ffffffffffffffffffffffffffffffffffffffff1663a846118b6040518163ffffffff1660e01b8152600401602060405180830381865afa158015610c33573d6000803e3d6000fd5b505050506040513d601f19601f82011682018060405250810190610c579190611494565b90506000600260008381526020019081526020016000205411610caf576040517f08c379a0000000000000000000000000000000000000000000000000000000008152600401610ca6906112bf565b60405180910390fd5b6001600260008381526020019081526020016000206000828254610cd391906112df565b92505081905550600160076000828254610ced91906112df565b92505081905550600660008281526020019081526020016000206000815480929190610d1890611313565b9190505550505050565b60046020528060005260406000206000915090505481565b6040518060800160405280600081526020016000815260200160008152602001600081525090565b600080fd5b6000819050919050565b610d7a81610d67565b8114610d8557600080fd5b50565b600081359050610d9781610d71565b92915050565b600073ffffffffffffffffffffffffffffffffffffffff82169050919050565b6000610dc882610d9d565b9050919050565b6000610dda82610dbd565b9050919050565b610dea81610dcf565b8114610df557600080fd5b50565b600081359050610e0781610de1565b92915050565b600080600060608486031215610e2657610e25610d62565b5b6000610e3486828701610d88565b9350506020610e4586828701610d88565b9250506040610e5686828701610df8565b9150509250925092565b60008115159050919050565b610e7581610e60565b82525050565b6000602082019050610e906000830184610e6c565b92915050565b600060208284031215610eac57610eab610d62565b5b6000610eba84828501610d88565b91505092915050565b610ecc81610d67565b82525050565b6000602082019050610ee76000830184610ec3565b92915050565b610ef681610dbd565b82525050565b610f0581610d67565b82525050565b608082016000820151610f216000850182610efc565b506020820151610f346020850182610efc565b506040820151610f476040850182610efc565b506060820151610f5a6060850182610efc565b50505050565b60006101c082019050610f766000830188610eed565b610f836020830187610ec3565b610f906040830186610f0b565b610f9d60c0830185610f0b565b610fab610140830184610f0b565b9695505050505050565b60008060408385031215610fcc57610fcb610d62565b5b6000610fda85828601610d88565b9250506020610feb85828601610d88565b9150509250929050565b610ffe81610dbd565b811461100957600080fd5b50565b60008135905061101b81610ff5565b92915050565b6000806040838503121561103857611037610d62565b5b60006110468582860161100c565b925050602061105785828601610d88565b9150509250929050565b60008060006060848603121561107a57611079610d62565b5b600061108886828701610d88565b935050602061109986828701610d88565b92505060406110aa8682870161100c565b9150509250925092565b60006110bf82610dbd565b9050919050565b6110cf816110b4565b81146110da57600080fd5b50565b6000813590506110ec816110c6565b92915050565b6000806040838503121561110957611108610d62565b5b600061111785828601610d88565b9250506020611128858286016110dd565b9150509250929050565b60006020820190506111476000830184610eed565b92915050565b60006060820190506111626000830186610ec3565b61116f6020830185610ec3565b61117c6040830184610eed565b949350505050565b61118d81610e60565b811461119857600080fd5b50565b6000815190506111aa81611184565b92915050565b6000602082840312156111c6576111c5610d62565b5b60006111d48482850161119b565b91505092915050565b7f4e487b7100000000000000000000000000000000000000000000000000000000600052601160045260246000fd5b600061121782610d67565b915061122283610d67565b9250827fffffffffffffffffffffffffffffffffffffffffffffffffffffffffffffffff03821115611257576112566111dd565b5b828201905092915050565b600082825260208201905092915050565b7f496e73756666696369656e742053746f636b7300000000000000000000000000600082015250565b60006112a9601383611262565b91506112b482611273565b602082019050919050565b600060208201905081810360008301526112d88161129c565b9050919050565b60006112ea82610d67565b91506112f583610d67565b925082821015611308576113076111dd565b5b828203905092915050565b600061131e82610d67565b91507fffffffffffffffffffffffffffffffffffffffffffffffffffffffffffffffff82036113505761134f6111dd565b5b600182019050919050565b7f4e6f206f7264657220686164206265656e20706c61636564207769746820746860008201527f6973206d616e7566616374757265720000000000000000000000000000000000602082015250565b60006113b7602f83611262565b91506113c28261135b565b604082019050919050565b600060208201905081810360008301526113e6816113aa565b9050919050565b7f4d6f7265207468616e206f7264657265642076616363696e657320686173206260008201527f65656e2072656365697665640000000000000000000000000000000000000000602082015250565b6000611449602c83611262565b9150611454826113ed565b604082019050919050565b600060208201905081810360008301526114788161143c565b9050919050565b60008151905061148e81610d71565b92915050565b6000602082840312156114aa576114a9610d62565b5b60006114b88482850161147f565b91505092915050565b60006114cc82610d67565b9150600082036114df576114de6111dd565b5b600182039050919050565b7f546869732063616e6e6f74206265207468652062656e6566696369617279207360008201527f65636f6e642076616363696e6500000000000000000000000000000000000000602082015250565b6000611546602d83611262565b9150611551826114ea565b604082019050919050565b6000602082019050818103600083015261157581611539565b905091905056fea26469706673582212203fa2dea796d847fc46930d36e69a00279954af714dc9c99f74ebe638215abbbf64736f6c634300080d0033",
  "immutableReferences": {},
  "source": "// SPDX-License-Identifier: MIT\r\n\r\npragma solidity ^0.8.13;\r\n\r\nimport \"./Manufacturer.sol\";\r\nimport \"./Manufacturers.sol\";\r\nimport \"./Beneficiary.sol\";\r\n\r\ncontract Admin {\r\n    address public owner;\r\n\r\n    uint256 centre_no;\r\n    mapping(uint256 => uint256) public available_stock;\r\n    mapping(address => mapping(uint256 => uint256)) public ordered_stocks;\r\n    mapping(uint256 => uint256) public registered_stock;\r\n    mapping(uint256 => uint256) public number_of_ordered_stocks;\r\n    mapping(uint256 => uint256) public number_of_registered_stocks;\r\n    struct stocks {\r\n        uint256 a;\r\n        uint256 b;\r\n        uint256 c;\r\n        uint256 d;\r\n    }\r\n\r\n    uint256 totalVaccines = 0;\r\n\r\n    constructor(uint256 n, address add) {\r\n        owner = add;\r\n        centre_no = n;\r\n    }\r\n\r\n    function makeOrder(\r\n        uint256 vac,\r\n        uint256 qty,\r\n        Manufacturer _manufacturer\r\n    ) public returns (bool) {\r\n        if (_manufacturer.receiveOrder(vac, qty, owner)) {\r\n            ordered_stocks[address(_manufacturer)][vac] += qty;\r\n            number_of_ordered_stocks[vac] += qty;\r\n            return true;\r\n        } else {\r\n            return false;\r\n        }\r\n    }\r\n\r\n    function registerBeneficiaryFirstVaccine(uint256 _aadhar, uint256 _vaccine)\r\n        public\r\n    {\r\n        require(available_stock[_vaccine] > 0, \"Insufficient Stocks\");\r\n        available_stock[_vaccine] -= 1;\r\n        totalVaccines -= 1;\r\n        registered_stock[_aadhar] = _vaccine;\r\n        number_of_registered_stocks[_vaccine]++;\r\n    }\r\n\r\n    function registerBeneficiarySecondVaccine(uint _aadhar, Beneficiary _beneficiary) public {\r\n        require(\r\n            _beneficiary.getNumOfDoses() == 0,\r\n            \"This cannot be the beneficiary second vaccine\"\r\n        );\r\n        uint256 _vaccine = _beneficiary.getVaccineType();\r\n        require(available_stock[_vaccine] > 0, \"Insufficient Stocks\");\r\n        available_stock[_vaccine] -= 1;\r\n        totalVaccines -= 1;\r\n        number_of_registered_stocks[_vaccine]++;\r\n    }\r\n\r\n    function getCenterNo() public view returns(uint){\r\n        return centre_no;\r\n    }\r\n\r\n    function vaccinationDone(uint _aadhar, Beneficiary _beneficiary) public {\r\n        _beneficiary.increaseNumOfDoses();\r\n        if (_beneficiary.getNumOfDoses() == 1)\r\n            _beneficiary.setVaccineType(registered_stock[_aadhar]);\r\n        registered_stock[_aadhar] = 0;\r\n        number_of_registered_stocks[_beneficiary.getVaccineType()]--;\r\n    }\r\n\r\n    function receivedVaccine(\r\n        uint256 _vaccine,\r\n        uint256 qty,\r\n        address _manufacturer\r\n    ) public {\r\n        require(\r\n            ordered_stocks[_manufacturer][_vaccine] != 0,\r\n            \"No order had been placed with this manufacturer\"\r\n        );\r\n        require(\r\n            ordered_stocks[_manufacturer][_vaccine] >= qty,\r\n            \"More than ordered vaccines has been received\"\r\n        );\r\n        available_stock[_vaccine] += qty;\r\n        totalVaccines += qty;\r\n        ordered_stocks[_manufacturer][_vaccine] -= qty;\r\n        number_of_ordered_stocks[_vaccine] -= qty;\r\n    }\r\n\r\n    function getInfo()\r\n        public\r\n        view\r\n        returns (\r\n            address,\r\n            uint256,\r\n            stocks memory,\r\n            stocks memory,\r\n            stocks memory\r\n        )\r\n    {\r\n        return (\r\n            owner,\r\n            centre_no,\r\n            stocks(\r\n                available_stock[1],\r\n                available_stock[2],\r\n                available_stock[3],\r\n                available_stock[4]\r\n            ),\r\n            stocks(\r\n                number_of_ordered_stocks[1],\r\n                number_of_ordered_stocks[2],\r\n                number_of_ordered_stocks[3],\r\n                number_of_ordered_stocks[4]\r\n            ),\r\n            stocks(\r\n                number_of_registered_stocks[1],\r\n                number_of_registered_stocks[2],\r\n                number_of_registered_stocks[3],\r\n                number_of_registered_stocks[4]\r\n            )\r\n        );\r\n    }\r\n}\r\n",
  "sourcePath": "C:\\Users\\mdzai\\Desktop\\VCSM-Blockchain\\contracts\\Admin.sol",
  "compiler": {
    "name": "solc",
    "version": "0.8.13+commit.abaa5c0e.Emscripten.clang"
  },
  "schemaVersion": "3.4.7",
  "updatedAt": "2022-04-25T17:15:04.773Z",
  "devdoc": {
    "kind": "dev",
    "methods": {},
    "version": 1
  },
  "userdoc": {
    "kind": "user",
    "methods": {},
    "version": 1
  }
}