{
  "contractName": "Admin",
  "abi": [
    {
      "inputs": [
        {
          "internalType": "uint256",
          "name": "n",
          "type": "uint256"
        },
        {
          "internalType": "address",
          "name": "add",
          "type": "address"
        }
      ],
      "stateMutability": "nonpayable",
      "type": "constructor"
    },
    {
      "inputs": [
        {
          "internalType": "uint256",
          "name": "",
          "type": "uint256"
        }
      ],
      "name": "available_stock",
      "outputs": [
        {
          "internalType": "uint256",
          "name": "",
          "type": "uint256"
        }
      ],
      "stateMutability": "view",
      "type": "function"
    },
    {
      "inputs": [
        {
          "internalType": "uint256",
          "name": "",
          "type": "uint256"
        }
      ],
      "name": "number_of_ordered_stocks",
      "outputs": [
        {
          "internalType": "uint256",
          "name": "",
          "type": "uint256"
        }
      ],
      "stateMutability": "view",
      "type": "function"
    },
    {
      "inputs": [
        {
          "internalType": "uint256",
          "name": "",
          "type": "uint256"
        }
      ],
      "name": "number_of_registered_stocks",
      "outputs": [
        {
          "internalType": "uint256",
          "name": "",
          "type": "uint256"
        }
      ],
      "stateMutability": "view",
      "type": "function"
    },
    {
      "inputs": [
        {
          "internalType": "address",
          "name": "",
          "type": "address"
        },
        {
          "internalType": "uint256",
          "name": "",
          "type": "uint256"
        }
      ],
      "name": "ordered_stocks",
      "outputs": [
        {
          "internalType": "uint256",
          "name": "",
          "type": "uint256"
        }
      ],
      "stateMutability": "view",
      "type": "function"
    },
    {
      "inputs": [],
      "name": "owner",
      "outputs": [
        {
          "internalType": "address",
          "name": "",
          "type": "address"
        }
      ],
      "stateMutability": "view",
      "type": "function"
    },
    {
      "inputs": [
        {
          "internalType": "address",
          "name": "",
          "type": "address"
        }
      ],
      "name": "registered_stock",
      "outputs": [
        {
          "internalType": "uint256",
          "name": "",
          "type": "uint256"
        }
      ],
      "stateMutability": "view",
      "type": "function"
    },
    {
      "inputs": [
        {
          "internalType": "uint256",
          "name": "vac",
          "type": "uint256"
        },
        {
          "internalType": "uint256",
          "name": "qty",
          "type": "uint256"
        },
        {
          "internalType": "address",
          "name": "_manufacturer",
          "type": "address"
        }
      ],
      "name": "makeOrder",
      "outputs": [],
      "stateMutability": "nonpayable",
      "type": "function"
    },
    {
      "inputs": [
        {
          "internalType": "address",
          "name": "_beneficiary",
          "type": "address"
        },
        {
          "internalType": "uint256",
          "name": "_vaccine",
          "type": "uint256"
        }
      ],
      "name": "registerBeneficiaryFirstVaccine",
      "outputs": [],
      "stateMutability": "nonpayable",
      "type": "function"
    },
    {
      "inputs": [
        {
          "internalType": "address",
          "name": "_beneficiary",
          "type": "address"
        }
      ],
      "name": "registerBeneficiarySecondVaccine",
      "outputs": [],
      "stateMutability": "nonpayable",
      "type": "function"
    },
    {
      "inputs": [
        {
          "internalType": "address",
          "name": "_beneficiary",
          "type": "address"
        }
      ],
      "name": "vaccinationDone",
      "outputs": [],
      "stateMutability": "nonpayable",
      "type": "function"
    },
    {
      "inputs": [
        {
          "internalType": "uint256",
          "name": "_vaccine",
          "type": "uint256"
        },
        {
          "internalType": "uint256",
          "name": "qty",
          "type": "uint256"
        },
        {
          "internalType": "address",
          "name": "_manufacturer",
          "type": "address"
        }
      ],
      "name": "receivedVaccine",
      "outputs": [],
      "stateMutability": "nonpayable",
      "type": "function"
    },
    {
      "inputs": [],
      "name": "getInfo",
      "outputs": [
        {
          "internalType": "address",
          "name": "",
          "type": "address"
        },
        {
          "internalType": "uint256",
          "name": "",
          "type": "uint256"
        },
        {
          "components": [
            {
              "internalType": "uint256",
              "name": "a",
              "type": "uint256"
            },
            {
              "internalType": "uint256",
              "name": "b",
              "type": "uint256"
            },
            {
              "internalType": "uint256",
              "name": "c",
              "type": "uint256"
            },
            {
              "internalType": "uint256",
              "name": "d",
              "type": "uint256"
            }
          ],
          "internalType": "struct Admin.stocks",
          "name": "",
          "type": "tuple"
        },
        {
          "components": [
            {
              "internalType": "uint256",
              "name": "a",
              "type": "uint256"
            },
            {
              "internalType": "uint256",
              "name": "b",
              "type": "uint256"
            },
            {
              "internalType": "uint256",
              "name": "c",
              "type": "uint256"
            },
            {
              "internalType": "uint256",
              "name": "d",
              "type": "uint256"
            }
          ],
          "internalType": "struct Admin.stocks",
          "name": "",
          "type": "tuple"
        },
        {
          "components": [
            {
              "internalType": "uint256",
              "name": "a",
              "type": "uint256"
            },
            {
              "internalType": "uint256",
              "name": "b",
              "type": "uint256"
            },
            {
              "internalType": "uint256",
              "name": "c",
              "type": "uint256"
            },
            {
              "internalType": "uint256",
              "name": "d",
              "type": "uint256"
            }
          ],
          "internalType": "struct Admin.stocks",
          "name": "",
          "type": "tuple"
        }
      ],
      "stateMutability": "view",
      "type": "function"
    }
  ],
  "bytecode": "0x608060405260006007553480156200001657600080fd5b506040516200159d3803806200159d83398181016040528101906200003c919062000130565b806000806101000a81548173ffffffffffffffffffffffffffffffffffffffff021916908373ffffffffffffffffffffffffffffffffffffffff16021790555081600181905550505062000177565b600080fd5b6000819050919050565b620000a58162000090565b8114620000b157600080fd5b50565b600081519050620000c5816200009a565b92915050565b600073ffffffffffffffffffffffffffffffffffffffff82169050919050565b6000620000f882620000cb565b9050919050565b6200010a81620000eb565b81146200011657600080fd5b50565b6000815190506200012a81620000ff565b92915050565b600080604083850312156200014a57620001496200008b565b5b60006200015a85828601620000b4565b92505060206200016d8582860162000119565b9150509250929050565b61141680620001876000396000f3fe608060405234801561001057600080fd5b50600436106100b45760003560e01c80636ee75c4e116100715780636ee75c4e146101a3578063750a49cc146101d35780638da5cb5b146101ef578063d3cc2e0d1461020d578063e3ef418b1461023d578063fefd0e0b14610259576100b4565b806311fc3b4e146100b95780631b0e9bcd146100d55780633867f1ec146101055780633c70d04a146101355780635a9b0b89146101655780636730a63d14610187575b600080fd5b6100d360048036038101906100ce9190610e10565b610275565b005b6100ef60048036038101906100ea9190610e63565b6103a0565b6040516100fc9190610e9f565b60405180910390f35b61011f600480360381019061011a9190610eba565b6103b8565b60405161012c9190610e9f565b60405180910390f35b61014f600480360381019061014a9190610e63565b6103d0565b60405161015c9190610e9f565b60405180910390f35b61016d6103e8565b60405161017e959493929190610f5a565b60405180910390f35b6101a1600480360381019061019c9190610eba565b61058b565b005b6101bd60048036038101906101b89190610faf565b61077d565b6040516101ca9190610e9f565b60405180910390f35b6101ed60048036038101906101e89190610e10565b6107a2565b005b6101f76109a1565b6040516102049190610fef565b60405180910390f35b61022760048036038101906102229190610e63565b6109c5565b6040516102349190610e9f565b60405180910390f35b61025760048036038101906102529190610eba565b6109dd565b005b610273600480360381019061026e9190610faf565b610c43565b005b60008190508073ffffffffffffffffffffffffffffffffffffffff16635fc50a2f858560008054906101000a900473ffffffffffffffffffffffffffffffffffffffff166040518463ffffffff1660e01b81526004016102d79392919061100a565b600060405180830381600087803b1580156102f157600080fd5b505af1158015610305573d6000803e3d6000fd5b5050505082600360008473ffffffffffffffffffffffffffffffffffffffff1673ffffffffffffffffffffffffffffffffffffffff168152602001908152602001600020600086815260200190815260200160002060008282546103699190611070565b92505081905550826005600086815260200190815260200160002060008282546103939190611070565b9250508190555050505050565b60056020528060005260406000206000915090505481565b60046020528060005260406000206000915090505481565b60026020528060005260406000206000915090505481565b6000806103f3610d4f565b6103fb610d4f565b610403610d4f565b60008054906101000a900473ffffffffffffffffffffffffffffffffffffffff16600154604051806080016040528060026000600181526020019081526020016000205481526020016002600060028152602001908152602001600020548152602001600260006003815260200190815260200160002054815260200160026000600481526020019081526020016000205481525060405180608001604052806005600060018152602001908152602001600020548152602001600560006002815260200190815260200160002054815260200160056000600381526020019081526020016000205481526020016005600060048152602001908152602001600020548152506040518060800160405280600660006001815260200190815260200160002054815260200160066000600281526020019081526020016000205481526020016006600060038152602001908152602001600020548152602001600660006004815260200190815260200160002054815250945094509450945094509091929394565b600081905060008173ffffffffffffffffffffffffffffffffffffffff1663eb8704736040518163ffffffff1660e01b8152600401602060405180830381865afa1580156105dd573d6000803e3d6000fd5b505050506040513d601f19601f8201168201806040525081019061060191906110db565b14610641576040517f08c379a00000000000000000000000000000000000000000000000000000000081526004016106389061118b565b60405180910390fd5b60008173ffffffffffffffffffffffffffffffffffffffff1663a846118b6040518163ffffffff1660e01b8152600401602060405180830381865afa15801561068e573d6000803e3d6000fd5b505050506040513d601f19601f820116820180604052508101906106b291906110db565b9050600060026000838152602001908152602001600020541161070a576040517f08c379a0000000000000000000000000000000000000000000000000000000008152600401610701906111f7565b60405180910390fd5b600160026000838152602001908152602001600020600082825461072e9190611217565b925050819055506001600760008282546107489190611217565b925050819055506006600082815260200190815260200160002060008154809291906107739061124b565b9190505550505050565b6003602052816000526040600020602052806000526040600020600091509150505481565b6000600360008373ffffffffffffffffffffffffffffffffffffffff1673ffffffffffffffffffffffffffffffffffffffff16815260200190815260200160002060008581526020019081526020016000205403610835576040517f08c379a000000000000000000000000000000000000000000000000000000000815260040161082c90611305565b60405180910390fd5b81600360008373ffffffffffffffffffffffffffffffffffffffff1673ffffffffffffffffffffffffffffffffffffffff16815260200190815260200160002060008581526020019081526020016000205410156108c8576040517f08c379a00000000000000000000000000000000000000000000000000000000081526004016108bf90611397565b60405180910390fd5b816002600085815260200190815260200160002060008282546108eb9190611070565b9250508190555081600760008282546109049190611070565b9250508190555081600360008373ffffffffffffffffffffffffffffffffffffffff1673ffffffffffffffffffffffffffffffffffffffff1681526020019081526020016000206000858152602001908152602001600020600082825461096b9190611217565b92505081905550816005600085815260200190815260200160002060008282546109959190611217565b92505081905550505050565b60008054906101000a900473ffffffffffffffffffffffffffffffffffffffff1681565b60066020528060005260406000206000915090505481565b60008190508073ffffffffffffffffffffffffffffffffffffffff166368e7ad366040518163ffffffff1660e01b8152600401600060405180830381600087803b158015610a2a57600080fd5b505af1158015610a3e573d6000803e3d6000fd5b5050505060018173ffffffffffffffffffffffffffffffffffffffff1663eb8704736040518163ffffffff1660e01b8152600401602060405180830381865afa158015610a8f573d6000803e3d6000fd5b505050506040513d601f19601f82011682018060405250810190610ab391906110db565b03610b63578073ffffffffffffffffffffffffffffffffffffffff166354c30984600460008573ffffffffffffffffffffffffffffffffffffffff1673ffffffffffffffffffffffffffffffffffffffff168152602001908152602001600020546040518263ffffffff1660e01b8152600401610b309190610e9f565b600060405180830381600087803b158015610b4a57600080fd5b505af1158015610b5e573d6000803e3d6000fd5b505050505b6000600460008473ffffffffffffffffffffffffffffffffffffffff1673ffffffffffffffffffffffffffffffffffffffff16815260200190815260200160002081905550600660008273ffffffffffffffffffffffffffffffffffffffff1663a846118b6040518163ffffffff1660e01b8152600401602060405180830381865afa158015610bf7573d6000803e3d6000fd5b505050506040513d601f19601f82011682018060405250810190610c1b91906110db565b81526020019081526020016000206000815480929190610c3a906113b7565b91905055505050565b6000600260008381526020019081526020016000205411610c99576040517f08c379a0000000000000000000000000000000000000000000000000000000008152600401610c90906111f7565b60405180910390fd5b6001600260008381526020019081526020016000206000828254610cbd9190611217565b92505081905550600160076000828254610cd79190611217565b9250508190555080600460008473ffffffffffffffffffffffffffffffffffffffff1673ffffffffffffffffffffffffffffffffffffffff16815260200190815260200160002081905550600660008281526020019081526020016000206000815480929190610d469061124b565b91905055505050565b6040518060800160405280600081526020016000815260200160008152602001600081525090565b600080fd5b6000819050919050565b610d8f81610d7c565b8114610d9a57600080fd5b50565b600081359050610dac81610d86565b92915050565b600073ffffffffffffffffffffffffffffffffffffffff82169050919050565b6000610ddd82610db2565b9050919050565b610ded81610dd2565b8114610df857600080fd5b50565b600081359050610e0a81610de4565b92915050565b600080600060608486031215610e2957610e28610d77565b5b6000610e3786828701610d9d565b9350506020610e4886828701610d9d565b9250506040610e5986828701610dfb565b9150509250925092565b600060208284031215610e7957610e78610d77565b5b6000610e8784828501610d9d565b91505092915050565b610e9981610d7c565b82525050565b6000602082019050610eb46000830184610e90565b92915050565b600060208284031215610ed057610ecf610d77565b5b6000610ede84828501610dfb565b91505092915050565b610ef081610dd2565b82525050565b610eff81610d7c565b82525050565b608082016000820151610f1b6000850182610ef6565b506020820151610f2e6020850182610ef6565b506040820151610f416040850182610ef6565b506060820151610f546060850182610ef6565b50505050565b60006101c082019050610f706000830188610ee7565b610f7d6020830187610e90565b610f8a6040830186610f05565b610f9760c0830185610f05565b610fa5610140830184610f05565b9695505050505050565b60008060408385031215610fc657610fc5610d77565b5b6000610fd485828601610dfb565b9250506020610fe585828601610d9d565b9150509250929050565b60006020820190506110046000830184610ee7565b92915050565b600060608201905061101f6000830186610e90565b61102c6020830185610e90565b6110396040830184610ee7565b949350505050565b7f4e487b7100000000000000000000000000000000000000000000000000000000600052601160045260246000fd5b600061107b82610d7c565b915061108683610d7c565b9250827fffffffffffffffffffffffffffffffffffffffffffffffffffffffffffffffff038211156110bb576110ba611041565b5b828201905092915050565b6000815190506110d581610d86565b92915050565b6000602082840312156110f1576110f0610d77565b5b60006110ff848285016110c6565b91505092915050565b600082825260208201905092915050565b7f546869732063616e6e6f74206265207468652062656e6566696369617279207360008201527f65636f6e642076616363696e6500000000000000000000000000000000000000602082015250565b6000611175602d83611108565b915061118082611119565b604082019050919050565b600060208201905081810360008301526111a481611168565b9050919050565b7f496e73756666696369656e742053746f636b7300000000000000000000000000600082015250565b60006111e1601383611108565b91506111ec826111ab565b602082019050919050565b60006020820190508181036000830152611210816111d4565b9050919050565b600061122282610d7c565b915061122d83610d7c565b9250828210156112405761123f611041565b5b828203905092915050565b600061125682610d7c565b91507fffffffffffffffffffffffffffffffffffffffffffffffffffffffffffffffff820361128857611287611041565b5b600182019050919050565b7f4e6f206f7264657220686164206265656e20706c61636564207769746820746860008201527f6973206d616e7566616374757265720000000000000000000000000000000000602082015250565b60006112ef602f83611108565b91506112fa82611293565b604082019050919050565b6000602082019050818103600083015261131e816112e2565b9050919050565b7f4d6f7265207468616e206f7264657265642076616363696e657320686173206260008201527f65656e2072656365697665640000000000000000000000000000000000000000602082015250565b6000611381602c83611108565b915061138c82611325565b604082019050919050565b600060208201905081810360008301526113b081611374565b9050919050565b60006113c282610d7c565b9150600082036113d5576113d4611041565b5b60018203905091905056fea264697066735822122018b1c6a7e9fe81c17edd69942e701338579f9dbc0201a3c5a91897ab5e8d6a9d64736f6c634300080d0033",
  "immutableReferences": {},
  "source": "// SPDX-License-Identifier: MIT\r\n\r\npragma solidity ^0.8.13;\r\n\r\nimport \"./Manufacturer.sol\";\r\nimport \"./Beneficiary.sol\";\r\n\r\ncontract Admin {\r\n    address public owner;\r\n\r\n    uint256 centre_no;\r\n    mapping(uint256 => uint256) public available_stock;\r\n    mapping(address => mapping(uint256 => uint256)) public ordered_stocks;\r\n    mapping(address => uint256) public registered_stock;\r\n    mapping(uint256 => uint256) public number_of_ordered_stocks;\r\n    mapping(uint256 => uint256) public number_of_registered_stocks;\r\n    struct stocks {\r\n        uint256 a;\r\n        uint256 b;\r\n        uint256 c;\r\n        uint256 d;\r\n    }\r\n\r\n    uint256 totalVaccines = 0;\r\n\r\n    constructor(uint256 n, address add) {\r\n        owner = add;\r\n        centre_no = n;\r\n    }\r\n\r\n    function makeOrder(\r\n        uint256 vac,\r\n        uint256 qty,\r\n        address _manufacturer\r\n    ) public {\r\n        Manufacturer manuf = Manufacturer(_manufacturer);\r\n        manuf.receiveOrder(vac, qty, owner);\r\n        ordered_stocks[_manufacturer][vac] += qty;\r\n        number_of_ordered_stocks[vac] += qty;\r\n    }\r\n\r\n    function registerBeneficiaryFirstVaccine(\r\n        address _beneficiary,\r\n        uint256 _vaccine\r\n    ) public {\r\n        require(available_stock[_vaccine] > 0, \"Insufficient Stocks\");\r\n        available_stock[_vaccine] -= 1;\r\n        totalVaccines -= 1;\r\n        registered_stock[_beneficiary] = _vaccine;\r\n        number_of_registered_stocks[_vaccine]++;\r\n    }\r\n\r\n    function registerBeneficiarySecondVaccine(address _beneficiary) public {\r\n        Beneficiary beneficiary = Beneficiary(_beneficiary);\r\n        require(\r\n            beneficiary.getNumOfDoses() == 0,\r\n            \"This cannot be the beneficiary second vaccine\"\r\n        );\r\n        uint256 _vaccine = beneficiary.getVaccineType();\r\n        require(available_stock[_vaccine] > 0, \"Insufficient Stocks\");\r\n        available_stock[_vaccine] -= 1;\r\n        totalVaccines -= 1;\r\n        number_of_registered_stocks[_vaccine]++;\r\n    }\r\n\r\n    function vaccinationDone(address _beneficiary) public {\r\n        Beneficiary beneficiary = Beneficiary(_beneficiary);\r\n        beneficiary.increaseNumOfDoses();\r\n        if (beneficiary.getNumOfDoses() == 1)\r\n            beneficiary.setVaccineType(registered_stock[_beneficiary]);\r\n        registered_stock[_beneficiary] = 0;\r\n        number_of_registered_stocks[beneficiary.getVaccineType()]--;\r\n    }\r\n\r\n    function receivedVaccine(\r\n        uint256 _vaccine,\r\n        uint256 qty,\r\n        address _manufacturer\r\n    ) public {\r\n        require(\r\n            ordered_stocks[_manufacturer][_vaccine] != 0,\r\n            \"No order had been placed with this manufacturer\"\r\n        );\r\n        require(\r\n            ordered_stocks[_manufacturer][_vaccine] >= qty,\r\n            \"More than ordered vaccines has been received\"\r\n        );\r\n        available_stock[_vaccine] += qty;\r\n        totalVaccines += qty;\r\n        ordered_stocks[_manufacturer][_vaccine] -= qty;\r\n        number_of_ordered_stocks[_vaccine] -= qty;\r\n    }\r\n\r\n    function getInfo()\r\n        public\r\n        view\r\n        returns (\r\n            address,\r\n            uint256,\r\n            stocks memory,\r\n            stocks memory,\r\n            stocks memory\r\n        )\r\n    {\r\n        return (\r\n            owner,\r\n            centre_no,\r\n            stocks(\r\n                available_stock[1],\r\n                available_stock[2],\r\n                available_stock[3],\r\n                available_stock[4]\r\n            ),\r\n            stocks(\r\n                number_of_ordered_stocks[1],\r\n                number_of_ordered_stocks[2],\r\n                number_of_ordered_stocks[3],\r\n                number_of_ordered_stocks[4]\r\n            ),\r\n            stocks(\r\n                number_of_registered_stocks[1],\r\n                number_of_registered_stocks[2],\r\n                number_of_registered_stocks[3],\r\n                number_of_registered_stocks[4]\r\n            )\r\n        );\r\n    }\r\n}\r\n",
  "sourcePath": "C:\\Users\\mdzai\\Desktop\\VCSM-Blockchain\\contracts\\Admin.sol",
  "compiler": {
    "name": "solc",
    "version": "0.8.13+commit.abaa5c0e.Emscripten.clang"
  },
  "schemaVersion": "3.4.7",
  "updatedAt": "2022-04-24T06:48:46.719Z",
  "devdoc": {
    "kind": "dev",
    "methods": {},
    "version": 1
  },
  "userdoc": {
    "kind": "user",
    "methods": {},
    "version": 1
  }
}