{
  "contractName": "Admin",
  "abi": [
    {
      "inputs": [
        {
          "internalType": "uint256",
          "name": "n",
          "type": "uint256"
        },
        {
          "internalType": "address",
          "name": "add",
          "type": "address"
        }
      ],
      "stateMutability": "nonpayable",
      "type": "constructor"
    },
    {
      "inputs": [
        {
          "internalType": "uint256",
          "name": "",
          "type": "uint256"
        }
      ],
      "name": "available_stock",
      "outputs": [
        {
          "internalType": "uint256",
          "name": "",
          "type": "uint256"
        }
      ],
      "stateMutability": "view",
      "type": "function"
    },
    {
      "inputs": [
        {
          "internalType": "uint256",
          "name": "",
          "type": "uint256"
        }
      ],
      "name": "number_of_ordered_stocks",
      "outputs": [
        {
          "internalType": "uint256",
          "name": "",
          "type": "uint256"
        }
      ],
      "stateMutability": "view",
      "type": "function"
    },
    {
      "inputs": [
        {
          "internalType": "uint256",
          "name": "",
          "type": "uint256"
        }
      ],
      "name": "number_of_registered_stocks",
      "outputs": [
        {
          "internalType": "uint256",
          "name": "",
          "type": "uint256"
        }
      ],
      "stateMutability": "view",
      "type": "function"
    },
    {
      "inputs": [],
      "name": "owner",
      "outputs": [
        {
          "internalType": "address",
          "name": "",
          "type": "address"
        }
      ],
      "stateMutability": "view",
      "type": "function"
    },
    {
      "inputs": [
        {
          "internalType": "uint256",
          "name": "",
          "type": "uint256"
        }
      ],
      "name": "registered_stock",
      "outputs": [
        {
          "internalType": "uint256",
          "name": "",
          "type": "uint256"
        }
      ],
      "stateMutability": "view",
      "type": "function"
    },
    {
      "inputs": [
        {
          "internalType": "uint256",
          "name": "vac",
          "type": "uint256"
        },
        {
          "internalType": "uint256",
          "name": "qty",
          "type": "uint256"
        },
        {
          "internalType": "contract Manufacturer",
          "name": "_manufacturer",
          "type": "address"
        }
      ],
      "name": "makeOrder",
      "outputs": [
        {
          "internalType": "bool",
          "name": "",
          "type": "bool"
        }
      ],
      "stateMutability": "nonpayable",
      "type": "function"
    },
    {
      "inputs": [
        {
          "internalType": "uint256",
          "name": "_aadhar",
          "type": "uint256"
        },
        {
          "internalType": "uint256",
          "name": "_vaccine",
          "type": "uint256"
        }
      ],
      "name": "registerBeneficiaryFirstVaccine",
      "outputs": [],
      "stateMutability": "nonpayable",
      "type": "function"
    },
    {
      "inputs": [
        {
          "internalType": "uint256",
          "name": "_aadhar",
          "type": "uint256"
        },
        {
          "internalType": "uint256",
          "name": "_vaccine",
          "type": "uint256"
        }
      ],
      "name": "registerBeneficiarySecondVaccine",
      "outputs": [],
      "stateMutability": "nonpayable",
      "type": "function"
    },
    {
      "inputs": [],
      "name": "getCenterNo",
      "outputs": [
        {
          "internalType": "uint256",
          "name": "",
          "type": "uint256"
        }
      ],
      "stateMutability": "view",
      "type": "function"
    },
    {
      "inputs": [
        {
          "internalType": "uint256",
          "name": "_aadhar",
          "type": "uint256"
        },
        {
          "internalType": "contract Beneficiary",
          "name": "_beneficiary",
          "type": "address"
        }
      ],
      "name": "vaccinationDone",
      "outputs": [
        {
          "internalType": "bool",
          "name": "",
          "type": "bool"
        }
      ],
      "stateMutability": "nonpayable",
      "type": "function"
    },
    {
      "inputs": [
        {
          "internalType": "uint256",
          "name": "_vaccine",
          "type": "uint256"
        },
        {
          "internalType": "uint256",
          "name": "qty",
          "type": "uint256"
        },
        {
          "internalType": "address",
          "name": "_manufacturer",
          "type": "address"
        }
      ],
      "name": "receivedVaccine",
      "outputs": [],
      "stateMutability": "nonpayable",
      "type": "function"
    },
    {
      "inputs": [],
      "name": "getInfo",
      "outputs": [
        {
          "internalType": "address",
          "name": "",
          "type": "address"
        },
        {
          "internalType": "uint256",
          "name": "",
          "type": "uint256"
        },
        {
          "components": [
            {
              "internalType": "uint256",
              "name": "a",
              "type": "uint256"
            },
            {
              "internalType": "uint256",
              "name": "b",
              "type": "uint256"
            },
            {
              "internalType": "uint256",
              "name": "c",
              "type": "uint256"
            },
            {
              "internalType": "uint256",
              "name": "d",
              "type": "uint256"
            }
          ],
          "internalType": "struct Admin.stocks",
          "name": "",
          "type": "tuple"
        },
        {
          "components": [
            {
              "internalType": "uint256",
              "name": "a",
              "type": "uint256"
            },
            {
              "internalType": "uint256",
              "name": "b",
              "type": "uint256"
            },
            {
              "internalType": "uint256",
              "name": "c",
              "type": "uint256"
            },
            {
              "internalType": "uint256",
              "name": "d",
              "type": "uint256"
            }
          ],
          "internalType": "struct Admin.stocks",
          "name": "",
          "type": "tuple"
        },
        {
          "components": [
            {
              "internalType": "uint256",
              "name": "a",
              "type": "uint256"
            },
            {
              "internalType": "uint256",
              "name": "b",
              "type": "uint256"
            },
            {
              "internalType": "uint256",
              "name": "c",
              "type": "uint256"
            },
            {
              "internalType": "uint256",
              "name": "d",
              "type": "uint256"
            }
          ],
          "internalType": "struct Admin.stocks",
          "name": "",
          "type": "tuple"
        }
      ],
      "stateMutability": "view",
      "type": "function"
    }
  ],
  "bytecode": "0x608060405260006006553480156200001657600080fd5b50604051620012de380380620012de83398181016040528101906200003c919062000130565b806000806101000a81548173ffffffffffffffffffffffffffffffffffffffff021916908373ffffffffffffffffffffffffffffffffffffffff16021790555081600181905550505062000177565b600080fd5b6000819050919050565b620000a58162000090565b8114620000b157600080fd5b50565b600081519050620000c5816200009a565b92915050565b600073ffffffffffffffffffffffffffffffffffffffff82169050919050565b6000620000f882620000cb565b9050919050565b6200010a81620000eb565b81146200011657600080fd5b50565b6000815190506200012a81620000ff565b92915050565b600080604083850312156200014a57620001496200008b565b5b60006200015a85828601620000b4565b92505060206200016d8582860162000119565b9150509250929050565b61115780620001876000396000f3fe608060405234801561001057600080fd5b50600436106100b45760003560e01c8063750a49cc11610071578063750a49cc146101a357806376c52496146101bf5780638da5cb5b146101ef578063bcc0312c1461020d578063d3cc2e0d1461022b578063fbbd38d91461025b576100b4565b806311fc3b4e146100b95780631b0e9bcd146100e95780633c70d04a146101195780634f3777a3146101495780635a9b0b89146101655780636903b71614610187575b600080fd5b6100d360048036038101906100ce9190610b48565b61028b565b6040516100e09190610bb6565b60405180910390f35b61010360048036038101906100fe9190610bd1565b610371565b6040516101109190610c0d565b60405180910390f35b610133600480360381019061012e9190610bd1565b610389565b6040516101409190610c0d565b60405180910390f35b610163600480360381019061015e9190610c28565b6103a1565b005b61016d610481565b60405161017e959493929190610cdb565b60405180910390f35b6101a1600480360381019061019c9190610c28565b610624565b005b6101bd60048036038101906101b89190610d5c565b610704565b005b6101d960048036038101906101d49190610ded565b610776565b6040516101e69190610bb6565b60405180910390f35b6101f7610a17565b6040516102049190610e2d565b60405180910390f35b610215610a3b565b6040516102229190610c0d565b60405180910390f35b61024560048036038101906102409190610bd1565b610a45565b6040516102529190610c0d565b60405180910390f35b61027560048036038101906102709190610bd1565b610a5d565b6040516102829190610c0d565b60405180910390f35b60008173ffffffffffffffffffffffffffffffffffffffff16635fc50a2f858560008054906101000a900473ffffffffffffffffffffffffffffffffffffffff166040518463ffffffff1660e01b81526004016102ea93929190610e48565b6020604051808303816000875af1158015610309573d6000803e3d6000fd5b505050506040513d601f19601f8201168201806040525081019061032d9190610eab565b1561036557826004600086815260200190815260200160002060008282546103559190610f07565b925050819055506001905061036a565b600090505b9392505050565b60046020528060005260406000206000915090505481565b60026020528060005260406000206000915090505481565b60006002600083815260200190815260200160002054116103f7576040517f08c379a00000000000000000000000000000000000000000000000000000000081526004016103ee90610fba565b60405180910390fd5b80600360008481526020019081526020016000208190555060016002600083815260200190815260200160002060008282546104339190610fda565b9250508190555060016006600082825461044d9190610fda565b925050819055506005600082815260200190815260200160002060008154809291906104789061100e565b91905055505050565b60008061048c610a75565b610494610a75565b61049c610a75565b60008054906101000a900473ffffffffffffffffffffffffffffffffffffffff16600154604051806080016040528060026000600181526020019081526020016000205481526020016002600060028152602001908152602001600020548152602001600260006003815260200190815260200160002054815260200160026000600481526020019081526020016000205481525060405180608001604052806004600060018152602001908152602001600020548152602001600460006002815260200190815260200160002054815260200160046000600381526020019081526020016000205481526020016004600060048152602001908152602001600020548152506040518060800160405280600560006001815260200190815260200160002054815260200160056000600281526020019081526020016000205481526020016005600060038152602001908152602001600020548152602001600560006004815260200190815260200160002054815250945094509450945094509091929394565b600060026000838152602001908152602001600020541161067a576040517f08c379a000000000000000000000000000000000000000000000000000000000815260040161067190610fba565b60405180910390fd5b600160026000838152602001908152602001600020600082825461069e9190610fda565b925050819055506001600660008282546106b89190610fda565b925050819055508060036000848152602001908152602001600020819055506005600082815260200190815260200160002060008154809291906106fb9061100e565b91905055505050565b816002600085815260200190815260200160002060008282546107279190610f07565b9250508190555081600660008282546107409190610f07565b925050819055508160046000858152602001908152602001600020600082825461076a9190610fda565b92505081905550505050565b60008060036000858152602001908152602001600020540361079b5760009050610a11565b8173ffffffffffffffffffffffffffffffffffffffff166368e7ad366040518163ffffffff1660e01b8152600401600060405180830381600087803b1580156107e357600080fd5b505af11580156107f7573d6000803e3d6000fd5b5050505060018273ffffffffffffffffffffffffffffffffffffffff1663eb8704736040518163ffffffff1660e01b8152600401602060405180830381865afa158015610848573d6000803e3d6000fd5b505050506040513d601f19601f8201168201806040525081019061086c919061106b565b036108f0578173ffffffffffffffffffffffffffffffffffffffff166354c3098460036000868152602001908152602001600020546040518263ffffffff1660e01b81526004016108bd9190610c0d565b600060405180830381600087803b1580156108d757600080fd5b505af11580156108eb573d6000803e3d6000fd5b505050505b8173ffffffffffffffffffffffffffffffffffffffff1663ee3d52b360006040518263ffffffff1660e01b815260040161092a91906110dd565b600060405180830381600087803b15801561094457600080fd5b505af1158015610958573d6000803e3d6000fd5b5050505060006003600085815260200190815260200160002081905550600560008373ffffffffffffffffffffffffffffffffffffffff1663a846118b6040518163ffffffff1660e01b8152600401602060405180830381865afa1580156109c4573d6000803e3d6000fd5b505050506040513d601f19601f820116820180604052508101906109e8919061106b565b81526020019081526020016000206000815480929190610a07906110f8565b9190505550600190505b92915050565b60008054906101000a900473ffffffffffffffffffffffffffffffffffffffff1681565b6000600154905090565b60056020528060005260406000206000915090505481565b60036020528060005260406000206000915090505481565b6040518060800160405280600081526020016000815260200160008152602001600081525090565b600080fd5b6000819050919050565b610ab581610aa2565b8114610ac057600080fd5b50565b600081359050610ad281610aac565b92915050565b600073ffffffffffffffffffffffffffffffffffffffff82169050919050565b6000610b0382610ad8565b9050919050565b6000610b1582610af8565b9050919050565b610b2581610b0a565b8114610b3057600080fd5b50565b600081359050610b4281610b1c565b92915050565b600080600060608486031215610b6157610b60610a9d565b5b6000610b6f86828701610ac3565b9350506020610b8086828701610ac3565b9250506040610b9186828701610b33565b9150509250925092565b60008115159050919050565b610bb081610b9b565b82525050565b6000602082019050610bcb6000830184610ba7565b92915050565b600060208284031215610be757610be6610a9d565b5b6000610bf584828501610ac3565b91505092915050565b610c0781610aa2565b82525050565b6000602082019050610c226000830184610bfe565b92915050565b60008060408385031215610c3f57610c3e610a9d565b5b6000610c4d85828601610ac3565b9250506020610c5e85828601610ac3565b9150509250929050565b610c7181610af8565b82525050565b610c8081610aa2565b82525050565b608082016000820151610c9c6000850182610c77565b506020820151610caf6020850182610c77565b506040820151610cc26040850182610c77565b506060820151610cd56060850182610c77565b50505050565b60006101c082019050610cf16000830188610c68565b610cfe6020830187610bfe565b610d0b6040830186610c86565b610d1860c0830185610c86565b610d26610140830184610c86565b9695505050505050565b610d3981610af8565b8114610d4457600080fd5b50565b600081359050610d5681610d30565b92915050565b600080600060608486031215610d7557610d74610a9d565b5b6000610d8386828701610ac3565b9350506020610d9486828701610ac3565b9250506040610da586828701610d47565b9150509250925092565b6000610dba82610af8565b9050919050565b610dca81610daf565b8114610dd557600080fd5b50565b600081359050610de781610dc1565b92915050565b60008060408385031215610e0457610e03610a9d565b5b6000610e1285828601610ac3565b9250506020610e2385828601610dd8565b9150509250929050565b6000602082019050610e426000830184610c68565b92915050565b6000606082019050610e5d6000830186610bfe565b610e6a6020830185610bfe565b610e776040830184610c68565b949350505050565b610e8881610b9b565b8114610e9357600080fd5b50565b600081519050610ea581610e7f565b92915050565b600060208284031215610ec157610ec0610a9d565b5b6000610ecf84828501610e96565b91505092915050565b7f4e487b7100000000000000000000000000000000000000000000000000000000600052601160045260246000fd5b6000610f1282610aa2565b9150610f1d83610aa2565b9250827fffffffffffffffffffffffffffffffffffffffffffffffffffffffffffffffff03821115610f5257610f51610ed8565b5b828201905092915050565b600082825260208201905092915050565b7f496e73756666696369656e742053746f636b7300000000000000000000000000600082015250565b6000610fa4601383610f5d565b9150610faf82610f6e565b602082019050919050565b60006020820190508181036000830152610fd381610f97565b9050919050565b6000610fe582610aa2565b9150610ff083610aa2565b92508282101561100357611002610ed8565b5b828203905092915050565b600061101982610aa2565b91507fffffffffffffffffffffffffffffffffffffffffffffffffffffffffffffffff820361104b5761104a610ed8565b5b600182019050919050565b60008151905061106581610aac565b92915050565b60006020828403121561108157611080610a9d565b5b600061108f84828501611056565b91505092915050565b6000819050919050565b6000819050919050565b60006110c76110c26110bd84611098565b6110a2565b610aa2565b9050919050565b6110d7816110ac565b82525050565b60006020820190506110f260008301846110ce565b92915050565b600061110382610aa2565b91506000820361111657611115610ed8565b5b60018203905091905056fea2646970667358221220688a2beb0e59710cb392c43bd4f870c34f9e65494bf9dd26949850c92440108a64736f6c634300080d0033",
  "immutableReferences": {},
  "source": "// SPDX-License-Identifier: MIT\r\n\r\npragma solidity ^0.8.13;\r\n\r\nimport \"./Manufacturer.sol\";\r\nimport \"./Manufacturers.sol\";\r\nimport \"./Beneficiary.sol\";\r\n\r\ncontract Admin {\r\n    address public owner;\r\n\r\n    uint256 centre_no;\r\n    mapping(uint256 => uint256) public available_stock;\r\n    mapping(uint256 => uint256) public registered_stock;\r\n    mapping(uint256 => uint256) public number_of_ordered_stocks;\r\n    mapping(uint256 => uint256) public number_of_registered_stocks;\r\n    struct stocks {\r\n        uint256 a;\r\n        uint256 b;\r\n        uint256 c;\r\n        uint256 d;\r\n    }\r\n\r\n    uint256 totalVaccines = 0;\r\n\r\n    constructor(uint256 n, address add) {\r\n        owner = add;\r\n        centre_no = n;\r\n    }\r\n\r\n    function makeOrder(\r\n        uint256 vac,\r\n        uint256 qty,\r\n        Manufacturer _manufacturer\r\n    ) public returns (bool) {\r\n        if (_manufacturer.receiveOrder(vac, qty, owner)) {\r\n            number_of_ordered_stocks[vac] += qty;\r\n            return true;\r\n        } else {\r\n            return false;\r\n        }\r\n    }\r\n\r\n    function registerBeneficiaryFirstVaccine(uint256 _aadhar, uint256 _vaccine)\r\n        public\r\n    {\r\n        require(available_stock[_vaccine] > 0, \"Insufficient Stocks\");\r\n        available_stock[_vaccine] -= 1;\r\n        totalVaccines -= 1;\r\n        registered_stock[_aadhar] = _vaccine;\r\n        number_of_registered_stocks[_vaccine]++;\r\n    }\r\n\r\n    function registerBeneficiarySecondVaccine(\r\n        uint256 _aadhar,\r\n        uint _vaccine\r\n    ) public {\r\n        require(available_stock[_vaccine] > 0, \"Insufficient Stocks\");\r\n        registered_stock[_aadhar] = _vaccine;\r\n        available_stock[_vaccine] -= 1;\r\n        totalVaccines -= 1;\r\n        number_of_registered_stocks[_vaccine]++;\r\n    }\r\n\r\n    function getCenterNo() public view returns (uint256) {\r\n        return centre_no;\r\n    }\r\n\r\n    function vaccinationDone(uint256 _aadhar, Beneficiary _beneficiary)\r\n        public\r\n        returns (bool)\r\n    {\r\n        if (registered_stock[_aadhar] == 0) return false;\r\n        _beneficiary.increaseNumOfDoses();\r\n        if (_beneficiary.getNumOfDoses() == 1)\r\n            _beneficiary.setVaccineType(registered_stock[_aadhar]);\r\n        _beneficiary.setAdmin(0);\r\n        registered_stock[_aadhar] = 0;\r\n        number_of_registered_stocks[_beneficiary.getVaccineType()]--;\r\n        return true;\r\n    }\r\n\r\n    function receivedVaccine(\r\n        uint256 _vaccine,\r\n        uint256 qty,\r\n        address _manufacturer\r\n    ) public {\r\n        // require(\r\n        //     ordered_stocks[_manufacturer][_vaccine] != 0,\r\n        //     \"No order had been placed with this manufacturer\"\r\n        // );\r\n        // require(\r\n        //     ordered_stocks[_manufacturer][_vaccine] >= qty,\r\n        //     \"More than ordered vaccines has been received\"\r\n        // );\r\n        available_stock[_vaccine] += qty;\r\n        totalVaccines += qty;\r\n        number_of_ordered_stocks[_vaccine] -= qty;\r\n    }\r\n\r\n    function getInfo()\r\n        public\r\n        view\r\n        returns (\r\n            address,\r\n            uint256,\r\n            stocks memory,\r\n            stocks memory,\r\n            stocks memory\r\n        )\r\n    {\r\n        return (\r\n            owner,\r\n            centre_no,\r\n            stocks(\r\n                available_stock[1],\r\n                available_stock[2],\r\n                available_stock[3],\r\n                available_stock[4]\r\n            ),\r\n            stocks(\r\n                number_of_ordered_stocks[1],\r\n                number_of_ordered_stocks[2],\r\n                number_of_ordered_stocks[3],\r\n                number_of_ordered_stocks[4]\r\n            ),\r\n            stocks(\r\n                number_of_registered_stocks[1],\r\n                number_of_registered_stocks[2],\r\n                number_of_registered_stocks[3],\r\n                number_of_registered_stocks[4]\r\n            )\r\n        );\r\n    }\r\n}\r\n",
  "sourcePath": "C:\\Users\\mdzai\\Desktop\\VCSM-Blockchain\\contracts\\Admin.sol",
  "compiler": {
    "name": "solc",
    "version": "0.8.13+commit.abaa5c0e.Emscripten.clang"
  },
  "schemaVersion": "3.4.7",
  "updatedAt": "2022-04-28T04:45:50.590Z",
  "devdoc": {
    "kind": "dev",
    "methods": {},
    "version": 1
  },
  "userdoc": {
    "kind": "user",
    "methods": {},
    "version": 1
  }
}