{
  "contractName": "Admin",
  "abi": [
    {
      "inputs": [],
      "stateMutability": "nonpayable",
      "type": "constructor"
    },
    {
      "inputs": [
        {
          "internalType": "uint256",
          "name": "",
          "type": "uint256"
        }
      ],
      "name": "available_stock",
      "outputs": [
        {
          "internalType": "uint256",
          "name": "",
          "type": "uint256"
        }
      ],
      "stateMutability": "view",
      "type": "function"
    },
    {
      "inputs": [
        {
          "internalType": "address",
          "name": "",
          "type": "address"
        },
        {
          "internalType": "uint256",
          "name": "",
          "type": "uint256"
        }
      ],
      "name": "ordered_stocks",
      "outputs": [
        {
          "internalType": "uint256",
          "name": "",
          "type": "uint256"
        }
      ],
      "stateMutability": "view",
      "type": "function"
    },
    {
      "inputs": [],
      "name": "owner",
      "outputs": [
        {
          "internalType": "address",
          "name": "",
          "type": "address"
        }
      ],
      "stateMutability": "view",
      "type": "function"
    },
    {
      "inputs": [
        {
          "internalType": "address",
          "name": "",
          "type": "address"
        }
      ],
      "name": "registered_stock",
      "outputs": [
        {
          "internalType": "uint256",
          "name": "",
          "type": "uint256"
        }
      ],
      "stateMutability": "view",
      "type": "function"
    },
    {
      "inputs": [
        {
          "internalType": "uint256",
          "name": "vac",
          "type": "uint256"
        },
        {
          "internalType": "uint256",
          "name": "qty",
          "type": "uint256"
        },
        {
          "internalType": "address",
          "name": "_manufacturer",
          "type": "address"
        }
      ],
      "name": "makeOrder",
      "outputs": [],
      "stateMutability": "nonpayable",
      "type": "function"
    },
    {
      "inputs": [
        {
          "internalType": "address",
          "name": "_beneficiary",
          "type": "address"
        },
        {
          "internalType": "uint256",
          "name": "_vaccine",
          "type": "uint256"
        }
      ],
      "name": "registerBeneficiaryFirstVaccine",
      "outputs": [],
      "stateMutability": "nonpayable",
      "type": "function"
    },
    {
      "inputs": [
        {
          "internalType": "address",
          "name": "_beneficiary",
          "type": "address"
        }
      ],
      "name": "registerBeneficiarySecondVaccine",
      "outputs": [],
      "stateMutability": "nonpayable",
      "type": "function"
    },
    {
      "inputs": [
        {
          "internalType": "address",
          "name": "_beneficiary",
          "type": "address"
        }
      ],
      "name": "vaccinationDone",
      "outputs": [],
      "stateMutability": "nonpayable",
      "type": "function"
    },
    {
      "inputs": [
        {
          "internalType": "uint256",
          "name": "_vaccine",
          "type": "uint256"
        },
        {
          "internalType": "uint256",
          "name": "qty",
          "type": "uint256"
        },
        {
          "internalType": "address",
          "name": "_manufacturer",
          "type": "address"
        }
      ],
      "name": "receivedVaccine",
      "outputs": [],
      "stateMutability": "nonpayable",
      "type": "function"
    }
  ],
  "bytecode": "0x6080604052600060055534801561001557600080fd5b50336000806101000a81548173ffffffffffffffffffffffffffffffffffffffff021916908373ffffffffffffffffffffffffffffffffffffffff160217905550610f11806100656000396000f3fe608060405234801561001057600080fd5b50600436106100935760003560e01c80636ee75c4e116100665780636ee75c4e14610130578063750a49cc146101605780638da5cb5b1461017c578063e3ef418b1461019a578063fefd0e0b146101b657610093565b806311fc3b4e146100985780633867f1ec146100b45780633c70d04a146100e45780636730a63d14610114575b600080fd5b6100b260048036038101906100ad9190610a35565b6101d2565b005b6100ce60048036038101906100c99190610a88565b6102d3565b6040516100db9190610ac4565b60405180910390f35b6100fe60048036038101906100f99190610adf565b6102eb565b60405161010b9190610ac4565b60405180910390f35b61012e60048036038101906101299190610a88565b610303565b005b61014a60048036038101906101459190610b0c565b6104cc565b6040516101579190610ac4565b60405180910390f35b61017a60048036038101906101759190610a35565b6104f1565b005b6101846106c6565b6040516101919190610b5b565b60405180910390f35b6101b460048036038101906101af9190610a88565b6106ea565b005b6101d060048036038101906101cb9190610b0c565b6108b9565b005b60008190508073ffffffffffffffffffffffffffffffffffffffff16635fc50a2f858560008054906101000a900473ffffffffffffffffffffffffffffffffffffffff166040518463ffffffff1660e01b815260040161023493929190610b76565b600060405180830381600087803b15801561024e57600080fd5b505af1158015610262573d6000803e3d6000fd5b5050505082600360008473ffffffffffffffffffffffffffffffffffffffff1673ffffffffffffffffffffffffffffffffffffffff168152602001908152602001600020600086815260200190815260200160002060008282546102c69190610bdc565b9250508190555050505050565b60046020528060005260406000206000915090505481565b60026020528060005260406000206000915090505481565b600081905060008173ffffffffffffffffffffffffffffffffffffffff1663eb8704736040518163ffffffff1660e01b8152600401602060405180830381865afa158015610355573d6000803e3d6000fd5b505050506040513d601f19601f820116820180604052508101906103799190610c47565b146103b9576040517f08c379a00000000000000000000000000000000000000000000000000000000081526004016103b090610cf7565b60405180910390fd5b60008173ffffffffffffffffffffffffffffffffffffffff1663a846118b6040518163ffffffff1660e01b8152600401602060405180830381865afa158015610406573d6000803e3d6000fd5b505050506040513d601f19601f8201168201806040525081019061042a9190610c47565b90506000600260008381526020019081526020016000205411610482576040517f08c379a000000000000000000000000000000000000000000000000000000000815260040161047990610d63565b60405180910390fd5b60016002600083815260200190815260200160002060008282546104a69190610d83565b925050819055506001600560008282546104c09190610d83565b92505081905550505050565b6003602052816000526040600020602052806000526040600020600091509150505481565b6000600360008373ffffffffffffffffffffffffffffffffffffffff1673ffffffffffffffffffffffffffffffffffffffff16815260200190815260200160002060008581526020019081526020016000205403610584576040517f08c379a000000000000000000000000000000000000000000000000000000000815260040161057b90610e29565b60405180910390fd5b81600360008373ffffffffffffffffffffffffffffffffffffffff1673ffffffffffffffffffffffffffffffffffffffff1681526020019081526020016000206000858152602001908152602001600020541015610617576040517f08c379a000000000000000000000000000000000000000000000000000000000815260040161060e90610ebb565b60405180910390fd5b8160026000858152602001908152602001600020600082825461063a9190610bdc565b9250508190555081600560008282546106539190610bdc565b9250508190555081600360008373ffffffffffffffffffffffffffffffffffffffff1673ffffffffffffffffffffffffffffffffffffffff168152602001908152602001600020600085815260200190815260200160002060008282546106ba9190610d83565b92505081905550505050565b60008054906101000a900473ffffffffffffffffffffffffffffffffffffffff1681565b60008190508073ffffffffffffffffffffffffffffffffffffffff166368e7ad366040518163ffffffff1660e01b8152600401600060405180830381600087803b15801561073757600080fd5b505af115801561074b573d6000803e3d6000fd5b5050505060018173ffffffffffffffffffffffffffffffffffffffff1663eb8704736040518163ffffffff1660e01b8152600401602060405180830381865afa15801561079c573d6000803e3d6000fd5b505050506040513d601f19601f820116820180604052508101906107c09190610c47565b03610870578073ffffffffffffffffffffffffffffffffffffffff166354c30984600460008573ffffffffffffffffffffffffffffffffffffffff1673ffffffffffffffffffffffffffffffffffffffff168152602001908152602001600020546040518263ffffffff1660e01b815260040161083d9190610ac4565b600060405180830381600087803b15801561085757600080fd5b505af115801561086b573d6000803e3d6000fd5b505050505b6000600460008473ffffffffffffffffffffffffffffffffffffffff1673ffffffffffffffffffffffffffffffffffffffff168152602001908152602001600020819055505050565b600060026000838152602001908152602001600020541161090f576040517f08c379a000000000000000000000000000000000000000000000000000000000815260040161090690610d63565b60405180910390fd5b60016002600083815260200190815260200160002060008282546109339190610d83565b9250508190555060016005600082825461094d9190610d83565b9250508190555080600460008473ffffffffffffffffffffffffffffffffffffffff1673ffffffffffffffffffffffffffffffffffffffff168152602001908152602001600020819055505050565b600080fd5b6000819050919050565b6109b4816109a1565b81146109bf57600080fd5b50565b6000813590506109d1816109ab565b92915050565b600073ffffffffffffffffffffffffffffffffffffffff82169050919050565b6000610a02826109d7565b9050919050565b610a12816109f7565b8114610a1d57600080fd5b50565b600081359050610a2f81610a09565b92915050565b600080600060608486031215610a4e57610a4d61099c565b5b6000610a5c868287016109c2565b9350506020610a6d868287016109c2565b9250506040610a7e86828701610a20565b9150509250925092565b600060208284031215610a9e57610a9d61099c565b5b6000610aac84828501610a20565b91505092915050565b610abe816109a1565b82525050565b6000602082019050610ad96000830184610ab5565b92915050565b600060208284031215610af557610af461099c565b5b6000610b03848285016109c2565b91505092915050565b60008060408385031215610b2357610b2261099c565b5b6000610b3185828601610a20565b9250506020610b42858286016109c2565b9150509250929050565b610b55816109f7565b82525050565b6000602082019050610b706000830184610b4c565b92915050565b6000606082019050610b8b6000830186610ab5565b610b986020830185610ab5565b610ba56040830184610b4c565b949350505050565b7f4e487b7100000000000000000000000000000000000000000000000000000000600052601160045260246000fd5b6000610be7826109a1565b9150610bf2836109a1565b9250827fffffffffffffffffffffffffffffffffffffffffffffffffffffffffffffffff03821115610c2757610c26610bad565b5b828201905092915050565b600081519050610c41816109ab565b92915050565b600060208284031215610c5d57610c5c61099c565b5b6000610c6b84828501610c32565b91505092915050565b600082825260208201905092915050565b7f546869732063616e6e6f74206265207468652062656e6566696369617279207360008201527f65636f6e642076616363696e6500000000000000000000000000000000000000602082015250565b6000610ce1602d83610c74565b9150610cec82610c85565b604082019050919050565b60006020820190508181036000830152610d1081610cd4565b9050919050565b7f496e73756666696369656e742053746f636b7300000000000000000000000000600082015250565b6000610d4d601383610c74565b9150610d5882610d17565b602082019050919050565b60006020820190508181036000830152610d7c81610d40565b9050919050565b6000610d8e826109a1565b9150610d99836109a1565b925082821015610dac57610dab610bad565b5b828203905092915050565b7f4e6f206f7264657220686164206265656e20706c61636564207769746820746860008201527f6973206d616e7566616374757265720000000000000000000000000000000000602082015250565b6000610e13602f83610c74565b9150610e1e82610db7565b604082019050919050565b60006020820190508181036000830152610e4281610e06565b9050919050565b7f4d6f7265207468616e206f7264657265642076616363696e657320686173206260008201527f65656e2072656365697665640000000000000000000000000000000000000000602082015250565b6000610ea5602c83610c74565b9150610eb082610e49565b604082019050919050565b60006020820190508181036000830152610ed481610e98565b905091905056fea264697066735822122006739c4e6dfaf9848a9caa3ec223c4b47101a8f7c90dcf3efafbd04dd438031464736f6c634300080d0033",
  "immutableReferences": {},
  "source": "// SPDX-License-Identifier: MIT\r\n\r\npragma solidity ^0.8.13;\r\n\r\nimport \"./Manufacturer.sol\";\r\nimport \"./People.sol\";\r\n\r\ncontract Admin{\r\n    address public owner;\r\n\r\n    uint centre_no;\r\n    mapping(uint => uint) public available_stock;\r\n    mapping(address => mapping(uint => uint)) public ordered_stocks;\r\n    mapping(address => uint) public registered_stock;\r\n\r\n    uint totalVaccines = 0;\r\n\r\n    constructor(){\r\n        owner = msg.sender;\r\n    }\r\n\r\n    function makeOrder(uint vac, uint qty, address _manufacturer) public {\r\n        Manufacturer manuf = Manufacturer(_manufacturer);\r\n        manuf.receiveOrder(vac, qty, owner);\r\n        ordered_stocks[_manufacturer][vac] += qty;\r\n    }\r\n\r\n    function registerBeneficiaryFirstVaccine(address _beneficiary, uint _vaccine) public {\r\n        require(available_stock[_vaccine] > 0, \"Insufficient Stocks\");\r\n        available_stock[_vaccine] -= 1;\r\n        totalVaccines -= 1;\r\n        registered_stock[_beneficiary] = _vaccine;\r\n    }\r\n\r\n    function registerBeneficiarySecondVaccine(address _beneficiary) public {\r\n        People beneficiary = People(_beneficiary);\r\n        require(beneficiary.getNumOfDoses() == 0, \"This cannot be the beneficiary second vaccine\");\r\n        uint _vaccine = beneficiary.getVaccineType();\r\n        require(available_stock[_vaccine] > 0, \"Insufficient Stocks\");\r\n        available_stock[_vaccine] -= 1;\r\n        totalVaccines -= 1;\r\n    }\r\n\r\n    function vaccinationDone(address _beneficiary) public{\r\n        People beneficiary = People(_beneficiary);\r\n        beneficiary.increaseNumOfDoses();\r\n        if(beneficiary.getNumOfDoses() == 1)\r\n            beneficiary.setVaccineType(registered_stock[_beneficiary]);\r\n        registered_stock[_beneficiary] = 0;\r\n    }\r\n\r\n    function receivedVaccine(uint _vaccine, uint qty, address _manufacturer) public{\r\n        require(ordered_stocks[_manufacturer][_vaccine] != 0, \"No order had been placed with this manufacturer\");\r\n        require(ordered_stocks[_manufacturer][_vaccine] >= qty, \"More than ordered vaccines has been received\");\r\n        \r\n        available_stock[_vaccine] += qty;\r\n        totalVaccines += qty;\r\n        ordered_stocks[_manufacturer][_vaccine] -= qty;\r\n    }\r\n}",
  "sourcePath": "C:\\Users\\mdzai\\Desktop\\VCSM-Blockchain\\contracts\\Admin.sol",
  "compiler": {
    "name": "solc",
    "version": "0.8.13+commit.abaa5c0e.Emscripten.clang"
  },
  "schemaVersion": "3.4.7",
  "updatedAt": "2022-04-13T19:39:35.857Z",
  "devdoc": {
    "kind": "dev",
    "methods": {},
    "version": 1
  },
  "userdoc": {
    "kind": "user",
    "methods": {},
    "version": 1
  }
}