{
  "contractName": "Admin",
  "abi": [
    {
      "inputs": [
        {
          "internalType": "uint256",
          "name": "n",
          "type": "uint256"
        },
        {
          "internalType": "address",
          "name": "add",
          "type": "address"
        }
      ],
      "stateMutability": "nonpayable",
      "type": "constructor"
    },
    {
      "inputs": [
        {
          "internalType": "uint256",
          "name": "",
          "type": "uint256"
        }
      ],
      "name": "available_stock",
      "outputs": [
        {
          "internalType": "uint256",
          "name": "",
          "type": "uint256"
        }
      ],
      "stateMutability": "view",
      "type": "function"
    },
    {
      "inputs": [
        {
          "internalType": "uint256",
          "name": "",
          "type": "uint256"
        }
      ],
      "name": "number_of_ordered_stocks",
      "outputs": [
        {
          "internalType": "uint256",
          "name": "",
          "type": "uint256"
        }
      ],
      "stateMutability": "view",
      "type": "function"
    },
    {
      "inputs": [
        {
          "internalType": "uint256",
          "name": "",
          "type": "uint256"
        }
      ],
      "name": "number_of_registered_stocks",
      "outputs": [
        {
          "internalType": "uint256",
          "name": "",
          "type": "uint256"
        }
      ],
      "stateMutability": "view",
      "type": "function"
    },
    {
      "inputs": [],
      "name": "owner",
      "outputs": [
        {
          "internalType": "address",
          "name": "",
          "type": "address"
        }
      ],
      "stateMutability": "view",
      "type": "function"
    },
    {
      "inputs": [
        {
          "internalType": "uint256",
          "name": "",
          "type": "uint256"
        }
      ],
      "name": "registered_stock",
      "outputs": [
        {
          "internalType": "uint256",
          "name": "",
          "type": "uint256"
        }
      ],
      "stateMutability": "view",
      "type": "function"
    },
    {
      "inputs": [
        {
          "internalType": "uint256",
          "name": "vac",
          "type": "uint256"
        },
        {
          "internalType": "uint256",
          "name": "qty",
          "type": "uint256"
        },
        {
          "internalType": "contract Manufacturer",
          "name": "_manufacturer",
          "type": "address"
        }
      ],
      "name": "makeOrder",
      "outputs": [
        {
          "internalType": "bool",
          "name": "",
          "type": "bool"
        }
      ],
      "stateMutability": "nonpayable",
      "type": "function"
    },
    {
      "inputs": [
        {
          "internalType": "uint256",
          "name": "_aadhar",
          "type": "uint256"
        },
        {
          "internalType": "uint256",
          "name": "_vaccine",
          "type": "uint256"
        }
      ],
      "name": "registerBeneficiaryFirstVaccine",
      "outputs": [],
      "stateMutability": "nonpayable",
      "type": "function"
    },
    {
      "inputs": [
        {
          "internalType": "uint256",
          "name": "_aadhar",
          "type": "uint256"
        },
        {
          "internalType": "contract Beneficiary",
          "name": "_beneficiary",
          "type": "address"
        }
      ],
      "name": "registerBeneficiarySecondVaccine",
      "outputs": [],
      "stateMutability": "nonpayable",
      "type": "function"
    },
    {
      "inputs": [],
      "name": "getCenterNo",
      "outputs": [
        {
          "internalType": "uint256",
          "name": "",
          "type": "uint256"
        }
      ],
      "stateMutability": "view",
      "type": "function"
    },
    {
      "inputs": [
        {
          "internalType": "uint256",
          "name": "_aadhar",
          "type": "uint256"
        },
        {
          "internalType": "contract Beneficiary",
          "name": "_beneficiary",
          "type": "address"
        }
      ],
      "name": "vaccinationDone",
      "outputs": [],
      "stateMutability": "nonpayable",
      "type": "function"
    },
    {
      "inputs": [
        {
          "internalType": "uint256",
          "name": "_vaccine",
          "type": "uint256"
        },
        {
          "internalType": "uint256",
          "name": "qty",
          "type": "uint256"
        },
        {
          "internalType": "address",
          "name": "_manufacturer",
          "type": "address"
        }
      ],
      "name": "receivedVaccine",
      "outputs": [],
      "stateMutability": "nonpayable",
      "type": "function"
    },
    {
      "inputs": [],
      "name": "getInfo",
      "outputs": [
        {
          "internalType": "address",
          "name": "",
          "type": "address"
        },
        {
          "internalType": "uint256",
          "name": "",
          "type": "uint256"
        },
        {
          "components": [
            {
              "internalType": "uint256",
              "name": "a",
              "type": "uint256"
            },
            {
              "internalType": "uint256",
              "name": "b",
              "type": "uint256"
            },
            {
              "internalType": "uint256",
              "name": "c",
              "type": "uint256"
            },
            {
              "internalType": "uint256",
              "name": "d",
              "type": "uint256"
            }
          ],
          "internalType": "struct Admin.stocks",
          "name": "",
          "type": "tuple"
        },
        {
          "components": [
            {
              "internalType": "uint256",
              "name": "a",
              "type": "uint256"
            },
            {
              "internalType": "uint256",
              "name": "b",
              "type": "uint256"
            },
            {
              "internalType": "uint256",
              "name": "c",
              "type": "uint256"
            },
            {
              "internalType": "uint256",
              "name": "d",
              "type": "uint256"
            }
          ],
          "internalType": "struct Admin.stocks",
          "name": "",
          "type": "tuple"
        },
        {
          "components": [
            {
              "internalType": "uint256",
              "name": "a",
              "type": "uint256"
            },
            {
              "internalType": "uint256",
              "name": "b",
              "type": "uint256"
            },
            {
              "internalType": "uint256",
              "name": "c",
              "type": "uint256"
            },
            {
              "internalType": "uint256",
              "name": "d",
              "type": "uint256"
            }
          ],
          "internalType": "struct Admin.stocks",
          "name": "",
          "type": "tuple"
        }
      ],
      "stateMutability": "view",
      "type": "function"
    }
  ],
  "bytecode": "0x608060405260006006553480156200001657600080fd5b50604051620013713803806200137183398181016040528101906200003c919062000130565b806000806101000a81548173ffffffffffffffffffffffffffffffffffffffff021916908373ffffffffffffffffffffffffffffffffffffffff16021790555081600181905550505062000177565b600080fd5b6000819050919050565b620000a58162000090565b8114620000b157600080fd5b50565b600081519050620000c5816200009a565b92915050565b600073ffffffffffffffffffffffffffffffffffffffff82169050919050565b6000620000f882620000cb565b9050919050565b6200010a81620000eb565b81146200011657600080fd5b50565b6000815190506200012a81620000ff565b92915050565b600080604083850312156200014a57620001496200008b565b5b60006200015a85828601620000b4565b92505060206200016d8582860162000119565b9150509250929050565b6111ea80620001876000396000f3fe608060405234801561001057600080fd5b50600436106100b45760003560e01c806376c524961161007157806376c52496146101a35780638da5cb5b146101bf578063bcc0312c146101dd578063d3cc2e0d146101fb578063f3a380d31461022b578063fbbd38d914610247576100b4565b806311fc3b4e146100b95780631b0e9bcd146100e95780633c70d04a146101195780635a9b0b89146101495780636903b7161461016b578063750a49cc14610187575b600080fd5b6100d360048036038101906100ce9190610ba9565b610277565b6040516100e09190610c17565b60405180910390f35b61010360048036038101906100fe9190610c32565b61035d565b6040516101109190610c6e565b60405180910390f35b610133600480360381019061012e9190610c32565b610375565b6040516101409190610c6e565b60405180910390f35b61015161038d565b604051610162959493929190610cfc565b60405180910390f35b61018560048036038101906101809190610d51565b610530565b005b6101a1600480360381019061019c9190610dbd565b610610565b005b6101bd60048036038101906101b89190610e4e565b610682565b005b6101c761088b565b6040516101d49190610e8e565b60405180910390f35b6101e56108af565b6040516101f29190610c6e565b60405180910390f35b61021560048036038101906102109190610c32565b6108b9565b6040516102229190610c6e565b60405180910390f35b61024560048036038101906102409190610e4e565b6108d1565b005b610261600480360381019061025c9190610c32565b610abe565b60405161026e9190610c6e565b60405180910390f35b60008173ffffffffffffffffffffffffffffffffffffffff16635fc50a2f858560008054906101000a900473ffffffffffffffffffffffffffffffffffffffff166040518463ffffffff1660e01b81526004016102d693929190610ea9565b6020604051808303816000875af11580156102f5573d6000803e3d6000fd5b505050506040513d601f19601f820116820180604052508101906103199190610f0c565b1561035157826004600086815260200190815260200160002060008282546103419190610f68565b9250508190555060019050610356565b600090505b9392505050565b60046020528060005260406000206000915090505481565b60026020528060005260406000206000915090505481565b600080610398610ad6565b6103a0610ad6565b6103a8610ad6565b60008054906101000a900473ffffffffffffffffffffffffffffffffffffffff16600154604051806080016040528060026000600181526020019081526020016000205481526020016002600060028152602001908152602001600020548152602001600260006003815260200190815260200160002054815260200160026000600481526020019081526020016000205481525060405180608001604052806004600060018152602001908152602001600020548152602001600460006002815260200190815260200160002054815260200160046000600381526020019081526020016000205481526020016004600060048152602001908152602001600020548152506040518060800160405280600560006001815260200190815260200160002054815260200160056000600281526020019081526020016000205481526020016005600060038152602001908152602001600020548152602001600560006004815260200190815260200160002054815250945094509450945094509091929394565b6000600260008381526020019081526020016000205411610586576040517f08c379a000000000000000000000000000000000000000000000000000000000815260040161057d9061101b565b60405180910390fd5b60016002600083815260200190815260200160002060008282546105aa919061103b565b925050819055506001600660008282546105c4919061103b565b925050819055508060036000848152602001908152602001600020819055506005600082815260200190815260200160002060008154809291906106079061106f565b91905055505050565b816002600085815260200190815260200160002060008282546106339190610f68565b92505081905550816006600082825461064c9190610f68565b9250508190555081600460008581526020019081526020016000206000828254610676919061103b565b92505081905550505050565b8073ffffffffffffffffffffffffffffffffffffffff166368e7ad366040518163ffffffff1660e01b8152600401600060405180830381600087803b1580156106ca57600080fd5b505af11580156106de573d6000803e3d6000fd5b5050505060018173ffffffffffffffffffffffffffffffffffffffff1663eb8704736040518163ffffffff1660e01b8152600401602060405180830381865afa15801561072f573d6000803e3d6000fd5b505050506040513d601f19601f8201168201806040525081019061075391906110cc565b036107d7578073ffffffffffffffffffffffffffffffffffffffff166354c3098460036000858152602001908152602001600020546040518263ffffffff1660e01b81526004016107a49190610c6e565b600060405180830381600087803b1580156107be57600080fd5b505af11580156107d2573d6000803e3d6000fd5b505050505b60006003600084815260200190815260200160002081905550600560008273ffffffffffffffffffffffffffffffffffffffff1663a846118b6040518163ffffffff1660e01b8152600401602060405180830381865afa15801561083f573d6000803e3d6000fd5b505050506040513d601f19601f8201168201806040525081019061086391906110cc565b81526020019081526020016000206000815480929190610882906110f9565b91905055505050565b60008054906101000a900473ffffffffffffffffffffffffffffffffffffffff1681565b6000600154905090565b60056020528060005260406000206000915090505481565b60008173ffffffffffffffffffffffffffffffffffffffff1663eb8704736040518163ffffffff1660e01b8152600401602060405180830381865afa15801561091e573d6000803e3d6000fd5b505050506040513d601f19601f8201168201806040525081019061094291906110cc565b14610982576040517f08c379a000000000000000000000000000000000000000000000000000000000815260040161097990611194565b60405180910390fd5b60008173ffffffffffffffffffffffffffffffffffffffff1663a846118b6040518163ffffffff1660e01b8152600401602060405180830381865afa1580156109cf573d6000803e3d6000fd5b505050506040513d601f19601f820116820180604052508101906109f391906110cc565b90506000600260008381526020019081526020016000205411610a4b576040517f08c379a0000000000000000000000000000000000000000000000000000000008152600401610a429061101b565b60405180910390fd5b6001600260008381526020019081526020016000206000828254610a6f919061103b565b92505081905550600160066000828254610a89919061103b565b92505081905550600560008281526020019081526020016000206000815480929190610ab49061106f565b9190505550505050565b60036020528060005260406000206000915090505481565b6040518060800160405280600081526020016000815260200160008152602001600081525090565b600080fd5b6000819050919050565b610b1681610b03565b8114610b2157600080fd5b50565b600081359050610b3381610b0d565b92915050565b600073ffffffffffffffffffffffffffffffffffffffff82169050919050565b6000610b6482610b39565b9050919050565b6000610b7682610b59565b9050919050565b610b8681610b6b565b8114610b9157600080fd5b50565b600081359050610ba381610b7d565b92915050565b600080600060608486031215610bc257610bc1610afe565b5b6000610bd086828701610b24565b9350506020610be186828701610b24565b9250506040610bf286828701610b94565b9150509250925092565b60008115159050919050565b610c1181610bfc565b82525050565b6000602082019050610c2c6000830184610c08565b92915050565b600060208284031215610c4857610c47610afe565b5b6000610c5684828501610b24565b91505092915050565b610c6881610b03565b82525050565b6000602082019050610c836000830184610c5f565b92915050565b610c9281610b59565b82525050565b610ca181610b03565b82525050565b608082016000820151610cbd6000850182610c98565b506020820151610cd06020850182610c98565b506040820151610ce36040850182610c98565b506060820151610cf66060850182610c98565b50505050565b60006101c082019050610d126000830188610c89565b610d1f6020830187610c5f565b610d2c6040830186610ca7565b610d3960c0830185610ca7565b610d47610140830184610ca7565b9695505050505050565b60008060408385031215610d6857610d67610afe565b5b6000610d7685828601610b24565b9250506020610d8785828601610b24565b9150509250929050565b610d9a81610b59565b8114610da557600080fd5b50565b600081359050610db781610d91565b92915050565b600080600060608486031215610dd657610dd5610afe565b5b6000610de486828701610b24565b9350506020610df586828701610b24565b9250506040610e0686828701610da8565b9150509250925092565b6000610e1b82610b59565b9050919050565b610e2b81610e10565b8114610e3657600080fd5b50565b600081359050610e4881610e22565b92915050565b60008060408385031215610e6557610e64610afe565b5b6000610e7385828601610b24565b9250506020610e8485828601610e39565b9150509250929050565b6000602082019050610ea36000830184610c89565b92915050565b6000606082019050610ebe6000830186610c5f565b610ecb6020830185610c5f565b610ed86040830184610c89565b949350505050565b610ee981610bfc565b8114610ef457600080fd5b50565b600081519050610f0681610ee0565b92915050565b600060208284031215610f2257610f21610afe565b5b6000610f3084828501610ef7565b91505092915050565b7f4e487b7100000000000000000000000000000000000000000000000000000000600052601160045260246000fd5b6000610f7382610b03565b9150610f7e83610b03565b9250827fffffffffffffffffffffffffffffffffffffffffffffffffffffffffffffffff03821115610fb357610fb2610f39565b5b828201905092915050565b600082825260208201905092915050565b7f496e73756666696369656e742053746f636b7300000000000000000000000000600082015250565b6000611005601383610fbe565b915061101082610fcf565b602082019050919050565b6000602082019050818103600083015261103481610ff8565b9050919050565b600061104682610b03565b915061105183610b03565b92508282101561106457611063610f39565b5b828203905092915050565b600061107a82610b03565b91507fffffffffffffffffffffffffffffffffffffffffffffffffffffffffffffffff82036110ac576110ab610f39565b5b600182019050919050565b6000815190506110c681610b0d565b92915050565b6000602082840312156110e2576110e1610afe565b5b60006110f0848285016110b7565b91505092915050565b600061110482610b03565b91506000820361111757611116610f39565b5b600182039050919050565b7f546869732063616e6e6f74206265207468652062656e6566696369617279207360008201527f65636f6e642076616363696e6500000000000000000000000000000000000000602082015250565b600061117e602d83610fbe565b915061118982611122565b604082019050919050565b600060208201905081810360008301526111ad81611171565b905091905056fea26469706673582212203b82809f8a717a5b2487d3274346a5574acfaa446c89a049236ea488ffc1f10e64736f6c634300080d0033",
  "immutableReferences": {},
  "source": "// SPDX-License-Identifier: MIT\r\n\r\npragma solidity ^0.8.13;\r\n\r\nimport \"./Manufacturer.sol\";\r\nimport \"./Manufacturers.sol\";\r\nimport \"./Beneficiary.sol\";\r\n\r\ncontract Admin {\r\n    address public owner;\r\n\r\n    uint256 centre_no;\r\n    mapping(uint256 => uint256) public available_stock;\r\n    mapping(uint256 => uint256) public registered_stock;\r\n    mapping(uint256 => uint256) public number_of_ordered_stocks;\r\n    mapping(uint256 => uint256) public number_of_registered_stocks;\r\n    struct stocks {\r\n        uint256 a;\r\n        uint256 b;\r\n        uint256 c;\r\n        uint256 d;\r\n    }\r\n\r\n    uint256 totalVaccines = 0;\r\n\r\n    constructor(uint256 n, address add) {\r\n        owner = add;\r\n        centre_no = n;\r\n    }\r\n\r\n    function makeOrder(\r\n        uint256 vac,\r\n        uint256 qty,\r\n        Manufacturer _manufacturer\r\n    ) public returns (bool) {\r\n        if (_manufacturer.receiveOrder(vac, qty, owner)) {\r\n            number_of_ordered_stocks[vac] += qty;\r\n            return true;\r\n        } else {\r\n            return false;\r\n        }\r\n    }\r\n\r\n    function registerBeneficiaryFirstVaccine(uint256 _aadhar, uint256 _vaccine)\r\n        public\r\n    {\r\n        require(available_stock[_vaccine] > 0, \"Insufficient Stocks\");\r\n        available_stock[_vaccine] -= 1;\r\n        totalVaccines -= 1;\r\n        registered_stock[_aadhar] = _vaccine;\r\n        number_of_registered_stocks[_vaccine]++;\r\n    }\r\n\r\n    function registerBeneficiarySecondVaccine(uint _aadhar, Beneficiary _beneficiary) public {\r\n        require(\r\n            _beneficiary.getNumOfDoses() == 0,\r\n            \"This cannot be the beneficiary second vaccine\"\r\n        );\r\n        uint256 _vaccine = _beneficiary.getVaccineType();\r\n        require(available_stock[_vaccine] > 0, \"Insufficient Stocks\");\r\n        available_stock[_vaccine] -= 1;\r\n        totalVaccines -= 1;\r\n        number_of_registered_stocks[_vaccine]++;\r\n    }\r\n\r\n    function getCenterNo() public view returns(uint){\r\n        return centre_no;\r\n    }\r\n\r\n    function vaccinationDone(uint _aadhar, Beneficiary _beneficiary) public {\r\n        _beneficiary.increaseNumOfDoses();\r\n        if (_beneficiary.getNumOfDoses() == 1)\r\n            _beneficiary.setVaccineType(registered_stock[_aadhar]);\r\n        registered_stock[_aadhar] = 0;\r\n        number_of_registered_stocks[_beneficiary.getVaccineType()]--;\r\n    }\r\n\r\n    function receivedVaccine(\r\n        uint256 _vaccine,\r\n        uint256 qty,\r\n        address _manufacturer\r\n    ) public {\r\n        // require(\r\n        //     ordered_stocks[_manufacturer][_vaccine] != 0,\r\n        //     \"No order had been placed with this manufacturer\"\r\n        // );\r\n        // require(\r\n        //     ordered_stocks[_manufacturer][_vaccine] >= qty,\r\n        //     \"More than ordered vaccines has been received\"\r\n        // );\r\n        available_stock[_vaccine] += qty;\r\n        totalVaccines += qty;\r\n        number_of_ordered_stocks[_vaccine] -= qty;\r\n    }\r\n\r\n    function getInfo()\r\n        public\r\n        view\r\n        returns (\r\n            address,\r\n            uint256,\r\n            stocks memory,\r\n            stocks memory,\r\n            stocks memory\r\n        )\r\n    {\r\n        return (\r\n            owner,\r\n            centre_no,\r\n            stocks(\r\n                available_stock[1],\r\n                available_stock[2],\r\n                available_stock[3],\r\n                available_stock[4]\r\n            ),\r\n            stocks(\r\n                number_of_ordered_stocks[1],\r\n                number_of_ordered_stocks[2],\r\n                number_of_ordered_stocks[3],\r\n                number_of_ordered_stocks[4]\r\n            ),\r\n            stocks(\r\n                number_of_registered_stocks[1],\r\n                number_of_registered_stocks[2],\r\n                number_of_registered_stocks[3],\r\n                number_of_registered_stocks[4]\r\n            )\r\n        );\r\n    }\r\n}\r\n",
  "sourcePath": "C:\\Users\\mdzai\\Desktop\\VCSM-Blockchain\\contracts\\Admin.sol",
  "compiler": {
    "name": "solc",
    "version": "0.8.13+commit.abaa5c0e.Emscripten.clang"
  },
  "schemaVersion": "3.4.7",
  "updatedAt": "2022-04-26T15:22:30.005Z",
  "devdoc": {
    "kind": "dev",
    "methods": {},
    "version": 1
  },
  "userdoc": {
    "kind": "user",
    "methods": {},
    "version": 1
  }
}