{
  "contractName": "Delivery",
  "abi": [
    {
      "inputs": [
        {
          "internalType": "address",
          "name": "_from",
          "type": "address"
        },
        {
          "internalType": "address",
          "name": "_to",
          "type": "address"
        },
        {
          "internalType": "uint256",
          "name": "_vaccine",
          "type": "uint256"
        },
        {
          "internalType": "uint256",
          "name": "_qty",
          "type": "uint256"
        }
      ],
      "stateMutability": "nonpayable",
      "type": "constructor"
    },
    {
      "inputs": [
        {
          "internalType": "string",
          "name": "_location",
          "type": "string"
        }
      ],
      "name": "locationUpdate",
      "outputs": [],
      "stateMutability": "nonpayable",
      "type": "function"
    },
    {
      "inputs": [
        {
          "internalType": "uint256",
          "name": "_humidity",
          "type": "uint256"
        }
      ],
      "name": "humidityUpdate",
      "outputs": [],
      "stateMutability": "nonpayable",
      "type": "function"
    },
    {
      "inputs": [
        {
          "internalType": "uint256",
          "name": "_temp",
          "type": "uint256"
        }
      ],
      "name": "tempUpdate",
      "outputs": [],
      "stateMutability": "nonpayable",
      "type": "function"
    },
    {
      "inputs": [],
      "name": "openUpdate",
      "outputs": [],
      "stateMutability": "nonpayable",
      "type": "function"
    },
    {
      "inputs": [],
      "name": "orderReached",
      "outputs": [],
      "stateMutability": "nonpayable",
      "type": "function"
    }
  ],
  "bytecode": "0x60806040526001600660006101000a81548160ff02191690831515021790555034801561002b57600080fd5b50604051610795380380610795833981810160405281019061004d919061017e565b836000806101000a81548173ffffffffffffffffffffffffffffffffffffffff021916908373ffffffffffffffffffffffffffffffffffffffff16021790555082600160006101000a81548173ffffffffffffffffffffffffffffffffffffffff021916908373ffffffffffffffffffffffffffffffffffffffff1602179055508160028190555080600381905550505050506101e5565b600080fd5b600073ffffffffffffffffffffffffffffffffffffffff82169050919050565b6000610115826100ea565b9050919050565b6101258161010a565b811461013057600080fd5b50565b6000815190506101428161011c565b92915050565b6000819050919050565b61015b81610148565b811461016657600080fd5b50565b60008151905061017881610152565b92915050565b60008060008060808587031215610198576101976100e5565b5b60006101a687828801610133565b94505060206101b787828801610133565b93505060406101c887828801610169565b92505060606101d987828801610169565b91505092959194509250565b6105a1806101f46000396000f3fe608060405234801561001057600080fd5b50600436106100575760003560e01c806310272d131461005c578063258b43d7146100665780634acc3a8e1461008257806356dcb0221461008c578063aae8107b146100a8575b600080fd5b6100646100c4565b005b610080600480360381019061007b91906102c8565b610181565b005b61008a61018b565b005b6100a660048036038101906100a1919061043b565b6101b7565b005b6100c260048036038101906100bd91906102c8565b6101d1565b005b6000600160009054906101000a900473ffffffffffffffffffffffffffffffffffffffff1690508073ffffffffffffffffffffffffffffffffffffffff1663750a49cc60025460035460008054906101000a900473ffffffffffffffffffffffffffffffffffffffff166040518463ffffffff1660e01b815260040161014c939291906104d4565b600060405180830381600087803b15801561016657600080fd5b505af115801561017a573d6000803e3d6000fd5b5050505050565b8060078190555050565b600660009054906101000a900460ff1615600660006101000a81548160ff021916908315150217905550565b80600490805190602001906101cd9291906101db565b5050565b8060058190555050565b8280546101e79061053a565b90600052602060002090601f0160209004810192826102095760008555610250565b82601f1061022257805160ff1916838001178555610250565b82800160010185558215610250579182015b8281111561024f578251825591602001919060010190610234565b5b50905061025d9190610261565b5090565b5b8082111561027a576000816000905550600101610262565b5090565b6000604051905090565b600080fd5b600080fd5b6000819050919050565b6102a581610292565b81146102b057600080fd5b50565b6000813590506102c28161029c565b92915050565b6000602082840312156102de576102dd610288565b5b60006102ec848285016102b3565b91505092915050565b600080fd5b600080fd5b6000601f19601f8301169050919050565b7f4e487b7100000000000000000000000000000000000000000000000000000000600052604160045260246000fd5b610348826102ff565b810181811067ffffffffffffffff8211171561036757610366610310565b5b80604052505050565b600061037a61027e565b9050610386828261033f565b919050565b600067ffffffffffffffff8211156103a6576103a5610310565b5b6103af826102ff565b9050602081019050919050565b82818337600083830152505050565b60006103de6103d98461038b565b610370565b9050828152602081018484840111156103fa576103f96102fa565b5b6104058482856103bc565b509392505050565b600082601f830112610422576104216102f5565b5b81356104328482602086016103cb565b91505092915050565b60006020828403121561045157610450610288565b5b600082013567ffffffffffffffff81111561046f5761046e61028d565b5b61047b8482850161040d565b91505092915050565b61048d81610292565b82525050565b600073ffffffffffffffffffffffffffffffffffffffff82169050919050565b60006104be82610493565b9050919050565b6104ce816104b3565b82525050565b60006060820190506104e96000830186610484565b6104f66020830185610484565b61050360408301846104c5565b949350505050565b7f4e487b7100000000000000000000000000000000000000000000000000000000600052602260045260246000fd5b6000600282049050600182168061055257607f821691505b6020821081036105655761056461050b565b5b5091905056fea26469706673582212202f9e91bb5c6b41992515175578590ce3141da01c6e8eefe741961c3f5d0fadfa64736f6c634300080d0033",
  "immutableReferences": {},
  "source": "// SPDX-License-Identifier:MIT\r\n\r\npragma solidity ^0.8.13;\r\n\r\nimport \"./Admin.sol\";\r\n\r\ncontract Delivery{\r\n    address from;\r\n    address to;\r\n    uint vaccine;\r\n    uint qty;\r\n    string location;\r\n    uint temp;\r\n    bool open = true;\r\n    uint humidity;\r\n\r\n    constructor(address _from, address _to, uint _vaccine, uint _qty){\r\n        from = _from;\r\n        to = _to;\r\n        vaccine = _vaccine;\r\n        qty = _qty;\r\n    }\r\n\r\n    function locationUpdate(string memory _location) public {\r\n        location = _location;\r\n    }\r\n\r\n    function humidityUpdate(uint _humidity) public {\r\n        humidity = _humidity;\r\n    }\r\n    \r\n    function tempUpdate(uint _temp) public{\r\n        temp = _temp;\r\n    }\r\n\r\n    function openUpdate() public{\r\n        open = !open;\r\n    }\r\n\r\n    function orderReached() public {\r\n        Admin admin = Admin(to);\r\n        admin.receivedVaccine(vaccine, qty, from);\r\n    }\r\n}",
  "sourcePath": "C:\\Users\\mdzai\\Desktop\\VCSM-Blockchain\\contracts\\Delivery.sol",
  "compiler": {
    "name": "solc",
    "version": "0.8.13+commit.abaa5c0e.Emscripten.clang"
  },
  "schemaVersion": "3.4.7",
  "updatedAt": "2022-04-24T06:48:46.794Z",
  "devdoc": {
    "kind": "dev",
    "methods": {},
    "version": 1
  },
  "userdoc": {
    "kind": "user",
    "methods": {},
    "version": 1
  }
}