{
  "contractName": "Delivery",
  "abi": [
    {
      "inputs": [
        {
          "internalType": "address",
          "name": "_from",
          "type": "address"
        },
        {
          "internalType": "address",
          "name": "_to",
          "type": "address"
        },
        {
          "internalType": "uint256",
          "name": "_vaccine",
          "type": "uint256"
        },
        {
          "internalType": "uint256",
          "name": "_qty",
          "type": "uint256"
        }
      ],
      "stateMutability": "nonpayable",
      "type": "constructor"
    },
    {
      "inputs": [
        {
          "internalType": "string",
          "name": "_location",
          "type": "string"
        }
      ],
      "name": "locationUpdate",
      "outputs": [],
      "stateMutability": "nonpayable",
      "type": "function"
    },
    {
      "inputs": [
        {
          "internalType": "uint256",
          "name": "_humidity",
          "type": "uint256"
        }
      ],
      "name": "humidityUpdate",
      "outputs": [],
      "stateMutability": "nonpayable",
      "type": "function"
    },
    {
      "inputs": [
        {
          "internalType": "uint256",
          "name": "_temp",
          "type": "uint256"
        }
      ],
      "name": "tempUpdate",
      "outputs": [],
      "stateMutability": "nonpayable",
      "type": "function"
    },
    {
      "inputs": [],
      "name": "openUpdate",
      "outputs": [],
      "stateMutability": "nonpayable",
      "type": "function"
    },
    {
      "inputs": [
        {
          "internalType": "contract Admins",
          "name": "_admins",
          "type": "address"
        }
      ],
      "name": "orderReached",
      "outputs": [],
      "stateMutability": "nonpayable",
      "type": "function"
    },
    {
      "inputs": [],
      "name": "getInfo",
      "outputs": [
        {
          "components": [
            {
              "internalType": "uint256",
              "name": "vac",
              "type": "uint256"
            },
            {
              "internalType": "uint256",
              "name": "qty",
              "type": "uint256"
            },
            {
              "internalType": "address",
              "name": "_admin",
              "type": "address"
            }
          ],
          "internalType": "struct Delivery.deliveryInfo",
          "name": "",
          "type": "tuple"
        }
      ],
      "stateMutability": "view",
      "type": "function"
    }
  ],
  "bytecode": "0x60806040526001600660006101000a81548160ff02191690831515021790555034801561002b57600080fd5b50604051610a51380380610a51833981810160405281019061004d919061017e565b836000806101000a81548173ffffffffffffffffffffffffffffffffffffffff021916908373ffffffffffffffffffffffffffffffffffffffff16021790555082600160006101000a81548173ffffffffffffffffffffffffffffffffffffffff021916908373ffffffffffffffffffffffffffffffffffffffff1602179055508160028190555080600381905550505050506101e5565b600080fd5b600073ffffffffffffffffffffffffffffffffffffffff82169050919050565b6000610115826100ea565b9050919050565b6101258161010a565b811461013057600080fd5b50565b6000815190506101428161011c565b92915050565b6000819050919050565b61015b81610148565b811461016657600080fd5b50565b60008151905061017881610152565b92915050565b60008060008060808587031215610198576101976100e5565b5b60006101a687828801610133565b94505060206101b787828801610133565b93505060406101c887828801610169565b92505060606101d987828801610169565b91505092959194509250565b61085d806101f46000396000f3fe608060405234801561001057600080fd5b50600436106100625760003560e01c8063258b43d7146100675780634acc3a8e146100835780635125e7021461008d57806356dcb022146100a95780635a9b0b89146100c5578063aae8107b146100e3575b600080fd5b610081600480360381019061007c9190610418565b6100ff565b005b61008b610109565b005b6100a760048036038101906100a291906104b5565b610135565b005b6100c360048036038101906100be9190610628565b61026c565b005b6100cd610286565b6040516100da91906106d1565b60405180910390f35b6100fd60048036038101906100f89190610418565b6102ea565b005b8060078190555050565b600660009054906101000a900460ff1615600660006101000a81548160ff021916908315150217905550565b60008173ffffffffffffffffffffffffffffffffffffffff166364efb22b600160009054906101000a900473ffffffffffffffffffffffffffffffffffffffff166040518263ffffffff1660e01b815260040161019291906106fb565b602060405180830381865afa1580156101af573d6000803e3d6000fd5b505050506040513d601f19601f820116820180604052508101906101d39190610754565b90508073ffffffffffffffffffffffffffffffffffffffff1663750a49cc60025460035460008054906101000a900473ffffffffffffffffffffffffffffffffffffffff166040518463ffffffff1660e01b815260040161023693929190610790565b600060405180830381600087803b15801561025057600080fd5b505af1158015610264573d6000803e3d6000fd5b505050505050565b80600490805190602001906102829291906102f4565b5050565b61028e61037a565b604051806060016040528060025481526020016003548152602001600160009054906101000a900473ffffffffffffffffffffffffffffffffffffffff1673ffffffffffffffffffffffffffffffffffffffff16815250905090565b8060058190555050565b828054610300906107f6565b90600052602060002090601f0160209004810192826103225760008555610369565b82601f1061033b57805160ff1916838001178555610369565b82800160010185558215610369579182015b8281111561036857825182559160200191906001019061034d565b5b50905061037691906103b1565b5090565b60405180606001604052806000815260200160008152602001600073ffffffffffffffffffffffffffffffffffffffff1681525090565b5b808211156103ca5760008160009055506001016103b2565b5090565b6000604051905090565b600080fd5b600080fd5b6000819050919050565b6103f5816103e2565b811461040057600080fd5b50565b600081359050610412816103ec565b92915050565b60006020828403121561042e5761042d6103d8565b5b600061043c84828501610403565b91505092915050565b600073ffffffffffffffffffffffffffffffffffffffff82169050919050565b600061047082610445565b9050919050565b600061048282610465565b9050919050565b61049281610477565b811461049d57600080fd5b50565b6000813590506104af81610489565b92915050565b6000602082840312156104cb576104ca6103d8565b5b60006104d9848285016104a0565b91505092915050565b600080fd5b600080fd5b6000601f19601f8301169050919050565b7f4e487b7100000000000000000000000000000000000000000000000000000000600052604160045260246000fd5b610535826104ec565b810181811067ffffffffffffffff82111715610554576105536104fd565b5b80604052505050565b60006105676103ce565b9050610573828261052c565b919050565b600067ffffffffffffffff821115610593576105926104fd565b5b61059c826104ec565b9050602081019050919050565b82818337600083830152505050565b60006105cb6105c684610578565b61055d565b9050828152602081018484840111156105e7576105e66104e7565b5b6105f28482856105a9565b509392505050565b600082601f83011261060f5761060e6104e2565b5b813561061f8482602086016105b8565b91505092915050565b60006020828403121561063e5761063d6103d8565b5b600082013567ffffffffffffffff81111561065c5761065b6103dd565b5b610668848285016105fa565b91505092915050565b61067a816103e2565b82525050565b61068981610465565b82525050565b6060820160008201516106a56000850182610671565b5060208201516106b86020850182610671565b5060408201516106cb6040850182610680565b50505050565b60006060820190506106e6600083018461068f565b92915050565b6106f581610465565b82525050565b600060208201905061071060008301846106ec565b92915050565b600061072182610465565b9050919050565b61073181610716565b811461073c57600080fd5b50565b60008151905061074e81610728565b92915050565b60006020828403121561076a576107696103d8565b5b60006107788482850161073f565b91505092915050565b61078a816103e2565b82525050565b60006060820190506107a56000830186610781565b6107b26020830185610781565b6107bf60408301846106ec565b949350505050565b7f4e487b7100000000000000000000000000000000000000000000000000000000600052602260045260246000fd5b6000600282049050600182168061080e57607f821691505b602082108103610821576108206107c7565b5b5091905056fea264697066735822122080d657b4ce97b87e2dfa452019bfd119438845f681e69bdc84098e085aee8f4264736f6c634300080d0033",
  "immutableReferences": {},
  "source": "// SPDX-License-Identifier:MIT\r\n\r\npragma solidity ^0.8.13;\r\n\r\nimport \"./Admin.sol\";\r\nimport \"./Admins.sol\";\r\n\r\ncontract Delivery {\r\n    struct deliveryInfo {\r\n        uint256 vac;\r\n        uint256 qty;\r\n        address _admin;\r\n    }\r\n    address from;\r\n    address to;\r\n    uint256 vaccine;\r\n    uint256 qty;\r\n    string location;\r\n    uint256 temp;\r\n    bool open = true;\r\n    uint256 humidity;\r\n\r\n    constructor(\r\n        address _from,\r\n        address _to,\r\n        uint256 _vaccine,\r\n        uint256 _qty\r\n    ) {\r\n        from = _from;\r\n        to = _to;\r\n        vaccine = _vaccine;\r\n        qty = _qty;\r\n    }\r\n\r\n    function locationUpdate(string memory _location) public {\r\n        location = _location;\r\n    }\r\n\r\n    function humidityUpdate(uint256 _humidity) public {\r\n        humidity = _humidity;\r\n    }\r\n\r\n    function tempUpdate(uint256 _temp) public {\r\n        temp = _temp;\r\n    }\r\n\r\n    function openUpdate() public {\r\n        open = !open;\r\n    }\r\n\r\n    function orderReached(Admins _admins) public {\r\n        Admin admin = _admins.getAdmin(to);\r\n        admin.receivedVaccine(vaccine, qty, from);\r\n    }\r\n\r\n    function getInfo() public view returns(deliveryInfo memory){\r\n        return deliveryInfo(vaccine, qty, to);\r\n    }\r\n}\r\n",
  "sourcePath": "C:\\Users\\mdzai\\Desktop\\VCSM-Blockchain\\contracts\\Delivery.sol",
  "compiler": {
    "name": "solc",
    "version": "0.8.13+commit.abaa5c0e.Emscripten.clang"
  },
  "schemaVersion": "3.4.7",
  "updatedAt": "2022-04-28T04:45:50.663Z",
  "devdoc": {
    "kind": "dev",
    "methods": {},
    "version": 1
  },
  "userdoc": {
    "kind": "user",
    "methods": {},
    "version": 1
  }
}