{
  "contractName": "Manufacturer",
  "abi": [
    {
      "inputs": [
        {
          "internalType": "address",
          "name": "add",
          "type": "address"
        }
      ],
      "stateMutability": "nonpayable",
      "type": "constructor"
    },
    {
      "inputs": [
        {
          "internalType": "uint256",
          "name": "",
          "type": "uint256"
        }
      ],
      "name": "number_of_ordered_stocks",
      "outputs": [
        {
          "internalType": "uint256",
          "name": "",
          "type": "uint256"
        }
      ],
      "stateMutability": "view",
      "type": "function"
    },
    {
      "inputs": [
        {
          "internalType": "uint256",
          "name": "",
          "type": "uint256"
        }
      ],
      "name": "number_of_out_for_delivery",
      "outputs": [
        {
          "internalType": "uint256",
          "name": "",
          "type": "uint256"
        }
      ],
      "stateMutability": "view",
      "type": "function"
    },
    {
      "inputs": [],
      "name": "owner",
      "outputs": [
        {
          "internalType": "address",
          "name": "",
          "type": "address"
        }
      ],
      "stateMutability": "view",
      "type": "function"
    },
    {
      "inputs": [
        {
          "internalType": "uint256",
          "name": "vac",
          "type": "uint256"
        },
        {
          "internalType": "uint256",
          "name": "qty",
          "type": "uint256"
        },
        {
          "internalType": "address",
          "name": "_admin",
          "type": "address"
        }
      ],
      "name": "receiveOrder",
      "outputs": [
        {
          "internalType": "bool",
          "name": "",
          "type": "bool"
        }
      ],
      "stateMutability": "nonpayable",
      "type": "function"
    },
    {
      "inputs": [
        {
          "internalType": "uint256",
          "name": "ind",
          "type": "uint256"
        }
      ],
      "name": "removeOrders",
      "outputs": [],
      "stateMutability": "nonpayable",
      "type": "function"
    },
    {
      "inputs": [
        {
          "internalType": "uint256",
          "name": "ind",
          "type": "uint256"
        }
      ],
      "name": "createDelivery",
      "outputs": [],
      "stateMutability": "nonpayable",
      "type": "function"
    },
    {
      "inputs": [
        {
          "internalType": "uint256",
          "name": "ind",
          "type": "uint256"
        }
      ],
      "name": "removeDelivery",
      "outputs": [],
      "stateMutability": "nonpayable",
      "type": "function"
    },
    {
      "inputs": [
        {
          "internalType": "uint256",
          "name": "ind",
          "type": "uint256"
        },
        {
          "internalType": "contract Admins",
          "name": "admin",
          "type": "address"
        }
      ],
      "name": "finishDelivery",
      "outputs": [
        {
          "internalType": "bool",
          "name": "",
          "type": "bool"
        }
      ],
      "stateMutability": "nonpayable",
      "type": "function"
    },
    {
      "inputs": [
        {
          "internalType": "uint256",
          "name": "vac",
          "type": "uint256"
        },
        {
          "internalType": "uint256",
          "name": "qty",
          "type": "uint256"
        }
      ],
      "name": "addStocks",
      "outputs": [],
      "stateMutability": "nonpayable",
      "type": "function"
    },
    {
      "inputs": [],
      "name": "getInfo",
      "outputs": [
        {
          "internalType": "address",
          "name": "",
          "type": "address"
        },
        {
          "components": [
            {
              "internalType": "uint256",
              "name": "a",
              "type": "uint256"
            },
            {
              "internalType": "uint256",
              "name": "b",
              "type": "uint256"
            },
            {
              "internalType": "uint256",
              "name": "c",
              "type": "uint256"
            },
            {
              "internalType": "uint256",
              "name": "d",
              "type": "uint256"
            }
          ],
          "internalType": "struct Manufacturer.stocks",
          "name": "",
          "type": "tuple"
        },
        {
          "components": [
            {
              "internalType": "uint256",
              "name": "a",
              "type": "uint256"
            },
            {
              "internalType": "uint256",
              "name": "b",
              "type": "uint256"
            },
            {
              "internalType": "uint256",
              "name": "c",
              "type": "uint256"
            },
            {
              "internalType": "uint256",
              "name": "d",
              "type": "uint256"
            }
          ],
          "internalType": "struct Manufacturer.stocks",
          "name": "",
          "type": "tuple"
        },
        {
          "components": [
            {
              "internalType": "uint256",
              "name": "a",
              "type": "uint256"
            },
            {
              "internalType": "uint256",
              "name": "b",
              "type": "uint256"
            },
            {
              "internalType": "uint256",
              "name": "c",
              "type": "uint256"
            },
            {
              "internalType": "uint256",
              "name": "d",
              "type": "uint256"
            }
          ],
          "internalType": "struct Manufacturer.stocks",
          "name": "",
          "type": "tuple"
        },
        {
          "internalType": "uint256",
          "name": "a",
          "type": "uint256"
        },
        {
          "internalType": "uint256",
          "name": "b",
          "type": "uint256"
        },
        {
          "internalType": "uint256",
          "name": "c",
          "type": "uint256"
        },
        {
          "internalType": "uint256",
          "name": "d",
          "type": "uint256"
        },
        {
          "components": [
            {
              "internalType": "uint256",
              "name": "vaccine",
              "type": "uint256"
            },
            {
              "internalType": "uint256",
              "name": "qty",
              "type": "uint256"
            },
            {
              "internalType": "address",
              "name": "admin",
              "type": "address"
            }
          ],
          "internalType": "struct Manufacturer.orderInfo[]",
          "name": "order",
          "type": "tuple[]"
        },
        {
          "components": [
            {
              "internalType": "uint256",
              "name": "vac",
              "type": "uint256"
            },
            {
              "internalType": "uint256",
              "name": "qty",
              "type": "uint256"
            },
            {
              "internalType": "address",
              "name": "_admin",
              "type": "address"
            }
          ],
          "internalType": "struct Delivery.deliveryInfo[]",
          "name": "delivery",
          "type": "tuple[]"
        }
      ],
      "stateMutability": "view",
      "type": "function"
    },
    {
      "inputs": [
        {
          "internalType": "uint256",
          "name": "a",
          "type": "uint256"
        },
        {
          "internalType": "uint256",
          "name": "b",
          "type": "uint256"
        },
        {
          "internalType": "uint256",
          "name": "c",
          "type": "uint256"
        },
        {
          "internalType": "uint256",
          "name": "d",
          "type": "uint256"
        }
      ],
      "name": "setPrice",
      "outputs": [],
      "stateMutability": "nonpayable",
      "type": "function"
    },
    {
      "inputs": [],
      "name": "getAllOrders",
      "outputs": [
        {
          "components": [
            {
              "internalType": "uint256",
              "name": "vaccine",
              "type": "uint256"
            },
            {
              "internalType": "uint256",
              "name": "qty",
              "type": "uint256"
            },
            {
              "internalType": "address",
              "name": "admin",
              "type": "address"
            }
          ],
          "internalType": "struct Manufacturer.orderInfo[]",
          "name": "",
          "type": "tuple[]"
        }
      ],
      "stateMutability": "view",
      "type": "function"
    },
    {
      "inputs": [],
      "name": "getAllDeliveries",
      "outputs": [
        {
          "components": [
            {
              "internalType": "uint256",
              "name": "vac",
              "type": "uint256"
            },
            {
              "internalType": "uint256",
              "name": "qty",
              "type": "uint256"
            },
            {
              "internalType": "address",
              "name": "_admin",
              "type": "address"
            }
          ],
          "internalType": "struct Delivery.deliveryInfo[]",
          "name": "",
          "type": "tuple[]"
        }
      ],
      "stateMutability": "view",
      "type": "function"
    }
  ],
  "bytecode": "0x60806040523480156200001157600080fd5b50604051620027ed380380620027ed8339818101604052810190620000379190620000e8565b806000806101000a81548173ffffffffffffffffffffffffffffffffffffffff021916908373ffffffffffffffffffffffffffffffffffffffff160217905550506200011a565b600080fd5b600073ffffffffffffffffffffffffffffffffffffffff82169050919050565b6000620000b08262000083565b9050919050565b620000c281620000a3565b8114620000ce57600080fd5b50565b600081519050620000e281620000b7565b92915050565b6000602082840312156200010157620001006200007e565b5b60006200011184828501620000d1565b91505092915050565b6126c3806200012a6000396000f3fe60806040523480156200001157600080fd5b5060043610620000e15760003560e01c80637bea0d1c11620000995780638f00c315116200006f5780638f00c31514620002575780639b1504891462000279578063d176dd4514620002af578063e00d01df14620002cf57620000e1565b80637bea0d1c14620001f357806385dbe6ee14620002155780638da5cb5b146200023557620000e1565b8062262b6c14620000e65780631b0e9bcd14620001065780634b58143e146200013c5780635a9b0b8914620001725780635fc50a2f146200019d57806375e37fe514620001d3575b600080fd5b620001046004803603810190620000fe91906200122b565b620002ef565b005b6200012460048036038101906200011e919062001272565b6200031f565b604051620001339190620012b5565b60405180910390f35b6200015a600480360381019062000154919062001272565b62000337565b604051620001699190620012b5565b60405180910390f35b6200017c6200034f565b604051620001949a99989796959493929190620015a0565b60405180910390f35b620001bb6004803603810190620001b5919062001694565b6200052c565b604051620001ca91906200170d565b60405180910390f35b620001f16004803603810190620001eb919062001272565b62000756565b005b620001fd62000971565b6040516200020c91906200172a565b60405180910390f35b6200023360048036038101906200022d919062001272565b62000abb565b005b6200023f62000c11565b6040516200024e91906200174e565b60405180910390f35b6200026162000c35565b6040516200027091906200176b565b60405180910390f35b620002976004803603810190620002919190620017d4565b62000d98565b604051620002a691906200170d565b60405180910390f35b620002cd6004803603810190620002c791906200181b565b62000f80565b005b620002ed6004803603810190620002e7919062001272565b62000fa2565b005b80600860008481526020019081526020016000206000828254620003149190620018bc565b925050819055505050565b600a6020528060005260406000206000915090505481565b600b6020528060005260406000206000915090505481565b60006200035b6200113d565b620003656200113d565b6200036f6200113d565b60008060008060608060008054906101000a900473ffffffffffffffffffffffffffffffffffffffff1660405180608001604052806008600060018152602001908152602001600020548152602001600860006002815260200190815260200160002054815260200160086000600381526020019081526020016000205481526020016008600060048152602001908152602001600020548152506040518060800160405280600a600060018152602001908152602001600020548152602001600a600060028152602001908152602001600020548152602001600a600060038152602001908152602001600020548152602001600a600060048152602001908152602001600020548152506040518060800160405280600b600060018152602001908152602001600020548152602001600b600060028152602001908152602001600020548152602001600b600060038152602001908152602001600020548152602001600b600060048152602001908152602001600020548152506001546002546003546004546200050262000971565b6200050c62000c35565b995099509950995099509950995099509950995090919293949596979899565b6000826008600086815260200190815260200160002054106200074a57600654600580549050036200061757600560405180606001604052808681526020018581526020018473ffffffffffffffffffffffffffffffffffffffff168152509080600181540180825580915050600190039060005260206000209060030201600090919091909150600082015181600001556020820151816001015560408201518160020160006101000a81548173ffffffffffffffffffffffffffffffffffffffff021916908373ffffffffffffffffffffffffffffffffffffffff1602179055505050620006ce565b60405180606001604052808581526020018481526020018373ffffffffffffffffffffffffffffffffffffffff1681525060056006548154811062000661576200066062001919565b5b9060005260206000209060030201600082015181600001556020820151816001015560408201518160020160006101000a81548173ffffffffffffffffffffffffffffffffffffffff021916908373ffffffffffffffffffffffffffffffffffffffff1602179055509050505b60066000815480929190620006e39062001948565b919050555082600a600086815260200190815260200160002060008282546200070d9190620018bc565b925050819055508260086000868152602001908152602001600020600082825462000739919062001995565b92505081905550600190506200074f565b600090505b9392505050565b6000600582815481106200076f576200076e62001919565b5b90600052602060002090600302016001015490506000600583815481106200079c576200079b62001919565b5b9060005260206000209060030201600001549050600060058481548110620007c957620007c862001919565b5b906000526020600020906003020160020160009054906101000a900473ffffffffffffffffffffffffffffffffffffffff169050620008088462000fa2565b60008060009054906101000a900473ffffffffffffffffffffffffffffffffffffffff168284866040516200083d9062001165565b6200084c9493929190620019d0565b604051809103906000f08015801562000869573d6000803e3d6000fd5b50905083600960008373ffffffffffffffffffffffffffffffffffffffff1673ffffffffffffffffffffffffffffffffffffffff16815260200190815260200160002060008581526020019081526020016000208190555083600b60008581526020019081526020016000206000828254620008e69190620018bc565b92505081905550600c819080600181540180825580915050600190039060005260206000200160009091909190916101000a81548173ffffffffffffffffffffffffffffffffffffffff021916908373ffffffffffffffffffffffffffffffffffffffff16021790555060076000815480929190620009659062001948565b91905055505050505050565b6060600060065467ffffffffffffffff81111562000994576200099362001a1d565b5b604051908082528060200260200182016040528015620009d157816020015b620009bd62001173565b815260200190600190039081620009b35790505b50905060005b60065481101562000ab35760058181548110620009f957620009f862001919565b5b906000526020600020906003020160405180606001604052908160008201548152602001600182015481526020016002820160009054906101000a900473ffffffffffffffffffffffffffffffffffffffff1673ffffffffffffffffffffffffffffffffffffffff1673ffffffffffffffffffffffffffffffffffffffff168152505082828151811062000a925762000a9162001919565b5b6020026020010181905250808062000aaa9062001948565b915050620009d7565b508091505090565b60008190505b600160075462000ad2919062001995565b81101562000b9f57600c60018362000aeb9190620018bc565b8154811062000aff5762000afe62001919565b5b9060005260206000200160009054906101000a900473ffffffffffffffffffffffffffffffffffffffff16600c838154811062000b415762000b4062001919565b5b9060005260206000200160006101000a81548173ffffffffffffffffffffffffffffffffffffffff021916908373ffffffffffffffffffffffffffffffffffffffff160217905550808062000b969062001948565b91505062000ac1565b50600c600160075462000bb3919062001995565b8154811062000bc75762000bc662001919565b5b9060005260206000200160006101000a81549073ffffffffffffffffffffffffffffffffffffffff02191690556007600081548092919062000c099062001a4c565b919050555050565b60008054906101000a900473ffffffffffffffffffffffffffffffffffffffff1681565b6060600060075467ffffffffffffffff81111562000c585762000c5762001a1d565b5b60405190808252806020026020018201604052801562000c9557816020015b62000c81620011aa565b81526020019060019003908162000c775790505b50905060005b60075481101562000d9057600c818154811062000cbd5762000cbc62001919565b5b9060005260206000200160009054906101000a900473ffffffffffffffffffffffffffffffffffffffff1673ffffffffffffffffffffffffffffffffffffffff16635a9b0b896040518163ffffffff1660e01b8152600401606060405180830381865afa15801562000d33573d6000803e3d6000fd5b505050506040513d601f19601f8201168201806040525081019062000d59919062001b82565b82828151811062000d6f5762000d6e62001919565b5b6020026020010181905250808062000d879062001948565b91505062000c9b565b508091505090565b600080600c848154811062000db25762000db162001919565b5b9060005260206000200160009054906101000a900473ffffffffffffffffffffffffffffffffffffffff16905060008173ffffffffffffffffffffffffffffffffffffffff16635a9b0b896040518163ffffffff1660e01b8152600401606060405180830381865afa15801562000e2d573d6000803e3d6000fd5b505050506040513d601f19601f8201168201806040525081019062000e53919062001b82565b90508060200151600960008473ffffffffffffffffffffffffffffffffffffffff1673ffffffffffffffffffffffffffffffffffffffff168152602001908152602001600020600083600001518152602001908152602001600020600082825462000ebf919062001995565b925050819055508060200151600b600083600001518152602001908152602001600020600082825462000ef3919062001995565b925050819055508173ffffffffffffffffffffffffffffffffffffffff16635125e702856040518263ffffffff1660e01b815260040162000f35919062001c1f565b600060405180830381600087803b15801562000f5057600080fd5b505af115801562000f65573d6000803e3d6000fd5b5050505062000f748562000abb565b60019250505092915050565b8360018190555082600281905550816003819055508060048190555050505050565b60008190505b600160065462000fb9919062001995565b811015620010ad57600560018262000fd29190620018bc565b8154811062000fe65762000fe562001919565b5b9060005260206000209060030201600582815481106200100b576200100a62001919565b5b906000526020600020906003020160008201548160000155600182015481600101556002820160009054906101000a900473ffffffffffffffffffffffffffffffffffffffff168160020160006101000a81548173ffffffffffffffffffffffffffffffffffffffff021916908373ffffffffffffffffffffffffffffffffffffffff1602179055509050508080620010a49062001948565b91505062000fa8565b5060056001600580549050620010c4919062001995565b81548110620010d857620010d762001919565b5b906000526020600020906003020160008082016000905560018201600090556002820160006101000a81549073ffffffffffffffffffffffffffffffffffffffff0219169055505060066000815480929190620011359062001a4c565b919050555050565b6040518060800160405280600081526020016000815260200160008152602001600081525090565b610a518062001c3d83390190565b60405180606001604052806000815260200160008152602001600073ffffffffffffffffffffffffffffffffffffffff1681525090565b60405180606001604052806000815260200160008152602001600073ffffffffffffffffffffffffffffffffffffffff1681525090565b6000604051905090565b600080fd5b6000819050919050565b6200120581620011f0565b81146200121157600080fd5b50565b6000813590506200122581620011fa565b92915050565b60008060408385031215620012455762001244620011eb565b5b6000620012558582860162001214565b9250506020620012688582860162001214565b9150509250929050565b6000602082840312156200128b576200128a620011eb565b5b60006200129b8482850162001214565b91505092915050565b620012af81620011f0565b82525050565b6000602082019050620012cc6000830184620012a4565b92915050565b600073ffffffffffffffffffffffffffffffffffffffff82169050919050565b6000620012ff82620012d2565b9050919050565b6200131181620012f2565b82525050565b6200132281620011f0565b82525050565b60808201600082015162001340600085018262001317565b50602082015162001355602085018262001317565b5060408201516200136a604085018262001317565b5060608201516200137f606085018262001317565b50505050565b600081519050919050565b600082825260208201905092915050565b6000819050602082019050919050565b620013bc81620012f2565b82525050565b606082016000820151620013da600085018262001317565b506020820151620013ef602085018262001317565b506040820151620014046040850182620013b1565b50505050565b6000620014188383620013c2565b60608301905092915050565b6000602082019050919050565b60006200143e8262001385565b6200144a818562001390565b93506200145783620013a1565b8060005b838110156200148e5781516200147288826200140a565b97506200147f8362001424565b9250506001810190506200145b565b5085935050505092915050565b600081519050919050565b600082825260208201905092915050565b6000819050602082019050919050565b606082016000820151620014df600085018262001317565b506020820151620014f4602085018262001317565b506040820151620015096040850182620013b1565b50505050565b60006200151d8383620014c7565b60608301905092915050565b6000602082019050919050565b600062001543826200149b565b6200154f8185620014a6565b93506200155c83620014b7565b8060005b83811015620015935781516200157788826200150f565b9750620015848362001529565b92505060018101905062001560565b5085935050505092915050565b600061026082019050620015b8600083018d62001306565b620015c7602083018c62001328565b620015d660a083018b62001328565b620015e661012083018a62001328565b620015f66101a0830189620012a4565b620016066101c0830188620012a4565b620016166101e0830187620012a4565b62001626610200830186620012a4565b8181036102208301526200163b818562001431565b905081810361024083015262001652818462001536565b90509b9a5050505050505050505050565b6200166e81620012f2565b81146200167a57600080fd5b50565b6000813590506200168e8162001663565b92915050565b600080600060608486031215620016b057620016af620011eb565b5b6000620016c08682870162001214565b9350506020620016d38682870162001214565b9250506040620016e6868287016200167d565b9150509250925092565b60008115159050919050565b6200170781620016f0565b82525050565b6000602082019050620017246000830184620016fc565b92915050565b6000602082019050818103600083015262001746818462001431565b905092915050565b600060208201905062001765600083018462001306565b92915050565b6000602082019050818103600083015262001787818462001536565b905092915050565b60006200179c82620012f2565b9050919050565b620017ae816200178f565b8114620017ba57600080fd5b50565b600081359050620017ce81620017a3565b92915050565b60008060408385031215620017ee57620017ed620011eb565b5b6000620017fe8582860162001214565b92505060206200181185828601620017bd565b9150509250929050565b60008060008060808587031215620018385762001837620011eb565b5b6000620018488782880162001214565b94505060206200185b8782880162001214565b93505060406200186e8782880162001214565b9250506060620018818782880162001214565b91505092959194509250565b7f4e487b7100000000000000000000000000000000000000000000000000000000600052601160045260246000fd5b6000620018c982620011f0565b9150620018d683620011f0565b9250827fffffffffffffffffffffffffffffffffffffffffffffffffffffffffffffffff038211156200190e576200190d6200188d565b5b828201905092915050565b7f4e487b7100000000000000000000000000000000000000000000000000000000600052603260045260246000fd5b60006200195582620011f0565b91507fffffffffffffffffffffffffffffffffffffffffffffffffffffffffffffffff82036200198a57620019896200188d565b5b600182019050919050565b6000620019a282620011f0565b9150620019af83620011f0565b925082821015620019c557620019c46200188d565b5b828203905092915050565b6000608082019050620019e7600083018762001306565b620019f6602083018662001306565b62001a056040830185620012a4565b62001a146060830184620012a4565b95945050505050565b7f4e487b7100000000000000000000000000000000000000000000000000000000600052604160045260246000fd5b600062001a5982620011f0565b91506000820362001a6f5762001a6e6200188d565b5b600182039050919050565b600080fd5b6000601f19601f8301169050919050565b62001a9b8262001a7f565b810181811067ffffffffffffffff8211171562001abd5762001abc62001a1d565b5b80604052505050565b600062001ad2620011e1565b905062001ae0828262001a90565b919050565b60008151905062001af681620011fa565b92915050565b60008151905062001b0d8162001663565b92915050565b60006060828403121562001b2c5762001b2b62001a7a565b5b62001b38606062001ac6565b9050600062001b4a8482850162001ae5565b600083015250602062001b608482850162001ae5565b602083015250604062001b768482850162001afc565b60408301525092915050565b60006060828403121562001b9b5762001b9a620011eb565b5b600062001bab8482850162001b13565b91505092915050565b6000819050919050565b600062001bdf62001bd962001bd384620012d2565b62001bb4565b620012d2565b9050919050565b600062001bf38262001bbe565b9050919050565b600062001c078262001be6565b9050919050565b62001c198162001bfa565b82525050565b600060208201905062001c36600083018462001c0e565b9291505056fe60806040526001600660006101000a81548160ff02191690831515021790555034801561002b57600080fd5b50604051610a51380380610a51833981810160405281019061004d919061017e565b836000806101000a81548173ffffffffffffffffffffffffffffffffffffffff021916908373ffffffffffffffffffffffffffffffffffffffff16021790555082600160006101000a81548173ffffffffffffffffffffffffffffffffffffffff021916908373ffffffffffffffffffffffffffffffffffffffff1602179055508160028190555080600381905550505050506101e5565b600080fd5b600073ffffffffffffffffffffffffffffffffffffffff82169050919050565b6000610115826100ea565b9050919050565b6101258161010a565b811461013057600080fd5b50565b6000815190506101428161011c565b92915050565b6000819050919050565b61015b81610148565b811461016657600080fd5b50565b60008151905061017881610152565b92915050565b60008060008060808587031215610198576101976100e5565b5b60006101a687828801610133565b94505060206101b787828801610133565b93505060406101c887828801610169565b92505060606101d987828801610169565b91505092959194509250565b61085d806101f46000396000f3fe608060405234801561001057600080fd5b50600436106100625760003560e01c8063258b43d7146100675780634acc3a8e146100835780635125e7021461008d57806356dcb022146100a95780635a9b0b89146100c5578063aae8107b146100e3575b600080fd5b610081600480360381019061007c9190610418565b6100ff565b005b61008b610109565b005b6100a760048036038101906100a291906104b5565b610135565b005b6100c360048036038101906100be9190610628565b61026c565b005b6100cd610286565b6040516100da91906106d1565b60405180910390f35b6100fd60048036038101906100f89190610418565b6102ea565b005b8060078190555050565b600660009054906101000a900460ff1615600660006101000a81548160ff021916908315150217905550565b60008173ffffffffffffffffffffffffffffffffffffffff166364efb22b600160009054906101000a900473ffffffffffffffffffffffffffffffffffffffff166040518263ffffffff1660e01b815260040161019291906106fb565b602060405180830381865afa1580156101af573d6000803e3d6000fd5b505050506040513d601f19601f820116820180604052508101906101d39190610754565b90508073ffffffffffffffffffffffffffffffffffffffff1663750a49cc60025460035460008054906101000a900473ffffffffffffffffffffffffffffffffffffffff166040518463ffffffff1660e01b815260040161023693929190610790565b600060405180830381600087803b15801561025057600080fd5b505af1158015610264573d6000803e3d6000fd5b505050505050565b80600490805190602001906102829291906102f4565b5050565b61028e61037a565b604051806060016040528060025481526020016003548152602001600160009054906101000a900473ffffffffffffffffffffffffffffffffffffffff1673ffffffffffffffffffffffffffffffffffffffff16815250905090565b8060058190555050565b828054610300906107f6565b90600052602060002090601f0160209004810192826103225760008555610369565b82601f1061033b57805160ff1916838001178555610369565b82800160010185558215610369579182015b8281111561036857825182559160200191906001019061034d565b5b50905061037691906103b1565b5090565b60405180606001604052806000815260200160008152602001600073ffffffffffffffffffffffffffffffffffffffff1681525090565b5b808211156103ca5760008160009055506001016103b2565b5090565b6000604051905090565b600080fd5b600080fd5b6000819050919050565b6103f5816103e2565b811461040057600080fd5b50565b600081359050610412816103ec565b92915050565b60006020828403121561042e5761042d6103d8565b5b600061043c84828501610403565b91505092915050565b600073ffffffffffffffffffffffffffffffffffffffff82169050919050565b600061047082610445565b9050919050565b600061048282610465565b9050919050565b61049281610477565b811461049d57600080fd5b50565b6000813590506104af81610489565b92915050565b6000602082840312156104cb576104ca6103d8565b5b60006104d9848285016104a0565b91505092915050565b600080fd5b600080fd5b6000601f19601f8301169050919050565b7f4e487b7100000000000000000000000000000000000000000000000000000000600052604160045260246000fd5b610535826104ec565b810181811067ffffffffffffffff82111715610554576105536104fd565b5b80604052505050565b60006105676103ce565b9050610573828261052c565b919050565b600067ffffffffffffffff821115610593576105926104fd565b5b61059c826104ec565b9050602081019050919050565b82818337600083830152505050565b60006105cb6105c684610578565b61055d565b9050828152602081018484840111156105e7576105e66104e7565b5b6105f28482856105a9565b509392505050565b600082601f83011261060f5761060e6104e2565b5b813561061f8482602086016105b8565b91505092915050565b60006020828403121561063e5761063d6103d8565b5b600082013567ffffffffffffffff81111561065c5761065b6103dd565b5b610668848285016105fa565b91505092915050565b61067a816103e2565b82525050565b61068981610465565b82525050565b6060820160008201516106a56000850182610671565b5060208201516106b86020850182610671565b5060408201516106cb6040850182610680565b50505050565b60006060820190506106e6600083018461068f565b92915050565b6106f581610465565b82525050565b600060208201905061071060008301846106ec565b92915050565b600061072182610465565b9050919050565b61073181610716565b811461073c57600080fd5b50565b60008151905061074e81610728565b92915050565b60006020828403121561076a576107696103d8565b5b60006107788482850161073f565b91505092915050565b61078a816103e2565b82525050565b60006060820190506107a56000830186610781565b6107b26020830185610781565b6107bf60408301846106ec565b949350505050565b7f4e487b7100000000000000000000000000000000000000000000000000000000600052602260045260246000fd5b6000600282049050600182168061080e57607f821691505b602082108103610821576108206107c7565b5b5091905056fea264697066735822122087e67d73a0c5b39a9e5d29f5d6b00f64b0c051b65c08324756d9344603fb120464736f6c634300080d0033a264697066735822122043c029e832fde2f078d53fcc064dcc1e54e0f6587da0014b02ddc155953a16a964736f6c634300080d0033",
  "immutableReferences": {},
  "source": "// SPDX-License-Identifier: MIT\r\n\r\npragma solidity ^0.8.13;\r\n\r\nimport \"./Delivery.sol\";\r\nimport \"./Admins.sol\";\r\n\r\ncontract Manufacturer {\r\n    address public owner;\r\n\r\n    uint256 price_a;\r\n    uint256 price_b;\r\n    uint256 price_c;\r\n    uint256 price_d;\r\n\r\n    struct stocks {\r\n        uint256 a;\r\n        uint256 b;\r\n        uint256 c;\r\n        uint256 d;\r\n    }\r\n\r\n    struct orderInfo {\r\n        uint256 vaccine;\r\n        uint256 qty;\r\n        address admin;\r\n    }\r\n\r\n    // mapping(address => mapping(uint256 => uint256)) ordered_stocks;\r\n    orderInfo[] orders;\r\n    uint256 number_of_orders;\r\n    uint256 number_of_deliveries;\r\n    mapping(uint256 => uint256) available_stocks;\r\n    mapping(address => mapping(uint256 => uint256)) out_for_delivery;\r\n    mapping(uint256 => uint256) public number_of_ordered_stocks;\r\n    mapping(uint256 => uint256) public number_of_out_for_delivery;\r\n    Delivery[] deliveries;\r\n\r\n    constructor(address add) {\r\n        owner = add;\r\n    }\r\n\r\n    function receiveOrder(\r\n        uint256 vac,\r\n        uint256 qty,\r\n        address _admin\r\n    ) public returns (bool) {\r\n        if (available_stocks[vac] >= qty) {\r\n            if (orders.length == number_of_orders)\r\n                orders.push(orderInfo(vac, qty, _admin));\r\n            else orders[number_of_orders] = orderInfo(vac, qty, _admin);\r\n            number_of_orders++;\r\n            number_of_ordered_stocks[vac] += qty;\r\n            available_stocks[vac] -= qty;\r\n            return true;\r\n        } else {\r\n            return false;\r\n        }\r\n    }\r\n\r\n    function removeOrders(uint256 ind) public {\r\n        for (uint256 i = ind; i < number_of_orders - 1; i++) {\r\n            orders[i] = orders[i + 1];\r\n        }\r\n        delete orders[orders.length - 1];\r\n        number_of_orders--;\r\n    }\r\n\r\n    function createDelivery(uint256 ind) public {\r\n        uint256 qty = orders[ind].qty;\r\n        uint256 vac = orders[ind].vaccine;\r\n        address _admin = orders[ind].admin;\r\n        removeOrders(ind);\r\n        Delivery delivery = new Delivery(owner, _admin, vac, qty);\r\n        out_for_delivery[address(delivery)][vac] = qty;\r\n        number_of_out_for_delivery[vac] += qty;\r\n        deliveries.push(delivery);\r\n        number_of_deliveries++;\r\n    }\r\n\r\n    function removeDelivery(uint256 ind) public {\r\n        for (uint256 i = ind; i < number_of_deliveries - 1; i++) {\r\n            deliveries[ind] = deliveries[ind + 1];\r\n        }\r\n        delete deliveries[number_of_deliveries - 1];\r\n        number_of_deliveries--;\r\n    }\r\n\r\n    function finishDelivery(uint256 ind, Admins admin) public returns (bool) {\r\n        Delivery delivery = deliveries[ind];\r\n        Delivery.deliveryInfo memory info = delivery.getInfo();\r\n        out_for_delivery[address(delivery)][info.vac] -= info.qty;\r\n        number_of_out_for_delivery[info.vac] -= info.qty;\r\n        delivery.orderReached(admin);\r\n        removeDelivery(ind);\r\n        return true;\r\n    }\r\n\r\n    function addStocks(uint256 vac, uint256 qty) public {\r\n        available_stocks[vac] += qty;\r\n    }\r\n\r\n    function getInfo()\r\n        public\r\n        view\r\n        returns (\r\n            address,\r\n            stocks memory,\r\n            stocks memory,\r\n            stocks memory,\r\n            uint256 a,\r\n            uint256 b,\r\n            uint256 c,\r\n            uint256 d,\r\n            orderInfo[] memory order,\r\n            Delivery.deliveryInfo[] memory delivery\r\n        )\r\n    {\r\n        return (\r\n            owner,\r\n            stocks(\r\n                available_stocks[1],\r\n                available_stocks[2],\r\n                available_stocks[3],\r\n                available_stocks[4]\r\n            ),\r\n            stocks(\r\n                number_of_ordered_stocks[1],\r\n                number_of_ordered_stocks[2],\r\n                number_of_ordered_stocks[3],\r\n                number_of_ordered_stocks[4]\r\n            ),\r\n            stocks(\r\n                number_of_out_for_delivery[1],\r\n                number_of_out_for_delivery[2],\r\n                number_of_out_for_delivery[3],\r\n                number_of_out_for_delivery[4]\r\n            ),\r\n            price_a,\r\n            price_b,\r\n            price_c,\r\n            price_d,\r\n            getAllOrders(),\r\n            getAllDeliveries()\r\n        );\r\n    }\r\n\r\n    function setPrice(\r\n        uint256 a,\r\n        uint256 b,\r\n        uint256 c,\r\n        uint256 d\r\n    ) public {\r\n        price_a = a;\r\n        price_b = b;\r\n        price_c = c;\r\n        price_d = d;\r\n    }\r\n\r\n    function getAllOrders() public view returns (orderInfo[] memory) {\r\n        orderInfo[] memory arr = new orderInfo[](number_of_orders);\r\n        for (uint256 i = 0; i < number_of_orders; i++) {\r\n            arr[i] = orders[i];\r\n        }\r\n        return arr;\r\n    }\r\n\r\n    function getAllDeliveries()\r\n        public\r\n        view\r\n        returns (Delivery.deliveryInfo[] memory)\r\n    {\r\n        Delivery.deliveryInfo[] memory arr = new Delivery.deliveryInfo[](\r\n            number_of_deliveries\r\n        );\r\n        for (uint256 i = 0; i < number_of_deliveries; i++) {\r\n            arr[i] = deliveries[i].getInfo();\r\n        }\r\n        return arr;\r\n    }\r\n}\r\n",
  "sourcePath": "C:\\Users\\mdzai\\Desktop\\VCSM-Blockchain\\contracts\\Manufacturer.sol",
  "compiler": {
    "name": "solc",
    "version": "0.8.13+commit.abaa5c0e.Emscripten.clang"
  },
  "schemaVersion": "3.4.7",
  "updatedAt": "2022-04-25T17:15:04.885Z",
  "devdoc": {
    "kind": "dev",
    "methods": {},
    "version": 1
  },
  "userdoc": {
    "kind": "user",
    "methods": {},
    "version": 1
  }
}