{
  "contractName": "Manufacturer",
  "abi": [
    {
      "inputs": [],
      "stateMutability": "nonpayable",
      "type": "constructor"
    },
    {
      "inputs": [],
      "name": "owner",
      "outputs": [
        {
          "internalType": "address",
          "name": "",
          "type": "address"
        }
      ],
      "stateMutability": "view",
      "type": "function"
    },
    {
      "inputs": [
        {
          "internalType": "uint256",
          "name": "vac",
          "type": "uint256"
        },
        {
          "internalType": "uint256",
          "name": "qty",
          "type": "uint256"
        },
        {
          "internalType": "address",
          "name": "_admin",
          "type": "address"
        }
      ],
      "name": "receiveOrder",
      "outputs": [],
      "stateMutability": "payable",
      "type": "function"
    },
    {
      "inputs": [
        {
          "internalType": "uint256",
          "name": "vac",
          "type": "uint256"
        },
        {
          "internalType": "uint256",
          "name": "qty",
          "type": "uint256"
        },
        {
          "internalType": "address",
          "name": "_admin",
          "type": "address"
        }
      ],
      "name": "createDelivery",
      "outputs": [],
      "stateMutability": "nonpayable",
      "type": "function"
    },
    {
      "inputs": [
        {
          "internalType": "address",
          "name": "delivery",
          "type": "address"
        },
        {
          "internalType": "uint256",
          "name": "vac",
          "type": "uint256"
        },
        {
          "internalType": "uint256",
          "name": "qty",
          "type": "uint256"
        }
      ],
      "name": "finishDelivery",
      "outputs": [],
      "stateMutability": "nonpayable",
      "type": "function"
    },
    {
      "inputs": [
        {
          "internalType": "uint256",
          "name": "vac",
          "type": "uint256"
        },
        {
          "internalType": "uint256",
          "name": "qty",
          "type": "uint256"
        }
      ],
      "name": "addStocks",
      "outputs": [],
      "stateMutability": "nonpayable",
      "type": "function"
    }
  ],
  "bytecode": "0x608060405234801561001057600080fd5b50336000806101000a81548173ffffffffffffffffffffffffffffffffffffffff021916908373ffffffffffffffffffffffffffffffffffffffff160217905550611171806100606000396000f3fe6080604052600436106200004f5760003560e01c8062262b6c146200005457806329e7ac4514620000825780635fc50a2f14620000b05780638017b8d414620000d05780638da5cb5b14620000fe575b600080fd5b3480156200006157600080fd5b506200008060048036038101906200007a919062000588565b6200012e565b005b3480156200008f57600080fd5b50620000ae6004803603810190620000a8919062000634565b620001f2565b005b620000ce6004803603810190620000c8919062000634565b620003b0565b005b348015620000dd57600080fd5b50620000fc6004803603810190620000f6919062000690565b620004a8565b005b3480156200010b57600080fd5b506200011662000516565b604051620001259190620006fd565b60405180910390f35b60008054906101000a900473ffffffffffffffffffffffffffffffffffffffff1673ffffffffffffffffffffffffffffffffffffffff163373ffffffffffffffffffffffffffffffffffffffff1614620001bf576040517f08c379a0000000000000000000000000000000000000000000000000000000008152600401620001b6906200077b565b60405180910390fd5b80600260008481526020019081526020016000206001016000828254620001e79190620007cc565b925050819055505050565b81600160008373ffffffffffffffffffffffffffffffffffffffff1673ffffffffffffffffffffffffffffffffffffffff168152602001908152602001600020600085815260200190815260200160002054101562000288576040517f08c379a00000000000000000000000000000000000000000000000000000000081526004016200027f9062000879565b60405180910390fd5b81600160008373ffffffffffffffffffffffffffffffffffffffff1673ffffffffffffffffffffffffffffffffffffffff16815260200190815260200160002060008581526020019081526020016000206000828254620002ea91906200089b565b9250508190555060008060009054906101000a900473ffffffffffffffffffffffffffffffffffffffff1682858560405162000326906200053a565b620003359493929190620008e7565b604051809103906000f08015801562000352573d6000803e3d6000fd5b50905082600360008373ffffffffffffffffffffffffffffffffffffffff1673ffffffffffffffffffffffffffffffffffffffff16815260200190815260200160002060008681526020019081526020016000208190555050505050565b816002600085815260200190815260200160002060010154106200040b576040517f08c379a0000000000000000000000000000000000000000000000000000000008152600401620004029062000984565b60405180910390fd5b81600160008373ffffffffffffffffffffffffffffffffffffffff1673ffffffffffffffffffffffffffffffffffffffff168152602001908152602001600020600085815260200190815260200160002060008282546200046d9190620007cc565b92505081905550816002600085815260200190815260200160002060010160008282546200049c91906200089b565b92505081905550505050565b80600360008573ffffffffffffffffffffffffffffffffffffffff1673ffffffffffffffffffffffffffffffffffffffff168152602001908152602001600020600084815260200190815260200160002060008282546200050a91906200089b565b92505081905550505050565b60008054906101000a900473ffffffffffffffffffffffffffffffffffffffff1681565b61079580620009a783390190565b600080fd5b6000819050919050565b62000562816200054d565b81146200056e57600080fd5b50565b600081359050620005828162000557565b92915050565b60008060408385031215620005a257620005a162000548565b5b6000620005b28582860162000571565b9250506020620005c58582860162000571565b9150509250929050565b600073ffffffffffffffffffffffffffffffffffffffff82169050919050565b6000620005fc82620005cf565b9050919050565b6200060e81620005ef565b81146200061a57600080fd5b50565b6000813590506200062e8162000603565b92915050565b60008060006060848603121562000650576200064f62000548565b5b6000620006608682870162000571565b9350506020620006738682870162000571565b925050604062000686868287016200061d565b9150509250925092565b600080600060608486031215620006ac57620006ab62000548565b5b6000620006bc868287016200061d565b9350506020620006cf8682870162000571565b9250506040620006e28682870162000571565b9150509250925092565b620006f781620005ef565b82525050565b6000602082019050620007146000830184620006ec565b92915050565b600082825260208201905092915050565b7f596f7520617265206e6f7420746865206d616e75666163747572657200000000600082015250565b600062000763601c836200071a565b915062000770826200072b565b602082019050919050565b60006020820190508181036000830152620007968162000754565b9050919050565b7f4e487b7100000000000000000000000000000000000000000000000000000000600052601160045260246000fd5b6000620007d9826200054d565b9150620007e6836200054d565b9250827fffffffffffffffffffffffffffffffffffffffffffffffffffffffffffffffff038211156200081e576200081d6200079d565b5b828201905092915050565b7f4f7264657220706c61636564206973206c657373000000000000000000000000600082015250565b6000620008616014836200071a565b91506200086e8262000829565b602082019050919050565b60006020820190508181036000830152620008948162000852565b9050919050565b6000620008a8826200054d565b9150620008b5836200054d565b925082821015620008cb57620008ca6200079d565b5b828203905092915050565b620008e1816200054d565b82525050565b6000608082019050620008fe6000830187620006ec565b6200090d6020830186620006ec565b6200091c6040830185620008d6565b6200092b6060830184620008d6565b95945050505050565b7f496e73756666696369656e742053746f636b0000000000000000000000000000600082015250565b60006200096c6012836200071a565b9150620009798262000934565b602082019050919050565b600060208201905081810360008301526200099f816200095d565b905091905056fe60806040526001600660006101000a81548160ff02191690831515021790555034801561002b57600080fd5b50604051610795380380610795833981810160405281019061004d919061017e565b836000806101000a81548173ffffffffffffffffffffffffffffffffffffffff021916908373ffffffffffffffffffffffffffffffffffffffff16021790555082600160006101000a81548173ffffffffffffffffffffffffffffffffffffffff021916908373ffffffffffffffffffffffffffffffffffffffff1602179055508160028190555080600381905550505050506101e5565b600080fd5b600073ffffffffffffffffffffffffffffffffffffffff82169050919050565b6000610115826100ea565b9050919050565b6101258161010a565b811461013057600080fd5b50565b6000815190506101428161011c565b92915050565b6000819050919050565b61015b81610148565b811461016657600080fd5b50565b60008151905061017881610152565b92915050565b60008060008060808587031215610198576101976100e5565b5b60006101a687828801610133565b94505060206101b787828801610133565b93505060406101c887828801610169565b92505060606101d987828801610169565b91505092959194509250565b6105a1806101f46000396000f3fe608060405234801561001057600080fd5b50600436106100575760003560e01c806310272d131461005c578063258b43d7146100665780634acc3a8e1461008257806356dcb0221461008c578063aae8107b146100a8575b600080fd5b6100646100c4565b005b610080600480360381019061007b91906102c8565b610181565b005b61008a61018b565b005b6100a660048036038101906100a1919061043b565b6101b7565b005b6100c260048036038101906100bd91906102c8565b6101d1565b005b6000600160009054906101000a900473ffffffffffffffffffffffffffffffffffffffff1690508073ffffffffffffffffffffffffffffffffffffffff1663750a49cc60025460035460008054906101000a900473ffffffffffffffffffffffffffffffffffffffff166040518463ffffffff1660e01b815260040161014c939291906104d4565b600060405180830381600087803b15801561016657600080fd5b505af115801561017a573d6000803e3d6000fd5b5050505050565b8060078190555050565b600660009054906101000a900460ff1615600660006101000a81548160ff021916908315150217905550565b80600490805190602001906101cd9291906101db565b5050565b8060058190555050565b8280546101e79061053a565b90600052602060002090601f0160209004810192826102095760008555610250565b82601f1061022257805160ff1916838001178555610250565b82800160010185558215610250579182015b8281111561024f578251825591602001919060010190610234565b5b50905061025d9190610261565b5090565b5b8082111561027a576000816000905550600101610262565b5090565b6000604051905090565b600080fd5b600080fd5b6000819050919050565b6102a581610292565b81146102b057600080fd5b50565b6000813590506102c28161029c565b92915050565b6000602082840312156102de576102dd610288565b5b60006102ec848285016102b3565b91505092915050565b600080fd5b600080fd5b6000601f19601f8301169050919050565b7f4e487b7100000000000000000000000000000000000000000000000000000000600052604160045260246000fd5b610348826102ff565b810181811067ffffffffffffffff8211171561036757610366610310565b5b80604052505050565b600061037a61027e565b9050610386828261033f565b919050565b600067ffffffffffffffff8211156103a6576103a5610310565b5b6103af826102ff565b9050602081019050919050565b82818337600083830152505050565b60006103de6103d98461038b565b610370565b9050828152602081018484840111156103fa576103f96102fa565b5b6104058482856103bc565b509392505050565b600082601f830112610422576104216102f5565b5b81356104328482602086016103cb565b91505092915050565b60006020828403121561045157610450610288565b5b600082013567ffffffffffffffff81111561046f5761046e61028d565b5b61047b8482850161040d565b91505092915050565b61048d81610292565b82525050565b600073ffffffffffffffffffffffffffffffffffffffff82169050919050565b60006104be82610493565b9050919050565b6104ce816104b3565b82525050565b60006060820190506104e96000830186610484565b6104f66020830185610484565b61050360408301846104c5565b949350505050565b7f4e487b7100000000000000000000000000000000000000000000000000000000600052602260045260246000fd5b6000600282049050600182168061055257607f821691505b6020821081036105655761056461050b565b5b5091905056fea2646970667358221220ba858351c4c56205d36d78a9497ecf5623ed333b5bcb43a513213e4257c0054564736f6c634300080d0033a264697066735822122016833a2f87dddfd65a6e91914e6e6c617c8c14f69d19d9ad56b6ed7334c6fd1d64736f6c634300080d0033",
  "immutableReferences": {},
  "source": "// SPDX-License-Identifier: MIT\r\n\r\npragma solidity ^0.8.13;\r\n\r\nimport \"./Delivery.sol\";\r\n\r\ncontract Manufacturer{\r\n    address public owner;\r\n\r\n    struct stock{\r\n        uint price;\r\n        uint qty;\r\n    }\r\n\r\n    mapping(address => mapping(uint => uint)) ordered_stocks;\r\n    mapping(uint => stock) stocks;\r\n    mapping(address => mapping(uint => uint)) out_for_delivery;\r\n    \r\n    constructor(){\r\n        owner = msg.sender;\r\n    }\r\n\r\n    modifier onlyOwner(){\r\n        require(msg.sender == owner, \"You are not the manufacturer\");\r\n        _;\r\n    }\r\n\r\n    function receiveOrder(uint vac, uint qty, address _admin) public payable {\r\n        require(stocks[vac].qty < qty, \"Insufficient Stock\");\r\n        ordered_stocks[_admin][vac] += qty;\r\n        stocks[vac].qty -= qty;\r\n        // Add Delivery functionality\r\n    }\r\n\r\n    function createDelivery(uint vac, uint qty, address _admin) public{\r\n        require(ordered_stocks[_admin][vac] >= qty, \"Order placed is less\");\r\n        ordered_stocks[_admin][vac] -= qty;\r\n        Delivery delivery = new Delivery(owner, _admin, vac, qty);\r\n        out_for_delivery[address(delivery)][vac] = qty;\r\n    }\r\n\r\n    function finishDelivery(address delivery, uint vac, uint qty) public{\r\n        out_for_delivery[delivery][vac] -= qty;\r\n    }\r\n\r\n    function addStocks(uint vac, uint qty) public onlyOwner{\r\n        stocks[vac].qty += qty;\r\n    }\r\n}",
  "sourcePath": "C:\\Users\\mdzai\\Desktop\\VCSM-Blockchain\\contracts\\Manufacturer.sol",
  "compiler": {
    "name": "solc",
    "version": "0.8.13+commit.abaa5c0e.Emscripten.clang"
  },
  "schemaVersion": "3.4.7",
  "updatedAt": "2022-04-16T16:10:56.180Z",
  "devdoc": {
    "kind": "dev",
    "methods": {},
    "version": 1
  },
  "userdoc": {
    "kind": "user",
    "methods": {},
    "version": 1
  }
}