{
  "contractName": "Manufacturer",
  "abi": [
    {
      "inputs": [
        {
          "internalType": "address",
          "name": "add",
          "type": "address"
        }
      ],
      "stateMutability": "nonpayable",
      "type": "constructor"
    },
    {
      "inputs": [
        {
          "internalType": "uint256",
          "name": "",
          "type": "uint256"
        }
      ],
      "name": "number_of_ordered_stocks",
      "outputs": [
        {
          "internalType": "uint256",
          "name": "",
          "type": "uint256"
        }
      ],
      "stateMutability": "view",
      "type": "function"
    },
    {
      "inputs": [
        {
          "internalType": "uint256",
          "name": "",
          "type": "uint256"
        }
      ],
      "name": "number_of_out_for_delivery",
      "outputs": [
        {
          "internalType": "uint256",
          "name": "",
          "type": "uint256"
        }
      ],
      "stateMutability": "view",
      "type": "function"
    },
    {
      "inputs": [],
      "name": "owner",
      "outputs": [
        {
          "internalType": "address",
          "name": "",
          "type": "address"
        }
      ],
      "stateMutability": "view",
      "type": "function"
    },
    {
      "inputs": [
        {
          "internalType": "uint256",
          "name": "vac",
          "type": "uint256"
        },
        {
          "internalType": "uint256",
          "name": "qty",
          "type": "uint256"
        },
        {
          "internalType": "address",
          "name": "_admin",
          "type": "address"
        }
      ],
      "name": "receiveOrder",
      "outputs": [],
      "stateMutability": "nonpayable",
      "type": "function"
    },
    {
      "inputs": [
        {
          "internalType": "uint256",
          "name": "vac",
          "type": "uint256"
        },
        {
          "internalType": "uint256",
          "name": "qty",
          "type": "uint256"
        },
        {
          "internalType": "address",
          "name": "_admin",
          "type": "address"
        }
      ],
      "name": "createDelivery",
      "outputs": [],
      "stateMutability": "nonpayable",
      "type": "function"
    },
    {
      "inputs": [
        {
          "internalType": "address",
          "name": "delivery",
          "type": "address"
        },
        {
          "internalType": "uint256",
          "name": "vac",
          "type": "uint256"
        },
        {
          "internalType": "uint256",
          "name": "qty",
          "type": "uint256"
        }
      ],
      "name": "finishDelivery",
      "outputs": [],
      "stateMutability": "nonpayable",
      "type": "function"
    },
    {
      "inputs": [
        {
          "internalType": "uint256",
          "name": "vac",
          "type": "uint256"
        },
        {
          "internalType": "uint256",
          "name": "qty",
          "type": "uint256"
        }
      ],
      "name": "addStocks",
      "outputs": [],
      "stateMutability": "nonpayable",
      "type": "function"
    },
    {
      "inputs": [],
      "name": "getInfo",
      "outputs": [
        {
          "internalType": "address",
          "name": "",
          "type": "address"
        },
        {
          "components": [
            {
              "internalType": "uint256",
              "name": "a",
              "type": "uint256"
            },
            {
              "internalType": "uint256",
              "name": "b",
              "type": "uint256"
            },
            {
              "internalType": "uint256",
              "name": "c",
              "type": "uint256"
            },
            {
              "internalType": "uint256",
              "name": "d",
              "type": "uint256"
            }
          ],
          "internalType": "struct Manufacturer.stocks",
          "name": "",
          "type": "tuple"
        },
        {
          "components": [
            {
              "internalType": "uint256",
              "name": "a",
              "type": "uint256"
            },
            {
              "internalType": "uint256",
              "name": "b",
              "type": "uint256"
            },
            {
              "internalType": "uint256",
              "name": "c",
              "type": "uint256"
            },
            {
              "internalType": "uint256",
              "name": "d",
              "type": "uint256"
            }
          ],
          "internalType": "struct Manufacturer.stocks",
          "name": "",
          "type": "tuple"
        },
        {
          "components": [
            {
              "internalType": "uint256",
              "name": "a",
              "type": "uint256"
            },
            {
              "internalType": "uint256",
              "name": "b",
              "type": "uint256"
            },
            {
              "internalType": "uint256",
              "name": "c",
              "type": "uint256"
            },
            {
              "internalType": "uint256",
              "name": "d",
              "type": "uint256"
            }
          ],
          "internalType": "struct Manufacturer.stocks",
          "name": "",
          "type": "tuple"
        }
      ],
      "stateMutability": "view",
      "type": "function"
    }
  ],
  "bytecode": "0x608060405234801561001057600080fd5b50604051611598380380611598833981810160405281019061003291906100db565b806000806101000a81548173ffffffffffffffffffffffffffffffffffffffff021916908373ffffffffffffffffffffffffffffffffffffffff16021790555050610108565b600080fd5b600073ffffffffffffffffffffffffffffffffffffffff82169050919050565b60006100a88261007d565b9050919050565b6100b88161009d565b81146100c357600080fd5b50565b6000815190506100d5816100af565b92915050565b6000602082840312156100f1576100f0610078565b5b60006100ff848285016100c6565b91505092915050565b611481806101176000396000f3fe60806040523480156200001157600080fd5b5060043610620000935760003560e01c80635a9b0b8911620000635780635a9b0b8914620001445780635fc50a2f14620001695780638017b8d414620001895780638da5cb5b14620001a95762000093565b8062262b6c14620000985780631b0e9bcd14620000b857806329e7ac4514620000ee5780634b58143e146200010e575b600080fd5b620000b66004803603810190620000b09190620007fe565b620001cb565b005b620000d66004803603810190620000d0919062000845565b620001fe565b604051620000e5919062000888565b60405180910390f35b6200010c60048036038101906200010691906200090a565b62000216565b005b6200012c600480360381019062000126919062000845565b62000437565b6040516200013b919062000888565b60405180910390f35b6200014e6200044f565b604051620001609493929190620009e5565b60405180910390f35b6200018760048036038101906200018191906200090a565b620005fd565b005b620001a76004803603810190620001a1919062000a34565b620006f6565b005b620001b362000764565b604051620001c2919062000a90565b60405180910390f35b80600260008481526020019081526020016000206001016000828254620001f3919062000adc565b925050819055505050565b60046020528060005260406000206000915090505481565b81600160008373ffffffffffffffffffffffffffffffffffffffff1673ffffffffffffffffffffffffffffffffffffffff1681526020019081526020016000206000858152602001908152602001600020541015620002ac576040517f08c379a0000000000000000000000000000000000000000000000000000000008152600401620002a39062000b9a565b60405180910390fd5b81600160008373ffffffffffffffffffffffffffffffffffffffff1673ffffffffffffffffffffffffffffffffffffffff168152602001908152602001600020600085815260200190815260200160002060008282546200030e919062000bbc565b9250508190555060008060009054906101000a900473ffffffffffffffffffffffffffffffffffffffff168285856040516200034a9062000788565b62000359949392919062000bf7565b604051809103906000f08015801562000376573d6000803e3d6000fd5b50905082600360008373ffffffffffffffffffffffffffffffffffffffff1673ffffffffffffffffffffffffffffffffffffffff1681526020019081526020016000206000868152602001908152602001600020819055506006819080600181540180825580915050600190039060005260206000200160009091909190916101000a81548173ffffffffffffffffffffffffffffffffffffffff021916908373ffffffffffffffffffffffffffffffffffffffff16021790555050505050565b60056020528060005260406000206000915090505481565b60006200045b62000796565b6200046562000796565b6200046f62000796565b60008054906101000a900473ffffffffffffffffffffffffffffffffffffffff16604051806080016040528060026000600181526020019081526020016000206001015481526020016002600060028152602001908152602001600020600101548152602001600260006003815260200190815260200160002060010154815260200160026000600481526020019081526020016000206001015481525060405180608001604052806004600060018152602001908152602001600020548152602001600460006002815260200190815260200160002054815260200160046000600381526020019081526020016000205481526020016004600060048152602001908152602001600020548152506040518060800160405280600560006001815260200190815260200160002054815260200160056000600281526020019081526020016000205481526020016005600060038152602001908152602001600020548152602001600560006004815260200190815260200160002054815250935093509350935090919293565b816002600085815260200190815260200160002060010154101562000659576040517f08c379a0000000000000000000000000000000000000000000000000000000008152600401620006509062000c94565b60405180910390fd5b81600160008373ffffffffffffffffffffffffffffffffffffffff1673ffffffffffffffffffffffffffffffffffffffff16815260200190815260200160002060008581526020019081526020016000206000828254620006bb919062000adc565b9250508190555081600260008581526020019081526020016000206001016000828254620006ea919062000bbc565b92505081905550505050565b80600360008573ffffffffffffffffffffffffffffffffffffffff1673ffffffffffffffffffffffffffffffffffffffff1681526020019081526020016000206000848152602001908152602001600020600082825462000758919062000bbc565b92505081905550505050565b60008054906101000a900473ffffffffffffffffffffffffffffffffffffffff1681565b6107958062000cb783390190565b6040518060800160405280600081526020016000815260200160008152602001600081525090565b600080fd5b6000819050919050565b620007d881620007c3565b8114620007e457600080fd5b50565b600081359050620007f881620007cd565b92915050565b60008060408385031215620008185762000817620007be565b5b60006200082885828601620007e7565b92505060206200083b85828601620007e7565b9150509250929050565b6000602082840312156200085e576200085d620007be565b5b60006200086e84828501620007e7565b91505092915050565b6200088281620007c3565b82525050565b60006020820190506200089f600083018462000877565b92915050565b600073ffffffffffffffffffffffffffffffffffffffff82169050919050565b6000620008d282620008a5565b9050919050565b620008e481620008c5565b8114620008f057600080fd5b50565b6000813590506200090481620008d9565b92915050565b600080600060608486031215620009265762000925620007be565b5b60006200093686828701620007e7565b93505060206200094986828701620007e7565b92505060406200095c86828701620008f3565b9150509250925092565b6200097181620008c5565b82525050565b6200098281620007c3565b82525050565b608082016000820151620009a0600085018262000977565b506020820151620009b5602085018262000977565b506040820151620009ca604085018262000977565b506060820151620009df606085018262000977565b50505050565b60006101a082019050620009fd600083018762000966565b62000a0c602083018662000988565b62000a1b60a083018562000988565b62000a2b61012083018462000988565b95945050505050565b60008060006060848603121562000a505762000a4f620007be565b5b600062000a6086828701620008f3565b935050602062000a7386828701620007e7565b925050604062000a8686828701620007e7565b9150509250925092565b600060208201905062000aa7600083018462000966565b92915050565b7f4e487b7100000000000000000000000000000000000000000000000000000000600052601160045260246000fd5b600062000ae982620007c3565b915062000af683620007c3565b9250827fffffffffffffffffffffffffffffffffffffffffffffffffffffffffffffffff0382111562000b2e5762000b2d62000aad565b5b828201905092915050565b600082825260208201905092915050565b7f4f7264657220706c61636564206973206c657373000000000000000000000000600082015250565b600062000b8260148362000b39565b915062000b8f8262000b4a565b602082019050919050565b6000602082019050818103600083015262000bb58162000b73565b9050919050565b600062000bc982620007c3565b915062000bd683620007c3565b92508282101562000bec5762000beb62000aad565b5b828203905092915050565b600060808201905062000c0e600083018762000966565b62000c1d602083018662000966565b62000c2c604083018562000877565b62000c3b606083018462000877565b95945050505050565b7f496e73756666696369656e742053746f636b0000000000000000000000000000600082015250565b600062000c7c60128362000b39565b915062000c898262000c44565b602082019050919050565b6000602082019050818103600083015262000caf8162000c6d565b905091905056fe60806040526001600660006101000a81548160ff02191690831515021790555034801561002b57600080fd5b50604051610795380380610795833981810160405281019061004d919061017e565b836000806101000a81548173ffffffffffffffffffffffffffffffffffffffff021916908373ffffffffffffffffffffffffffffffffffffffff16021790555082600160006101000a81548173ffffffffffffffffffffffffffffffffffffffff021916908373ffffffffffffffffffffffffffffffffffffffff1602179055508160028190555080600381905550505050506101e5565b600080fd5b600073ffffffffffffffffffffffffffffffffffffffff82169050919050565b6000610115826100ea565b9050919050565b6101258161010a565b811461013057600080fd5b50565b6000815190506101428161011c565b92915050565b6000819050919050565b61015b81610148565b811461016657600080fd5b50565b60008151905061017881610152565b92915050565b60008060008060808587031215610198576101976100e5565b5b60006101a687828801610133565b94505060206101b787828801610133565b93505060406101c887828801610169565b92505060606101d987828801610169565b91505092959194509250565b6105a1806101f46000396000f3fe608060405234801561001057600080fd5b50600436106100575760003560e01c806310272d131461005c578063258b43d7146100665780634acc3a8e1461008257806356dcb0221461008c578063aae8107b146100a8575b600080fd5b6100646100c4565b005b610080600480360381019061007b91906102c8565b610181565b005b61008a61018b565b005b6100a660048036038101906100a1919061043b565b6101b7565b005b6100c260048036038101906100bd91906102c8565b6101d1565b005b6000600160009054906101000a900473ffffffffffffffffffffffffffffffffffffffff1690508073ffffffffffffffffffffffffffffffffffffffff1663750a49cc60025460035460008054906101000a900473ffffffffffffffffffffffffffffffffffffffff166040518463ffffffff1660e01b815260040161014c939291906104d4565b600060405180830381600087803b15801561016657600080fd5b505af115801561017a573d6000803e3d6000fd5b5050505050565b8060078190555050565b600660009054906101000a900460ff1615600660006101000a81548160ff021916908315150217905550565b80600490805190602001906101cd9291906101db565b5050565b8060058190555050565b8280546101e79061053a565b90600052602060002090601f0160209004810192826102095760008555610250565b82601f1061022257805160ff1916838001178555610250565b82800160010185558215610250579182015b8281111561024f578251825591602001919060010190610234565b5b50905061025d9190610261565b5090565b5b8082111561027a576000816000905550600101610262565b5090565b6000604051905090565b600080fd5b600080fd5b6000819050919050565b6102a581610292565b81146102b057600080fd5b50565b6000813590506102c28161029c565b92915050565b6000602082840312156102de576102dd610288565b5b60006102ec848285016102b3565b91505092915050565b600080fd5b600080fd5b6000601f19601f8301169050919050565b7f4e487b7100000000000000000000000000000000000000000000000000000000600052604160045260246000fd5b610348826102ff565b810181811067ffffffffffffffff8211171561036757610366610310565b5b80604052505050565b600061037a61027e565b9050610386828261033f565b919050565b600067ffffffffffffffff8211156103a6576103a5610310565b5b6103af826102ff565b9050602081019050919050565b82818337600083830152505050565b60006103de6103d98461038b565b610370565b9050828152602081018484840111156103fa576103f96102fa565b5b6104058482856103bc565b509392505050565b600082601f830112610422576104216102f5565b5b81356104328482602086016103cb565b91505092915050565b60006020828403121561045157610450610288565b5b600082013567ffffffffffffffff81111561046f5761046e61028d565b5b61047b8482850161040d565b91505092915050565b61048d81610292565b82525050565b600073ffffffffffffffffffffffffffffffffffffffff82169050919050565b60006104be82610493565b9050919050565b6104ce816104b3565b82525050565b60006060820190506104e96000830186610484565b6104f66020830185610484565b61050360408301846104c5565b949350505050565b7f4e487b7100000000000000000000000000000000000000000000000000000000600052602260045260246000fd5b6000600282049050600182168061055257607f821691505b6020821081036105655761056461050b565b5b5091905056fea26469706673582212202f9e91bb5c6b41992515175578590ce3141da01c6e8eefe741961c3f5d0fadfa64736f6c634300080d0033a26469706673582212207a99b20272b9e98c4c87022966c4b3c2e3f981612c0e37f4092b6b3165ee900264736f6c634300080d0033",
  "immutableReferences": {},
  "source": "// SPDX-License-Identifier: MIT\r\n\r\npragma solidity ^0.8.13;\r\n\r\nimport \"./Delivery.sol\";\r\n\r\ncontract Manufacturer {\r\n    address public owner;\r\n\r\n    struct stockInfo {\r\n        uint256 price;\r\n        uint256 qty;\r\n    }\r\n\r\n    struct stocks{\r\n        uint a;\r\n        uint b;\r\n        uint c;\r\n        uint d;\r\n    }\r\n\r\n    mapping(address => mapping(uint256 => uint256)) ordered_stocks;\r\n    mapping(uint256 => stockInfo) available_stocks;\r\n    mapping(address => mapping(uint256 => uint256)) out_for_delivery;    \r\n    mapping(uint256 => uint256) public number_of_ordered_stocks;\r\n    mapping(uint256 => uint256) public number_of_out_for_delivery;\r\n    address[] deliveries;\r\n\r\n    constructor(address add) {\r\n        owner = add;\r\n    }\r\n\r\n    function receiveOrder(\r\n        uint256 vac,\r\n        uint256 qty,\r\n        address _admin\r\n    ) public {\r\n        require(available_stocks[vac].qty >= qty, \"Insufficient Stock\");\r\n        ordered_stocks[_admin][vac] += qty;\r\n        available_stocks[vac].qty -= qty;\r\n    }\r\n\r\n    function createDelivery(\r\n        uint256 vac,\r\n        uint256 qty,\r\n        address _admin\r\n    ) public {\r\n        require(ordered_stocks[_admin][vac] >= qty, \"Order placed is less\");\r\n        ordered_stocks[_admin][vac] -= qty;\r\n        Delivery delivery = new Delivery(owner, _admin, vac, qty);\r\n        out_for_delivery[address(delivery)][vac] = qty;\r\n        deliveries.push(address(delivery));\r\n    }\r\n\r\n    function finishDelivery(\r\n        address delivery,\r\n        uint256 vac,\r\n        uint256 qty\r\n    ) public {\r\n        out_for_delivery[delivery][vac] -= qty;\r\n    }\r\n\r\n    function addStocks(uint256 vac, uint256 qty) public {\r\n        available_stocks[vac].qty += qty;\r\n    }\r\n\r\n    function getInfo() public view returns(address, stocks memory, stocks memory, stocks memory){\r\n        return (\r\n            owner,\r\n            stocks(\r\n                available_stocks[1].qty,\r\n                available_stocks[2].qty,\r\n                available_stocks[3].qty,\r\n                available_stocks[4].qty\r\n            ),\r\n            stocks(\r\n                number_of_ordered_stocks[1],\r\n                number_of_ordered_stocks[2],\r\n                number_of_ordered_stocks[3],\r\n                number_of_ordered_stocks[4]\r\n            ),\r\n            stocks(\r\n                number_of_out_for_delivery[1],\r\n                number_of_out_for_delivery[2],\r\n                number_of_out_for_delivery[3],\r\n                number_of_out_for_delivery[4]\r\n            )\r\n        );\r\n    }\r\n}\r\n",
  "sourcePath": "C:\\Users\\mdzai\\Desktop\\VCSM-Blockchain\\contracts\\Manufacturer.sol",
  "compiler": {
    "name": "solc",
    "version": "0.8.13+commit.abaa5c0e.Emscripten.clang"
  },
  "schemaVersion": "3.4.7",
  "updatedAt": "2022-04-24T06:48:46.803Z",
  "devdoc": {
    "kind": "dev",
    "methods": {},
    "version": 1
  },
  "userdoc": {
    "kind": "user",
    "methods": {},
    "version": 1
  }
}