{
  "contractName": "Manufacturer",
  "abi": [
    {
      "inputs": [
        {
          "internalType": "address",
          "name": "add",
          "type": "address"
        }
      ],
      "stateMutability": "nonpayable",
      "type": "constructor"
    },
    {
      "inputs": [
        {
          "internalType": "uint256",
          "name": "",
          "type": "uint256"
        }
      ],
      "name": "number_of_ordered_stocks",
      "outputs": [
        {
          "internalType": "uint256",
          "name": "",
          "type": "uint256"
        }
      ],
      "stateMutability": "view",
      "type": "function"
    },
    {
      "inputs": [
        {
          "internalType": "uint256",
          "name": "",
          "type": "uint256"
        }
      ],
      "name": "number_of_out_for_delivery",
      "outputs": [
        {
          "internalType": "uint256",
          "name": "",
          "type": "uint256"
        }
      ],
      "stateMutability": "view",
      "type": "function"
    },
    {
      "inputs": [],
      "name": "owner",
      "outputs": [
        {
          "internalType": "address",
          "name": "",
          "type": "address"
        }
      ],
      "stateMutability": "view",
      "type": "function"
    },
    {
      "inputs": [
        {
          "internalType": "uint256",
          "name": "vac",
          "type": "uint256"
        },
        {
          "internalType": "uint256",
          "name": "qty",
          "type": "uint256"
        },
        {
          "internalType": "address",
          "name": "_admin",
          "type": "address"
        }
      ],
      "name": "receiveOrder",
      "outputs": [
        {
          "internalType": "bool",
          "name": "",
          "type": "bool"
        }
      ],
      "stateMutability": "nonpayable",
      "type": "function"
    },
    {
      "inputs": [
        {
          "internalType": "uint256",
          "name": "vac",
          "type": "uint256"
        },
        {
          "internalType": "uint256",
          "name": "qty",
          "type": "uint256"
        },
        {
          "internalType": "address",
          "name": "_admin",
          "type": "address"
        }
      ],
      "name": "createDelivery",
      "outputs": [],
      "stateMutability": "nonpayable",
      "type": "function"
    },
    {
      "inputs": [
        {
          "internalType": "address",
          "name": "delivery",
          "type": "address"
        },
        {
          "internalType": "uint256",
          "name": "vac",
          "type": "uint256"
        },
        {
          "internalType": "uint256",
          "name": "qty",
          "type": "uint256"
        }
      ],
      "name": "finishDelivery",
      "outputs": [],
      "stateMutability": "nonpayable",
      "type": "function"
    },
    {
      "inputs": [
        {
          "internalType": "uint256",
          "name": "vac",
          "type": "uint256"
        },
        {
          "internalType": "uint256",
          "name": "qty",
          "type": "uint256"
        }
      ],
      "name": "addStocks",
      "outputs": [],
      "stateMutability": "nonpayable",
      "type": "function"
    },
    {
      "inputs": [],
      "name": "getInfo",
      "outputs": [
        {
          "internalType": "address",
          "name": "",
          "type": "address"
        },
        {
          "components": [
            {
              "internalType": "uint256",
              "name": "a",
              "type": "uint256"
            },
            {
              "internalType": "uint256",
              "name": "b",
              "type": "uint256"
            },
            {
              "internalType": "uint256",
              "name": "c",
              "type": "uint256"
            },
            {
              "internalType": "uint256",
              "name": "d",
              "type": "uint256"
            }
          ],
          "internalType": "struct Manufacturer.stocks",
          "name": "",
          "type": "tuple"
        },
        {
          "components": [
            {
              "internalType": "uint256",
              "name": "a",
              "type": "uint256"
            },
            {
              "internalType": "uint256",
              "name": "b",
              "type": "uint256"
            },
            {
              "internalType": "uint256",
              "name": "c",
              "type": "uint256"
            },
            {
              "internalType": "uint256",
              "name": "d",
              "type": "uint256"
            }
          ],
          "internalType": "struct Manufacturer.stocks",
          "name": "",
          "type": "tuple"
        },
        {
          "components": [
            {
              "internalType": "uint256",
              "name": "a",
              "type": "uint256"
            },
            {
              "internalType": "uint256",
              "name": "b",
              "type": "uint256"
            },
            {
              "internalType": "uint256",
              "name": "c",
              "type": "uint256"
            },
            {
              "internalType": "uint256",
              "name": "d",
              "type": "uint256"
            }
          ],
          "internalType": "struct Manufacturer.stocks",
          "name": "",
          "type": "tuple"
        },
        {
          "internalType": "uint256",
          "name": "a",
          "type": "uint256"
        },
        {
          "internalType": "uint256",
          "name": "b",
          "type": "uint256"
        },
        {
          "internalType": "uint256",
          "name": "c",
          "type": "uint256"
        },
        {
          "internalType": "uint256",
          "name": "d",
          "type": "uint256"
        }
      ],
      "stateMutability": "view",
      "type": "function"
    },
    {
      "inputs": [],
      "name": "getAllDeliveries",
      "outputs": [
        {
          "internalType": "contract Delivery[]",
          "name": "",
          "type": "address[]"
        }
      ],
      "stateMutability": "view",
      "type": "function"
    },
    {
      "inputs": [
        {
          "internalType": "uint256",
          "name": "a",
          "type": "uint256"
        },
        {
          "internalType": "uint256",
          "name": "b",
          "type": "uint256"
        },
        {
          "internalType": "uint256",
          "name": "c",
          "type": "uint256"
        },
        {
          "internalType": "uint256",
          "name": "d",
          "type": "uint256"
        }
      ],
      "name": "setPrice",
      "outputs": [],
      "stateMutability": "nonpayable",
      "type": "function"
    }
  ],
  "bytecode": "0x60806040523480156200001157600080fd5b5060405162001929380380620019298339818101604052810190620000379190620000e8565b806000806101000a81548173ffffffffffffffffffffffffffffffffffffffff021916908373ffffffffffffffffffffffffffffffffffffffff160217905550506200011a565b600080fd5b600073ffffffffffffffffffffffffffffffffffffffff82169050919050565b6000620000b08262000083565b9050919050565b620000c281620000a3565b8114620000ce57600080fd5b50565b600081519050620000e281620000b7565b92915050565b6000602082840312156200010157620001006200007e565b5b60006200011184828501620000d1565b91505092915050565b6117ff806200012a6000396000f3fe60806040523480156200001157600080fd5b5060043610620000ab5760003560e01c80635fc50a2f116200006f5780635fc50a2f14620001855780638017b8d414620001bb5780638da5cb5b14620001db5780638f00c31514620001fd578063d176dd45146200021f57620000ab565b8062262b6c14620000b05780631b0e9bcd14620000d057806329e7ac4514620001065780634b58143e14620001265780635a9b0b89146200015c575b600080fd5b620000ce6004803603810190620000c89190620009b2565b6200023f565b005b620000ee6004803603810190620000e89190620009f9565b6200026f565b604051620000fd919062000a3c565b60405180910390f35b6200012460048036038101906200011e919062000abe565b62000287565b005b6200014460048036038101906200013e9190620009f9565b62000500565b60405162000153919062000a3c565b60405180910390f35b6200016662000518565b6040516200017c98979695949392919062000b99565b60405180910390f35b620001a360048036038101906200019d919062000abe565b620006d8565b604051620001b2919062000c49565b60405180910390f35b620001d96004803603810190620001d3919062000c66565b620007cc565b005b620001e562000866565b604051620001f4919062000cc2565b60405180910390f35b620002076200088a565b60405162000216919062000e07565b60405180910390f35b6200023d600480360381019062000237919062000e2b565b6200091a565b005b8060066000848152602001908152602001600020600082825462000264919062000ecc565b925050819055505050565b60086020528060005260406000206000915090505481565b81600560008373ffffffffffffffffffffffffffffffffffffffff1673ffffffffffffffffffffffffffffffffffffffff16815260200190815260200160002060008581526020019081526020016000205410156200031d576040517f08c379a0000000000000000000000000000000000000000000000000000000008152600401620003149062000f8a565b60405180910390fd5b81600560008373ffffffffffffffffffffffffffffffffffffffff1673ffffffffffffffffffffffffffffffffffffffff168152602001908152602001600020600085815260200190815260200160002060008282546200037f919062000fac565b9250508190555081600860008581526020019081526020016000206000828254620003ab919062000fac565b9250508190555060008060009054906101000a900473ffffffffffffffffffffffffffffffffffffffff16828585604051620003e7906200093c565b620003f6949392919062000fe7565b604051809103906000f08015801562000413573d6000803e3d6000fd5b50905082600760008373ffffffffffffffffffffffffffffffffffffffff1673ffffffffffffffffffffffffffffffffffffffff1681526020019081526020016000206000868152602001908152602001600020819055508260096000868152602001908152602001600020600082825462000490919062000ecc565b92505081905550600a819080600181540180825580915050600190039060005260206000200160009091909190916101000a81548173ffffffffffffffffffffffffffffffffffffffff021916908373ffffffffffffffffffffffffffffffffffffffff16021790555050505050565b60096020528060005260406000206000915090505481565b6000620005246200094a565b6200052e6200094a565b620005386200094a565b60008060008060008054906101000a900473ffffffffffffffffffffffffffffffffffffffff16604051806080016040528060066000600181526020019081526020016000205481526020016006600060028152602001908152602001600020548152602001600660006003815260200190815260200160002054815260200160066000600481526020019081526020016000205481525060405180608001604052806008600060018152602001908152602001600020548152602001600860006002815260200190815260200160002054815260200160086000600381526020019081526020016000205481526020016008600060048152602001908152602001600020548152506040518060800160405280600960006001815260200190815260200160002054815260200160096000600281526020019081526020016000205481526020016009600060038152602001908152602001600020548152602001600960006004815260200190815260200160002054815250600154600254600354600454975097509750975097509750975097509091929394959697565b600082600660008681526020019081526020016000205410620007c05782600560008473ffffffffffffffffffffffffffffffffffffffff1673ffffffffffffffffffffffffffffffffffffffff1681526020019081526020016000206000868152602001908152602001600020600082825462000757919062000ecc565b925050819055508260086000868152602001908152602001600020600082825462000783919062000ecc565b9250508190555082600660008681526020019081526020016000206000828254620007af919062000fac565b9250508190555060019050620007c5565b600090505b9392505050565b80600760008573ffffffffffffffffffffffffffffffffffffffff1673ffffffffffffffffffffffffffffffffffffffff168152602001908152602001600020600084815260200190815260200160002060008282546200082e919062000fac565b92505081905550806009600084815260200190815260200160002060008282546200085a919062000fac565b92505081905550505050565b60008054906101000a900473ffffffffffffffffffffffffffffffffffffffff1681565b6060600a8054806020026020016040519081016040528092919081815260200182805480156200091057602002820191906000526020600020905b8160009054906101000a900473ffffffffffffffffffffffffffffffffffffffff1673ffffffffffffffffffffffffffffffffffffffff1681526020019060010190808311620008c5575b5050505050905090565b8360018190555082600281905550816003819055508060048190555050505050565b610795806200103583390190565b6040518060800160405280600081526020016000815260200160008152602001600081525090565b600080fd5b6000819050919050565b6200098c8162000977565b81146200099857600080fd5b50565b600081359050620009ac8162000981565b92915050565b60008060408385031215620009cc57620009cb62000972565b5b6000620009dc858286016200099b565b9250506020620009ef858286016200099b565b9150509250929050565b60006020828403121562000a125762000a1162000972565b5b600062000a22848285016200099b565b91505092915050565b62000a368162000977565b82525050565b600060208201905062000a53600083018462000a2b565b92915050565b600073ffffffffffffffffffffffffffffffffffffffff82169050919050565b600062000a868262000a59565b9050919050565b62000a988162000a79565b811462000aa457600080fd5b50565b60008135905062000ab88162000a8d565b92915050565b60008060006060848603121562000ada5762000ad962000972565b5b600062000aea868287016200099b565b935050602062000afd868287016200099b565b925050604062000b108682870162000aa7565b9150509250925092565b62000b258162000a79565b82525050565b62000b368162000977565b82525050565b60808201600082015162000b54600085018262000b2b565b50602082015162000b69602085018262000b2b565b50604082015162000b7e604085018262000b2b565b50606082015162000b93606085018262000b2b565b50505050565b60006102208201905062000bb1600083018b62000b1a565b62000bc0602083018a62000b3c565b62000bcf60a083018962000b3c565b62000bdf61012083018862000b3c565b62000bef6101a083018762000a2b565b62000bff6101c083018662000a2b565b62000c0f6101e083018562000a2b565b62000c1f61020083018462000a2b565b9998505050505050505050565b60008115159050919050565b62000c438162000c2c565b82525050565b600060208201905062000c60600083018462000c38565b92915050565b60008060006060848603121562000c825762000c8162000972565b5b600062000c928682870162000aa7565b935050602062000ca5868287016200099b565b925050604062000cb8868287016200099b565b9150509250925092565b600060208201905062000cd9600083018462000b1a565b92915050565b600081519050919050565b600082825260208201905092915050565b6000819050602082019050919050565b6000819050919050565b600062000d3662000d3062000d2a8462000a59565b62000d0b565b62000a59565b9050919050565b600062000d4a8262000d15565b9050919050565b600062000d5e8262000d3d565b9050919050565b62000d708162000d51565b82525050565b600062000d84838362000d65565b60208301905092915050565b6000602082019050919050565b600062000daa8262000cdf565b62000db6818562000cea565b935062000dc38362000cfb565b8060005b8381101562000dfa57815162000dde888262000d76565b975062000deb8362000d90565b92505060018101905062000dc7565b5085935050505092915050565b6000602082019050818103600083015262000e23818462000d9d565b905092915050565b6000806000806080858703121562000e485762000e4762000972565b5b600062000e58878288016200099b565b945050602062000e6b878288016200099b565b935050604062000e7e878288016200099b565b925050606062000e91878288016200099b565b91505092959194509250565b7f4e487b7100000000000000000000000000000000000000000000000000000000600052601160045260246000fd5b600062000ed98262000977565b915062000ee68362000977565b9250827fffffffffffffffffffffffffffffffffffffffffffffffffffffffffffffffff0382111562000f1e5762000f1d62000e9d565b5b828201905092915050565b600082825260208201905092915050565b7f4f7264657220706c61636564206973206c657373000000000000000000000000600082015250565b600062000f7260148362000f29565b915062000f7f8262000f3a565b602082019050919050565b6000602082019050818103600083015262000fa58162000f63565b9050919050565b600062000fb98262000977565b915062000fc68362000977565b92508282101562000fdc5762000fdb62000e9d565b5b828203905092915050565b600060808201905062000ffe600083018762000b1a565b6200100d602083018662000b1a565b6200101c604083018562000a2b565b6200102b606083018462000a2b565b9594505050505056fe60806040526001600660006101000a81548160ff02191690831515021790555034801561002b57600080fd5b50604051610795380380610795833981810160405281019061004d919061017e565b836000806101000a81548173ffffffffffffffffffffffffffffffffffffffff021916908373ffffffffffffffffffffffffffffffffffffffff16021790555082600160006101000a81548173ffffffffffffffffffffffffffffffffffffffff021916908373ffffffffffffffffffffffffffffffffffffffff1602179055508160028190555080600381905550505050506101e5565b600080fd5b600073ffffffffffffffffffffffffffffffffffffffff82169050919050565b6000610115826100ea565b9050919050565b6101258161010a565b811461013057600080fd5b50565b6000815190506101428161011c565b92915050565b6000819050919050565b61015b81610148565b811461016657600080fd5b50565b60008151905061017881610152565b92915050565b60008060008060808587031215610198576101976100e5565b5b60006101a687828801610133565b94505060206101b787828801610133565b93505060406101c887828801610169565b92505060606101d987828801610169565b91505092959194509250565b6105a1806101f46000396000f3fe608060405234801561001057600080fd5b50600436106100575760003560e01c806310272d131461005c578063258b43d7146100665780634acc3a8e1461008257806356dcb0221461008c578063aae8107b146100a8575b600080fd5b6100646100c4565b005b610080600480360381019061007b91906102c8565b610181565b005b61008a61018b565b005b6100a660048036038101906100a1919061043b565b6101b7565b005b6100c260048036038101906100bd91906102c8565b6101d1565b005b6000600160009054906101000a900473ffffffffffffffffffffffffffffffffffffffff1690508073ffffffffffffffffffffffffffffffffffffffff1663750a49cc60025460035460008054906101000a900473ffffffffffffffffffffffffffffffffffffffff166040518463ffffffff1660e01b815260040161014c939291906104d4565b600060405180830381600087803b15801561016657600080fd5b505af115801561017a573d6000803e3d6000fd5b5050505050565b8060078190555050565b600660009054906101000a900460ff1615600660006101000a81548160ff021916908315150217905550565b80600490805190602001906101cd9291906101db565b5050565b8060058190555050565b8280546101e79061053a565b90600052602060002090601f0160209004810192826102095760008555610250565b82601f1061022257805160ff1916838001178555610250565b82800160010185558215610250579182015b8281111561024f578251825591602001919060010190610234565b5b50905061025d9190610261565b5090565b5b8082111561027a576000816000905550600101610262565b5090565b6000604051905090565b600080fd5b600080fd5b6000819050919050565b6102a581610292565b81146102b057600080fd5b50565b6000813590506102c28161029c565b92915050565b6000602082840312156102de576102dd610288565b5b60006102ec848285016102b3565b91505092915050565b600080fd5b600080fd5b6000601f19601f8301169050919050565b7f4e487b7100000000000000000000000000000000000000000000000000000000600052604160045260246000fd5b610348826102ff565b810181811067ffffffffffffffff8211171561036757610366610310565b5b80604052505050565b600061037a61027e565b9050610386828261033f565b919050565b600067ffffffffffffffff8211156103a6576103a5610310565b5b6103af826102ff565b9050602081019050919050565b82818337600083830152505050565b60006103de6103d98461038b565b610370565b9050828152602081018484840111156103fa576103f96102fa565b5b6104058482856103bc565b509392505050565b600082601f830112610422576104216102f5565b5b81356104328482602086016103cb565b91505092915050565b60006020828403121561045157610450610288565b5b600082013567ffffffffffffffff81111561046f5761046e61028d565b5b61047b8482850161040d565b91505092915050565b61048d81610292565b82525050565b600073ffffffffffffffffffffffffffffffffffffffff82169050919050565b60006104be82610493565b9050919050565b6104ce816104b3565b82525050565b60006060820190506104e96000830186610484565b6104f66020830185610484565b61050360408301846104c5565b949350505050565b7f4e487b7100000000000000000000000000000000000000000000000000000000600052602260045260246000fd5b6000600282049050600182168061055257607f821691505b6020821081036105655761056461050b565b5b5091905056fea2646970667358221220d52f890c657a1a0c8ab7378cfb2b9955adce8e53e506eba084cef4fa7802b0d164736f6c634300080d0033a2646970667358221220d6ee3ad7c81bfb9d3c4f3a9cb41c8cf52def993ca7d9397d27c2fde7c3017f1d64736f6c634300080d0033",
  "immutableReferences": {},
  "source": "// SPDX-License-Identifier: MIT\r\n\r\npragma solidity ^0.8.13;\r\n\r\nimport \"./Delivery.sol\";\r\n\r\ncontract Manufacturer {\r\n    address public owner;\r\n\r\n    uint price_a;\r\n    uint price_b;\r\n    uint price_c;\r\n    uint price_d;\r\n\r\n    struct stocks{\r\n        uint a;\r\n        uint b;\r\n        uint c;\r\n        uint d;\r\n    }\r\n\r\n    mapping(address => mapping(uint256 => uint256)) ordered_stocks;\r\n    mapping(uint256 => uint) available_stocks;\r\n    mapping(address => mapping(uint256 => uint256)) out_for_delivery;    \r\n    mapping(uint256 => uint256) public number_of_ordered_stocks;\r\n    mapping(uint256 => uint256) public number_of_out_for_delivery;\r\n    Delivery[] deliveries;\r\n\r\n    constructor(address add) {\r\n        owner = add;\r\n    }\r\n\r\n    function receiveOrder(\r\n        uint256 vac,\r\n        uint256 qty,\r\n        address _admin\r\n    ) public returns(bool){\r\n        if(available_stocks[vac] >= qty){\r\n            ordered_stocks[_admin][vac] += qty;\r\n            number_of_ordered_stocks[vac] += qty;\r\n            available_stocks[vac] -= qty;\r\n            return true;\r\n        }else{\r\n            return false;\r\n        }\r\n    }\r\n\r\n    function createDelivery(\r\n        uint256 vac,\r\n        uint256 qty,\r\n        address _admin\r\n    ) public {\r\n        require(ordered_stocks[_admin][vac] >= qty, \"Order placed is less\");\r\n        ordered_stocks[_admin][vac] -= qty;\r\n        number_of_ordered_stocks[vac] -= qty;\r\n        Delivery delivery = new Delivery(owner, _admin, vac, qty);\r\n        out_for_delivery[address(delivery)][vac] = qty;\r\n        number_of_out_for_delivery[vac] += qty;\r\n        deliveries.push(delivery);\r\n    }\r\n\r\n    function finishDelivery(\r\n        address delivery,\r\n        uint256 vac,\r\n        uint256 qty\r\n    ) public {\r\n        out_for_delivery[delivery][vac] -= qty;\r\n        number_of_out_for_delivery[vac] -= qty;\r\n    }\r\n\r\n    function addStocks(uint256 vac, uint256 qty) public {\r\n        available_stocks[vac] += qty;\r\n    }\r\n\r\n    function getInfo() public view returns(address, stocks memory, stocks memory, stocks memory, uint a, uint b, uint c, uint d){\r\n        return (\r\n            owner,\r\n            stocks(\r\n                available_stocks[1],\r\n                available_stocks[2],\r\n                available_stocks[3],\r\n                available_stocks[4]\r\n            ),\r\n            stocks(\r\n                number_of_ordered_stocks[1],\r\n                number_of_ordered_stocks[2],\r\n                number_of_ordered_stocks[3],\r\n                number_of_ordered_stocks[4]\r\n            ),\r\n            stocks(\r\n                number_of_out_for_delivery[1],\r\n                number_of_out_for_delivery[2],\r\n                number_of_out_for_delivery[3],\r\n                number_of_out_for_delivery[4]\r\n            ),\r\n            price_a,\r\n            price_b,\r\n            price_c,\r\n            price_d\r\n\r\n        );\r\n    }\r\n\r\n    function getAllDeliveries() public view returns(Delivery[] memory){\r\n        return deliveries;\r\n    }\r\n\r\n    function setPrice(uint a, uint b, uint c, uint d) public {\r\n        price_a = a;\r\n        price_b = b;\r\n        price_c = c;\r\n        price_d = d;\r\n    }\r\n}\r\n",
  "sourcePath": "C:\\Users\\mdzai\\Desktop\\VCSM-Blockchain\\contracts\\Manufacturer.sol",
  "compiler": {
    "name": "solc",
    "version": "0.8.13+commit.abaa5c0e.Emscripten.clang"
  },
  "schemaVersion": "3.4.7",
  "updatedAt": "2022-04-25T07:00:46.267Z",
  "devdoc": {
    "kind": "dev",
    "methods": {},
    "version": 1
  },
  "userdoc": {
    "kind": "user",
    "methods": {},
    "version": 1
  }
}