{
  "contractName": "People",
  "abi": [
    {
      "inputs": [],
      "stateMutability": "nonpayable",
      "type": "constructor"
    },
    {
      "inputs": [],
      "name": "num_of_doses",
      "outputs": [
        {
          "internalType": "uint256",
          "name": "",
          "type": "uint256"
        }
      ],
      "stateMutability": "view",
      "type": "function"
    },
    {
      "inputs": [],
      "name": "owner",
      "outputs": [
        {
          "internalType": "address",
          "name": "",
          "type": "address"
        }
      ],
      "stateMutability": "view",
      "type": "function"
    },
    {
      "inputs": [],
      "name": "vac",
      "outputs": [
        {
          "internalType": "uint256",
          "name": "",
          "type": "uint256"
        }
      ],
      "stateMutability": "view",
      "type": "function"
    },
    {
      "inputs": [
        {
          "internalType": "address",
          "name": "_admin",
          "type": "address"
        },
        {
          "internalType": "uint256",
          "name": "_vaccine",
          "type": "uint256"
        }
      ],
      "name": "registerFirstVaccine",
      "outputs": [],
      "stateMutability": "nonpayable",
      "type": "function"
    },
    {
      "inputs": [
        {
          "internalType": "address",
          "name": "_admin",
          "type": "address"
        }
      ],
      "name": "registerSecondVaccine",
      "outputs": [],
      "stateMutability": "nonpayable",
      "type": "function"
    },
    {
      "inputs": [],
      "name": "getNumOfDoses",
      "outputs": [
        {
          "internalType": "uint256",
          "name": "",
          "type": "uint256"
        }
      ],
      "stateMutability": "view",
      "type": "function"
    },
    {
      "inputs": [],
      "name": "getVaccineType",
      "outputs": [
        {
          "internalType": "uint256",
          "name": "",
          "type": "uint256"
        }
      ],
      "stateMutability": "view",
      "type": "function"
    },
    {
      "inputs": [],
      "name": "increaseNumOfDoses",
      "outputs": [],
      "stateMutability": "nonpayable",
      "type": "function"
    },
    {
      "inputs": [
        {
          "internalType": "uint256",
          "name": "_type",
          "type": "uint256"
        }
      ],
      "name": "setVaccineType",
      "outputs": [],
      "stateMutability": "nonpayable",
      "type": "function"
    }
  ],
  "bytecode": "0x6080604052600060025534801561001557600080fd5b50336000806101000a81548173ffffffffffffffffffffffffffffffffffffffff021916908373ffffffffffffffffffffffffffffffffffffffff16021790555061073b806100656000396000f3fe608060405234801561001057600080fd5b50600436106100935760003560e01c8063a3e0688011610066578063a3e06880146100f8578063a846118b14610114578063c2d4688514610132578063eb87047314610150578063f0ab19861461016e57610093565b80631be1500a1461009857806354c30984146100b457806368e7ad36146100d05780638da5cb5b146100da575b600080fd5b6100b260048036038101906100ad9190610442565b61018c565b005b6100ce60048036038101906100c99190610482565b610268565b005b6100d8610272565b005b6100e261028c565b6040516100ef91906104be565b60405180910390f35b610112600480360381019061010d91906104d9565b6102b0565b005b61011c610389565b6040516101299190610515565b60405180910390f35b61013a610393565b6040516101479190610515565b60405180910390f35b610158610399565b6040516101659190610515565b60405180910390f35b6101766103a3565b6040516101839190610515565b60405180910390f35b6000600254146101d1576040517f08c379a00000000000000000000000000000000000000000000000000000000081526004016101c8906105b3565b60405180910390fd5b60008290508073ffffffffffffffffffffffffffffffffffffffff1663fefd0e0b60008054906101000a900473ffffffffffffffffffffffffffffffffffffffff16846040518363ffffffff1660e01b81526004016102319291906105d3565b600060405180830381600087803b15801561024b57600080fd5b505af115801561025f573d6000803e3d6000fd5b50505050505050565b8060018190555050565b600260008154809291906102859061062b565b9190505550565b60008054906101000a900473ffffffffffffffffffffffffffffffffffffffff1681565b6001600254146102f5576040517f08c379a00000000000000000000000000000000000000000000000000000000081526004016102ec906106e5565b60405180910390fd5b60008190508073ffffffffffffffffffffffffffffffffffffffff16636730a63d60008054906101000a900473ffffffffffffffffffffffffffffffffffffffff166040518263ffffffff1660e01b815260040161035391906104be565b600060405180830381600087803b15801561036d57600080fd5b505af1158015610381573d6000803e3d6000fd5b505050505050565b6000600154905090565b60015481565b6000600254905090565b60025481565b600080fd5b600073ffffffffffffffffffffffffffffffffffffffff82169050919050565b60006103d9826103ae565b9050919050565b6103e9816103ce565b81146103f457600080fd5b50565b600081359050610406816103e0565b92915050565b6000819050919050565b61041f8161040c565b811461042a57600080fd5b50565b60008135905061043c81610416565b92915050565b60008060408385031215610459576104586103a9565b5b6000610467858286016103f7565b92505060206104788582860161042d565b9150509250929050565b600060208284031215610498576104976103a9565b5b60006104a68482850161042d565b91505092915050565b6104b8816103ce565b82525050565b60006020820190506104d360008301846104af565b92915050565b6000602082840312156104ef576104ee6103a9565b5b60006104fd848285016103f7565b91505092915050565b61050f8161040c565b82525050565b600060208201905061052a6000830184610506565b92915050565b600082825260208201905092915050565b7f546869732062656e65666963696172792068617320616c72656164792068617660008201527f652069747320666972737420646f7365206f662076616363696e650000000000602082015250565b600061059d603b83610530565b91506105a882610541565b604082019050919050565b600060208201905081810360008301526105cc81610590565b9050919050565b60006040820190506105e860008301856104af565b6105f56020830184610506565b9392505050565b7f4e487b7100000000000000000000000000000000000000000000000000000000600052601160045260246000fd5b60006106368261040c565b91507fffffffffffffffffffffffffffffffffffffffffffffffffffffffffffffffff8203610668576106676105fc565b5b600182019050919050565b7f546869732062656e656669636961727920686173206e6f74206861766520697460008201527f7320666972737420646f7365206f662076616363696e65000000000000000000602082015250565b60006106cf603783610530565b91506106da82610673565b604082019050919050565b600060208201905081810360008301526106fe816106c2565b905091905056fea264697066735822122045099af1e5beb8c99a31dc388ec9c16623fcbc2ecd1dab033929387124c0808f64736f6c634300080d0033",
  "immutableReferences": {},
  "source": "// SPDX-License-Identifier: MIT\r\n\r\npragma solidity ^0.8.13;\r\n\r\nimport \"./Admin.sol\";\r\n\r\ncontract People{\r\n    address public owner;\r\n\r\n    uint public vac;\r\n    uint public num_of_doses = 0;\r\n\r\n    constructor(){\r\n        owner = msg.sender;\r\n    }\r\n\r\n    function registerFirstVaccine(address _admin, uint _vaccine) public {\r\n        require(num_of_doses == 0, \"This beneficiary has already have its first dose of vaccine\");\r\n        Admin admin = Admin(_admin);\r\n        admin.registerBeneficiaryFirstVaccine(owner, _vaccine);\r\n    }\r\n\r\n    function registerSecondVaccine(address _admin) public {\r\n        require(num_of_doses == 1, \"This beneficiary has not have its first dose of vaccine\");\r\n        Admin admin = Admin(_admin);\r\n        admin.registerBeneficiarySecondVaccine(owner);\r\n    }\r\n\r\n    function getNumOfDoses() public view returns(uint){\r\n        return num_of_doses;\r\n    }\r\n\r\n    function getVaccineType() public view returns(uint){\r\n        return vac;\r\n    }\r\n\r\n    function increaseNumOfDoses() public{\r\n        num_of_doses++;\r\n    }\r\n\r\n    function setVaccineType(uint _type) public{\r\n        vac = _type;\r\n    }\r\n\r\n}",
  "sourcePath": "C:\\Users\\mdzai\\Desktop\\VCSM-Blockchain\\contracts\\People.sol",
  "compiler": {
    "name": "solc",
    "version": "0.8.13+commit.abaa5c0e.Emscripten.clang"
  },
  "schemaVersion": "3.4.7",
  "updatedAt": "2022-04-13T19:39:35.873Z",
  "devdoc": {
    "kind": "dev",
    "methods": {},
    "version": 1
  },
  "userdoc": {
    "kind": "user",
    "methods": {},
    "version": 1
  }
}